{
  "address": "0x15b7658FD3f2cF5fb8e4bC6862F949A2864Dd53D",
  "abi": [
    {
      "anonymous": false,
      "inputs": [
        {
          "indexed": true,
          "internalType": "address",
          "name": "previousOwner",
          "type": "address"
        },
        {
          "indexed": true,
          "internalType": "address",
          "name": "newOwner",
          "type": "address"
        }
      ],
      "name": "OwnershipTransferred",
      "type": "event"
    },
    {
      "inputs": [
        {
          "internalType": "string",
          "name": "size",
          "type": "string"
        },
        {
          "internalType": "string",
          "name": "spirit",
          "type": "string"
        },
        {
          "internalType": "string",
          "name": "age",
          "type": "string"
        },
        {
          "internalType": "string",
          "name": "resource",
          "type": "string"
        },
        {
          "internalType": "string",
          "name": "morale",
          "type": "string"
        },
        {
          "internalType": "string",
          "name": "government",
          "type": "string"
        },
        {
          "internalType": "string",
          "name": "realm",
          "type": "string"
        },
        {
          "internalType": "uint256",
          "name": "unharvestedTokenAmount",
          "type": "uint256"
        },
        {
          "internalType": "string",
          "name": "tokenSymbol",
          "type": "string"
        }
      ],
      "name": "_makeAttributeParts",
      "outputs": [
        {
          "internalType": "string[18]",
          "name": "",
          "type": "string[18]"
        }
      ],
      "stateMutability": "pure",
      "type": "function"
    },
    {
      "inputs": [
        {
          "internalType": "string[18]",
          "name": "parts",
          "type": "string[18]"
        }
      ],
      "name": "_makeLegacyAttributeParts",
      "outputs": [
        {
          "internalType": "string[18]",
          "name": "",
          "type": "string[18]"
        }
      ],
      "stateMutability": "pure",
      "type": "function"
    },
    {
      "inputs": [
        {
          "internalType": "string",
          "name": "size",
          "type": "string"
        },
        {
          "internalType": "string",
          "name": "spirit",
          "type": "string"
        },
        {
          "internalType": "string",
          "name": "age",
          "type": "string"
        },
        {
          "internalType": "string",
          "name": "resource",
          "type": "string"
        },
        {
          "internalType": "string",
          "name": "morale",
          "type": "string"
        },
        {
          "internalType": "string",
          "name": "government",
          "type": "string"
        },
        {
          "internalType": "string",
          "name": "realm",
          "type": "string"
        }
      ],
      "name": "_makeLegacyParts",
      "outputs": [
        {
          "internalType": "string[18]",
          "name": "",
          "type": "string[18]"
        }
      ],
      "stateMutability": "pure",
      "type": "function"
    },
    {
      "inputs": [
        {
          "internalType": "string",
          "name": "size",
          "type": "string"
        },
        {
          "internalType": "string",
          "name": "spirit",
          "type": "string"
        },
        {
          "internalType": "string",
          "name": "age",
          "type": "string"
        },
        {
          "internalType": "string",
          "name": "resource",
          "type": "string"
        },
        {
          "internalType": "string",
          "name": "morale",
          "type": "string"
        },
        {
          "internalType": "string",
          "name": "government",
          "type": "string"
        },
        {
          "internalType": "string",
          "name": "realm",
          "type": "string"
        },
        {
          "internalType": "uint256",
          "name": "unharvestedTokenAmount",
          "type": "uint256"
        },
        {
          "internalType": "string",
          "name": "tokenSymbol",
          "type": "string"
        }
      ],
      "name": "_makeParts",
      "outputs": [
        {
          "internalType": "string[18]",
          "name": "",
          "type": "string[18]"
        }
      ],
      "stateMutability": "pure",
      "type": "function"
    },
    {
      "inputs": [
        {
          "internalType": "uint256",
          "name": "",
          "type": "uint256"
        }
      ],
      "name": "civMultipliers",
      "outputs": [
        {
          "internalType": "uint8",
          "name": "",
          "type": "uint8"
        }
      ],
      "stateMutability": "view",
      "type": "function"
    },
    {
      "inputs": [
        {
          "internalType": "uint256",
          "name": "tokenId",
          "type": "uint256"
        },
        {
          "components": [
            {
              "internalType": "uint8",
              "name": "size",
              "type": "uint8"
            },
            {
              "internalType": "uint8",
              "name": "spirit",
              "type": "uint8"
            },
            {
              "internalType": "uint8",
              "name": "age",
              "type": "uint8"
            },
            {
              "internalType": "uint8",
              "name": "resource",
              "type": "uint8"
            },
            {
              "internalType": "uint8",
              "name": "morale",
              "type": "uint8"
            },
            {
              "internalType": "uint8",
              "name": "government",
              "type": "uint8"
            },
            {
              "internalType": "uint8",
              "name": "turns",
              "type": "uint8"
            }
          ],
          "internalType": "struct SettlementsV2.Attributes",
          "name": "attributes",
          "type": "tuple"
        }
      ],
      "name": "getUnharvestedTokens",
      "outputs": [
        {
          "internalType": "contract ERC20Mintable",
          "name": "",
          "type": "address"
        },
        {
          "internalType": "uint256",
          "name": "",
          "type": "uint256"
        }
      ],
      "stateMutability": "view",
      "type": "function"
    },
    {
      "inputs": [
        {
          "internalType": "uint256",
          "name": "",
          "type": "uint256"
        }
      ],
      "name": "moralMultipliers",
      "outputs": [
        {
          "internalType": "uint8",
          "name": "",
          "type": "uint8"
        }
      ],
      "stateMutability": "view",
      "type": "function"
    },
    {
      "inputs": [],
      "name": "owner",
      "outputs": [
        {
          "internalType": "address",
          "name": "",
          "type": "address"
        }
      ],
      "stateMutability": "view",
      "type": "function"
    },
    {
      "inputs": [
        {
          "internalType": "uint256",
          "name": "",
          "type": "uint256"
        }
      ],
      "name": "realmMultipliers",
      "outputs": [
        {
          "internalType": "uint8",
          "name": "",
          "type": "uint8"
        }
      ],
      "stateMutability": "view",
      "type": "function"
    },
    {
      "inputs": [],
      "name": "renounceOwnership",
      "outputs": [],
      "stateMutability": "nonpayable",
      "type": "function"
    },
    {
      "inputs": [
        {
          "internalType": "uint8[]",
          "name": "civMultipliers_",
          "type": "uint8[]"
        },
        {
          "internalType": "uint8[]",
          "name": "realmMultipliers_",
          "type": "uint8[]"
        },
        {
          "internalType": "uint8[]",
          "name": "moralMultipliers_",
          "type": "uint8[]"
        }
      ],
      "name": "setMultipliers",
      "outputs": [],
      "stateMutability": "nonpayable",
      "type": "function"
    },
    {
      "inputs": [
        {
          "components": [
            {
              "internalType": "string",
              "name": "size",
              "type": "string"
            },
            {
              "internalType": "string",
              "name": "spirit",
              "type": "string"
            },
            {
              "internalType": "string",
              "name": "age",
              "type": "string"
            },
            {
              "internalType": "string",
              "name": "resource",
              "type": "string"
            },
            {
              "internalType": "string",
              "name": "morale",
              "type": "string"
            },
            {
              "internalType": "string",
              "name": "government",
              "type": "string"
            },
            {
              "internalType": "string",
              "name": "realm",
              "type": "string"
            }
          ],
          "internalType": "struct Helpers.TokenURIInput",
          "name": "tokenURIInput",
          "type": "tuple"
        },
        {
          "internalType": "uint256",
          "name": "unharvestedTokenAmount",
          "type": "uint256"
        },
        {
          "internalType": "string",
          "name": "tokenSymbol",
          "type": "string"
        },
        {
          "internalType": "bool",
          "name": "useLegacy",
          "type": "bool"
        },
        {
          "internalType": "uint256",
          "name": "tokenId",
          "type": "uint256"
        }
      ],
      "name": "tokenURI",
      "outputs": [
        {
          "internalType": "string",
          "name": "",
          "type": "string"
        }
      ],
      "stateMutability": "view",
      "type": "function"
    },
    {
      "inputs": [
        {
          "internalType": "address",
          "name": "newOwner",
          "type": "address"
        }
      ],
      "name": "transferOwnership",
      "outputs": [],
      "stateMutability": "nonpayable",
      "type": "function"
    }
  ],
  "transactionHash": "0x3b3ac538e422d3f81070f16c4838c40a1444642a4b8231416f0cb33204f393ee",
  "args": [],
  "solcInputHash": "89dde8893a47faeed56e3c94e31e88e8",
  "bytecode": "0x608060405234801561001057600080fd5b5061001a3361001f565b61006f565b600080546001600160a01b038381166001600160a01b0319831681178455604051919092169283917f8be0079c531659141344cd1fd0a4f28419497f9722a3daafe3b4186f6b6457e09190a35050565b61256d8061007e6000396000f3fe608060405234801561001057600080fd5b50600436106100df5760003560e01c8063778b75c21161008c578063a41a54a611610066578063a41a54a6146101bf578063cdac4745146101d2578063f2fde38b146101e5578063ffa0f0a5146101f857600080fd5b8063778b75c21461017e5780637db127df146101915780638da5cb5b146101a457600080fd5b80635f197aa3116100bd5780635f197aa31461014e5780636db99c6d14610161578063715018a61461017457600080fd5b80630c7699c4146100e45780630f14d01a1461010e5780632254adf71461012e575b600080fd5b6100f76100f2366004611a29565b61022a565b60405160ff90911681526020015b60405180910390f35b61012161011c3660046118a8565b61025e565b6040516101059190611ffc565b61014161013c366004611518565b61054a565b6040516101059190611fae565b6100f761015c366004611a29565b610699565b6100f761016f366004611a29565b6106a9565b61017c6106b9565b005b61014161018c366004611767565b610724565b61017c61019f3660046115b4565b610908565b6000546040516001600160a01b039091168152602001610105565b6101416101cd366004611767565b6109a3565b6101416101e0366004611654565b610b7b565b61017c6101f33660046114f5565b610cc6565b61020b610206366004611a59565b610d91565b604080516001600160a01b039093168352602083019190915201610105565b6003818154811061023a57600080fd5b9060005260206000209060209182820401919006915054906101000a900460ff1681565b60606102686112f7565b6102706112f7565b84156102d8576102a1886000015189602001518a604001518b606001518c608001518d60a001518e60c00151610b7b565b91506102d161013c89600001518a602001518b604001518c606001518d608001518e60a001518f60c00151610b7b565b9050610337565b610305886000015189602001518a604001518b606001518c608001518d60a001518e60c001518e8e610724565b9150610334886000015189602001518a604001518b606001518c608001518d60a001518e60c001518e8e6109a3565b90505b81516020808401516040808601516060870151608088015160a089015160c08a015160e08b01516101008c0151965160009a6103779a9099989101611c4e565b60408051808303601f19018152908290526101208501516101408601516101608701516101808801516101a08901516101c08a01516101e08b01516102008c01519799506103ca988a9890602001611c4e565b60408051808303601f19018152908290526102208501519092506103f391839190602001611b36565b60408051808303601f190181528282528451602080870151938701516060880151608089015160a08a015160c08b015160e08c01516101008d0151989b5060009a61044d9a98999697959694959394929391929101611c4e565b60408051808303601f19018152908290526101208501516101408601516101608701516101808801516101a08901516101c08a015195975061049496889690602001611bbc565b60408051808303601f19018152908290526101e08501516102008601516102208701519294506104c993859390602001611b65565b604051602081830303815290604052905060006105186104e888610fea565b6104f185611124565b8460405160200161050493929190611e38565b604051602081830303815290604052611124565b90508060405160200161052b9190611df3565b6040516020818303038152906040529550505050505095945050505050565b6105526112f7565b61055a6112f7565b6040518060600160405280602381526020016121f6602391398152602083810151818301526040805160608101909152602980825290916123dc9083013960408083019190915260608085015181840152815190810190915260268082526123676020830139608082015260a080840151908201526040805160608101909152602b80825261246d602083013960c082015260e0808401519082015260408051606081019091526029808252612498602083013961010082015261012080840151908201526040805160608101909152602d8082526121a2602083013961014082015261016080840151908201526040805160608101909152602880825261233f60208301396101808201526101a092830151928101929092525060408051808201909152600481526322207d5d60e01b60208201526101c082015290565b6001818154811061023a57600080fd5b6002818154811061023a57600080fd5b6000546001600160a01b031633146107185760405162461bcd60e51b815260206004820181905260248201527f4f776e61626c653a2063616c6c6572206973206e6f7420746865206f776e657260448201526064015b60405180910390fd5b610722600061129a565b565b61072c6112f7565b6107346112f7565b60405180610120016040528060fe815260200161221960fe9139815260208082018c905260408051606081019091526027808252909161238d9083013960408083019190915260608083018c9052815190810190915260278082526124c16020830139608082015260a08101899052604080516060810190915260278082526121cf602083013960c082015260e081018890526040805160608101909152602880825261251060208301396101008201526101208101879052604080516060810190915260288082526123b4602083013961014082015261016081018690526040805160608101909152602880825261244560208301396101808201526101a08101859052604080516060810190915260288082526124e860208301396101c082015260408051808201909152600c81527f2d2d2d2d2d2d2d2d2d2d2d2d0000000000000000000000000000000000000000602082015281600f602002018190525060405180606001604052806028815260200161231760289139610200820152826108d06108cb670de0b6b3a7640000876120a5565b610fea565b6040516020016108e1929190611d8f565b60408051601f198184030181529190528160115b60200201529a9950505050505050505050565b6000546001600160a01b031633146109625760405162461bcd60e51b815260206004820181905260248201527f4f776e61626c653a2063616c6c6572206973206e6f7420746865206f776e6572604482015260640161070f565b825161097590600190602086019061131f565b50815161098990600290602085019061131f565b50805161099d90600390602084019061131f565b50505050565b6109ab6112f7565b6109b36112f7565b6040518060600160405280602381526020016121f660239139815260208082018c90526040805160608101909152602980825290916123dc9083013960408083019190915260608083018c9052815190810190915260268082526123676020830139608082015260a081018990526040805160608101909152602b80825261246d602083013960c082015260e0810188905260408051606081019091526029808252612498602083013961010082015261012081018790526040805160608101909152602d8082526121a2602083013961014082015261016081018690526040805160608101909152602880825261233f60208301396101808201526101a0810185905260408051808201909152601581527f22207d2c207b202274726169745f74797065223a200000000000000000000000602082015281600e602002018190525082604051602001610b079190611d0f565b60408051808303601f190181529190526101e0820152610b326108cb670de0b6b3a7640000866120a5565b604051602001610b429190611d61565b60408051808303601f1901815291815261020083019190915280518082019091526003815262207d5d60e81b60208201528160116108f5565b610b836112f7565b610b8b6112f7565b60405180610120016040528060fe815260200161221960fe9139815260208082018a905260408051606081019091526027808252909161238d9083013960408083019190915260608083018a9052815190810190915260278082526124c16020830139608082015260a08101879052604080516060810190915260278082526121cf602083013960c082015260e081018690526040805160608101909152602880825261251060208301396101008201526101208101859052604080516060810190915260288082526123b4602083013961014082015261016081018490526040805160608101909152602880825261244560208301396101808201526101a08101929092525060408051808201909152600d81526c1e17ba32bc3a1f1e17b9bb339f60991b60208201526101c08201529695505050505050565b6000546001600160a01b03163314610d205760405162461bcd60e51b815260206004820181905260248201527f4f776e61626c653a2063616c6c6572206973206e6f7420746865206f776e6572604482015260640161070f565b6001600160a01b038116610d855760405162461bcd60e51b815260206004820152602660248201527f4f776e61626c653a206e6577206f776e657220697320746865207a65726f206160448201526564647265737360d01b606482015260840161070f565b610d8e8161129a565b50565b604051630684d07760e41b815260048101839052600090819033908290829063684d07709060240160206040518083038186803b158015610dd157600080fd5b505afa158015610de5573d6000803e3d6000fd5b505050506040513d601f19601f82011682018060405250810190610e099190611a41565b90506000610e1782436120d8565b60608701516040516376a9506760e11b815260ff90911660048201529091506000906001600160a01b0385169063ed52a0ce9060240160206040518083038186803b158015610e6557600080fd5b505afa158015610e79573d6000803e3d6000fd5b505050506040513d601f19601f82011682018060405250810190610e9d9190611638565b9050811580610eaa575082155b15610ebe57945060009350610fe392505050565b600060028860c0015160ff1681548110610ee857634e487b7160e01b600052603260045260246000fd5b6000918252602080832090820401548a516001805460ff601f9095166101000a909304841695509216908110610f2e57634e487b7160e01b600052603260045260246000fd5b60009182526020808320908204015460808c01516003805460ff601f9095166101000a909304841695509216908110610f7757634e487b7160e01b600052603260045260246000fd5b60009182526020808320908204015460ff601f9092166101000a9004169150606484670de0b6b3a764000084610fad8a886120b9565b610fb791906120b9565b610fc191906120b9565b610fcb91906120b9565b610fd591906120a5565b949950939750505050505050505b9250929050565b60608161100e5750506040805180820190915260018152600360fc1b602082015290565b8160005b811561103857806110228161211b565b91506110319050600a836120a5565b9150611012565b60008167ffffffffffffffff81111561106157634e487b7160e01b600052604160045260246000fd5b6040519080825280601f01601f19166020018201604052801561108b576020820181803683370190505b5090505b841561111c576110a06001836120d8565b91506110ad600a86612136565b6110b890603061208d565b60f81b8183815181106110db57634e487b7160e01b600052603260045260246000fd5b60200101907effffffffffffffffffffffffffffffffffffffffffffffffffffffffffffff1916908160001a905350611115600a866120a5565b945061108f565b949350505050565b606081516000141561114457505060408051602081019091526000815290565b60006040518060600160405280604081526020016124056040913990506000600384516002611173919061208d565b61117d91906120a5565b6111889060046120b9565b9050600061119782602061208d565b67ffffffffffffffff8111156111bd57634e487b7160e01b600052604160045260246000fd5b6040519080825280601f01601f1916602001820160405280156111e7576020820181803683370190505b509050818152600183018586518101602084015b818310156112555760039283018051603f601282901c811687015160f890811b8552600c83901c8216880151811b6001860152600683901c8216880151811b60028601529116860151901b938201939093526004016111fb565b60038951066001811461126f57600281146112805761128c565b613d3d60f01b60011983015261128c565b603d60f81b6000198301525b509398975050505050505050565b600080546001600160a01b0383811673ffffffffffffffffffffffffffffffffffffffff19831681178455604051919092169283917f8be0079c531659141344cd1fd0a4f28419497f9722a3daafe3b4186f6b6457e09190a35050565b6040518061024001604052806012905b60608152602001906001900390816113075790505090565b82805482825590600052602060002090601f016020900481019282156113b55791602002820160005b8382111561138657835183826101000a81548160ff021916908360ff1602179055509260200192600101602081600001049283019260010302611348565b80156113b35782816101000a81549060ff0219169055600101602081600001049283019260010302611386565b505b506113c19291506113c5565b5090565b5b808211156113c157600081556001016113c6565b600082601f8301126113ea578081fd5b8135602067ffffffffffffffff82111561140657611406612176565b8160051b61141582820161205c565b83815282810190868401838801850189101561142f578687fd5b8693505b8584101561145857611444816114e4565b835260019390930192918401918401611433565b50979650505050505050565b8035801515811461147457600080fd5b919050565b600082601f830112611489578081fd5b813567ffffffffffffffff8111156114a3576114a3612176565b6114b6601f8201601f191660200161205c565b8181528460208386010111156114ca578283fd5b816020850160208301379081016020019190915292915050565b803560ff8116811461147457600080fd5b600060208284031215611506578081fd5b81356115118161218c565b9392505050565b6000602080838503121561152a578182fd5b823567ffffffffffffffff80821115611541578384fd5b818501915085601f830112611554578384fd5b61155c61200f565b8083886102408601111561156e578687fd5b865b60128110156115a657813585811115611587578889fd5b6115938b828901611479565b8552509286019290860190600101611570565b509098975050505050505050565b6000806000606084860312156115c8578182fd5b833567ffffffffffffffff808211156115df578384fd5b6115eb878388016113da565b94506020860135915080821115611600578384fd5b61160c878388016113da565b93506040860135915080821115611621578283fd5b5061162e868287016113da565b9150509250925092565b600060208284031215611649578081fd5b81516115118161218c565b600080600080600080600060e0888a03121561166e578283fd5b873567ffffffffffffffff80821115611685578485fd5b6116918b838c01611479565b985060208a01359150808211156116a6578485fd5b6116b28b838c01611479565b975060408a01359150808211156116c7578485fd5b6116d38b838c01611479565b965060608a01359150808211156116e8578485fd5b6116f48b838c01611479565b955060808a0135915080821115611709578485fd5b6117158b838c01611479565b945060a08a013591508082111561172a578384fd5b6117368b838c01611479565b935060c08a013591508082111561174b578283fd5b506117588a828b01611479565b91505092959891949750929550565b60008060008060008060008060006101208a8c031215611785578182fd5b893567ffffffffffffffff8082111561179c578384fd5b6117a88d838e01611479565b9a5060208c01359150808211156117bd578384fd5b6117c98d838e01611479565b995060408c01359150808211156117de578384fd5b6117ea8d838e01611479565b985060608c01359150808211156117ff578384fd5b61180b8d838e01611479565b975060808c0135915080821115611820578384fd5b61182c8d838e01611479565b965060a08c0135915080821115611841578384fd5b61184d8d838e01611479565b955060c08c0135915080821115611862578384fd5b61186e8d838e01611479565b945060e08c013593506101008c013591508082111561188b578283fd5b506118988c828d01611479565b9150509295985092959850929598565b600080600080600060a086880312156118bf578283fd5b853567ffffffffffffffff808211156118d6578485fd5b9087019060e0828a0312156118e9578485fd5b6118f1612039565b8235828111156118ff578687fd5b61190b8b828601611479565b82525060208301358281111561191f578687fd5b61192b8b828601611479565b602083015250604083013582811115611942578687fd5b61194e8b828601611479565b604083015250606083013582811115611965578687fd5b6119718b828601611479565b606083015250608083013582811115611988578687fd5b6119948b828601611479565b60808301525060a0830135828111156119ab578687fd5b6119b78b828601611479565b60a08301525060c0830135828111156119ce578687fd5b6119da8b828601611479565b60c08301525096506020880135955060408801359150808211156119fc578485fd5b50611a0988828901611479565b935050611a1860608701611464565b949793965091946080013592915050565b600060208284031215611a3a578081fd5b5035919050565b600060208284031215611a52578081fd5b5051919050565b600080828403610100811215611a6d578283fd5b8335925060e0601f1982011215611a82578182fd5b50611a8b612039565b611a97602085016114e4565b8152611aa5604085016114e4565b6020820152611ab6606085016114e4565b6040820152611ac7608085016114e4565b6060820152611ad860a085016114e4565b6080820152611ae960c085016114e4565b60a0820152611afa60e085016114e4565b60c0820152809150509250929050565b60008151808452611b228160208601602086016120ef565b601f01601f19169290920160200192915050565b60008351611b488184602088016120ef565b835190830190611b5c8183602088016120ef565b01949350505050565b60008551611b77818460208a016120ef565b855190830190611b8b818360208a016120ef565b8551910190611b9e8183602089016120ef565b8451910190611bb18183602088016120ef565b019695505050505050565b600088516020611bcf8285838e016120ef565b895191840191611be28184848e016120ef565b8951920191611bf48184848d016120ef565b8851920191611c068184848c016120ef565b8751920191611c188184848b016120ef565b8651920191611c2a8184848a016120ef565b8551920191611c3c81848489016120ef565b919091019a9950505050505050505050565b60008a51611c60818460208f016120ef565b8a51611c728183860160208f016120ef565b8a519184010190611c87818360208e016120ef565b8951611c998183850160208e016120ef565b8951929091010190611caf818360208c016120ef565b8751611cc18183850160208c016120ef565b8751929091010190611cd7818360208a016120ef565b8551611ce98183850160208a016120ef565b8551929091010190611cff8183602088016120ef565b019b9a5050505050505050505050565b61088960f21b81528151600090611d2d8160028501602087016120ef565b7f222c202276616c7565223a2000000000000000000000000000000000000000006002939091019283015250600e01919050565b6000601160f91b8083528351611d7e8160018601602088016120ef565b600193019283015250600201919050565b600960fa1b815260008351611dab8160018501602088016120ef565b6101d160f51b6001918401918201528351611dcd8160038401602088016120ef565b6c1e17ba32bc3a1f1e17b9bb339f60991b60039290910191820152601001949350505050565b7f646174613a6170706c69636174696f6e2f6a736f6e3b6261736536342c000000815260008251611e2b81601d8501602087016120ef565b91909101601d0192915050565b7f7b226e616d65223a2022536574746c656d656e74202300000000000000000000815260008451611e708160168501602089016120ef565b7f222c20226465736372697074696f6e223a2022536574746c656d656e747320616016918401918201527f72652061207475726e20626173656420636976696c69736174696f6e2073696d60368201527f756c61746f722073746f72656420656e746972656c79206f6e20636861696e2c60568201527f20676f20666f72746820616e6420636f6e717565722e222c2022696d6167652260768201527f3a2022646174613a696d6167652f7376672b786d6c3b6261736536342c00000060968201528451611f458160b38401602089016120ef565b601160f91b60b392909101918201527f2c2261747472696275746573223a00000000000000000000000000000000000060b48201528351611f8d8160c28401602088016120ef565b611fa360c282840101607d60f81b815260010190565b979650505050505050565b6020808252600090610260830183820185845b6012811015611ff057601f19878503018352611fde848351611b0a565b93509184019190840190600101611fc1565b50919695505050505050565b6020815260006115116020830184611b0a565b604051610240810167ffffffffffffffff8111828210171561203357612033612176565b60405290565b60405160e0810167ffffffffffffffff8111828210171561203357612033612176565b604051601f8201601f1916810167ffffffffffffffff8111828210171561208557612085612176565b604052919050565b600082198211156120a0576120a061214a565b500190565b6000826120b4576120b4612160565b500490565b60008160001904831182151516156120d3576120d361214a565b500290565b6000828210156120ea576120ea61214a565b500390565b60005b8381101561210a5781810151838201526020016120f2565b8381111561099d5750506000910152565b600060001982141561212f5761212f61214a565b5060010190565b60008261214557612145612160565b500690565b634e487b7160e01b600052601160045260246000fd5b634e487b7160e01b600052601260045260246000fd5b634e487b7160e01b600052604160045260246000fd5b6001600160a01b0381168114610d8e57600080fdfe22207d2c207b202274726169745f74797065223a2022476f7665726e6d656e74222c202276616c7565223a20223c2f746578743e3c7465787420783d2231302220793d2238302220636c6173733d22747874223e5b7b202274726169745f74797065223a202253697a65222c202276616c7565223a20223c73766720786d6c6e733d22687474703a2f2f7777772e77332e6f72672f323030302f73766722207072657365727665417370656374526174696f3d22784d696e594d696e206d656574222076696577426f783d223020302033353020333530223e3c7374796c653e2e747874207b2066696c6c3a20626c61636b3b20666f6e742d66616d696c793a206d6f6e6f73706163653b20666f6e742d73697a653a20313270783b7d3c2f7374796c653e3c726563742077696474683d223130302522206865696768743d2231303025222066696c6c3d22776869746522202f3e3c7465787420783d2231302220793d2232302220636c6173733d22747874223e3c2f746578743e3c7465787420783d2231302220793d223138302220636c6173733d22747874223e22207d2c207b202274726169745f74797065223a20225265616c6d222c202276616c7565223a202222207d2c207b202274726169745f74797065223a2022416765222c202276616c7565223a20223c2f746578743e3c7465787420783d2231302220793d2234302220636c6173733d22747874223e3c2f746578743e3c7465787420783d2231302220793d223132302220636c6173733d22747874223e22207d2c207b202274726169745f74797065223a2022537069726974222c202276616c7565223a20224142434445464748494a4b4c4d4e4f505152535455565758595a6162636465666768696a6b6c6d6e6f707172737475767778797a303132333435363738392b2f3c2f746578743e3c7465787420783d2231302220793d223134302220636c6173733d22747874223e22207d2c207b202274726169745f74797065223a20225265736f75726365222c202276616c7565223a202222207d2c207b202274726169745f74797065223a20224d6f72616c65222c202276616c7565223a20223c2f746578743e3c7465787420783d2231302220793d2236302220636c6173733d22747874223e3c2f746578743e3c7465787420783d2231302220793d223136302220636c6173733d22747874223e3c2f746578743e3c7465787420783d2231302220793d223130302220636c6173733d22747874223ea2646970667358221220970e6688f95e211823495e3ea61e9feab07184f7d857895c9b5381c1209156fc64736f6c63430008040033",
  "devdoc": {
    "kind": "dev",
    "methods": {
      "owner()": {
        "details": "Returns the address of the current owner."
      },
      "renounceOwnership()": {
        "details": "Leaves the contract without owner. It will not be possible to call `onlyOwner` functions anymore. Can only be called by the current owner. NOTE: Renouncing ownership will leave the contract without an owner, thereby removing any functionality that is only available to the owner."
      },
      "transferOwnership(address)": {
        "details": "Transfers ownership of the contract to a new account (`newOwner`). Can only be called by the current owner."
      }
    },
    "version": 1
  },
  "userdoc": {
    "kind": "user",
    "methods": {},
    "version": 1
  },
  "storageLayout": {
    "storage": [
      {
        "astId": 7,
        "contract": "contracts/Helper.sol:Helpers",
        "label": "_owner",
        "offset": 0,
        "slot": "0",
        "type": "t_address"
      },
      {
        "astId": 5039,
        "contract": "contracts/Helper.sol:Helpers",
        "label": "civMultipliers",
        "offset": 0,
        "slot": "1",
        "type": "t_array(t_uint8)dyn_storage"
      },
      {
        "astId": 5042,
        "contract": "contracts/Helper.sol:Helpers",
        "label": "realmMultipliers",
        "offset": 0,
        "slot": "2",
        "type": "t_array(t_uint8)dyn_storage"
      },
      {
        "astId": 5045,
        "contract": "contracts/Helper.sol:Helpers",
        "label": "moralMultipliers",
        "offset": 0,
        "slot": "3",
        "type": "t_array(t_uint8)dyn_storage"
      }
    ],
    "types": {
      "t_address": {
        "encoding": "inplace",
        "label": "address",
        "numberOfBytes": "20"
      },
      "t_array(t_uint8)dyn_storage": {
        "base": "t_uint8",
        "encoding": "dynamic_array",
        "label": "uint8[]",
        "numberOfBytes": "32"
      },
      "t_uint8": {
        "encoding": "inplace",
        "label": "uint8",
        "numberOfBytes": "1"
      }
    }
  }
}