{
  "address": "0x2Be67E29bc32EAC3BA234493bCC2D8B23502B9E1",
  "abi": [
    {
      "anonymous": false,
      "inputs": [
        {
          "indexed": true,
          "internalType": "address",
          "name": "previousOwner",
          "type": "address"
        },
        {
          "indexed": true,
          "internalType": "address",
          "name": "newOwner",
          "type": "address"
        }
      ],
      "name": "OwnershipTransferred",
      "type": "event"
    },
    {
      "inputs": [
        {
          "internalType": "uint256",
          "name": "",
          "type": "uint256"
        }
      ],
      "name": "climateMultipliers",
      "outputs": [
        {
          "internalType": "uint8",
          "name": "",
          "type": "uint8"
        }
      ],
      "stateMutability": "view",
      "type": "function"
    },
    {
      "inputs": [
        {
          "components": [
            {
              "internalType": "uint256",
              "name": "tokenId",
              "type": "uint256"
            },
            {
              "internalType": "contract ERC20Mintable",
              "name": "resourceTokenContract",
              "type": "address"
            },
            {
              "internalType": "string",
              "name": "resource",
              "type": "string"
            },
            {
              "internalType": "string",
              "name": "climate",
              "type": "string"
            },
            {
              "internalType": "string",
              "name": "terrain",
              "type": "string"
            },
            {
              "internalType": "uint32",
              "name": "area",
              "type": "uint32"
            },
            {
              "internalType": "uint32",
              "name": "maxPopulation",
              "type": "uint32"
            },
            {
              "internalType": "uint32",
              "name": "population",
              "type": "uint32"
            },
            {
              "internalType": "uint8",
              "name": "taxRate",
              "type": "uint8"
            }
          ],
          "internalType": "struct Islands.Island",
          "name": "islandInfo",
          "type": "tuple"
        }
      ],
      "name": "getAttrOutput",
      "outputs": [
        {
          "internalType": "string",
          "name": "",
          "type": "string"
        }
      ],
      "stateMutability": "view",
      "type": "function"
    },
    {
      "inputs": [
        {
          "components": [
            {
              "internalType": "uint256",
              "name": "tokenId",
              "type": "uint256"
            },
            {
              "internalType": "contract ERC20Mintable",
              "name": "resourceTokenContract",
              "type": "address"
            },
            {
              "internalType": "string",
              "name": "resource",
              "type": "string"
            },
            {
              "internalType": "string",
              "name": "climate",
              "type": "string"
            },
            {
              "internalType": "string",
              "name": "terrain",
              "type": "string"
            },
            {
              "internalType": "uint32",
              "name": "area",
              "type": "uint32"
            },
            {
              "internalType": "uint32",
              "name": "maxPopulation",
              "type": "uint32"
            },
            {
              "internalType": "uint32",
              "name": "population",
              "type": "uint32"
            },
            {
              "internalType": "uint8",
              "name": "taxRate",
              "type": "uint8"
            }
          ],
          "internalType": "struct Islands.Island",
          "name": "islandInfo",
          "type": "tuple"
        }
      ],
      "name": "getImageOutput",
      "outputs": [
        {
          "internalType": "string",
          "name": "",
          "type": "string"
        }
      ],
      "stateMutability": "view",
      "type": "function"
    },
    {
      "inputs": [
        {
          "internalType": "uint256",
          "name": "tokenId",
          "type": "uint256"
        }
      ],
      "name": "getTaxIncome",
      "outputs": [
        {
          "internalType": "contract ERC20Mintable",
          "name": "",
          "type": "address"
        },
        {
          "internalType": "uint256",
          "name": "",
          "type": "uint256"
        }
      ],
      "stateMutability": "view",
      "type": "function"
    },
    {
      "inputs": [],
      "name": "islandContract",
      "outputs": [
        {
          "internalType": "contract Islands",
          "name": "",
          "type": "address"
        }
      ],
      "stateMutability": "view",
      "type": "function"
    },
    {
      "inputs": [],
      "name": "owner",
      "outputs": [
        {
          "internalType": "address",
          "name": "",
          "type": "address"
        }
      ],
      "stateMutability": "view",
      "type": "function"
    },
    {
      "inputs": [],
      "name": "renounceOwnership",
      "outputs": [],
      "stateMutability": "nonpayable",
      "type": "function"
    },
    {
      "inputs": [
        {
          "internalType": "contract Islands",
          "name": "islandContract_",
          "type": "address"
        }
      ],
      "name": "setIslandsContract",
      "outputs": [],
      "stateMutability": "nonpayable",
      "type": "function"
    },
    {
      "inputs": [
        {
          "internalType": "uint8[]",
          "name": "climateMultipliers_",
          "type": "uint8[]"
        },
        {
          "internalType": "uint8[]",
          "name": "terrainMultipliers_",
          "type": "uint8[]"
        }
      ],
      "name": "setMultipliers",
      "outputs": [],
      "stateMutability": "nonpayable",
      "type": "function"
    },
    {
      "inputs": [
        {
          "internalType": "uint256",
          "name": "",
          "type": "uint256"
        }
      ],
      "name": "terrainMultipliers",
      "outputs": [
        {
          "internalType": "uint8",
          "name": "",
          "type": "uint8"
        }
      ],
      "stateMutability": "view",
      "type": "function"
    },
    {
      "inputs": [
        {
          "internalType": "uint256",
          "name": "tokenId",
          "type": "uint256"
        }
      ],
      "name": "tokenURI",
      "outputs": [
        {
          "internalType": "string",
          "name": "",
          "type": "string"
        }
      ],
      "stateMutability": "view",
      "type": "function"
    },
    {
      "inputs": [
        {
          "internalType": "address",
          "name": "newOwner",
          "type": "address"
        }
      ],
      "name": "transferOwnership",
      "outputs": [],
      "stateMutability": "nonpayable",
      "type": "function"
    }
  ],
  "transactionHash": "0x73ed1510a0de9768dd636ce11a905974357526c3fcdeb9eb7b8267ddbf1a595d",
  "args": [],
  "solcInputHash": "5cbb750ae53c51ff114987cf993f8ecc",
  "bytecode": "0x608060405234801561001057600080fd5b5061001a3361001f565b61006f565b600080546001600160a01b038381166001600160a01b0319831681178455604051919092169283917f8be0079c531659141344cd1fd0a4f28419497f9722a3daafe3b4186f6b6457e09190a35050565b611f028061007e6000396000f3fe608060405234801561001057600080fd5b50600436106100b45760003560e01c80638da5cb5b116100715780638da5cb5b146101705780639641a89114610181578063c26c0692146101a1578063c87b56dd146101b4578063e44b875d146101c7578063f2fde38b146101da57600080fd5b80631854f243146100b9578063643d40fa146100ce578063659c1893146100f85780636997e8f614610123578063715018a6146101555780638b09f4171461015d575b600080fd5b6100cc6100c7366004610ee8565b6101ed565b005b6100e16100dc36600461127e565b610242565b60405160ff90911681526020015b60405180910390f35b60015461010b906001600160a01b031681565b6040516001600160a01b0390911681526020016100ef565b61013661013136600461127e565b610276565b604080516001600160a01b0390931683526020830191909152016100ef565b6100cc61050f565b6100e161016b36600461127e565b610545565b6000546001600160a01b031661010b565b61019461018f366004611065565b610555565b6040516100ef9190611c68565b6101946101af366004611065565b610632565b6101946101c236600461127e565b6107e0565b6100cc6101d5366004610f0b565b6108ed565b6100cc6101e8366004610ee8565b610943565b6000546001600160a01b031633146102205760405162461bcd60e51b815260040161021790611c9b565b60405180910390fd5b600180546001600160a01b0319166001600160a01b0392909216919091179055565b6003818154811061025257600080fd5b9060005260206000209060209182820401919006915054906101000a900460ff1681565b60015460405163521e874960e01b815260048101839052600091829182916001600160a01b03169063521e87499060240160c06040518083038186803b1580156102bf57600080fd5b505afa1580156102d3573d6000803e3d6000fd5b505050506040513d601f19601f820116820180604052508101906102f79190610fbb565b6001548151604051634eb414c360e01b815260ff90911660048201529192506000916001600160a01b0390911690634eb414c39060240160206040518083038186803b15801561034657600080fd5b505afa15801561035a573d6000803e3d6000fd5b505050506040513d601f19601f8201168201806040525081019061037e9190610f6c565b600154604051630684d07760e41b8152600481018890529192506000916001600160a01b039091169063684d07709060240160206040518083038186803b1580156103c857600080fd5b505afa1580156103dc573d6000803e3d6000fd5b505050506040513d601f19601f820116820180604052508101906104009190611296565b9050600061040e8243611d9e565b90506000633b9aca00670de0b6b3a76400008660a0015163ffffffff16876060015160ff166003896040015160ff168154811061045b57634e487b7160e01b600052603260045260246000fd5b90600052602060002090602091828204019190069054906101000a900460ff1660ff1660028a6020015160ff16815481106104a657634e487b7160e01b600052603260045260246000fd5b6000918252602091829020918104909101546104ce91601f166101000a900460ff1688611d7f565b6104d89190611d7f565b6104e29190611d7f565b6104ec9190611d7f565b6104f69190611d7f565b6105009190611d6b565b93989397509295505050505050565b6000546001600160a01b031633146105395760405162461bcd60e51b815260040161021790611c9b565b61054360006109de565b565b6002818154811061025257600080fd5b60606000806105678460000151610276565b91509150600084606001518560800151866040015161058f8860a0015163ffffffff16610a2e565b6105a28960e0015163ffffffff16610a2e565b6105b38a610100015160ff16610a2e565b6040516020016105c896959493929190611805565b6040516020818303038152906040529050806105ed8660c0015163ffffffff16610a2e565b610607610602670de0b6b3a764000086611d6b565b610a2e565b60405160200161061993929190611457565b60408051601f1981840301815291905295945050505050565b606060008260600151836080015184604001516106588660a0015163ffffffff16610a2e565b604051602001610668919061142d565b60408051601f1981840301815290829052610688949392916020016115a8565b60405160208183030381529060405290506000806106a98560000151610276565b91509150826106c18660e0015163ffffffff16610a2e565b6106d48760c0015163ffffffff16610a2e565b6040516020016106e5929190611b81565b60405160208183030381529060405261070587610100015160ff16610a2e565b604051602001610715919061156b565b60408051601f1981840301815291905261073a610602670de0b6b3a764000086611d6b565b856001600160a01b03166395d89b416040518163ffffffff1660e01b815260040160006040518083038186803b15801561077357600080fd5b505afa158015610787573d6000803e3d6000fd5b505050506040513d6000823e601f3d908101601f191682016040526107af9190810190610f88565b6040516020016107c0929190611c13565b60408051601f1981840301815290829052610619949392916020016112ca565b600154604051639a84b6bd60e01b8152600481018390526060916000916001600160a01b0390911690639a84b6bd9060240160006040518083038186803b15801561082a57600080fd5b505afa15801561083e573d6000803e3d6000fd5b505050506040513d6000823e601f3d908101601f191682016040526108669190810190611179565b9050600061087382610632565b9050600061088083610555565b905060006108c061089087610a2e565b61089985610b50565b846040516020016108ac93929190611a43565b604051602081830303815290604052610b50565b9050806040516020016108d39190611bce565b604051602081830303815290604052945050505050919050565b6000546001600160a01b031633146109175760405162461bcd60e51b815260040161021790611c9b565b815161092a906002906020850190610cc6565b50805161093e906003906020840190610cc6565b505050565b6000546001600160a01b0316331461096d5760405162461bcd60e51b815260040161021790611c9b565b6001600160a01b0381166109d25760405162461bcd60e51b815260206004820152602660248201527f4f776e61626c653a206e6577206f776e657220697320746865207a65726f206160448201526564647265737360d01b6064820152608401610217565b6109db816109de565b50565b600080546001600160a01b038381166001600160a01b0319831681178455604051919092169283917f8be0079c531659141344cd1fd0a4f28419497f9722a3daafe3b4186f6b6457e09190a35050565b606081610a525750506040805180820190915260018152600360fc1b602082015290565b8160005b8115610a7c5780610a6681611de5565b9150610a759050600a83611d6b565b9150610a56565b60008167ffffffffffffffff811115610aa557634e487b7160e01b600052604160045260246000fd5b6040519080825280601f01601f191660200182016040528015610acf576020820181803683370190505b5090505b8415610b4857610ae4600183611d9e565b9150610af1600a86611e00565b610afc906030611d53565b60f81b818381518110610b1f57634e487b7160e01b600052603260045260246000fd5b60200101906001600160f81b031916908160001a905350610b41600a86611d6b565b9450610ad3565b949350505050565b6060815160001415610b7057505060408051602081019091526000815290565b6000604051806060016040528060408152602001611e8d6040913990506000600384516002610b9f9190611d53565b610ba99190611d6b565b610bb4906004611d7f565b90506000610bc3826020611d53565b67ffffffffffffffff811115610be957634e487b7160e01b600052604160045260246000fd5b6040519080825280601f01601f191660200182016040528015610c13576020820181803683370190505b509050818152600183018586518101602084015b81831015610c815760039283018051603f601282901c811687015160f890811b8552600c83901c8216880151811b6001860152600683901c8216880151811b60028601529116860151901b93820193909352600401610c27565b600389510660018114610c9b5760028114610cac57610cb8565b613d3d60f01b600119830152610cb8565b603d60f81b6000198301525b509398975050505050505050565b82805482825590600052602060002090601f01602090048101928215610d5c5791602002820160005b83821115610d2d57835183826101000a81548160ff021916908360ff1602179055509260200192600101602081600001049283019260010302610cef565b8015610d5a5782816101000a81549060ff0219169055600101602081600001049283019260010302610d2d565b505b50610d68929150610d6c565b5090565b5b80821115610d685760008155600101610d6d565b600082601f830112610d91578081fd5b8135602067ffffffffffffffff821115610dad57610dad611e40565b8160051b610dbc828201611cfa565b838152828101908684018388018501891015610dd6578687fd5b8693505b85841015610e01578035610ded81611e7d565b835260019390930192918401918401610dda565b50979650505050505050565b8035610e1881611e56565b919050565b8051610e1881611e56565b600082601f830112610e38578081fd5b8135610e4b610e4682611d2b565b611cfa565b818152846020838601011115610e5f578283fd5b816020850160208301379081016020019190915292915050565b600082601f830112610e89578081fd5b8151610e97610e4682611d2b565b818152846020838601011115610eab578283fd5b610b48826020830160208701611db5565b8035610e1881611e6b565b8051610e1881611e6b565b8035610e1881611e7d565b8051610e1881611e7d565b600060208284031215610ef9578081fd5b8135610f0481611e56565b9392505050565b60008060408385031215610f1d578081fd5b823567ffffffffffffffff80821115610f34578283fd5b610f4086838701610d81565b93506020850135915080821115610f55578283fd5b50610f6285828601610d81565b9150509250929050565b600060208284031215610f7d578081fd5b8151610f0481611e56565b600060208284031215610f99578081fd5b815167ffffffffffffffff811115610faf578182fd5b610b4884828501610e79565b600060c08284031215610fcc578081fd5b60405160c0810181811067ffffffffffffffff82111715610fef57610fef611e40565b6040528251610ffd81611e7d565b8152602083015161100d81611e7d565b6020820152604083015161102081611e7d565b6040820152606083015161103381611e7d565b6060820152608083015161104681611e6b565b608082015260a083015161105981611e6b565b60a08201529392505050565b600060208284031215611076578081fd5b813567ffffffffffffffff8082111561108d578283fd5b9083019061012082860312156110a1578283fd5b6110a9611cd0565b823581526110b960208401610e0d565b60208201526040830135828111156110cf578485fd5b6110db87828601610e28565b6040830152506060830135828111156110f2578485fd5b6110fe87828601610e28565b606083015250608083013582811115611115578485fd5b61112187828601610e28565b60808301525061113360a08401610ebc565b60a082015261114460c08401610ebc565b60c082015261115560e08401610ebc565b60e0820152610100915061116a828401610ed2565b91810191909152949350505050565b60006020828403121561118a578081fd5b815167ffffffffffffffff808211156111a1578283fd5b9083019061012082860312156111b5578283fd5b6111bd611cd0565b825181526111cd60208401610e1d565b60208201526040830151828111156111e3578485fd5b6111ef87828601610e79565b604083015250606083015182811115611206578485fd5b61121287828601610e79565b606083015250608083015182811115611229578485fd5b61123587828601610e79565b60808301525061124760a08401610ec7565b60a082015261125860c08401610ec7565b60c082015261126960e08401610ec7565b60e0820152610100915061116a828401610edd565b60006020828403121561128f578081fd5b5035919050565b6000602082840312156112a7578081fd5b5051919050565b600081516112c0818560208601611db5565b9290920192915050565b600085516112dc818460208a01611db5565b8551908301906112f0818360208a01611db5565b8082019150507f3c2f746578743e3c7465787420783d2231302220793d223132302220636c6173815267399e913a3c3a111f60c11b8060208301526b2d2d2d2d2d2d2d2d2d2d2d2d60a01b60288301527f3c2f746578743e3c7465787420783d2231302220793d223134302220636c61736034830152806054830152855161137f81605c850160208a01611db5565b7f3c2f746578743e3c7465787420783d2231302220793d223136302220636c6173605c9390910192830152607c82015283516113c2816084840160208801611db5565b6114216114086084838501017f3c2f746578743e3c7465787420783d2231302220793d223138302220636c6173815267399e913a3c3a111f60c11b602082015260280190565b6c1e17ba32bc3a1f1e17b9bb339f60991b8152600d0190565b98975050505050505050565b6000825161143f818460208701611db5565b65207371206d6960d01b920191825250600601919050565b60008451611469818460208901611db5565b80830190507f207d2c207b202274726169745f74797065223a20224d617820506f70756c617481527f696f6e222c2022646973706c61795f74797065223a20226e756d626572222c206020820152680113b30b63ab2911d160bd1b604082015284516114dc816049840160208901611db5565b7f207d2c207b202274726169745f74797065223a202254617820496e636f6d6522604992909101918201527f2c2022646973706c61795f74797065223a20226e756d626572222c202276616c60698201526403ab2911d160dd1b6089820152835161154e81608e840160208801611db5565b62207d5d60e81b608e929091019182015260910195945050505050565b6902a30bc102930ba329d160b51b81526000825161159081600a850160208701611db5565b602560f81b600a939091019283015250600b01919050565b7f3c73766720786d6c6e733d22687474703a2f2f7777772e77332e6f72672f323081527f30302f73766722207072657365727665417370656374526174696f3d22784d6960208201527f6e594d696e206d656574222076696577426f783d22302030203335302033353060408201527f223e3c7374796c653e2e747874207b2066696c6c3a20626c61636b3b20666f6e60608201527f742d66616d696c793a206d6f6e6f73706163653b20666f6e742d73697a653a2060808201527f313270783b7d3c2f7374796c653e3c726563742077696474683d22313030252260a08201527f206865696768743d2231303025222066696c6c3d22776869746522202f3e3c7460c08201527f65787420783d2231302220793d2232302220636c6173733d22747874223e000060e0820152600085516116ea8160fe850160208a01611db5565b7f3c2f746578743e3c7465787420783d2231302220793d2234302220636c61737360fe91840191820152661e913a3c3a111f60c91b61011e8201526117fa6117c06117ba61178161177b61174261012587018c6112ae565b7f3c2f746578743e3c7465787420783d2231302220793d2236302220636c6173738152661e913a3c3a111f60c91b602082015260270190565b896112ae565b7f3c2f746578743e3c7465787420783d2231302220793d2238302220636c6173738152661e913a3c3a111f60c91b602082015260270190565b866112ae565b7f3c2f746578743e3c7465787420783d2231302220793d223130302220636c6173815267399e913a3c3a111f60c11b602082015260280190565b979650505050505050565b7f5b7b202274726169745f74797065223a2022436c696d617465222c202276616c8152653ab2911d101160d11b60208201526000875161184c816026850160208c01611db5565b7f22207d2c207b202274726169745f74797065223a202254657261696e222c2022602691840191820152683b30b63ab2911d101160b91b6046820152875161189b81604f840160208c01611db5565b7f22207d2c207b202274726169745f74797065223a20225265736f75726365222c604f92909101918201526a10113b30b63ab2911d101160a91b606f82015286516118ed81607a840160208b01611db5565b7f22207d2c207b202274726169745f74797065223a20224172656120287371206d607a92909101918201527f6929222c2022646973706c61795f74797065223a20226e756d626572222c2022609a8201526703b30b63ab2911d160c51b60ba820152611a36611a306119cb6119c561196860c286018b6112ae565b7f207d2c207b202274726169745f74797065223a2022506f70756c6174696f6e2281527f2c2022646973706c61795f74797065223a20226e756d626572222c202276616c60208201526403ab2911d160dd1b604082015260450190565b886112ae565b7f207d2c207b202274726169745f74797065223a20225461782052617465222c2081527f22646973706c61795f74797065223a2022626f6f73745f70657263656e74616760208201526c032911610113b30b63ab2911d1609d1b6040820152604d0190565b856112ae565b9998505050505050505050565b717b226e616d65223a202249736c616e64202360701b81528351600090611a71816012850160208901611db5565b7f222c20226465736372697074696f6e223a202249736c616e64732063616e20626012918401918201527f6520646973636f766572656420616e642068617276657374656420666f72207460328201527f68656972207265736f75726365732e20416c6c2064617461206973206f6e636860528201527f61696e2e222c2022696d616765223a2022646174613a696d6167652f7376672b60728201526a1e1b5b0ed8985cd94d8d0b60aa1b60928201528451611b3481609d840160208901611db5565b7001116101130ba3a3934b13aba32b9911d1607d1b609d92909101918201528351611b668160ae840160208801611db5565b607d60f81b60ae929091019182015260af0195945050505050565b6402837b817160dd1b815260008351611ba1816005850160208801611db5565b602f60f81b6005918401918201528351611bc2816006840160208801611db5565b01600601949350505050565b7f646174613a6170706c69636174696f6e2f6a736f6e3b6261736536342c000000815260008251611c0681601d850160208701611db5565b91909101601d0192915050565b6b02a30bc1024b731b7b6b29d160a51b815260008351611c3a81600c850160208801611db5565b61080960f21b600c918401918201528351611c5c81600e840160208801611db5565b01600e01949350505050565b6020815260008251806020840152611c87816040850160208701611db5565b601f01601f19169190910160400192915050565b6020808252818101527f4f776e61626c653a2063616c6c6572206973206e6f7420746865206f776e6572604082015260600190565b604051610120810167ffffffffffffffff81118282101715611cf457611cf4611e40565b60405290565b604051601f8201601f1916810167ffffffffffffffff81118282101715611d2357611d23611e40565b604052919050565b600067ffffffffffffffff821115611d4557611d45611e40565b50601f01601f191660200190565b60008219821115611d6657611d66611e14565b500190565b600082611d7a57611d7a611e2a565b500490565b6000816000190483118215151615611d9957611d99611e14565b500290565b600082821015611db057611db0611e14565b500390565b60005b83811015611dd0578181015183820152602001611db8565b83811115611ddf576000848401525b50505050565b6000600019821415611df957611df9611e14565b5060010190565b600082611e0f57611e0f611e2a565b500690565b634e487b7160e01b600052601160045260246000fd5b634e487b7160e01b600052601260045260246000fd5b634e487b7160e01b600052604160045260246000fd5b6001600160a01b03811681146109db57600080fd5b63ffffffff811681146109db57600080fd5b60ff811681146109db57600080fdfe4142434445464748494a4b4c4d4e4f505152535455565758595a6162636465666768696a6b6c6d6e6f707172737475767778797a303132333435363738392b2fa26469706673582212201fd344ab47c0dee843b27d38c174b8838bc62942810d8aa08d972e926f4ba40a64736f6c63430008040033",
  "devdoc": {
    "kind": "dev",
    "methods": {
      "owner()": {
        "details": "Returns the address of the current owner."
      },
      "renounceOwnership()": {
        "details": "Leaves the contract without owner. It will not be possible to call `onlyOwner` functions anymore. Can only be called by the current owner. NOTE: Renouncing ownership will leave the contract without an owner, thereby removing any functionality that is only available to the owner."
      },
      "transferOwnership(address)": {
        "details": "Transfers ownership of the contract to a new account (`newOwner`). Can only be called by the current owner."
      }
    },
    "version": 1
  },
  "userdoc": {
    "kind": "user",
    "methods": {},
    "version": 1
  },
  "storageLayout": {
    "storage": [
      {
        "astId": 7,
        "contract": "contracts/IslandsHelper.sol:IslandsHelper",
        "label": "_owner",
        "offset": 0,
        "slot": "0",
        "type": "t_address"
      },
      {
        "astId": 5847,
        "contract": "contracts/IslandsHelper.sol:IslandsHelper",
        "label": "islandContract",
        "offset": 0,
        "slot": "1",
        "type": "t_contract(Islands)5830"
      },
      {
        "astId": 5850,
        "contract": "contracts/IslandsHelper.sol:IslandsHelper",
        "label": "climateMultipliers",
        "offset": 0,
        "slot": "2",
        "type": "t_array(t_uint8)dyn_storage"
      },
      {
        "astId": 5853,
        "contract": "contracts/IslandsHelper.sol:IslandsHelper",
        "label": "terrainMultipliers",
        "offset": 0,
        "slot": "3",
        "type": "t_array(t_uint8)dyn_storage"
      }
    ],
    "types": {
      "t_address": {
        "encoding": "inplace",
        "label": "address",
        "numberOfBytes": "20"
      },
      "t_array(t_uint8)dyn_storage": {
        "base": "t_uint8",
        "encoding": "dynamic_array",
        "label": "uint8[]",
        "numberOfBytes": "32"
      },
      "t_contract(Islands)5830": {
        "encoding": "inplace",
        "label": "contract Islands",
        "numberOfBytes": "20"
      },
      "t_uint8": {
        "encoding": "inplace",
        "label": "uint8",
        "numberOfBytes": "1"
      }
    }
  }
}