{
  "address": "0x028779091b6AbE976b7b322684B0e0A0832f3ec1",
  "abi": [
    {
      "anonymous": false,
      "inputs": [
        {
          "indexed": true,
          "internalType": "address",
          "name": "owner",
          "type": "address"
        },
        {
          "indexed": true,
          "internalType": "address",
          "name": "approved",
          "type": "address"
        },
        {
          "indexed": true,
          "internalType": "uint256",
          "name": "tokenId",
          "type": "uint256"
        }
      ],
      "name": "Approval",
      "type": "event"
    },
    {
      "anonymous": false,
      "inputs": [
        {
          "indexed": true,
          "internalType": "address",
          "name": "owner",
          "type": "address"
        },
        {
          "indexed": true,
          "internalType": "address",
          "name": "operator",
          "type": "address"
        },
        {
          "indexed": false,
          "internalType": "bool",
          "name": "approved",
          "type": "bool"
        }
      ],
      "name": "ApprovalForAll",
      "type": "event"
    },
    {
      "anonymous": false,
      "inputs": [
        {
          "indexed": true,
          "internalType": "address",
          "name": "previousOwner",
          "type": "address"
        },
        {
          "indexed": true,
          "internalType": "address",
          "name": "newOwner",
          "type": "address"
        }
      ],
      "name": "OwnershipTransferred",
      "type": "event"
    },
    {
      "anonymous": false,
      "inputs": [
        {
          "indexed": true,
          "internalType": "address",
          "name": "from",
          "type": "address"
        },
        {
          "indexed": true,
          "internalType": "address",
          "name": "to",
          "type": "address"
        },
        {
          "indexed": true,
          "internalType": "uint256",
          "name": "tokenId",
          "type": "uint256"
        }
      ],
      "name": "Transfer",
      "type": "event"
    },
    {
      "inputs": [
        {
          "internalType": "uint256",
          "name": "",
          "type": "uint256"
        }
      ],
      "name": "_ages",
      "outputs": [
        {
          "internalType": "string",
          "name": "",
          "type": "string"
        }
      ],
      "stateMutability": "view",
      "type": "function"
    },
    {
      "inputs": [
        {
          "internalType": "uint256",
          "name": "",
          "type": "uint256"
        }
      ],
      "name": "_governments",
      "outputs": [
        {
          "internalType": "string",
          "name": "",
          "type": "string"
        }
      ],
      "stateMutability": "view",
      "type": "function"
    },
    {
      "inputs": [
        {
          "internalType": "uint256",
          "name": "",
          "type": "uint256"
        }
      ],
      "name": "_morales",
      "outputs": [
        {
          "internalType": "string",
          "name": "",
          "type": "string"
        }
      ],
      "stateMutability": "view",
      "type": "function"
    },
    {
      "inputs": [
        {
          "internalType": "uint256",
          "name": "",
          "type": "uint256"
        }
      ],
      "name": "_realms",
      "outputs": [
        {
          "internalType": "string",
          "name": "",
          "type": "string"
        }
      ],
      "stateMutability": "view",
      "type": "function"
    },
    {
      "inputs": [
        {
          "internalType": "uint256",
          "name": "",
          "type": "uint256"
        }
      ],
      "name": "_resources",
      "outputs": [
        {
          "internalType": "string",
          "name": "",
          "type": "string"
        }
      ],
      "stateMutability": "view",
      "type": "function"
    },
    {
      "inputs": [
        {
          "internalType": "uint256",
          "name": "",
          "type": "uint256"
        }
      ],
      "name": "_sizes",
      "outputs": [
        {
          "internalType": "string",
          "name": "",
          "type": "string"
        }
      ],
      "stateMutability": "view",
      "type": "function"
    },
    {
      "inputs": [
        {
          "internalType": "uint256",
          "name": "",
          "type": "uint256"
        }
      ],
      "name": "_spirits",
      "outputs": [
        {
          "internalType": "string",
          "name": "",
          "type": "string"
        }
      ],
      "stateMutability": "view",
      "type": "function"
    },
    {
      "inputs": [
        {
          "internalType": "address",
          "name": "to",
          "type": "address"
        },
        {
          "internalType": "uint256",
          "name": "tokenId",
          "type": "uint256"
        }
      ],
      "name": "approve",
      "outputs": [],
      "stateMutability": "nonpayable",
      "type": "function"
    },
    {
      "inputs": [
        {
          "internalType": "uint256",
          "name": "",
          "type": "uint256"
        }
      ],
      "name": "attrIndex",
      "outputs": [
        {
          "internalType": "uint8",
          "name": "size",
          "type": "uint8"
        },
        {
          "internalType": "uint8",
          "name": "spirit",
          "type": "uint8"
        },
        {
          "internalType": "uint8",
          "name": "age",
          "type": "uint8"
        },
        {
          "internalType": "uint8",
          "name": "resource",
          "type": "uint8"
        },
        {
          "internalType": "uint8",
          "name": "morale",
          "type": "uint8"
        },
        {
          "internalType": "uint8",
          "name": "government",
          "type": "uint8"
        },
        {
          "internalType": "uint8",
          "name": "turns",
          "type": "uint8"
        }
      ],
      "stateMutability": "view",
      "type": "function"
    },
    {
      "inputs": [
        {
          "internalType": "address",
          "name": "owner",
          "type": "address"
        }
      ],
      "name": "balanceOf",
      "outputs": [
        {
          "internalType": "uint256",
          "name": "",
          "type": "uint256"
        }
      ],
      "stateMutability": "view",
      "type": "function"
    },
    {
      "inputs": [
        {
          "internalType": "uint256",
          "name": "",
          "type": "uint256"
        }
      ],
      "name": "civMultipliers",
      "outputs": [
        {
          "internalType": "uint8",
          "name": "",
          "type": "uint8"
        }
      ],
      "stateMutability": "view",
      "type": "function"
    },
    {
      "inputs": [
        {
          "internalType": "uint256",
          "name": "tokenId",
          "type": "uint256"
        },
        {
          "components": [
            {
              "internalType": "uint8",
              "name": "size",
              "type": "uint8"
            },
            {
              "internalType": "uint8",
              "name": "spirit",
              "type": "uint8"
            },
            {
              "internalType": "uint8",
              "name": "age",
              "type": "uint8"
            },
            {
              "internalType": "uint8",
              "name": "resource",
              "type": "uint8"
            },
            {
              "internalType": "uint8",
              "name": "morale",
              "type": "uint8"
            },
            {
              "internalType": "uint8",
              "name": "government",
              "type": "uint8"
            },
            {
              "internalType": "uint8",
              "name": "turns",
              "type": "uint8"
            }
          ],
          "internalType": "struct SettlementsV2.Attributes",
          "name": "attributes",
          "type": "tuple"
        }
      ],
      "name": "claim",
      "outputs": [],
      "stateMutability": "nonpayable",
      "type": "function"
    },
    {
      "inputs": [
        {
          "internalType": "uint256",
          "name": "tokenId",
          "type": "uint256"
        }
      ],
      "name": "getApproved",
      "outputs": [
        {
          "internalType": "address",
          "name": "",
          "type": "address"
        }
      ],
      "stateMutability": "view",
      "type": "function"
    },
    {
      "inputs": [
        {
          "internalType": "uint256",
          "name": "tokenId",
          "type": "uint256"
        }
      ],
      "name": "getSettlementAge",
      "outputs": [
        {
          "internalType": "string",
          "name": "",
          "type": "string"
        }
      ],
      "stateMutability": "view",
      "type": "function"
    },
    {
      "inputs": [
        {
          "internalType": "uint256",
          "name": "tokenId",
          "type": "uint256"
        }
      ],
      "name": "getSettlementGovernment",
      "outputs": [
        {
          "internalType": "string",
          "name": "",
          "type": "string"
        }
      ],
      "stateMutability": "view",
      "type": "function"
    },
    {
      "inputs": [
        {
          "internalType": "uint256",
          "name": "tokenId",
          "type": "uint256"
        }
      ],
      "name": "getSettlementMorale",
      "outputs": [
        {
          "internalType": "string",
          "name": "",
          "type": "string"
        }
      ],
      "stateMutability": "view",
      "type": "function"
    },
    {
      "inputs": [
        {
          "internalType": "uint256",
          "name": "tokenId",
          "type": "uint256"
        }
      ],
      "name": "getSettlementRealm",
      "outputs": [
        {
          "internalType": "string",
          "name": "",
          "type": "string"
        }
      ],
      "stateMutability": "view",
      "type": "function"
    },
    {
      "inputs": [
        {
          "internalType": "uint256",
          "name": "tokenId",
          "type": "uint256"
        }
      ],
      "name": "getSettlementResource",
      "outputs": [
        {
          "internalType": "string",
          "name": "",
          "type": "string"
        }
      ],
      "stateMutability": "view",
      "type": "function"
    },
    {
      "inputs": [
        {
          "internalType": "uint256",
          "name": "tokenId",
          "type": "uint256"
        }
      ],
      "name": "getSettlementSize",
      "outputs": [
        {
          "internalType": "string",
          "name": "",
          "type": "string"
        }
      ],
      "stateMutability": "view",
      "type": "function"
    },
    {
      "inputs": [
        {
          "internalType": "uint256",
          "name": "tokenId",
          "type": "uint256"
        }
      ],
      "name": "getSettlementSpirit",
      "outputs": [
        {
          "internalType": "string",
          "name": "",
          "type": "string"
        }
      ],
      "stateMutability": "view",
      "type": "function"
    },
    {
      "inputs": [
        {
          "internalType": "uint256",
          "name": "tokenId",
          "type": "uint256"
        }
      ],
      "name": "getUnharvestedTokens",
      "outputs": [
        {
          "internalType": "contract ERC20Mintable",
          "name": "",
          "type": "address"
        },
        {
          "internalType": "uint256",
          "name": "",
          "type": "uint256"
        }
      ],
      "stateMutability": "view",
      "type": "function"
    },
    {
      "inputs": [
        {
          "internalType": "uint256",
          "name": "tokenId",
          "type": "uint256"
        }
      ],
      "name": "harvest",
      "outputs": [],
      "stateMutability": "nonpayable",
      "type": "function"
    },
    {
      "inputs": [
        {
          "internalType": "contract SettlementsLegacy",
          "name": "_legacyAddress",
          "type": "address"
        },
        {
          "internalType": "contract ERC20Mintable",
          "name": "ironToken_",
          "type": "address"
        },
        {
          "internalType": "contract ERC20Mintable",
          "name": "goldToken_",
          "type": "address"
        },
        {
          "internalType": "contract ERC20Mintable",
          "name": "silverToken_",
          "type": "address"
        },
        {
          "internalType": "contract ERC20Mintable",
          "name": "woodToken_",
          "type": "address"
        },
        {
          "internalType": "contract ERC20Mintable",
          "name": "woolToken_",
          "type": "address"
        },
        {
          "internalType": "contract ERC20Mintable",
          "name": "waterToken_",
          "type": "address"
        },
        {
          "internalType": "contract ERC20Mintable",
          "name": "grassToken_",
          "type": "address"
        },
        {
          "internalType": "contract ERC20Mintable",
          "name": "grainToken_",
          "type": "address"
        }
      ],
      "name": "initialize",
      "outputs": [],
      "stateMutability": "nonpayable",
      "type": "function"
    },
    {
      "inputs": [
        {
          "internalType": "address",
          "name": "owner",
          "type": "address"
        },
        {
          "internalType": "address",
          "name": "operator",
          "type": "address"
        }
      ],
      "name": "isApprovedForAll",
      "outputs": [
        {
          "internalType": "bool",
          "name": "",
          "type": "bool"
        }
      ],
      "stateMutability": "view",
      "type": "function"
    },
    {
      "inputs": [],
      "name": "legacySettlements",
      "outputs": [
        {
          "internalType": "contract SettlementsLegacy",
          "name": "",
          "type": "address"
        }
      ],
      "stateMutability": "view",
      "type": "function"
    },
    {
      "inputs": [
        {
          "internalType": "uint256",
          "name": "",
          "type": "uint256"
        }
      ],
      "name": "moralMultipliers",
      "outputs": [
        {
          "internalType": "uint8",
          "name": "",
          "type": "uint8"
        }
      ],
      "stateMutability": "view",
      "type": "function"
    },
    {
      "inputs": [
        {
          "internalType": "uint256[]",
          "name": "tokenIds",
          "type": "uint256[]"
        },
        {
          "components": [
            {
              "internalType": "uint8",
              "name": "size",
              "type": "uint8"
            },
            {
              "internalType": "uint8",
              "name": "spirit",
              "type": "uint8"
            },
            {
              "internalType": "uint8",
              "name": "age",
              "type": "uint8"
            },
            {
              "internalType": "uint8",
              "name": "resource",
              "type": "uint8"
            },
            {
              "internalType": "uint8",
              "name": "morale",
              "type": "uint8"
            },
            {
              "internalType": "uint8",
              "name": "government",
              "type": "uint8"
            },
            {
              "internalType": "uint8",
              "name": "turns",
              "type": "uint8"
            }
          ],
          "internalType": "struct SettlementsV2.Attributes[]",
          "name": "tokenAttributes",
          "type": "tuple[]"
        }
      ],
      "name": "multiClaim",
      "outputs": [],
      "stateMutability": "nonpayable",
      "type": "function"
    },
    {
      "inputs": [],
      "name": "name",
      "outputs": [
        {
          "internalType": "string",
          "name": "",
          "type": "string"
        }
      ],
      "stateMutability": "view",
      "type": "function"
    },
    {
      "inputs": [],
      "name": "owner",
      "outputs": [
        {
          "internalType": "address",
          "name": "",
          "type": "address"
        }
      ],
      "stateMutability": "view",
      "type": "function"
    },
    {
      "inputs": [
        {
          "internalType": "uint256",
          "name": "tokenId",
          "type": "uint256"
        }
      ],
      "name": "ownerOf",
      "outputs": [
        {
          "internalType": "address",
          "name": "",
          "type": "address"
        }
      ],
      "stateMutability": "view",
      "type": "function"
    },
    {
      "inputs": [
        {
          "internalType": "uint256",
          "name": "tokenId",
          "type": "uint256"
        }
      ],
      "name": "randomise",
      "outputs": [],
      "stateMutability": "nonpayable",
      "type": "function"
    },
    {
      "inputs": [
        {
          "internalType": "uint256",
          "name": "",
          "type": "uint256"
        }
      ],
      "name": "realmMultipliers",
      "outputs": [
        {
          "internalType": "uint8",
          "name": "",
          "type": "uint8"
        }
      ],
      "stateMutability": "view",
      "type": "function"
    },
    {
      "inputs": [],
      "name": "renounceOwnership",
      "outputs": [],
      "stateMutability": "nonpayable",
      "type": "function"
    },
    {
      "inputs": [
        {
          "internalType": "uint256",
          "name": "",
          "type": "uint256"
        }
      ],
      "name": "resourceTokenAddresses",
      "outputs": [
        {
          "internalType": "contract ERC20Mintable",
          "name": "",
          "type": "address"
        }
      ],
      "stateMutability": "view",
      "type": "function"
    },
    {
      "inputs": [
        {
          "internalType": "address",
          "name": "from",
          "type": "address"
        },
        {
          "internalType": "address",
          "name": "to",
          "type": "address"
        },
        {
          "internalType": "uint256",
          "name": "tokenId",
          "type": "uint256"
        }
      ],
      "name": "safeTransferFrom",
      "outputs": [],
      "stateMutability": "nonpayable",
      "type": "function"
    },
    {
      "inputs": [
        {
          "internalType": "address",
          "name": "from",
          "type": "address"
        },
        {
          "internalType": "address",
          "name": "to",
          "type": "address"
        },
        {
          "internalType": "uint256",
          "name": "tokenId",
          "type": "uint256"
        },
        {
          "internalType": "bytes",
          "name": "_data",
          "type": "bytes"
        }
      ],
      "name": "safeTransferFrom",
      "outputs": [],
      "stateMutability": "nonpayable",
      "type": "function"
    },
    {
      "inputs": [
        {
          "internalType": "address",
          "name": "operator",
          "type": "address"
        },
        {
          "internalType": "bool",
          "name": "approved",
          "type": "bool"
        }
      ],
      "name": "setApprovalForAll",
      "outputs": [],
      "stateMutability": "nonpayable",
      "type": "function"
    },
    {
      "inputs": [
        {
          "internalType": "string[]",
          "name": "sizes",
          "type": "string[]"
        },
        {
          "internalType": "string[]",
          "name": "spirits",
          "type": "string[]"
        },
        {
          "internalType": "string[]",
          "name": "ages",
          "type": "string[]"
        },
        {
          "internalType": "string[]",
          "name": "resources",
          "type": "string[]"
        },
        {
          "internalType": "string[]",
          "name": "morales",
          "type": "string[]"
        },
        {
          "internalType": "string[]",
          "name": "governments",
          "type": "string[]"
        },
        {
          "internalType": "string[]",
          "name": "realms",
          "type": "string[]"
        }
      ],
      "name": "setAttributeOptions",
      "outputs": [],
      "stateMutability": "nonpayable",
      "type": "function"
    },
    {
      "inputs": [
        {
          "internalType": "uint8[]",
          "name": "civMultipliers_",
          "type": "uint8[]"
        },
        {
          "internalType": "uint8[]",
          "name": "realmMultipliers_",
          "type": "uint8[]"
        },
        {
          "internalType": "uint8[]",
          "name": "moralMultipliers_",
          "type": "uint8[]"
        }
      ],
      "name": "setMultipliers",
      "outputs": [],
      "stateMutability": "nonpayable",
      "type": "function"
    },
    {
      "inputs": [
        {
          "internalType": "contract TokenURI",
          "name": "tokenURIHelperContract_",
          "type": "address"
        }
      ],
      "name": "setTokenURIHelper",
      "outputs": [],
      "stateMutability": "nonpayable",
      "type": "function"
    },
    {
      "inputs": [
        {
          "internalType": "bytes4",
          "name": "interfaceId",
          "type": "bytes4"
        }
      ],
      "name": "supportsInterface",
      "outputs": [
        {
          "internalType": "bool",
          "name": "",
          "type": "bool"
        }
      ],
      "stateMutability": "view",
      "type": "function"
    },
    {
      "inputs": [],
      "name": "symbol",
      "outputs": [
        {
          "internalType": "string",
          "name": "",
          "type": "string"
        }
      ],
      "stateMutability": "view",
      "type": "function"
    },
    {
      "inputs": [
        {
          "internalType": "uint256",
          "name": "index",
          "type": "uint256"
        }
      ],
      "name": "tokenByIndex",
      "outputs": [
        {
          "internalType": "uint256",
          "name": "",
          "type": "uint256"
        }
      ],
      "stateMutability": "view",
      "type": "function"
    },
    {
      "inputs": [
        {
          "internalType": "uint256",
          "name": "",
          "type": "uint256"
        }
      ],
      "name": "tokenIdToLastHarvest",
      "outputs": [
        {
          "internalType": "uint256",
          "name": "",
          "type": "uint256"
        }
      ],
      "stateMutability": "view",
      "type": "function"
    },
    {
      "inputs": [
        {
          "internalType": "address",
          "name": "owner",
          "type": "address"
        },
        {
          "internalType": "uint256",
          "name": "index",
          "type": "uint256"
        }
      ],
      "name": "tokenOfOwnerByIndex",
      "outputs": [
        {
          "internalType": "uint256",
          "name": "",
          "type": "uint256"
        }
      ],
      "stateMutability": "view",
      "type": "function"
    },
    {
      "inputs": [
        {
          "internalType": "uint256",
          "name": "tokenId",
          "type": "uint256"
        }
      ],
      "name": "tokenURI",
      "outputs": [
        {
          "internalType": "string",
          "name": "",
          "type": "string"
        }
      ],
      "stateMutability": "view",
      "type": "function"
    },
    {
      "inputs": [],
      "name": "tokenURIHelperContract",
      "outputs": [
        {
          "internalType": "contract TokenURI",
          "name": "",
          "type": "address"
        }
      ],
      "stateMutability": "view",
      "type": "function"
    },
    {
      "inputs": [],
      "name": "totalSupply",
      "outputs": [
        {
          "internalType": "uint256",
          "name": "",
          "type": "uint256"
        }
      ],
      "stateMutability": "view",
      "type": "function"
    },
    {
      "inputs": [
        {
          "internalType": "address",
          "name": "from",
          "type": "address"
        },
        {
          "internalType": "address",
          "name": "to",
          "type": "address"
        },
        {
          "internalType": "uint256",
          "name": "tokenId",
          "type": "uint256"
        }
      ],
      "name": "transferFrom",
      "outputs": [],
      "stateMutability": "nonpayable",
      "type": "function"
    },
    {
      "inputs": [
        {
          "internalType": "address",
          "name": "newOwner",
          "type": "address"
        }
      ],
      "name": "transferOwnership",
      "outputs": [],
      "stateMutability": "nonpayable",
      "type": "function"
    }
  ],
  "transactionHash": "0xc878589fed53b9cab0de7244958da2fcfa27fcaed89a5b3b6548cfd266fdb81c",
  "args": [],
  "solcInputHash": "51d20eb430c7e1da7613dfcdfa39ebae",
  "bytecode": "0x608060405234801561001057600080fd5b50614f29806100206000396000f3fe608060405234801561001057600080fd5b50600436106103365760003560e01c806364449c9c116101b2578063a22cb465116100f9578063cb4f52f8116100a2578063ed52a0ce1161007c578063ed52a0ce146107b7578063ef0b22b4146107ca578063f2fde38b146107dd578063f5e95acb146107f057600080fd5b8063cb4f52f814610755578063ddc6326214610768578063e985e9c51461077b57600080fd5b8063c3332939116100d3578063c33329391461071c578063c87b56dd1461072f578063cb133b0f1461074257600080fd5b8063a22cb465146106e3578063aa62581e146106f6578063b88d4fde1461070957600080fd5b8063715018a61161015b5780637db127df116101355780637db127df146106b75780638da5cb5b146106ca57806395d89b41146106db57600080fd5b8063715018a61461066a578063746eae59146106725780637d7f78401461068557600080fd5b80636db99c6d1161018c5780636db99c6d146106315780636f3574cd1461064457806370a082311461065757600080fd5b806364449c9c146105ea5780636658417d146105fd578063684d07701461061057600080fd5b80632f745c591161028157806342842e0e1161022a5780634f6ccce7116102045780634f6ccce71461059e5780635589c605146105b15780635f197aa3146105c45780636352211e146105d757600080fd5b806342842e0e14610565578063491d8a58146105785780634efce8411461058b57600080fd5b80633b67e7ee1161025b5780633b67e7ee1461052c5780633da391e31461053f578063404936b41461055257600080fd5b80632f745c59146104f357806334dbc3b314610506578063352c2c2a1461051957600080fd5b806318160ddd116102e357806323b872dd116102bd57806323b872dd146104ba57806327707b9b146104cd5780632a65294e146104e057600080fd5b806318160ddd146103f057806318f5de381461040257806321983707146104a757600080fd5b8063081812fc11610314578063081812fc1461038b578063095ea7b3146103b65780630c7699c4146103cb57600080fd5b806301ffc9a71461033b57806305333acf1461036357806306fdde0314610383575b600080fd5b61034e610349366004614938565b610803565b60405190151581526020015b60405180910390f35b610376610371366004614a9e565b610814565b60405161035a9190614ba1565b610376610954565b61039e610399366004614a9e565b6109e6565b6040516001600160a01b03909116815260200161035a565b6103c96103c436600461467c565b610a7b565b005b6103de6103d9366004614a9e565b610b91565b60405160ff909116815260200161035a565b6099545b60405190815260200161035a565b610464610410366004614a9e565b6101096020526000908152604090205460ff808216916101008104821691620100008204811691630100000081048216916401000000008204811691650100000000008104821691600160301b9091041687565b6040805160ff9889168152968816602088015294871694860194909452918516606085015284166080840152831660a083015290911660c082015260e00161035a565b6103766104b5366004614a9e565b610bc5565b6103c96104c836600461458e565b610c72565b60fb5461039e906001600160a01b031681565b6103766104ee366004614a9e565b610ced565b6103f461050136600461467c565b610d8e565b610376610514366004614a9e565b610e36565b6103c961052736600461453a565b610e47565b6103c961053a3660046146a7565b610ec3565b61037661054d366004614a9e565b610fb9565b610376610560366004614a9e565b611058565b6103c961057336600461458e565b611069565b6103c9610586366004614ab6565b611084565b610376610599366004614a9e565b611314565b6103f46105ac366004614a9e565b611325565b60fc5461039e906001600160a01b031681565b6103de6105d2366004614a9e565b6113d7565b61039e6105e5366004614a9e565b6113e7565b6103c96105f8366004614a9e565b61145e565b61037661060b366004614a9e565b61154b565b6103f461061e366004614a9e565b6101016020526000908152604090205481565b6103de61063f366004614a9e565b61155c565b610376610652366004614a9e565b61156c565b6103f461066536600461453a565b61160c565b6103c9611693565b610376610680366004614a9e565b6116f9565b610698610693366004614a9e565b61170a565b604080516001600160a01b03909316835260208301919091520161035a565b6103c96106c53660046148b4565b611943565b60c9546001600160a01b031661039e565b6103766119d8565b6103c96106f136600461464b565b6119e7565b610376610704366004614a9e565b611aac565b6103c96107173660046145ce565b611b4f565b61037661072a366004614a9e565b611bcb565b61037661073d366004614a9e565b611bdc565b6103c96107503660046147ba565b611be9565b610376610763366004614a9e565b611c5e565b6103c9610776366004614a9e565b611d00565b61034e610789366004614556565b6001600160a01b039182166000908152606a6020908152604080832093909416825291909152205460ff1690565b61039e6107c5366004614a9e565b611d9e565b6103766107d8366004614a9e565b611dc9565b6103c96107eb36600461453a565b611e63565b6103c96107fe366004614970565b611f2b565b600061080e826120c8565b92915050565b6000818152606760205260409020546060906001600160a01b031661087c5760405162461bcd60e51b815260206004820152601960248201527814d95d1d1b195b595b9d08191bd95cc81b9bdd08195e1a5cdd603a1b60448201526064015b60405180910390fd5b6000828152610109602052604090205461010880549091600160301b900460ff169081106108ba57634e487b7160e01b600052603260045260246000fd5b9060005260206000200180546108cf90614e1c565b80601f01602080910402602001604051908101604052809291908181526020018280546108fb90614e1c565b80156109485780601f1061091d57610100808354040283529160200191610948565b820191906000526020600020905b81548152906001019060200180831161092b57829003601f168201915b50505050509050919050565b60606065805461096390614e1c565b80601f016020809104026020016040519081016040528092919081815260200182805461098f90614e1c565b80156109dc5780601f106109b1576101008083540402835291602001916109dc565b820191906000526020600020905b8154815290600101906020018083116109bf57829003601f168201915b5050505050905090565b6000818152606760205260408120546001600160a01b0316610a5f5760405162461bcd60e51b815260206004820152602c60248201527f4552433732313a20617070726f76656420717565727920666f72206e6f6e657860448201526b34b9ba32b73a103a37b5b2b760a11b6064820152608401610873565b506000908152606960205260409020546001600160a01b031690565b6000610a86826113e7565b9050806001600160a01b0316836001600160a01b03161415610af45760405162461bcd60e51b815260206004820152602160248201527f4552433732313a20617070726f76616c20746f2063757272656e74206f776e656044820152603960f91b6064820152608401610873565b336001600160a01b0382161480610b105750610b108133610789565b610b825760405162461bcd60e51b815260206004820152603860248201527f4552433732313a20617070726f76652063616c6c6572206973206e6f74206f7760448201527f6e6572206e6f7220617070726f76656420666f7220616c6c00000000000000006064820152608401610873565b610b8c83836120ed565b505050565b60ff8181548110610ba157600080fd5b9060005260206000209060209182820401919006915054906101000a900460ff1681565b6101088181548110610bd657600080fd5b906000526020600020016000915090508054610bf190614e1c565b80601f0160208091040260200160405190810160405280929190818152602001828054610c1d90614e1c565b8015610c6a5780601f10610c3f57610100808354040283529160200191610c6a565b820191906000526020600020905b815481529060010190602001808311610c4d57829003601f168201915b505050505081565b610c7c338261215b565b610ce25760405162461bcd60e51b815260206004820152603160248201527f4552433732313a207472616e736665722063616c6c6572206973206e6f74206f6044820152701ddb995c881b9bdc88185c1c1c9bdd9959607a1b6064820152608401610873565b610b8c838383612252565b6000818152606760205260409020546060906001600160a01b0316610d505760405162461bcd60e51b815260206004820152601960248201527814d95d1d1b195b595b9d08191bd95cc81b9bdd08195e1a5cdd603a1b6044820152606401610873565b60008281526101096020526040902054610105805490916301000000900460ff169081106108ba57634e487b7160e01b600052603260045260246000fd5b6000610d998361160c565b8210610e0d5760405162461bcd60e51b815260206004820152602b60248201527f455243373231456e756d657261626c653a206f776e657220696e646578206f7560448201527f74206f6620626f756e64730000000000000000000000000000000000000000006064820152608401610873565b506001600160a01b03919091166000908152609760209081526040808320938352929052205490565b6101078181548110610bd657600080fd5b60c9546001600160a01b03163314610ea15760405162461bcd60e51b815260206004820181905260248201527f4f776e61626c653a2063616c6c6572206973206e6f7420746865206f776e65726044820152606401610873565b60fc80546001600160a01b0319166001600160a01b0392909216919091179055565b60c9546001600160a01b03163314610f1d5760405162461bcd60e51b815260206004820181905260248201527f4f776e61626c653a2063616c6c6572206973206e6f7420746865206f776e65726044820152606401610873565b8651610f31906101029060208a01906140fc565b508551610f46906101039060208901906140fc565b508451610f5b906101049060208801906140fc565b508351610f70906101059060208701906140fc565b508251610f85906101069060208601906140fc565b508151610f9a906101079060208501906140fc565b508051610faf906101089060208401906140fc565b5050505050505050565b6000818152606760205260409020546060906001600160a01b031661101c5760405162461bcd60e51b815260206004820152601960248201527814d95d1d1b195b595b9d08191bd95cc81b9bdd08195e1a5cdd603a1b6044820152606401610873565b6000828152610109602052604090205461010380549091610100900460ff169081106108ba57634e487b7160e01b600052603260045260246000fd5b6101028181548110610bd657600080fd5b610b8c83838360405180602001604052806000815250611b4f565b60fb546040516323b872dd60e01b8152336004820152306024820152604481018490526001600160a01b03909116906323b872dd90606401600060405180830381600087803b1580156110d657600080fd5b505af11580156110ea573d6000803e3d6000fd5b505050506110f833836123fd565b6000828152610109602090815260408083208451815493860151928601516060870151608088015160a089015160c08a015160ff908116600160301b0266ff00000000000019928216650100000000000265ff000000000019948316640100000000029490941665ffff000000001995831663010000000263ff0000001997841662010000029790971663ffff0000199a84166101000261ffff19909c16939098169290921799909917979097169490941792909217169390931792909217919091169190911790556111ca8361241b565b6040516020016111da9190614b0f565b60408051808303601f1901815290829052805160209091012060fb5463c87b56dd60e01b8352600483018690529092506000916001600160a01b039091169063c87b56dd9060240160006040518083038186803b15801561123a57600080fd5b505afa15801561124e573d6000803e3d6000fd5b505050506040513d6000823e601f3d908101601f191682016040526112769190810190614a2b565b6040516020016112869190614b0f565b60408051601f19818403018152918152815160209283012060008781526101019093529120439055905081811461130e5760405162461bcd60e51b815260206004820152602660248201527f4174747269627574657320646f6e2774206d61746368206c656761637920636f6044820152651b9d1c9858dd60d21b6064820152608401610873565b50505050565b6101038181548110610bd657600080fd5b600061133060995490565b82106113a45760405162461bcd60e51b815260206004820152602c60248201527f455243373231456e756d657261626c653a20676c6f62616c20696e646578206f60448201527f7574206f6620626f756e647300000000000000000000000000000000000000006064820152608401610873565b609982815481106113c557634e487b7160e01b600052603260045260246000fd5b90600052602060002001549050919050565b60fd8181548110610ba157600080fd5b6000818152606760205260408120546001600160a01b03168061080e5760405162461bcd60e51b815260206004820152602960248201527f4552433732313a206f776e657220717565727920666f72206e6f6e657869737460448201526832b73a103a37b5b2b760b91b6064820152608401610873565b6000818152606760205260409020546001600160a01b03161515801561149d5750611488816113e7565b6001600160a01b0316336001600160a01b0316145b80156114c35750600081815261010960205260409020546005600160301b90910460ff16105b61150f5760405162461bcd60e51b815260206004820152601560248201527f536574746c656d656e74207475726e73206f76657200000000000000000000006044820152606401610873565b61151881611d00565b6000818152610109602052604090205461154890829061154390600160301b900460ff166001614d81565b612428565b50565b6101048181548110610bd657600080fd5b60fe8181548110610ba157600080fd5b6000818152606760205260409020546060906001600160a01b03166115cf5760405162461bcd60e51b815260206004820152601960248201527814d95d1d1b195b595b9d08191bd95cc81b9bdd08195e1a5cdd603a1b6044820152606401610873565b600082815261010960205260409020546101048054909162010000900460ff169081106108ba57634e487b7160e01b600052603260045260246000fd5b60006001600160a01b0382166116775760405162461bcd60e51b815260206004820152602a60248201527f4552433732313a2062616c616e636520717565727920666f7220746865207a65604482015269726f206164647265737360b01b6064820152608401610873565b506001600160a01b031660009081526068602052604090205490565b60c9546001600160a01b031633146116ed5760405162461bcd60e51b815260206004820181905260248201527f4f776e61626c653a2063616c6c6572206973206e6f7420746865206f776e65726044820152606401610873565b6116f76000612b42565b565b6101058181548110610bd657600080fd5b600081815261010160205260408120548190816117278243614dd9565b600086815261010960209081526040808320815160e081018352905460ff808216835261010080830482169584019590955262010000820481169383019390935263010000008104831660608301819052640100000000820484166080840152650100000000008204841660a0840152600160301b90910490921660c082015282549495509381106117c957634e487b7160e01b600052603260045260246000fd5b6000918252602090912001546001600160a01b0316905082158061180257506000878152606760205260409020546001600160a01b0316155b15611814579660009650945050505050565b600060fe8360c0015160ff168154811061183e57634e487b7160e01b600052603260045260246000fd5b600091825260208083209082040154855160fd805460ff601f9095166101000a90930484169550921690811061188457634e487b7160e01b600052603260045260246000fd5b90600052602060002090602091828204019190069054906101000a900460ff1660ff169050600060ff856080015160ff16815481106118d357634e487b7160e01b600052603260045260246000fd5b60009182526020808320908204015460ff601f9092166101000a9004169150606484670de0b6b3a7640000846119098b88614dba565b6119139190614dba565b61191d9190614dba565b6119279190614dba565b6119319190614da6565b949b949a509398505050505050505050565b60c9546001600160a01b0316331461199d5760405162461bcd60e51b815260206004820181905260248201527f4f776e61626c653a2063616c6c6572206973206e6f7420746865206f776e65726044820152606401610873565b82516119b09060fd906020860190614159565b5081516119c49060fe906020850190614159565b50805161130e9060ff906020840190614159565b60606066805461096390614e1c565b6001600160a01b038216331415611a405760405162461bcd60e51b815260206004820152601960248201527f4552433732313a20617070726f766520746f2063616c6c6572000000000000006044820152606401610873565b336000818152606a602090815260408083206001600160a01b03871680855290835292819020805460ff191686151590811790915590519081529192917f17307eab39ab6107e8899845ad3d59bd9653f200f220920489ca2b5937696c31910160405180910390a35050565b6000818152606760205260409020546060906001600160a01b0316611b0f5760405162461bcd60e51b815260206004820152601960248201527814d95d1d1b195b595b9d08191bd95cc81b9bdd08195e1a5cdd603a1b6044820152606401610873565b600082815261010960205260409020546101078054909165010000000000900460ff169081106108ba57634e487b7160e01b600052603260045260246000fd5b611b59338361215b565b611bbf5760405162461bcd60e51b815260206004820152603160248201527f4552433732313a207472616e736665722063616c6c6572206973206e6f74206f6044820152701ddb995c881b9bdc88185c1c1c9bdd9959607a1b6064820152608401610873565b61130e84848484612b94565b6101068181548110610bd657600080fd5b606061080e826000612c12565b60005b815181101561130e57611c4c848483818110611c1857634e487b7160e01b600052603260045260246000fd5b90506020020135838381518110611c3f57634e487b7160e01b600052603260045260246000fd5b6020026020010151611084565b80611c5681614e57565b915050611bec565b6000818152606760205260409020546060906001600160a01b0316611cc15760405162461bcd60e51b815260206004820152601960248201527814d95d1d1b195b595b9d08191bd95cc81b9bdd08195e1a5cdd603a1b6044820152606401610873565b6000828152610109602052604090205461010680549091640100000000900460ff169081106108ba57634e487b7160e01b600052603260045260246000fd5b600080611d0c8361170a565b91509150816001600160a01b03166340c10f19611d28856113e7565b6040516001600160e01b031960e084901b1681526001600160a01b03909116600482015260248101849052604401600060405180830381600087803b158015611d7057600080fd5b505af1158015611d84573d6000803e3d6000fd5b505050600093845250506101016020525060409020439055565b6101008181548110611daf57600080fd5b6000918252602090912001546001600160a01b0316905081565b6000818152606760205260409020546060906001600160a01b0316611e2c5760405162461bcd60e51b815260206004820152601960248201527814d95d1d1b195b595b9d08191bd95cc81b9bdd08195e1a5cdd603a1b6044820152606401610873565b600082815261010960205260409020546101028054909160ff169081106108ba57634e487b7160e01b600052603260045260246000fd5b60c9546001600160a01b03163314611ebd5760405162461bcd60e51b815260206004820181905260248201527f4f776e61626c653a2063616c6c6572206973206e6f7420746865206f776e65726044820152606401610873565b6001600160a01b038116611f225760405162461bcd60e51b815260206004820152602660248201527f4f776e61626c653a206e6577206f776e657220697320746865207a65726f206160448201526564647265737360d01b6064820152608401610873565b61154881612b42565b600054610100900460ff1680611f44575060005460ff16155b611fa75760405162461bcd60e51b815260206004820152602e60248201527f496e697469616c697a61626c653a20636f6e747261637420697320616c72656160448201526d191e481a5b9a5d1a585b1a5e995960921b6064820152608401610873565b600054610100900460ff16158015611fc9576000805461ffff19166101011790555b611fd1613461565b61202b6040518060400160405280600b81526020017f536574746c656d656e74730000000000000000000000000000000000000000008152506040518060400160405280600381526020016214d51360ea1b815250613523565b6120336135f1565b60fb80546001600160a01b0319166001600160a01b038c8116919091179091556040805161010080820183528c841682528b841660208301528a8416928201929092528883166060820152878316608082015286831660a082015285831660c082015291841660e08301526120a99160086141fb565b5080156120bc576000805461ff00191690555b50505050505050505050565b60006001600160e01b0319821663780e9d6360e01b148061080e575061080e826136a7565b600081815260696020526040902080546001600160a01b0319166001600160a01b0384169081179091558190612122826113e7565b6001600160a01b03167f8c5be1e5ebec7d5bd14f71427d1e84f3dd0314c0f7b2291e5b200ac8c7c3b92560405160405180910390a45050565b6000818152606760205260408120546001600160a01b03166121d45760405162461bcd60e51b815260206004820152602c60248201527f4552433732313a206f70657261746f7220717565727920666f72206e6f6e657860448201526b34b9ba32b73a103a37b5b2b760a11b6064820152608401610873565b60006121df836113e7565b9050806001600160a01b0316846001600160a01b0316148061221a5750836001600160a01b031661220f846109e6565b6001600160a01b0316145b8061224a57506001600160a01b038082166000908152606a602090815260408083209388168352929052205460ff165b949350505050565b826001600160a01b0316612265826113e7565b6001600160a01b0316146122cd5760405162461bcd60e51b815260206004820152602960248201527f4552433732313a207472616e73666572206f6620746f6b656e2074686174206960448201526839903737ba1037bbb760b91b6064820152608401610873565b6001600160a01b03821661232f5760405162461bcd60e51b8152602060048201526024808201527f4552433732313a207472616e7366657220746f20746865207a65726f206164646044820152637265737360e01b6064820152608401610873565b61233a8383836136f7565b6123456000826120ed565b6001600160a01b038316600090815260686020526040812080546001929061236e908490614dd9565b90915550506001600160a01b038216600090815260686020526040812080546001929061239c908490614d69565b909155505060008181526067602052604080822080546001600160a01b0319166001600160a01b0386811691821790925591518493918716917fddf252ad1be2c89b69c2b068fc378daa952ba7f163c4a11628f55a4df523b3ef91a4505050565b612417828260405180602001604052806000815250613702565b5050565b606061080e826001612c12565b612529612451836040518060400160405280600481526020016373697a6560e01b815250613780565b610102805480602002602001604051908101604052809291908181526020016000905b8282101561252057838290600052602060002001805461249390614e1c565b80601f01602080910402602001604051908101604052809291908181526020018280546124bf90614e1c565b801561250c5780601f106124e15761010080835404028352916020019161250c565b820191906000526020600020905b8154815290600101906020018083116124ef57829003601f168201915b505050505081526020019060010190612474565b505050506137b8565b610109600084815260200190815260200160002060000160006101000a81548160ff021916908360ff16021790555061265261258383604051806040016040528060068152602001651cdc1a5c9a5d60d21b815250613780565b610103805480602002602001604051908101604052809291908181526020016000905b828210156125205783829060005260206000200180546125c590614e1c565b80601f01602080910402602001604051908101604052809291908181526020018280546125f190614e1c565b801561263e5780601f106126135761010080835404028352916020019161263e565b820191906000526020600020905b81548152906001019060200180831161262157829003601f168201915b5050505050815260200190600101906125a6565b610109600084815260200190815260200160002060000160016101000a81548160ff021916908360ff1602179055506127786126a9836040518060400160405280600381526020016261676560e81b815250613780565b610104805480602002602001604051908101604052809291908181526020016000905b828210156125205783829060005260206000200180546126eb90614e1c565b80601f016020809104026020016040519081016040528092919081815260200182805461271790614e1c565b80156127645780601f1061273957610100808354040283529160200191612764565b820191906000526020600020905b81548152906001019060200180831161274757829003601f168201915b5050505050815260200190600101906126cc565b610109600084815260200190815260200160002060000160026101000a81548160ff021916908360ff1602179055506128a36127d483604051806040016040528060088152602001677265736f7572636560c01b815250613780565b610105805480602002602001604051908101604052809291908181526020016000905b8282101561252057838290600052602060002001805461281690614e1c565b80601f016020809104026020016040519081016040528092919081815260200182805461284290614e1c565b801561288f5780601f106128645761010080835404028352916020019161288f565b820191906000526020600020905b81548152906001019060200180831161287257829003601f168201915b5050505050815260200190600101906127f7565b610109600084815260200190815260200160002060000160036101000a81548160ff021916908360ff1602179055506129cc6128fd83604051806040016040528060068152602001656d6f72616c6560d01b815250613780565b610106805480602002602001604051908101604052809291908181526020016000905b8282101561252057838290600052602060002001805461293f90614e1c565b80601f016020809104026020016040519081016040528092919081815260200182805461296b90614e1c565b80156129b85780601f1061298d576101008083540402835291602001916129b8565b820191906000526020600020905b81548152906001019060200180831161299b57829003601f168201915b505050505081526020019060010190612920565b610109600084815260200190815260200160002060000160046101000a81548160ff021916908360ff160217905550612af9612a2a836040518060400160405280600a81526020016919dbdd995c9b9b595b9d60b21b815250613780565b610107805480602002602001604051908101604052809291908181526020016000905b82821015612520578382906000526020600020018054612a6c90614e1c565b80601f0160208091040260200160405190810160405280929190818152602001828054612a9890614e1c565b8015612ae55780601f10612aba57610100808354040283529160200191612ae5565b820191906000526020600020905b815481529060010190602001808311612ac857829003601f168201915b505050505081526020019060010190612a4d565b60009283526101096020526040909220805466ffff000000000019166501000000000060ff9485160266ff000000000000191617600160301b9290931691909102919091179055565b60c980546001600160a01b038381166001600160a01b0319831681179093556040519116919082907f8be0079c531659141344cd1fd0a4f28419497f9722a3daafe3b4186f6b6457e090600090a35050565b612b9f848484612252565b612bab848484846137cc565b61130e5760405162461bcd60e51b815260206004820152603260248201527f4552433732313a207472616e7366657220746f206e6f6e20455243373231526560448201527131b2b4bb32b91034b6b83632b6b2b73a32b960711b6064820152608401610873565b6000828152606760205260409020546060906001600160a01b0316612c755760405162461bcd60e51b815260206004820152601960248201527814d95d1d1b195b595b9d08191bd95cc81b9bdd08195e1a5cdd603a1b6044820152606401610873565b612cb56040518060e00160405280606081526020016060815260200160608152602001606081526020016060815260200160608152602001606081525090565b600084815261010960205260409020546101028054909160ff16908110612cec57634e487b7160e01b600052603260045260246000fd5b906000526020600020018054612d0190614e1c565b80601f0160208091040260200160405190810160405280929190818152602001828054612d2d90614e1c565b8015612d7a5780601f10612d4f57610100808354040283529160200191612d7a565b820191906000526020600020905b815481529060010190602001808311612d5d57829003601f168201915b50505091835250506000848152610109602052604090205461010380549091610100900460ff16908110612dbe57634e487b7160e01b600052603260045260246000fd5b906000526020600020018054612dd390614e1c565b80601f0160208091040260200160405190810160405280929190818152602001828054612dff90614e1c565b8015612e4c5780601f10612e2157610100808354040283529160200191612e4c565b820191906000526020600020905b815481529060010190602001808311612e2f57829003601f168201915b5050505050602082810191909152600085815261010990915260409020546101048054909162010000900460ff16908110612e9757634e487b7160e01b600052603260045260246000fd5b906000526020600020018054612eac90614e1c565b80601f0160208091040260200160405190810160405280929190818152602001828054612ed890614e1c565b8015612f255780601f10612efa57610100808354040283529160200191612f25565b820191906000526020600020905b815481529060010190602001808311612f0857829003601f168201915b505050505060408281019190915260008581526101096020522054610105805490916301000000900460ff16908110612f6e57634e487b7160e01b600052603260045260246000fd5b906000526020600020018054612f8390614e1c565b80601f0160208091040260200160405190810160405280929190818152602001828054612faf90614e1c565b8015612ffc5780601f10612fd157610100808354040283529160200191612ffc565b820191906000526020600020905b815481529060010190602001808311612fdf57829003601f168201915b505050505060608201526000848152610109602052604090205461010680549091640100000000900460ff1690811061304557634e487b7160e01b600052603260045260246000fd5b90600052602060002001805461305a90614e1c565b80601f016020809104026020016040519081016040528092919081815260200182805461308690614e1c565b80156130d35780601f106130a8576101008083540402835291602001916130d3565b820191906000526020600020905b8154815290600101906020018083116130b657829003601f168201915b50505050506080820152600084815261010960205260409020546101078054909165010000000000900460ff1690811061311d57634e487b7160e01b600052603260045260246000fd5b90600052602060002001805461313290614e1c565b80601f016020809104026020016040519081016040528092919081815260200182805461315e90614e1c565b80156131ab5780601f10613180576101008083540402835291602001916131ab565b820191906000526020600020905b81548152906001019060200180831161318e57829003601f168201915b505050505060a08201526000848152610109602052604090205461010880549091600160301b900460ff169081106131f357634e487b7160e01b600052603260045260246000fd5b90600052602060002001805461320890614e1c565b80601f016020809104026020016040519081016040528092919081815260200182805461323490614e1c565b80156132815780601f1061325657610100808354040283529160200191613281565b820191906000526020600020905b81548152906001019060200180831161326457829003601f168201915b50505050508160c0018190525060006101006000815481106132b357634e487b7160e01b600052603260045260246000fd5b9060005260206000200160009054906101000a90046001600160a01b031690506133006040518060400160405280600b81526020016a1b5e4818dbdb9d1c9858dd60aa1b81525082613924565b600084613316576133108661170a565b90925090505b6133436040518060400160405280600b81526020016a1b5e4818dbdb9d1c9858dd60aa1b81525083613924565b600060fc60009054906101000a90046001600160a01b03166001600160a01b0316630f14d01a8584866001600160a01b03166395d89b416040518163ffffffff1660e01b815260040160006040518083038186803b1580156133a457600080fd5b505afa1580156133b8573d6000803e3d6000fd5b505050506040513d6000823e601f3d908101601f191682016040526133e09190810190614a2b565b8a8c6040518663ffffffff1660e01b8152600401613402959493929190614bdf565b60006040518083038186803b15801561341a57600080fd5b505afa15801561342e573d6000803e3d6000fd5b505050506040513d6000823e601f3d908101601f191682016040526134569190810190614a2b565b979650505050505050565b600054610100900460ff168061347a575060005460ff16155b6134dd5760405162461bcd60e51b815260206004820152602e60248201527f496e697469616c697a61626c653a20636f6e747261637420697320616c72656160448201526d191e481a5b9a5d1a585b1a5e995960921b6064820152608401610873565b600054610100900460ff161580156134ff576000805461ffff19166101011790555b61350761397e565b61350f613a2f565b8015611548576000805461ff001916905550565b600054610100900460ff168061353c575060005460ff16155b61359f5760405162461bcd60e51b815260206004820152602e60248201527f496e697469616c697a61626c653a20636f6e747261637420697320616c72656160448201526d191e481a5b9a5d1a585b1a5e995960921b6064820152608401610873565b600054610100900460ff161580156135c1576000805461ffff19166101011790555b6135c961397e565b6135d161397e565b6135db8383613ad6565b8015610b8c576000805461ff0019169055505050565b600054610100900460ff168061360a575060005460ff16155b61366d5760405162461bcd60e51b815260206004820152602e60248201527f496e697469616c697a61626c653a20636f6e747261637420697320616c72656160448201526d191e481a5b9a5d1a585b1a5e995960921b6064820152608401610873565b600054610100900460ff1615801561368f576000805461ffff19166101011790555b61369761397e565b61369f61397e565b61350f61397e565b60006001600160e01b031982166380ac58cd60e01b14806136d857506001600160e01b03198216635b5e139f60e01b145b8061080e57506301ffc9a760e01b6001600160e01b031983161461080e565b610b8c838383613bb2565b61370c8383613c6a565b61371960008484846137cc565b610b8c5760405162461bcd60e51b815260206004820152603260248201527f4552433732313a207472616e7366657220746f206e6f6e20455243373231526560448201527131b2b4bb32b91034b6b83632b6b2b73a32b960711b6064820152608401610873565b60608161378c84613db8565b42446040516020016137a19493929190614b2b565b604051602081830303815290604052905092915050565b60006137c5838351613eea565b9392505050565b60006001600160a01b0384163b1561391957604051630a85bd0160e11b81526001600160a01b0385169063150b7a0290613810903390899088908890600401614b65565b602060405180830381600087803b15801561382a57600080fd5b505af192505050801561385a575060408051601f3d908101601f1916820190925261385791810190614954565b60015b6138ff573d808015613888576040519150601f19603f3d011682016040523d82523d6000602084013e61388d565b606091505b5080516138f75760405162461bcd60e51b815260206004820152603260248201527f4552433732313a207472616e7366657220746f206e6f6e20455243373231526560448201527131b2b4bb32b91034b6b83632b6b2b73a32b960711b6064820152608401610873565b805181602001fd5b6001600160e01b031916630a85bd0160e11b14905061224a565b506001949350505050565b612417828260405160240161393a929190614bb4565b60408051601f198184030181529190526020810180517bffffffffffffffffffffffffffffffffffffffffffffffffffffffff1663319af33360e01b179052613f21565b600054610100900460ff1680613997575060005460ff16155b6139fa5760405162461bcd60e51b815260206004820152602e60248201527f496e697469616c697a61626c653a20636f6e747261637420697320616c72656160448201526d191e481a5b9a5d1a585b1a5e995960921b6064820152608401610873565b600054610100900460ff1615801561350f576000805461ffff19166101011790558015611548576000805461ff001916905550565b600054610100900460ff1680613a48575060005460ff16155b613aab5760405162461bcd60e51b815260206004820152602e60248201527f496e697469616c697a61626c653a20636f6e747261637420697320616c72656160448201526d191e481a5b9a5d1a585b1a5e995960921b6064820152608401610873565b600054610100900460ff16158015613acd576000805461ffff19166101011790555b61350f33612b42565b600054610100900460ff1680613aef575060005460ff16155b613b525760405162461bcd60e51b815260206004820152602e60248201527f496e697469616c697a61626c653a20636f6e747261637420697320616c72656160448201526d191e481a5b9a5d1a585b1a5e995960921b6064820152608401610873565b600054610100900460ff16158015613b74576000805461ffff19166101011790555b8251613b87906065906020860190614250565b508151613b9b906066906020850190614250565b508015610b8c576000805461ff0019169055505050565b6001600160a01b038316613c0d57613c0881609980546000838152609a60205260408120829055600182018355919091527f72a152ddfb8e864297c917af52ea6c1c68aead0fee1a62673fcc7e0c94979d000155565b613c30565b816001600160a01b0316836001600160a01b031614613c3057613c308382613f42565b6001600160a01b038216613c4757610b8c81613fdf565b826001600160a01b0316826001600160a01b031614610b8c57610b8c82826140b8565b6001600160a01b038216613cc05760405162461bcd60e51b815260206004820181905260248201527f4552433732313a206d696e7420746f20746865207a65726f20616464726573736044820152606401610873565b6000818152606760205260409020546001600160a01b031615613d255760405162461bcd60e51b815260206004820152601c60248201527f4552433732313a20746f6b656e20616c7265616479206d696e746564000000006044820152606401610873565b613d31600083836136f7565b6001600160a01b0382166000908152606860205260408120805460019290613d5a908490614d69565b909155505060008181526067602052604080822080546001600160a01b0319166001600160a01b03861690811790915590518392907fddf252ad1be2c89b69c2b068fc378daa952ba7f163c4a11628f55a4df523b3ef908290a45050565b606081613ddc5750506040805180820190915260018152600360fc1b602082015290565b8160005b8115613e065780613df081614e57565b9150613dff9050600a83614da6565b9150613de0565b60008167ffffffffffffffff811115613e2f57634e487b7160e01b600052604160045260246000fd5b6040519080825280601f01601f191660200182016040528015613e59576020820181803683370190505b5090505b841561224a57613e6e600183614dd9565b9150613e7b600a86614e72565b613e86906030614d69565b60f81b818381518110613ea957634e487b7160e01b600052603260045260246000fd5b60200101907effffffffffffffffffffffffffffffffffffffffffffffffffffffffffffff1916908160001a905350613ee3600a86614da6565b9450613e5d565b60008183604051602001613efe9190614b0f565b6040516020818303038152906040528051906020012060001c6137c59190614e72565b80516a636f6e736f6c652e6c6f67602083016000808483855afa5050505050565b60006001613f4f8461160c565b613f599190614dd9565b600083815260986020526040902054909150808214613fac576001600160a01b03841660009081526097602090815260408083208584528252808320548484528184208190558352609890915290208190555b5060009182526098602090815260408084208490556001600160a01b039094168352609781528383209183525290812055565b609954600090613ff190600190614dd9565b6000838152609a60205260408120546099805493945090928490811061402757634e487b7160e01b600052603260045260246000fd5b90600052602060002001549050806099838154811061405657634e487b7160e01b600052603260045260246000fd5b6000918252602080832090910192909255828152609a9091526040808220849055858252812055609980548061409c57634e487b7160e01b600052603160045260246000fd5b6001900381819060005260206000200160009055905550505050565b60006140c38361160c565b6001600160a01b039093166000908152609760209081526040808320868452825280832085905593825260989052919091209190915550565b828054828255906000526020600020908101928215614149579160200282015b828111156141495782518051614139918491602090910190614250565b509160200191906001019061411c565b506141559291506142c4565b5090565b82805482825590600052602060002090601f016020900481019282156141ef5791602002820160005b838211156141c057835183826101000a81548160ff021916908360ff1602179055509260200192600101602081600001049283019260010302614182565b80156141ed5782816101000a81549060ff02191690556001016020816000010492830192600103026141c0565b505b506141559291506142e1565b8280548282559060005260206000209081019282156141ef579160200282015b828111156141ef57825182546001600160a01b0319166001600160a01b0390911617825560209092019160019091019061421b565b82805461425c90614e1c565b90600052602060002090601f01602090048101928261427e57600085556141ef565b82601f1061429757805160ff19168380011785556141ef565b828001600101855582156141ef579182015b828111156141ef5782518255916020019190600101906142a9565b808211156141555760006142d882826142f6565b506001016142c4565b5b8082111561415557600081556001016142e2565b50805461430290614e1c565b6000825580601f10614312575050565b601f01602090049060005260206000209081019061154891906142e1565b600061434361433e84614d41565b614cec565b905082815283838301111561435757600080fd5b828260208301376000602084830101529392505050565b600082601f83011261437e578081fd5b8135602061438e61433e83614d1d565b80838252828201915082860187848660051b89010111156143ad578586fd5b855b8581101561440157813567ffffffffffffffff8111156143cd578788fd5b8801603f81018a136143dd578788fd5b6143ee8a8783013560408401614330565b85525092840192908401906001016143af565b5090979650505050505050565b600082601f83011261441e578081fd5b8135602061442e61433e83614d1d565b80838252828201915082860187848660051b890101111561444d578586fd5b855b858110156144015761446082614524565b8452928401929084019060010161444f565b600060e08284031215614483578081fd5b60405160e0810181811067ffffffffffffffff821117156144a6576144a6614eb2565b6040529050806144b583614524565b81526144c360208401614524565b60208201526144d460408401614524565b60408201526144e560608401614524565b60608201526144f660808401614524565b608082015261450760a08401614524565b60a082015261451860c08401614524565b60c08201525092915050565b803560ff8116811461453557600080fd5b919050565b60006020828403121561454b578081fd5b81356137c581614ec8565b60008060408385031215614568578081fd5b823561457381614ec8565b9150602083013561458381614ec8565b809150509250929050565b6000806000606084860312156145a2578081fd5b83356145ad81614ec8565b925060208401356145bd81614ec8565b929592945050506040919091013590565b600080600080608085870312156145e3578182fd5b84356145ee81614ec8565b935060208501356145fe81614ec8565b925060408501359150606085013567ffffffffffffffff811115614620578182fd5b8501601f81018713614630578182fd5b61463f87823560208401614330565b91505092959194509250565b6000806040838503121561465d578182fd5b823561466881614ec8565b915060208301358015158114614583578182fd5b6000806040838503121561468e578182fd5b823561469981614ec8565b946020939093013593505050565b600080600080600080600060e0888a0312156146c1578485fd5b873567ffffffffffffffff808211156146d8578687fd5b6146e48b838c0161436e565b985060208a01359150808211156146f9578687fd5b6147058b838c0161436e565b975060408a013591508082111561471a578687fd5b6147268b838c0161436e565b965060608a013591508082111561473b578485fd5b6147478b838c0161436e565b955060808a013591508082111561475c578485fd5b6147688b838c0161436e565b945060a08a013591508082111561477d578384fd5b6147898b838c0161436e565b935060c08a013591508082111561479e578283fd5b506147ab8a828b0161436e565b91505092959891949750929550565b6000806000604084860312156147ce578081fd5b833567ffffffffffffffff808211156147e5578283fd5b818601915086601f8301126147f8578283fd5b813581811115614806578384fd5b602088818360051b860101111561481b578485fd5b808401965081955080880135935082841115614835578485fd5b838801935088601f850112614848578485fd5b8335925061485861433e84614d1d565b838152818101925084820160e0808602870184018c1015614877578788fd5b8796505b858710156148a35761488d8c83614472565b855260019690960195938301939081019061487b565b505080955050505050509250925092565b6000806000606084860312156148c8578081fd5b833567ffffffffffffffff808211156148df578283fd5b6148eb8783880161440e565b94506020860135915080821115614900578283fd5b61490c8783880161440e565b93506040860135915080821115614921578283fd5b5061492e8682870161440e565b9150509250925092565b600060208284031215614949578081fd5b81356137c581614edd565b600060208284031215614965578081fd5b81516137c581614edd565b60008060008060008060008060006101208a8c03121561498e578283fd5b893561499981614ec8565b985060208a01356149a981614ec8565b975060408a01356149b981614ec8565b965060608a01356149c981614ec8565b955060808a01356149d981614ec8565b945060a08a01356149e981614ec8565b935060c08a01356149f981614ec8565b925060e08a0135614a0981614ec8565b91506101008a0135614a1a81614ec8565b809150509295985092959850929598565b600060208284031215614a3c578081fd5b815167ffffffffffffffff811115614a52578182fd5b8201601f81018413614a62578182fd5b8051614a7061433e82614d41565b818152856020838501011115614a84578384fd5b614a95826020830160208601614df0565b95945050505050565b600060208284031215614aaf578081fd5b5035919050565b6000806101008385031215614ac9578182fd5b82359150614ada8460208501614472565b90509250929050565b60008151808452614afb816020860160208601614df0565b601f01601f19169290920160200192915050565b60008251614b21818460208701614df0565b9190910192915050565b60008551614b3d818460208a01614df0565b855190830190614b51818360208a01614df0565b019384525050602082015260400192915050565b60006001600160a01b03808716835280861660208401525083604083015260806060830152614b976080830184614ae3565b9695505050505050565b6020815260006137c56020830184614ae3565b604081526000614bc76040830185614ae3565b90506001600160a01b03831660208301529392505050565b60a081526000865160e060a0840152614bfc610180840182614ae3565b90506020880151609f19808584030160c0860152614c1a8383614ae3565b925060408a01519150808584030160e0860152614c378383614ae3565b925060608a015191508085840301610100860152614c558383614ae3565b925060808a015191508085840301610120860152614c738383614ae3565b925060a08a015191508085840301610140860152614c918383614ae3565b925060c08a01519150808584030161016086015250614cb08282614ae3565b9150508660208401528281036040840152614ccb8187614ae3565b915050614cdc606083018515159052565b8260808301529695505050505050565b604051601f8201601f1916810167ffffffffffffffff81118282101715614d1557614d15614eb2565b604052919050565b600067ffffffffffffffff821115614d3757614d37614eb2565b5060051b60200190565b600067ffffffffffffffff821115614d5b57614d5b614eb2565b50601f01601f191660200190565b60008219821115614d7c57614d7c614e86565b500190565b600060ff821660ff84168060ff03821115614d9e57614d9e614e86565b019392505050565b600082614db557614db5614e9c565b500490565b6000816000190483118215151615614dd457614dd4614e86565b500290565b600082821015614deb57614deb614e86565b500390565b60005b83811015614e0b578181015183820152602001614df3565b8381111561130e5750506000910152565b600181811c90821680614e3057607f821691505b60208210811415614e5157634e487b7160e01b600052602260045260246000fd5b50919050565b6000600019821415614e6b57614e6b614e86565b5060010190565b600082614e8157614e81614e9c565b500690565b634e487b7160e01b600052601160045260246000fd5b634e487b7160e01b600052601260045260246000fd5b634e487b7160e01b600052604160045260246000fd5b6001600160a01b038116811461154857600080fd5b6001600160e01b03198116811461154857600080fdfea2646970667358221220d4d9acf1dfa7df70455af984a6e113a050bf17fa641acb17b9f84d46f263a0cc64736f6c63430008040033",
  "devdoc": {
    "kind": "dev",
    "methods": {
      "approve(address,uint256)": {
        "details": "See {IERC721-approve}."
      },
      "balanceOf(address)": {
        "details": "See {IERC721-balanceOf}."
      },
      "getApproved(uint256)": {
        "details": "See {IERC721-getApproved}."
      },
      "isApprovedForAll(address,address)": {
        "details": "See {IERC721-isApprovedForAll}."
      },
      "name()": {
        "details": "See {IERC721Metadata-name}."
      },
      "owner()": {
        "details": "Returns the address of the current owner."
      },
      "ownerOf(uint256)": {
        "details": "See {IERC721-ownerOf}."
      },
      "renounceOwnership()": {
        "details": "Leaves the contract without owner. It will not be possible to call `onlyOwner` functions anymore. Can only be called by the current owner. NOTE: Renouncing ownership will leave the contract without an owner, thereby removing any functionality that is only available to the owner."
      },
      "safeTransferFrom(address,address,uint256)": {
        "details": "See {IERC721-safeTransferFrom}."
      },
      "safeTransferFrom(address,address,uint256,bytes)": {
        "details": "See {IERC721-safeTransferFrom}."
      },
      "setApprovalForAll(address,bool)": {
        "details": "See {IERC721-setApprovalForAll}."
      },
      "symbol()": {
        "details": "See {IERC721Metadata-symbol}."
      },
      "tokenByIndex(uint256)": {
        "details": "See {IERC721Enumerable-tokenByIndex}."
      },
      "tokenOfOwnerByIndex(address,uint256)": {
        "details": "See {IERC721Enumerable-tokenOfOwnerByIndex}."
      },
      "tokenURI(uint256)": {
        "details": "See {IERC721Metadata-tokenURI}."
      },
      "totalSupply()": {
        "details": "See {IERC721Enumerable-totalSupply}."
      },
      "transferFrom(address,address,uint256)": {
        "details": "See {IERC721-transferFrom}."
      },
      "transferOwnership(address)": {
        "details": "Transfers ownership of the contract to a new account (`newOwner`). Can only be called by the current owner."
      }
    },
    "version": 1
  },
  "userdoc": {
    "kind": "user",
    "methods": {},
    "version": 1
  },
  "storageLayout": {
    "storage": [
      {
        "astId": 130,
        "contract": "contracts/SettlementsV2.sol:SettlementsV2",
        "label": "_initialized",
        "offset": 0,
        "slot": "0",
        "type": "t_bool"
      },
      {
        "astId": 133,
        "contract": "contracts/SettlementsV2.sol:SettlementsV2",
        "label": "_initializing",
        "offset": 1,
        "slot": "0",
        "type": "t_bool"
      },
      {
        "astId": 1862,
        "contract": "contracts/SettlementsV2.sol:SettlementsV2",
        "label": "__gap",
        "offset": 0,
        "slot": "1",
        "type": "t_array(t_uint256)50_storage"
      },
      {
        "astId": 2111,
        "contract": "contracts/SettlementsV2.sol:SettlementsV2",
        "label": "__gap",
        "offset": 0,
        "slot": "51",
        "type": "t_array(t_uint256)50_storage"
      },
      {
        "astId": 199,
        "contract": "contracts/SettlementsV2.sol:SettlementsV2",
        "label": "_name",
        "offset": 0,
        "slot": "101",
        "type": "t_string_storage"
      },
      {
        "astId": 201,
        "contract": "contracts/SettlementsV2.sol:SettlementsV2",
        "label": "_symbol",
        "offset": 0,
        "slot": "102",
        "type": "t_string_storage"
      },
      {
        "astId": 205,
        "contract": "contracts/SettlementsV2.sol:SettlementsV2",
        "label": "_owners",
        "offset": 0,
        "slot": "103",
        "type": "t_mapping(t_uint256,t_address)"
      },
      {
        "astId": 209,
        "contract": "contracts/SettlementsV2.sol:SettlementsV2",
        "label": "_balances",
        "offset": 0,
        "slot": "104",
        "type": "t_mapping(t_address,t_uint256)"
      },
      {
        "astId": 213,
        "contract": "contracts/SettlementsV2.sol:SettlementsV2",
        "label": "_tokenApprovals",
        "offset": 0,
        "slot": "105",
        "type": "t_mapping(t_uint256,t_address)"
      },
      {
        "astId": 219,
        "contract": "contracts/SettlementsV2.sol:SettlementsV2",
        "label": "_operatorApprovals",
        "offset": 0,
        "slot": "106",
        "type": "t_mapping(t_address,t_mapping(t_address,t_bool))"
      },
      {
        "astId": 1015,
        "contract": "contracts/SettlementsV2.sol:SettlementsV2",
        "label": "__gap",
        "offset": 0,
        "slot": "107",
        "type": "t_array(t_uint256)44_storage"
      },
      {
        "astId": 1189,
        "contract": "contracts/SettlementsV2.sol:SettlementsV2",
        "label": "_ownedTokens",
        "offset": 0,
        "slot": "151",
        "type": "t_mapping(t_address,t_mapping(t_uint256,t_uint256))"
      },
      {
        "astId": 1193,
        "contract": "contracts/SettlementsV2.sol:SettlementsV2",
        "label": "_ownedTokensIndex",
        "offset": 0,
        "slot": "152",
        "type": "t_mapping(t_uint256,t_uint256)"
      },
      {
        "astId": 1196,
        "contract": "contracts/SettlementsV2.sol:SettlementsV2",
        "label": "_allTokens",
        "offset": 0,
        "slot": "153",
        "type": "t_array(t_uint256)dyn_storage"
      },
      {
        "astId": 1200,
        "contract": "contracts/SettlementsV2.sol:SettlementsV2",
        "label": "_allTokensIndex",
        "offset": 0,
        "slot": "154",
        "type": "t_mapping(t_uint256,t_uint256)"
      },
      {
        "astId": 1515,
        "contract": "contracts/SettlementsV2.sol:SettlementsV2",
        "label": "__gap",
        "offset": 0,
        "slot": "155",
        "type": "t_array(t_uint256)46_storage"
      },
      {
        "astId": 10,
        "contract": "contracts/SettlementsV2.sol:SettlementsV2",
        "label": "_owner",
        "offset": 0,
        "slot": "201",
        "type": "t_address"
      },
      {
        "astId": 123,
        "contract": "contracts/SettlementsV2.sol:SettlementsV2",
        "label": "__gap",
        "offset": 0,
        "slot": "202",
        "type": "t_array(t_uint256)49_storage"
      },
      {
        "astId": 7183,
        "contract": "contracts/SettlementsV2.sol:SettlementsV2",
        "label": "legacySettlements",
        "offset": 0,
        "slot": "251",
        "type": "t_contract(SettlementsLegacy)7164"
      },
      {
        "astId": 7186,
        "contract": "contracts/SettlementsV2.sol:SettlementsV2",
        "label": "tokenURIHelperContract",
        "offset": 0,
        "slot": "252",
        "type": "t_contract(TokenURI)9119"
      },
      {
        "astId": 7194,
        "contract": "contracts/SettlementsV2.sol:SettlementsV2",
        "label": "civMultipliers",
        "offset": 0,
        "slot": "253",
        "type": "t_array(t_uint8)dyn_storage"
      },
      {
        "astId": 7197,
        "contract": "contracts/SettlementsV2.sol:SettlementsV2",
        "label": "realmMultipliers",
        "offset": 0,
        "slot": "254",
        "type": "t_array(t_uint8)dyn_storage"
      },
      {
        "astId": 7200,
        "contract": "contracts/SettlementsV2.sol:SettlementsV2",
        "label": "moralMultipliers",
        "offset": 0,
        "slot": "255",
        "type": "t_array(t_uint8)dyn_storage"
      },
      {
        "astId": 7204,
        "contract": "contracts/SettlementsV2.sol:SettlementsV2",
        "label": "resourceTokenAddresses",
        "offset": 0,
        "slot": "256",
        "type": "t_array(t_contract(ERC20Mintable)6240)dyn_storage"
      },
      {
        "astId": 7208,
        "contract": "contracts/SettlementsV2.sol:SettlementsV2",
        "label": "tokenIdToLastHarvest",
        "offset": 0,
        "slot": "257",
        "type": "t_mapping(t_uint256,t_uint256)"
      },
      {
        "astId": 7211,
        "contract": "contracts/SettlementsV2.sol:SettlementsV2",
        "label": "_sizes",
        "offset": 0,
        "slot": "258",
        "type": "t_array(t_string_storage)dyn_storage"
      },
      {
        "astId": 7214,
        "contract": "contracts/SettlementsV2.sol:SettlementsV2",
        "label": "_spirits",
        "offset": 0,
        "slot": "259",
        "type": "t_array(t_string_storage)dyn_storage"
      },
      {
        "astId": 7217,
        "contract": "contracts/SettlementsV2.sol:SettlementsV2",
        "label": "_ages",
        "offset": 0,
        "slot": "260",
        "type": "t_array(t_string_storage)dyn_storage"
      },
      {
        "astId": 7220,
        "contract": "contracts/SettlementsV2.sol:SettlementsV2",
        "label": "_resources",
        "offset": 0,
        "slot": "261",
        "type": "t_array(t_string_storage)dyn_storage"
      },
      {
        "astId": 7223,
        "contract": "contracts/SettlementsV2.sol:SettlementsV2",
        "label": "_morales",
        "offset": 0,
        "slot": "262",
        "type": "t_array(t_string_storage)dyn_storage"
      },
      {
        "astId": 7226,
        "contract": "contracts/SettlementsV2.sol:SettlementsV2",
        "label": "_governments",
        "offset": 0,
        "slot": "263",
        "type": "t_array(t_string_storage)dyn_storage"
      },
      {
        "astId": 7229,
        "contract": "contracts/SettlementsV2.sol:SettlementsV2",
        "label": "_realms",
        "offset": 0,
        "slot": "264",
        "type": "t_array(t_string_storage)dyn_storage"
      },
      {
        "astId": 7404,
        "contract": "contracts/SettlementsV2.sol:SettlementsV2",
        "label": "attrIndex",
        "offset": 0,
        "slot": "265",
        "type": "t_mapping(t_uint256,t_struct(Attributes)7399_storage)"
      }
    ],
    "types": {
      "t_address": {
        "encoding": "inplace",
        "label": "address",
        "numberOfBytes": "20"
      },
      "t_array(t_contract(ERC20Mintable)6240)dyn_storage": {
        "base": "t_contract(ERC20Mintable)6240",
        "encoding": "dynamic_array",
        "label": "contract ERC20Mintable[]",
        "numberOfBytes": "32"
      },
      "t_array(t_string_storage)dyn_storage": {
        "base": "t_string_storage",
        "encoding": "dynamic_array",
        "label": "string[]",
        "numberOfBytes": "32"
      },
      "t_array(t_uint256)44_storage": {
        "base": "t_uint256",
        "encoding": "inplace",
        "label": "uint256[44]",
        "numberOfBytes": "1408"
      },
      "t_array(t_uint256)46_storage": {
        "base": "t_uint256",
        "encoding": "inplace",
        "label": "uint256[46]",
        "numberOfBytes": "1472"
      },
      "t_array(t_uint256)49_storage": {
        "base": "t_uint256",
        "encoding": "inplace",
        "label": "uint256[49]",
        "numberOfBytes": "1568"
      },
      "t_array(t_uint256)50_storage": {
        "base": "t_uint256",
        "encoding": "inplace",
        "label": "uint256[50]",
        "numberOfBytes": "1600"
      },
      "t_array(t_uint256)dyn_storage": {
        "base": "t_uint256",
        "encoding": "dynamic_array",
        "label": "uint256[]",
        "numberOfBytes": "32"
      },
      "t_array(t_uint8)dyn_storage": {
        "base": "t_uint8",
        "encoding": "dynamic_array",
        "label": "uint8[]",
        "numberOfBytes": "32"
      },
      "t_bool": {
        "encoding": "inplace",
        "label": "bool",
        "numberOfBytes": "1"
      },
      "t_contract(ERC20Mintable)6240": {
        "encoding": "inplace",
        "label": "contract ERC20Mintable",
        "numberOfBytes": "20"
      },
      "t_contract(SettlementsLegacy)7164": {
        "encoding": "inplace",
        "label": "contract SettlementsLegacy",
        "numberOfBytes": "20"
      },
      "t_contract(TokenURI)9119": {
        "encoding": "inplace",
        "label": "contract TokenURI",
        "numberOfBytes": "20"
      },
      "t_mapping(t_address,t_bool)": {
        "encoding": "mapping",
        "key": "t_address",
        "label": "mapping(address => bool)",
        "numberOfBytes": "32",
        "value": "t_bool"
      },
      "t_mapping(t_address,t_mapping(t_address,t_bool))": {
        "encoding": "mapping",
        "key": "t_address",
        "label": "mapping(address => mapping(address => bool))",
        "numberOfBytes": "32",
        "value": "t_mapping(t_address,t_bool)"
      },
      "t_mapping(t_address,t_mapping(t_uint256,t_uint256))": {
        "encoding": "mapping",
        "key": "t_address",
        "label": "mapping(address => mapping(uint256 => uint256))",
        "numberOfBytes": "32",
        "value": "t_mapping(t_uint256,t_uint256)"
      },
      "t_mapping(t_address,t_uint256)": {
        "encoding": "mapping",
        "key": "t_address",
        "label": "mapping(address => uint256)",
        "numberOfBytes": "32",
        "value": "t_uint256"
      },
      "t_mapping(t_uint256,t_address)": {
        "encoding": "mapping",
        "key": "t_uint256",
        "label": "mapping(uint256 => address)",
        "numberOfBytes": "32",
        "value": "t_address"
      },
      "t_mapping(t_uint256,t_struct(Attributes)7399_storage)": {
        "encoding": "mapping",
        "key": "t_uint256",
        "label": "mapping(uint256 => struct SettlementsV2.Attributes)",
        "numberOfBytes": "32",
        "value": "t_struct(Attributes)7399_storage"
      },
      "t_mapping(t_uint256,t_uint256)": {
        "encoding": "mapping",
        "key": "t_uint256",
        "label": "mapping(uint256 => uint256)",
        "numberOfBytes": "32",
        "value": "t_uint256"
      },
      "t_string_storage": {
        "encoding": "bytes",
        "label": "string",
        "numberOfBytes": "32"
      },
      "t_struct(Attributes)7399_storage": {
        "encoding": "inplace",
        "label": "struct SettlementsV2.Attributes",
        "members": [
          {
            "astId": 7386,
            "contract": "contracts/SettlementsV2.sol:SettlementsV2",
            "label": "size",
            "offset": 0,
            "slot": "0",
            "type": "t_uint8"
          },
          {
            "astId": 7388,
            "contract": "contracts/SettlementsV2.sol:SettlementsV2",
            "label": "spirit",
            "offset": 1,
            "slot": "0",
            "type": "t_uint8"
          },
          {
            "astId": 7390,
            "contract": "contracts/SettlementsV2.sol:SettlementsV2",
            "label": "age",
            "offset": 2,
            "slot": "0",
            "type": "t_uint8"
          },
          {
            "astId": 7392,
            "contract": "contracts/SettlementsV2.sol:SettlementsV2",
            "label": "resource",
            "offset": 3,
            "slot": "0",
            "type": "t_uint8"
          },
          {
            "astId": 7394,
            "contract": "contracts/SettlementsV2.sol:SettlementsV2",
            "label": "morale",
            "offset": 4,
            "slot": "0",
            "type": "t_uint8"
          },
          {
            "astId": 7396,
            "contract": "contracts/SettlementsV2.sol:SettlementsV2",
            "label": "government",
            "offset": 5,
            "slot": "0",
            "type": "t_uint8"
          },
          {
            "astId": 7398,
            "contract": "contracts/SettlementsV2.sol:SettlementsV2",
            "label": "turns",
            "offset": 6,
            "slot": "0",
            "type": "t_uint8"
          }
        ],
        "numberOfBytes": "32"
      },
      "t_uint256": {
        "encoding": "inplace",
        "label": "uint256",
        "numberOfBytes": "32"
      },
      "t_uint8": {
        "encoding": "inplace",
        "label": "uint8",
        "numberOfBytes": "1"
      }
    }
  }
}