{
  "address": "0x7dDc6c3076E587b45aDc579C2439Dc118101DEc6",
  "abi": [
    {
      "inputs": [
        {
          "internalType": "contract SettlementsLegacy",
          "name": "_legacyAddress",
          "type": "address"
        },
        {
          "internalType": "contract ERC20Mintable",
          "name": "ironToken_",
          "type": "address"
        },
        {
          "internalType": "contract ERC20Mintable",
          "name": "goldToken_",
          "type": "address"
        },
        {
          "internalType": "contract ERC20Mintable",
          "name": "silverToken_",
          "type": "address"
        },
        {
          "internalType": "contract ERC20Mintable",
          "name": "woodToken_",
          "type": "address"
        },
        {
          "internalType": "contract ERC20Mintable",
          "name": "woolToken_",
          "type": "address"
        },
        {
          "internalType": "contract ERC20Mintable",
          "name": "waterToken_",
          "type": "address"
        },
        {
          "internalType": "contract ERC20Mintable",
          "name": "grassToken_",
          "type": "address"
        },
        {
          "internalType": "contract ERC20Mintable",
          "name": "grainToken_",
          "type": "address"
        }
      ],
      "stateMutability": "nonpayable",
      "type": "constructor"
    },
    {
      "anonymous": false,
      "inputs": [
        {
          "indexed": true,
          "internalType": "address",
          "name": "owner",
          "type": "address"
        },
        {
          "indexed": true,
          "internalType": "address",
          "name": "approved",
          "type": "address"
        },
        {
          "indexed": true,
          "internalType": "uint256",
          "name": "tokenId",
          "type": "uint256"
        }
      ],
      "name": "Approval",
      "type": "event"
    },
    {
      "anonymous": false,
      "inputs": [
        {
          "indexed": true,
          "internalType": "address",
          "name": "owner",
          "type": "address"
        },
        {
          "indexed": true,
          "internalType": "address",
          "name": "operator",
          "type": "address"
        },
        {
          "indexed": false,
          "internalType": "bool",
          "name": "approved",
          "type": "bool"
        }
      ],
      "name": "ApprovalForAll",
      "type": "event"
    },
    {
      "anonymous": false,
      "inputs": [
        {
          "indexed": true,
          "internalType": "address",
          "name": "previousOwner",
          "type": "address"
        },
        {
          "indexed": true,
          "internalType": "address",
          "name": "newOwner",
          "type": "address"
        }
      ],
      "name": "OwnershipTransferred",
      "type": "event"
    },
    {
      "anonymous": false,
      "inputs": [
        {
          "indexed": true,
          "internalType": "address",
          "name": "from",
          "type": "address"
        },
        {
          "indexed": true,
          "internalType": "address",
          "name": "to",
          "type": "address"
        },
        {
          "indexed": true,
          "internalType": "uint256",
          "name": "tokenId",
          "type": "uint256"
        }
      ],
      "name": "Transfer",
      "type": "event"
    },
    {
      "inputs": [
        {
          "internalType": "uint256",
          "name": "",
          "type": "uint256"
        }
      ],
      "name": "_ages",
      "outputs": [
        {
          "internalType": "string",
          "name": "",
          "type": "string"
        }
      ],
      "stateMutability": "view",
      "type": "function"
    },
    {
      "inputs": [
        {
          "internalType": "uint256",
          "name": "",
          "type": "uint256"
        }
      ],
      "name": "_governments",
      "outputs": [
        {
          "internalType": "string",
          "name": "",
          "type": "string"
        }
      ],
      "stateMutability": "view",
      "type": "function"
    },
    {
      "inputs": [
        {
          "internalType": "uint256",
          "name": "",
          "type": "uint256"
        }
      ],
      "name": "_morales",
      "outputs": [
        {
          "internalType": "string",
          "name": "",
          "type": "string"
        }
      ],
      "stateMutability": "view",
      "type": "function"
    },
    {
      "inputs": [
        {
          "internalType": "uint256",
          "name": "",
          "type": "uint256"
        }
      ],
      "name": "_realms",
      "outputs": [
        {
          "internalType": "string",
          "name": "",
          "type": "string"
        }
      ],
      "stateMutability": "view",
      "type": "function"
    },
    {
      "inputs": [
        {
          "internalType": "uint256",
          "name": "",
          "type": "uint256"
        }
      ],
      "name": "_resources",
      "outputs": [
        {
          "internalType": "string",
          "name": "",
          "type": "string"
        }
      ],
      "stateMutability": "view",
      "type": "function"
    },
    {
      "inputs": [
        {
          "internalType": "uint256",
          "name": "",
          "type": "uint256"
        }
      ],
      "name": "_sizes",
      "outputs": [
        {
          "internalType": "string",
          "name": "",
          "type": "string"
        }
      ],
      "stateMutability": "view",
      "type": "function"
    },
    {
      "inputs": [
        {
          "internalType": "uint256",
          "name": "",
          "type": "uint256"
        }
      ],
      "name": "_spirits",
      "outputs": [
        {
          "internalType": "string",
          "name": "",
          "type": "string"
        }
      ],
      "stateMutability": "view",
      "type": "function"
    },
    {
      "inputs": [
        {
          "internalType": "address",
          "name": "to",
          "type": "address"
        },
        {
          "internalType": "uint256",
          "name": "tokenId",
          "type": "uint256"
        }
      ],
      "name": "approve",
      "outputs": [],
      "stateMutability": "nonpayable",
      "type": "function"
    },
    {
      "inputs": [
        {
          "internalType": "uint256",
          "name": "",
          "type": "uint256"
        }
      ],
      "name": "attrIndex",
      "outputs": [
        {
          "internalType": "uint8",
          "name": "size",
          "type": "uint8"
        },
        {
          "internalType": "uint8",
          "name": "spirit",
          "type": "uint8"
        },
        {
          "internalType": "uint8",
          "name": "age",
          "type": "uint8"
        },
        {
          "internalType": "uint8",
          "name": "resource",
          "type": "uint8"
        },
        {
          "internalType": "uint8",
          "name": "morale",
          "type": "uint8"
        },
        {
          "internalType": "uint8",
          "name": "government",
          "type": "uint8"
        },
        {
          "internalType": "uint8",
          "name": "turns",
          "type": "uint8"
        }
      ],
      "stateMutability": "view",
      "type": "function"
    },
    {
      "inputs": [
        {
          "internalType": "address",
          "name": "owner",
          "type": "address"
        }
      ],
      "name": "balanceOf",
      "outputs": [
        {
          "internalType": "uint256",
          "name": "",
          "type": "uint256"
        }
      ],
      "stateMutability": "view",
      "type": "function"
    },
    {
      "inputs": [
        {
          "internalType": "uint256",
          "name": "",
          "type": "uint256"
        }
      ],
      "name": "civMultipliers",
      "outputs": [
        {
          "internalType": "uint8",
          "name": "",
          "type": "uint8"
        }
      ],
      "stateMutability": "view",
      "type": "function"
    },
    {
      "inputs": [
        {
          "internalType": "uint256",
          "name": "tokenId",
          "type": "uint256"
        },
        {
          "components": [
            {
              "internalType": "uint8",
              "name": "size",
              "type": "uint8"
            },
            {
              "internalType": "uint8",
              "name": "spirit",
              "type": "uint8"
            },
            {
              "internalType": "uint8",
              "name": "age",
              "type": "uint8"
            },
            {
              "internalType": "uint8",
              "name": "resource",
              "type": "uint8"
            },
            {
              "internalType": "uint8",
              "name": "morale",
              "type": "uint8"
            },
            {
              "internalType": "uint8",
              "name": "government",
              "type": "uint8"
            },
            {
              "internalType": "uint8",
              "name": "turns",
              "type": "uint8"
            }
          ],
          "internalType": "struct SettlementsV2.Attributes",
          "name": "attributes",
          "type": "tuple"
        }
      ],
      "name": "claim",
      "outputs": [],
      "stateMutability": "nonpayable",
      "type": "function"
    },
    {
      "inputs": [
        {
          "internalType": "uint256",
          "name": "tokenId",
          "type": "uint256"
        }
      ],
      "name": "getApproved",
      "outputs": [
        {
          "internalType": "address",
          "name": "",
          "type": "address"
        }
      ],
      "stateMutability": "view",
      "type": "function"
    },
    {
      "inputs": [
        {
          "internalType": "uint256",
          "name": "tokenId",
          "type": "uint256"
        }
      ],
      "name": "getSettlementAge",
      "outputs": [
        {
          "internalType": "string",
          "name": "",
          "type": "string"
        }
      ],
      "stateMutability": "view",
      "type": "function"
    },
    {
      "inputs": [
        {
          "internalType": "uint256",
          "name": "tokenId",
          "type": "uint256"
        }
      ],
      "name": "getSettlementGovernment",
      "outputs": [
        {
          "internalType": "string",
          "name": "",
          "type": "string"
        }
      ],
      "stateMutability": "view",
      "type": "function"
    },
    {
      "inputs": [
        {
          "internalType": "uint256",
          "name": "tokenId",
          "type": "uint256"
        }
      ],
      "name": "getSettlementMorale",
      "outputs": [
        {
          "internalType": "string",
          "name": "",
          "type": "string"
        }
      ],
      "stateMutability": "view",
      "type": "function"
    },
    {
      "inputs": [
        {
          "internalType": "uint256",
          "name": "tokenId",
          "type": "uint256"
        }
      ],
      "name": "getSettlementRealm",
      "outputs": [
        {
          "internalType": "string",
          "name": "",
          "type": "string"
        }
      ],
      "stateMutability": "view",
      "type": "function"
    },
    {
      "inputs": [
        {
          "internalType": "uint256",
          "name": "tokenId",
          "type": "uint256"
        }
      ],
      "name": "getSettlementResource",
      "outputs": [
        {
          "internalType": "string",
          "name": "",
          "type": "string"
        }
      ],
      "stateMutability": "view",
      "type": "function"
    },
    {
      "inputs": [
        {
          "internalType": "uint256",
          "name": "tokenId",
          "type": "uint256"
        }
      ],
      "name": "getSettlementSize",
      "outputs": [
        {
          "internalType": "string",
          "name": "",
          "type": "string"
        }
      ],
      "stateMutability": "view",
      "type": "function"
    },
    {
      "inputs": [
        {
          "internalType": "uint256",
          "name": "tokenId",
          "type": "uint256"
        }
      ],
      "name": "getSettlementSpirit",
      "outputs": [
        {
          "internalType": "string",
          "name": "",
          "type": "string"
        }
      ],
      "stateMutability": "view",
      "type": "function"
    },
    {
      "inputs": [
        {
          "internalType": "uint256",
          "name": "tokenId",
          "type": "uint256"
        }
      ],
      "name": "getUnharvestedTokens",
      "outputs": [
        {
          "internalType": "contract ERC20Mintable",
          "name": "",
          "type": "address"
        },
        {
          "internalType": "uint256",
          "name": "",
          "type": "uint256"
        }
      ],
      "stateMutability": "view",
      "type": "function"
    },
    {
      "inputs": [
        {
          "internalType": "uint256",
          "name": "tokenId",
          "type": "uint256"
        }
      ],
      "name": "harvest",
      "outputs": [],
      "stateMutability": "nonpayable",
      "type": "function"
    },
    {
      "inputs": [
        {
          "internalType": "address",
          "name": "owner",
          "type": "address"
        },
        {
          "internalType": "address",
          "name": "operator",
          "type": "address"
        }
      ],
      "name": "isApprovedForAll",
      "outputs": [
        {
          "internalType": "bool",
          "name": "",
          "type": "bool"
        }
      ],
      "stateMutability": "view",
      "type": "function"
    },
    {
      "inputs": [
        {
          "internalType": "uint256[]",
          "name": "tokenIds",
          "type": "uint256[]"
        },
        {
          "components": [
            {
              "internalType": "uint8",
              "name": "size",
              "type": "uint8"
            },
            {
              "internalType": "uint8",
              "name": "spirit",
              "type": "uint8"
            },
            {
              "internalType": "uint8",
              "name": "age",
              "type": "uint8"
            },
            {
              "internalType": "uint8",
              "name": "resource",
              "type": "uint8"
            },
            {
              "internalType": "uint8",
              "name": "morale",
              "type": "uint8"
            },
            {
              "internalType": "uint8",
              "name": "government",
              "type": "uint8"
            },
            {
              "internalType": "uint8",
              "name": "turns",
              "type": "uint8"
            }
          ],
          "internalType": "struct SettlementsV2.Attributes[]",
          "name": "tokenAttributes",
          "type": "tuple[]"
        }
      ],
      "name": "multiClaim",
      "outputs": [],
      "stateMutability": "nonpayable",
      "type": "function"
    },
    {
      "inputs": [],
      "name": "name",
      "outputs": [
        {
          "internalType": "string",
          "name": "",
          "type": "string"
        }
      ],
      "stateMutability": "view",
      "type": "function"
    },
    {
      "inputs": [],
      "name": "owner",
      "outputs": [
        {
          "internalType": "address",
          "name": "",
          "type": "address"
        }
      ],
      "stateMutability": "view",
      "type": "function"
    },
    {
      "inputs": [
        {
          "internalType": "uint256",
          "name": "tokenId",
          "type": "uint256"
        }
      ],
      "name": "ownerOf",
      "outputs": [
        {
          "internalType": "address",
          "name": "",
          "type": "address"
        }
      ],
      "stateMutability": "view",
      "type": "function"
    },
    {
      "inputs": [
        {
          "internalType": "uint256",
          "name": "tokenId",
          "type": "uint256"
        }
      ],
      "name": "randomise",
      "outputs": [],
      "stateMutability": "nonpayable",
      "type": "function"
    },
    {
      "inputs": [
        {
          "internalType": "uint256",
          "name": "",
          "type": "uint256"
        }
      ],
      "name": "realmMultipliers",
      "outputs": [
        {
          "internalType": "uint8",
          "name": "",
          "type": "uint8"
        }
      ],
      "stateMutability": "view",
      "type": "function"
    },
    {
      "inputs": [],
      "name": "renounceOwnership",
      "outputs": [],
      "stateMutability": "nonpayable",
      "type": "function"
    },
    {
      "inputs": [
        {
          "internalType": "uint256",
          "name": "",
          "type": "uint256"
        }
      ],
      "name": "resourceTokenAddresses",
      "outputs": [
        {
          "internalType": "contract ERC20Mintable",
          "name": "",
          "type": "address"
        }
      ],
      "stateMutability": "view",
      "type": "function"
    },
    {
      "inputs": [
        {
          "internalType": "address",
          "name": "from",
          "type": "address"
        },
        {
          "internalType": "address",
          "name": "to",
          "type": "address"
        },
        {
          "internalType": "uint256",
          "name": "tokenId",
          "type": "uint256"
        }
      ],
      "name": "safeTransferFrom",
      "outputs": [],
      "stateMutability": "nonpayable",
      "type": "function"
    },
    {
      "inputs": [
        {
          "internalType": "address",
          "name": "from",
          "type": "address"
        },
        {
          "internalType": "address",
          "name": "to",
          "type": "address"
        },
        {
          "internalType": "uint256",
          "name": "tokenId",
          "type": "uint256"
        },
        {
          "internalType": "bytes",
          "name": "_data",
          "type": "bytes"
        }
      ],
      "name": "safeTransferFrom",
      "outputs": [],
      "stateMutability": "nonpayable",
      "type": "function"
    },
    {
      "inputs": [
        {
          "internalType": "address",
          "name": "operator",
          "type": "address"
        },
        {
          "internalType": "bool",
          "name": "approved",
          "type": "bool"
        }
      ],
      "name": "setApprovalForAll",
      "outputs": [],
      "stateMutability": "nonpayable",
      "type": "function"
    },
    {
      "inputs": [
        {
          "internalType": "bytes4",
          "name": "interfaceId",
          "type": "bytes4"
        }
      ],
      "name": "supportsInterface",
      "outputs": [
        {
          "internalType": "bool",
          "name": "",
          "type": "bool"
        }
      ],
      "stateMutability": "view",
      "type": "function"
    },
    {
      "inputs": [],
      "name": "symbol",
      "outputs": [
        {
          "internalType": "string",
          "name": "",
          "type": "string"
        }
      ],
      "stateMutability": "view",
      "type": "function"
    },
    {
      "inputs": [
        {
          "internalType": "uint256",
          "name": "index",
          "type": "uint256"
        }
      ],
      "name": "tokenByIndex",
      "outputs": [
        {
          "internalType": "uint256",
          "name": "",
          "type": "uint256"
        }
      ],
      "stateMutability": "view",
      "type": "function"
    },
    {
      "inputs": [
        {
          "internalType": "uint256",
          "name": "",
          "type": "uint256"
        }
      ],
      "name": "tokenIdToLastHarvest",
      "outputs": [
        {
          "internalType": "uint256",
          "name": "",
          "type": "uint256"
        }
      ],
      "stateMutability": "view",
      "type": "function"
    },
    {
      "inputs": [
        {
          "internalType": "address",
          "name": "owner",
          "type": "address"
        },
        {
          "internalType": "uint256",
          "name": "index",
          "type": "uint256"
        }
      ],
      "name": "tokenOfOwnerByIndex",
      "outputs": [
        {
          "internalType": "uint256",
          "name": "",
          "type": "uint256"
        }
      ],
      "stateMutability": "view",
      "type": "function"
    },
    {
      "inputs": [
        {
          "internalType": "uint256",
          "name": "tokenId",
          "type": "uint256"
        }
      ],
      "name": "tokenURI",
      "outputs": [
        {
          "internalType": "string",
          "name": "",
          "type": "string"
        }
      ],
      "stateMutability": "view",
      "type": "function"
    },
    {
      "inputs": [],
      "name": "totalSupply",
      "outputs": [
        {
          "internalType": "uint256",
          "name": "",
          "type": "uint256"
        }
      ],
      "stateMutability": "view",
      "type": "function"
    },
    {
      "inputs": [
        {
          "internalType": "address",
          "name": "from",
          "type": "address"
        },
        {
          "internalType": "address",
          "name": "to",
          "type": "address"
        },
        {
          "internalType": "uint256",
          "name": "tokenId",
          "type": "uint256"
        }
      ],
      "name": "transferFrom",
      "outputs": [],
      "stateMutability": "nonpayable",
      "type": "function"
    },
    {
      "inputs": [
        {
          "internalType": "address",
          "name": "newOwner",
          "type": "address"
        }
      ],
      "name": "transferOwnership",
      "outputs": [],
      "stateMutability": "nonpayable",
      "type": "function"
    }
  ],
  "transactionHash": "0xdc981f5699b70afd1dd5593276fc330ec1304bcd11947f56e75414e7b009f7a9",
  "args": [
    "0xc21B7314e898200c79F9e08FE287D3bAde1F59c3",
    "0xE86DA8a0fE6585323074C5C989c9DaB67407Bdea",
    "0x82526b9Ce7d402cB7560f669B726FFcd66a812d8",
    "0x518d6a04BD8D21B1952A066a1285f2D2CB6a36c5",
    "0x7796B4d1C9636C93Fb0ed592570A5Ea12fb07CDD",
    "0xE9A909C398e5393f64F5F4d87c1211E02fF27Ab2",
    "0xD456b07F508deB7407dFC395AE7A5613905B6074",
    "0x2f68d95a6C116B31DE75b603A6a6Ec910FB4D59f",
    "0x270FA4e8C72969ad03dC268D33411fb7c675ec07"
  ],
  "solcInputHash": "d212338acf599a307d87ecbe8fff9297",
  "bytecode": "0x61018060405260016080908152600260a052600360c052600460e05260056101005260066101205260076101405260086101608190526200004391600d9162000a07565b506040805160c08101825260038152600260208201526001918101829052606081018290526080810191909152600560a08201526200008790600e90600662000a07565b5060405180610100016040528060405180604001604052806004815260200163043616d760e41b81525081526020016040518060400160405280600681526020016512185b5b195d60d21b81525081526020016040518060400160405280600781526020016656696c6c61676560c81b8152508152602001604051806040016040528060048152602001632a37bbb760e11b815250815260200160405180604001604052806008815260200167111a5cdd1c9a58dd60c21b815250815260200160405180604001604052806008815260200167141c9958da5b98dd60c21b81525081526020016040518060400160405280600781526020016610d85c1a5d1bdb60ca1b815250815260200160405180604001604052806005815260200164537461746560d81b8152508152506011906008620001c592919062000ab4565b506040805160e081018252600560a082018181526408ac2e4e8d60db1b60c084015282528251808401845260048152634669726560e01b6020828101919091528084019190915283518085018552828152642bb0ba32b960d91b818301528385015283518085018552600381526220b4b960e91b81830152606084015283518085019094526006845265105cdd1c985b60d21b90840152608082019290925262000273916012919062000b14565b5060405180610100016040528060405180604001604052806007815260200166105b98da595b9d60ca1b81525081526020016040518060400160405280600981526020016810db185cdcda58d85b60ba1b8152508152602001604051806040016040528060088152602001671359591a595d985b60c21b81525081526020016040518060400160405280600b81526020016a52656e61697373616e636560a81b81525081526020016040518060400160405280600a815260200169125b991d5cdd1c9a585b60b21b81525081526020016040518060400160405280600681526020016526b7b232b93760d11b81525081526020016040518060400160405280600b81526020016a24b73337b936b0ba34b7b760a91b81525081526020016040518060400160405280600681526020016546757475726560d01b8152508152506013906008620003c492919062000ab4565b506040805161014081018252600461010082018181526324b937b760e11b6101208401528252825180840184528181526311dbdb1960e21b6020828101919091528084019190915283518085018552600681526529b4b63b32b960d11b8183015283850152835180850185528281526315dbdbd960e21b818301526060840152835180850185529182526315dbdbdb60e21b828201526080830191909152825180840184526005808252642bb0ba32b960d91b8284015260a08401919091528351808501855281815264477261737360d81b8184015260c0840152835180850190945283526423b930b4b760d91b9083015260e0810191909152620004ce90601490600862000ab4565b5060408051610180810182526009610140820181815268115e1c1958dd185b9d60ba1b610160840152825282518084018452600b81526a115b9b1a59da1d195b995960aa1b6020828101919091528084019190915283518085018552600a808252694469736d69737369766560b01b828401528486019190915284518086018652600780825266556e686170707960c81b828501526060860191909152855180870187526005815264486170707960d81b8185015260808601528551808701875284815268155b991958da59195960ba1b8185015260a0860152855180870187529081526657617272696e6760c81b8184015260c08501528451808601865260068082526514d8d85c995960d21b8285015260e08601919091528551808701875290815265556e72756c7960d01b81840152610100850152845180860190955291845268105b985c98da1a5cdd60ba1b908401526101208201929092526200063a916015919062000b66565b506040805161016081018252600961012082018181526844656d6f637261637960b81b61014084015282528251808401845281815268436f6d6d756e69736d60b81b602082810191909152808401919091528351808501855282815268536f6369616c69736d60b81b818301528385015283518085018552828152684f6c6967617263687960b81b81830152606084015283518085018552600b8082526a41726973746f637261637960a81b8284015260808501919091528451808601865260088152674d6f6e617263687960c01b8184015260a085015284518086018652838152685468656f637261637960b81b8184015260c0850152845180860186529081526a436f6c6f6e69616c69736d60a81b8183015260e08401528351808501909452600c84526b04469637461746f72736869760a41b908401526101008201929092526200078c916016919062000bb8565b506040518060c001604052806040518060400160405280600781526020016647656e6573697360c81b81525081526020016040518060400160405280600881526020016756616c68616c6c6160c01b8152508152602001604051806040016040528060088152602001674b65736b656c6c6160c01b815250815260200160405180604001604052806006815260200165536861646f7760d01b815250815260200160405180604001604052806006815260200165506c61696e7360d01b815250815260200160405180604001604052806004815260200163456e647360e01b81525081525060179060066200088392919062000c0a565b503480156200089157600080fd5b506040516200667838038062006678833981016040819052620008b49162000dab565b604080518082018252600b81526a536574746c656d656e747360a81b60208083019182528351808501909452600384526214d51360ea1b908401528151919291620009029160009162000c5c565b5080516200091890600190602084019062000c5c565b50506001600a55506200092b33620009b5565b600c80546001600160a01b0319166001600160a01b038b81169190911790915560408051610100810182528a831681528983166020820152888316918101919091528682166060820152858216608082015284821660a082015283821660c082015290821660e0820152620009a590600f90600862000cd9565b5050505050505050505062000ed4565b600b80546001600160a01b038381166001600160a01b0319831681179093556040519116919082907f8be0079c531659141344cd1fd0a4f28419497f9722a3daafe3b4186f6b6457e090600090a35050565b82805482825590600052602060002090601f0160209004810192821562000aa25791602002820160005b8382111562000a7157835183826101000a81548160ff021916908360ff160217905550926020019260010160208160000104928301926001030262000a31565b801562000aa05782816101000a81549060ff021916905560010160208160000104928301926001030262000a71565b505b5062000ab092915062000d31565b5090565b82805482825590600052602060002090810192821562000b06579160200282015b8281111562000b06578251805162000af591849160209091019062000c5c565b509160200191906001019062000ad5565b5062000ab092915062000d48565b82805482825590600052602060002090810192821562000b06579160200282015b8281111562000b06578251805162000b5591849160209091019062000c5c565b509160200191906001019062000b35565b82805482825590600052602060002090810192821562000b06579160200282015b8281111562000b06578251805162000ba791849160209091019062000c5c565b509160200191906001019062000b87565b82805482825590600052602060002090810192821562000b06579160200282015b8281111562000b06578251805162000bf991849160209091019062000c5c565b509160200191906001019062000bd9565b82805482825590600052602060002090810192821562000b06579160200282015b8281111562000b06578251805162000c4b91849160209091019062000c5c565b509160200191906001019062000c2b565b82805462000c6a9062000e81565b90600052602060002090601f01602090048101928262000c8e576000855562000aa2565b82601f1062000ca957805160ff191683800117855562000aa2565b8280016001018555821562000aa2579182015b8281111562000aa257825182559160200191906001019062000cbc565b82805482825590600052602060002090810192821562000aa2579160200282015b8281111562000aa257825182546001600160a01b0319166001600160a01b0390911617825560209092019160019091019062000cfa565b5b8082111562000ab0576000815560010162000d32565b8082111562000ab057600062000d5f828262000d69565b5060010162000d48565b50805462000d779062000e81565b6000825580601f1062000d88575050565b601f01602090049060005260206000209081019062000da8919062000d31565b50565b60008060008060008060008060006101208a8c03121562000dca578485fd5b895162000dd78162000ebe565b60208b015190995062000dea8162000ebe565b60408b015190985062000dfd8162000ebe565b60608b015190975062000e108162000ebe565b60808b015190965062000e238162000ebe565b60a08b015190955062000e368162000ebe565b60c08b015190945062000e498162000ebe565b60e08b015190935062000e5c8162000ebe565b6101008b015190925062000e708162000ebe565b809150509295985092959850929598565b600181811c9082168062000e9657607f821691505b6020821081141562000eb857634e487b7160e01b600052602260045260246000fd5b50919050565b6001600160a01b038116811462000da857600080fd5b6157948062000ee46000396000f3fe608060405234801561001057600080fd5b50600436106102e95760003560e01c80636658417d11610191578063aa62581e116100e3578063cb4f52f811610097578063ed52a0ce11610071578063ed52a0ce146106f6578063ef0b22b414610709578063f2fde38b1461071c57600080fd5b8063cb4f52f814610694578063ddc63262146106a7578063e985e9c5146106ba57600080fd5b8063c3332939116100c8578063c33329391461065b578063c87b56dd1461066e578063cb133b0f1461068157600080fd5b8063aa62581e14610635578063b88d4fde1461064857600080fd5b8063715018a6116101455780638da5cb5b1161011f5780638da5cb5b1461060957806395d89b411461061a578063a22cb4651461062257600080fd5b8063715018a6146105bc578063746eae59146105c45780637d7f7840146105d757600080fd5b80636db99c6d116101765780636db99c6d146105835780636f3574cd1461059657806370a08231146105a957600080fd5b80636658417d14610550578063684d07701461056357600080fd5b80632f745c591161024a578063491d8a58116101fe5780635f197aa3116101d85780635f197aa3146105055780636352211e1461052a57806364449c9c1461053d57600080fd5b8063491d8a58146104cc5780634efce841146104df5780634f6ccce7146104f257600080fd5b80633da391e31161022f5780633da391e314610493578063404936b4146104a657806342842e0e146104b957600080fd5b80632f745c591461046d57806334dbc3b31461048057600080fd5b806318160ddd116102a15780632198370711610286578063219837071461043457806323b872dd146104475780632a65294e1461045a57600080fd5b806318160ddd1461037e57806318f5de381461039057600080fd5b806306fdde03116102d257806306fdde0314610336578063081812fc1461033e578063095ea7b31461036957600080fd5b806301ffc9a7146102ee57806305333acf14610316575b600080fd5b6103016102fc366004614c45565b61072f565b60405190151581526020015b60405180910390f35b610329610324366004614cf0565b610740565b60405161030d9190615234565b61032961087e565b61035161034c366004614cf0565b610910565b6040516001600160a01b03909116815260200161030d565b61037c610377366004614b10565b6109a5565b005b6008545b60405190815260200161030d565b6103f161039e366004614cf0565b60186020526000908152604090205460ff808216916101008104821691620100008204811691630100000081048216916401000000008204811691650100000000008104821691600160301b9091041687565b6040805160ff9889168152968816602088015294871694860194909452918516606085015284166080840152831660a083015290911660c082015260e00161030d565b610329610442366004614cf0565b610abb565b61037c6104553660046149f8565b610b67565b610329610468366004614cf0565b610be2565b61038261047b366004614b10565b610c81565b61032961048e366004614cf0565b610d29565b6103296104a1366004614cf0565b610d39565b6103296104b4366004614cf0565b610dd6565b61037c6104c73660046149f8565b610de6565b61037c6104da366004614d08565b610e01565b6103296104ed366004614cf0565b61107e565b610382610500366004614cf0565b61108e565b610518610513366004614cf0565b611140565b60405160ff909116815260200161030d565b610351610538366004614cf0565b611174565b61037c61054b366004614cf0565b6111eb565b61032961055e366004614cf0565b61133a565b610382610571366004614cf0565b60106020526000908152604090205481565b610518610591366004614cf0565b61134a565b6103296105a4366004614cf0565b61135a565b6103826105b73660046149ac565b6113f8565b61037c61147f565b6103296105d2366004614cf0565b6114e5565b6105ea6105e5366004614cf0565b6114f5565b604080516001600160a01b03909316835260208301919091520161030d565b600b546001600160a01b0316610351565b6103296116c6565b61037c610630366004614ad6565b6116d5565b610329610643366004614cf0565b61179a565b61037c610656366004614a33565b61183b565b610329610669366004614cf0565b6118b7565b61032961067c366004614cf0565b6118c7565b61037c61068f366004614b39565b6118d4565b6103296106a2366004614cf0565b6119ac565b61037c6106b5366004614cf0565b611a4c565b6103016106c83660046149c6565b6001600160a01b03918216600090815260056020908152604080832093909416825291909152205460ff1690565b610351610704366004614cf0565b611ae9565b610329610717366004614cf0565b611b13565b61037c61072a3660046149ac565b611bab565b600061073a82611c76565b92915050565b6000818152600260205260409020546060906001600160a01b03166107a85760405162461bcd60e51b815260206004820152601960248201527814d95d1d1b195b595b9d08191bd95cc81b9bdd08195e1a5cdd603a1b60448201526064015b60405180910390fd5b600082815260186020526040902054601780549091600160301b900460ff169081106107e457634e487b7160e01b600052603260045260246000fd5b9060005260206000200180546107f99061532e565b80601f01602080910402602001604051908101604052809291908181526020018280546108259061532e565b80156108725780601f1061084757610100808354040283529160200191610872565b820191906000526020600020905b81548152906001019060200180831161085557829003601f168201915b50505050509050919050565b60606000805461088d9061532e565b80601f01602080910402602001604051908101604052809291908181526020018280546108b99061532e565b80156109065780601f106108db57610100808354040283529160200191610906565b820191906000526020600020905b8154815290600101906020018083116108e957829003601f168201915b5050505050905090565b6000818152600260205260408120546001600160a01b03166109895760405162461bcd60e51b815260206004820152602c60248201527f4552433732313a20617070726f76656420717565727920666f72206e6f6e657860448201526b34b9ba32b73a103a37b5b2b760a11b606482015260840161079f565b506000908152600460205260409020546001600160a01b031690565b60006109b082611174565b9050806001600160a01b0316836001600160a01b03161415610a1e5760405162461bcd60e51b815260206004820152602160248201527f4552433732313a20617070726f76616c20746f2063757272656e74206f776e656044820152603960f91b606482015260840161079f565b336001600160a01b0382161480610a3a5750610a3a81336106c8565b610aac5760405162461bcd60e51b815260206004820152603860248201527f4552433732313a20617070726f76652063616c6c6572206973206e6f74206f7760448201527f6e6572206e6f7220617070726f76656420666f7220616c6c0000000000000000606482015260840161079f565b610ab68383611c9b565b505050565b60178181548110610acb57600080fd5b906000526020600020016000915090508054610ae69061532e565b80601f0160208091040260200160405190810160405280929190818152602001828054610b129061532e565b8015610b5f5780601f10610b3457610100808354040283529160200191610b5f565b820191906000526020600020905b815481529060010190602001808311610b4257829003601f168201915b505050505081565b610b713382611d09565b610bd75760405162461bcd60e51b815260206004820152603160248201527f4552433732313a207472616e736665722063616c6c6572206973206e6f74206f6044820152701ddb995c881b9bdc88185c1c1c9bdd9959607a1b606482015260840161079f565b610ab6838383611e00565b6000818152600260205260409020546060906001600160a01b0316610c455760405162461bcd60e51b815260206004820152601960248201527814d95d1d1b195b595b9d08191bd95cc81b9bdd08195e1a5cdd603a1b604482015260640161079f565b6000828152601860205260409020546014805490916301000000900460ff169081106107e457634e487b7160e01b600052603260045260246000fd5b6000610c8c836113f8565b8210610d005760405162461bcd60e51b815260206004820152602b60248201527f455243373231456e756d657261626c653a206f776e657220696e646578206f7560448201527f74206f6620626f756e6473000000000000000000000000000000000000000000606482015260840161079f565b506001600160a01b03919091166000908152600660209081526040808320938352929052205490565b60168181548110610acb57600080fd5b6000818152600260205260409020546060906001600160a01b0316610d9c5760405162461bcd60e51b815260206004820152601960248201527814d95d1d1b195b595b9d08191bd95cc81b9bdd08195e1a5cdd603a1b604482015260640161079f565b600082815260186020526040902054601280549091610100900460ff169081106107e457634e487b7160e01b600052603260045260246000fd5b60118181548110610acb57600080fd5b610ab68383836040518060200160405280600081525061183b565b600c546040516323b872dd60e01b8152336004820152306024820152604481018490526001600160a01b03909116906323b872dd90606401600060405180830381600087803b158015610e5357600080fd5b505af1158015610e67573d6000803e3d6000fd5b50505050610e753383611fab565b60008281526018602090815260408083208451815493860151928601516060870151608088015160a089015160c08a015160ff908116600160301b0266ff00000000000019928216650100000000000265ff000000000019948316640100000000029490941665ffff000000001995831663010000000263ff0000001997841662010000029790971663ffff0000199a84166101000261ffff19909c1693909816929092179990991797909716949094179290921716939093179290921791909116919091179055610f4683611fc9565b604051602001610f569190614d58565b60408051808303601f19018152908290528051602090910120600c5463c87b56dd60e01b8352600483018690529092506000916001600160a01b039091169063c87b56dd9060240160006040518083038186803b158015610fb657600080fd5b505afa158015610fca573d6000803e3d6000fd5b505050506040513d6000823e601f3d908101601f19168201604052610ff29190810190614c7d565b6040516020016110029190614d58565b6040516020818303038152906040528051906020012090508082146110785760405162461bcd60e51b815260206004820152602660248201527f4174747269627574657320646f6e2774206d61746368206c656761637920636f6044820152651b9d1c9858dd60d21b606482015260840161079f565b50505050565b60128181548110610acb57600080fd5b600061109960085490565b821061110d5760405162461bcd60e51b815260206004820152602c60248201527f455243373231456e756d657261626c653a20676c6f62616c20696e646578206f60448201527f7574206f6620626f756e64730000000000000000000000000000000000000000606482015260840161079f565b6008828154811061112e57634e487b7160e01b600052603260045260246000fd5b90600052602060002001549050919050565b600d818154811061115057600080fd5b9060005260206000209060209182820401919006915054906101000a900460ff1681565b6000818152600260205260408120546001600160a01b03168061073a5760405162461bcd60e51b815260206004820152602960248201527f4552433732313a206f776e657220717565727920666f72206e6f6e657869737460448201526832b73a103a37b5b2b760b91b606482015260840161079f565b6002600a54141561123e5760405162461bcd60e51b815260206004820152601f60248201527f5265656e7472616e637947756172643a207265656e7472616e742063616c6c00604482015260640161079f565b6002600a55611264816000908152600260205260409020546001600160a01b0316151590565b8015611289575061127481611174565b6001600160a01b0316336001600160a01b0316145b80156112ae57506000818152601860205260409020546005600160301b90910460ff16105b6112fa5760405162461bcd60e51b815260206004820152601560248201527f536574746c656d656e74207475726e73206f7665720000000000000000000000604482015260640161079f565b61130381611a4c565b60008181526018602052604090205461133290829061132d90600160301b900460ff166001611fd6565b611fe9565b506001600a55565b60138181548110610acb57600080fd5b600e818154811061115057600080fd5b6000818152600260205260409020546060906001600160a01b03166113bd5760405162461bcd60e51b815260206004820152601960248201527814d95d1d1b195b595b9d08191bd95cc81b9bdd08195e1a5cdd603a1b604482015260640161079f565b60008281526018602052604090205460138054909162010000900460ff169081106107e457634e487b7160e01b600052603260045260246000fd5b60006001600160a01b0382166114635760405162461bcd60e51b815260206004820152602a60248201527f4552433732313a2062616c616e636520717565727920666f7220746865207a65604482015269726f206164647265737360b01b606482015260840161079f565b506001600160a01b031660009081526003602052604090205490565b600b546001600160a01b031633146114d95760405162461bcd60e51b815260206004820181905260248201527f4f776e61626c653a2063616c6c6572206973206e6f7420746865206f776e6572604482015260640161079f565b6114e360006126f7565b565b60148181548110610acb57600080fd5b6000818152601060205260408120548190819061151290436152eb565b6000858152601860209081526040808320815160e081018352905460ff8082168352610100820481169483019490945262010000810484169282019290925263010000008204831660608201819052640100000000830484166080830152650100000000008304841660a0830152600160301b90920490921660c0830152600f8054949550919381106115b557634e487b7160e01b600052603260045260246000fd5b6000918252602090912001546001600160a01b031690508215806115ee57506000868152600260205260409020546001600160a01b0316155b156115ff5795600095509350505050565b6000600e8360c0015160ff168154811061162957634e487b7160e01b600052603260045260246000fd5b6000918252602080832090820401548551600d805460ff601f9095166101000a90930484169550921690811061166f57634e487b7160e01b600052603260045260246000fd5b60009182526020808320908204015460ff601f9092166101000a900416915082670de0b6b3a76400006116a288856152cc565b6116ac91906152cc565b6116b691906152cc565b9399939850929650505050505050565b60606001805461088d9061532e565b6001600160a01b03821633141561172e5760405162461bcd60e51b815260206004820152601960248201527f4552433732313a20617070726f766520746f2063616c6c657200000000000000604482015260640161079f565b3360008181526005602090815260408083206001600160a01b03871680855290835292819020805460ff191686151590811790915590519081529192917f17307eab39ab6107e8899845ad3d59bd9653f200f220920489ca2b5937696c31910160405180910390a35050565b6000818152600260205260409020546060906001600160a01b03166117fd5760405162461bcd60e51b815260206004820152601960248201527814d95d1d1b195b595b9d08191bd95cc81b9bdd08195e1a5cdd603a1b604482015260640161079f565b60008281526018602052604090205460168054909165010000000000900460ff169081106107e457634e487b7160e01b600052603260045260246000fd5b6118453383611d09565b6118ab5760405162461bcd60e51b815260206004820152603160248201527f4552433732313a207472616e736665722063616c6c6572206973206e6f74206f6044820152701ddb995c881b9bdc88185c1c1c9bdd9959607a1b606482015260840161079f565b61107884848484612749565b60158181548110610acb57600080fd5b606061073a8260006127c7565b6002600a5414156119275760405162461bcd60e51b815260206004820152601f60248201527f5265656e7472616e637947756172643a207265656e7472616e742063616c6c00604482015260640161079f565b6002600a5560005b81518110156119a15761198f84848381811061195b57634e487b7160e01b600052603260045260246000fd5b9050602002013583838151811061198257634e487b7160e01b600052603260045260246000fd5b6020026020010151610e01565b8061199981615369565b91505061192f565b50506001600a555050565b6000818152600260205260409020546060906001600160a01b0316611a0f5760405162461bcd60e51b815260206004820152601960248201527814d95d1d1b195b595b9d08191bd95cc81b9bdd08195e1a5cdd603a1b604482015260640161079f565b600082815260186020526040902054601580549091640100000000900460ff169081106107e457634e487b7160e01b600052603260045260246000fd5b600080611a58836114f5565b91509150816001600160a01b03166340c10f19611a7485611174565b6040516001600160e01b031960e084901b1681526001600160a01b03909116600482015260248101849052604401600060405180830381600087803b158015611abc57600080fd5b505af1158015611ad0573d6000803e3d6000fd5b5050506000938452505060106020525060409020439055565b600f8181548110611af957600080fd5b6000918252602090912001546001600160a01b0316905081565b6000818152600260205260409020546060906001600160a01b0316611b765760405162461bcd60e51b815260206004820152601960248201527814d95d1d1b195b595b9d08191bd95cc81b9bdd08195e1a5cdd603a1b604482015260640161079f565b60008281526018602052604090205460118054909160ff169081106107e457634e487b7160e01b600052603260045260246000fd5b600b546001600160a01b03163314611c055760405162461bcd60e51b815260206004820181905260248201527f4f776e61626c653a2063616c6c6572206973206e6f7420746865206f776e6572604482015260640161079f565b6001600160a01b038116611c6a5760405162461bcd60e51b815260206004820152602660248201527f4f776e61626c653a206e6577206f776e657220697320746865207a65726f206160448201526564647265737360d01b606482015260840161079f565b611c73816126f7565b50565b60006001600160e01b0319821663780e9d6360e01b148061073a575061073a82612a83565b600081815260046020526040902080546001600160a01b0319166001600160a01b0384169081179091558190611cd082611174565b6001600160a01b03167f8c5be1e5ebec7d5bd14f71427d1e84f3dd0314c0f7b2291e5b200ac8c7c3b92560405160405180910390a45050565b6000818152600260205260408120546001600160a01b0316611d825760405162461bcd60e51b815260206004820152602c60248201527f4552433732313a206f70657261746f7220717565727920666f72206e6f6e657860448201526b34b9ba32b73a103a37b5b2b760a11b606482015260840161079f565b6000611d8d83611174565b9050806001600160a01b0316846001600160a01b03161480611dc85750836001600160a01b0316611dbd84610910565b6001600160a01b0316145b80611df857506001600160a01b0380821660009081526005602090815260408083209388168352929052205460ff165b949350505050565b826001600160a01b0316611e1382611174565b6001600160a01b031614611e7b5760405162461bcd60e51b815260206004820152602960248201527f4552433732313a207472616e73666572206f6620746f6b656e2074686174206960448201526839903737ba1037bbb760b91b606482015260840161079f565b6001600160a01b038216611edd5760405162461bcd60e51b8152602060048201526024808201527f4552433732313a207472616e7366657220746f20746865207a65726f206164646044820152637265737360e01b606482015260840161079f565b611ee8838383612ad3565b611ef3600082611c9b565b6001600160a01b0383166000908152600360205260408120805460019290611f1c9084906152eb565b90915550506001600160a01b0382166000908152600360205260408120805460019290611f4a9084906152a0565b909155505060008181526002602052604080822080546001600160a01b0319166001600160a01b0386811691821790925591518493918716917fddf252ad1be2c89b69c2b068fc378daa952ba7f163c4a11628f55a4df523b3ef91a4505050565b611fc5828260405180602001604052806000815250612ade565b5050565b606061073a8260016127c7565b6000611fe282846152a0565b9392505050565b6120e9612012836040518060400160405280600481526020016373697a6560e01b815250612b5c565b6011805480602002602001604051908101604052809291908181526020016000905b828210156120e05783829060005260206000200180546120539061532e565b80601f016020809104026020016040519081016040528092919081815260200182805461207f9061532e565b80156120cc5780601f106120a1576101008083540402835291602001916120cc565b820191906000526020600020905b8154815290600101906020018083116120af57829003601f168201915b505050505081526020019060010190612034565b50505050612b94565b6018600084815260200190815260200160002060000160006101000a81548160ff021916908360ff16021790555061221061214283604051806040016040528060068152602001651cdc1a5c9a5d60d21b815250612b5c565b6012805480602002602001604051908101604052809291908181526020016000905b828210156120e05783829060005260206000200180546121839061532e565b80601f01602080910402602001604051908101604052809291908181526020018280546121af9061532e565b80156121fc5780601f106121d1576101008083540402835291602001916121fc565b820191906000526020600020905b8154815290600101906020018083116121df57829003601f168201915b505050505081526020019060010190612164565b6018600084815260200190815260200160002060000160016101000a81548160ff021916908360ff160217905550612334612266836040518060400160405280600381526020016261676560e81b815250612b5c565b6013805480602002602001604051908101604052809291908181526020016000905b828210156120e05783829060005260206000200180546122a79061532e565b80601f01602080910402602001604051908101604052809291908181526020018280546122d39061532e565b80156123205780601f106122f557610100808354040283529160200191612320565b820191906000526020600020905b81548152906001019060200180831161230357829003601f168201915b505050505081526020019060010190612288565b6018600084815260200190815260200160002060000160026101000a81548160ff021916908360ff16021790555061245d61238f83604051806040016040528060088152602001677265736f7572636560c01b815250612b5c565b6014805480602002602001604051908101604052809291908181526020016000905b828210156120e05783829060005260206000200180546123d09061532e565b80601f01602080910402602001604051908101604052809291908181526020018280546123fc9061532e565b80156124495780601f1061241e57610100808354040283529160200191612449565b820191906000526020600020905b81548152906001019060200180831161242c57829003601f168201915b5050505050815260200190600101906123b1565b6018600084815260200190815260200160002060000160036101000a81548160ff021916908360ff1602179055506125846124b683604051806040016040528060068152602001656d6f72616c6560d01b815250612b5c565b6015805480602002602001604051908101604052809291908181526020016000905b828210156120e05783829060005260206000200180546124f79061532e565b80601f01602080910402602001604051908101604052809291908181526020018280546125239061532e565b80156125705780601f1061254557610100808354040283529160200191612570565b820191906000526020600020905b81548152906001019060200180831161255357829003601f168201915b5050505050815260200190600101906124d8565b6018600084815260200190815260200160002060000160046101000a81548160ff021916908360ff1602179055506126af6125e1836040518060400160405280600a81526020016919dbdd995c9b9b595b9d60b21b815250612b5c565b6016805480602002602001604051908101604052809291908181526020016000905b828210156120e05783829060005260206000200180546126229061532e565b80601f016020809104026020016040519081016040528092919081815260200182805461264e9061532e565b801561269b5780601f106126705761010080835404028352916020019161269b565b820191906000526020600020905b81548152906001019060200180831161267e57829003601f168201915b505050505081526020019060010190612603565b600092835260186020526040909220805466ffff000000000019166501000000000060ff9485160266ff000000000000191617600160301b9290931691909102919091179055565b600b80546001600160a01b038381166001600160a01b0319831681179093556040519116919082907f8be0079c531659141344cd1fd0a4f28419497f9722a3daafe3b4186f6b6457e090600090a35050565b612754848484611e00565b61276084848484612ba1565b6110785760405162461bcd60e51b815260206004820152603260248201527f4552433732313a207472616e7366657220746f206e6f6e20455243373231526560448201527131b2b4bb32b91034b6b83632b6b2b73a32b960711b606482015260840161079f565b6000828152600260205260409020546060906001600160a01b031661282a5760405162461bcd60e51b815260206004820152601960248201527814d95d1d1b195b595b9d08191bd95cc81b9bdd08195e1a5cdd603a1b604482015260640161079f565b6128326148a5565b61283a6148a5565b831561285b5761284985612cf9565b9150612854826134f0565b9050612873565b6128648561363a565b91506128708286613f46565b90505b81516020808401516040808601516060870151608088015160a089015160c08a015160e08b01516101008c0151965160009a6128b39a9099989101614e8c565b60408051808303601f19018152908290526101208501516101408601516101608701516101808801516101a08901516101c08a01516101e08b01516102008c0151979950612906988a9890602001614e8c565b60408051808303601f190181529082905261022085015190925061292f91839190602001614d74565b60408051808303601f190181528282528451602080870151938701516060880151608089015160a08a015160c08b015160e08c01516101008d0151989b5060009a6129899a98999697959694959394929391929101614e8c565b60408051808303601f19018152908290526101208501516101408601516101608701516101808801516101a08901516101c08a01519597506129d096889690602001614dfa565b60408051808303601f19018152908290526101e0850151610200860151610220870151929450612a0593859390602001614da3565b60405160208183030381529060405290506000612a54612a2489614206565b612a2d85614338565b84604051602001612a4093929190615082565b604051602081830303815290604052614338565b905080604051602001612a67919061503d565b60408051808303601f1901815291905298975050505050505050565b60006001600160e01b031982166380ac58cd60e01b1480612ab457506001600160e01b03198216635b5e139f60e01b145b8061073a57506301ffc9a760e01b6001600160e01b031983161461073a565b610ab68383836144ae565b612ae88383614566565b612af56000848484612ba1565b610ab65760405162461bcd60e51b815260206004820152603260248201527f4552433732313a207472616e7366657220746f206e6f6e20455243373231526560448201527131b2b4bb32b91034b6b83632b6b2b73a32b960711b606482015260840161079f565b606081612b6884614206565b4244604051602001612b7d9493929190614f4e565b604051602081830303815290604052905092915050565b6000611fe28383516146b4565b60006001600160a01b0384163b15612cee57604051630a85bd0160e11b81526001600160a01b0385169063150b7a0290612be59033908990889088906004016151f8565b602060405180830381600087803b158015612bff57600080fd5b505af1925050508015612c2f575060408051601f3d908101601f19168201909252612c2c91810190614c61565b60015b612cd4573d808015612c5d576040519150601f19603f3d011682016040523d82523d6000602084013e612c62565b606091505b508051612ccc5760405162461bcd60e51b815260206004820152603260248201527f4552433732313a207472616e7366657220746f206e6f6e20455243373231526560448201527131b2b4bb32b91034b6b83632b6b2b73a32b960711b606482015260840161079f565b805181602001fd5b6001600160e01b031916630a85bd0160e11b149050611df8565b506001949350505050565b612d016148a5565b612d096148a5565b60405180610120016040528060fe815260200161546860fe9139815260008381526018602052604090205460118054909160ff16908110612d5a57634e487b7160e01b600052603260045260246000fd5b906000526020600020018054612d6f9061532e565b80601f0160208091040260200160405190810160405280929190818152602001828054612d9b9061532e565b8015612de85780601f10612dbd57610100808354040283529160200191612de8565b820191906000526020600020905b815481529060010190602001808311612dcb57829003601f168201915b505050505081600160128110612e0e57634e487b7160e01b600052603260045260246000fd5b60200201819052506040518060600160405280602781526020016155b460279139604082810191909152600084815260186020522054601280549091610100900460ff16908110612e6f57634e487b7160e01b600052603260045260246000fd5b906000526020600020018054612e849061532e565b80601f0160208091040260200160405190810160405280929190818152602001828054612eb09061532e565b8015612efd5780601f10612ed257610100808354040283529160200191612efd565b820191906000526020600020905b815481529060010190602001808311612ee057829003601f168201915b505050505081600360128110612f2357634e487b7160e01b600052603260045260246000fd5b60200201819052506040518060600160405280602781526020016156e860279139608082015260008381526018602052604090205460138054909162010000900460ff16908110612f8457634e487b7160e01b600052603260045260246000fd5b906000526020600020018054612f999061532e565b80601f0160208091040260200160405190810160405280929190818152602001828054612fc59061532e565b80156130125780601f10612fe757610100808354040283529160200191613012565b820191906000526020600020905b815481529060010190602001808311612ff557829003601f168201915b50505050508160056012811061303857634e487b7160e01b600052603260045260246000fd5b602002018190525060405180606001604052806027815260200161541e6027913960c08201526000838152601860205260409020546014805490916301000000900460ff1690811061309a57634e487b7160e01b600052603260045260246000fd5b9060005260206000200180546130af9061532e565b80601f01602080910402602001604051908101604052809291908181526020018280546130db9061532e565b80156131285780601f106130fd57610100808354040283529160200191613128565b820191906000526020600020905b81548152906001019060200180831161310b57829003601f168201915b50505050508160076012811061314e57634e487b7160e01b600052603260045260246000fd5b602002018190525060405180606001604052806028815260200161573760289139610100820152600083815260186020526040902054601580549091640100000000900460ff169081106131b257634e487b7160e01b600052603260045260246000fd5b9060005260206000200180546131c79061532e565b80601f01602080910402602001604051908101604052809291908181526020018280546131f39061532e565b80156132405780601f1061321557610100808354040283529160200191613240565b820191906000526020600020905b81548152906001019060200180831161322357829003601f168201915b50505050508160096012811061326657634e487b7160e01b600052603260045260246000fd5b60200201819052506040518060600160405280602881526020016155db6028913961014082015260008381526018602052604090205460168054909165010000000000900460ff169081106132cb57634e487b7160e01b600052603260045260246000fd5b9060005260206000200180546132e09061532e565b80601f016020809104026020016040519081016040528092919081815260200182805461330c9061532e565b80156133595780601f1061332e57610100808354040283529160200191613359565b820191906000526020600020905b81548152906001019060200180831161333c57829003601f168201915b505050505081600b6012811061337f57634e487b7160e01b600052603260045260246000fd5b602002018190525060405180606001604052806028815260200161566c60289139610180820152600083815260186020526040902054601780549091600160301b900460ff169081106133e257634e487b7160e01b600052603260045260246000fd5b9060005260206000200180546133f79061532e565b80601f01602080910402602001604051908101604052809291908181526020018280546134239061532e565b80156134705780601f1061344557610100808354040283529160200191613470565b820191906000526020600020905b81548152906001019060200180831161345357829003601f168201915b505050505081600d6012811061349657634e487b7160e01b600052603260045260246000fd5b60200201819052506040518060400160405280600d81526020016c1e17ba32bc3a1f1e17b9bb339f60991b81525081600e601281106134e557634e487b7160e01b600052603260045260246000fd5b602002015292915050565b6134f86148a5565b6135006148a5565b6040518060600160405280602381526020016154456023913981526020838101518183015260408051606081019091526029808252909161560390830139604080830191909152606080850151818401528151908101909152602680825261558e6020830139608082015260a080840151908201526040805160608101909152602b808252615694602083013960c082015260e08084015190820152604080516060810190915260298082526156bf602083013961010082015261012080840151908201526040805160608101909152602d8082526153f1602083013961014082015261016080840151908201526040805160608101909152602880825261556660208301396101808201526101a0808401519082015260408051808201909152600481526322207d5d60e01b602082015281600e6134e5565b6136426148a5565b61364a6148a5565b60405180610120016040528060fe815260200161546860fe9139815260008381526018602052604090205460118054909160ff1690811061369b57634e487b7160e01b600052603260045260246000fd5b9060005260206000200180546136b09061532e565b80601f01602080910402602001604051908101604052809291908181526020018280546136dc9061532e565b80156137295780601f106136fe57610100808354040283529160200191613729565b820191906000526020600020905b81548152906001019060200180831161370c57829003601f168201915b50505050508160016012811061374f57634e487b7160e01b600052603260045260246000fd5b60200201819052506040518060600160405280602781526020016155b460279139604082810191909152600084815260186020522054601280549091610100900460ff169081106137b057634e487b7160e01b600052603260045260246000fd5b9060005260206000200180546137c59061532e565b80601f01602080910402602001604051908101604052809291908181526020018280546137f19061532e565b801561383e5780601f106138135761010080835404028352916020019161383e565b820191906000526020600020905b81548152906001019060200180831161382157829003601f168201915b50505050508160036012811061386457634e487b7160e01b600052603260045260246000fd5b60200201819052506040518060600160405280602781526020016156e860279139608082015260008381526018602052604090205460138054909162010000900460ff169081106138c557634e487b7160e01b600052603260045260246000fd5b9060005260206000200180546138da9061532e565b80601f01602080910402602001604051908101604052809291908181526020018280546139069061532e565b80156139535780601f1061392857610100808354040283529160200191613953565b820191906000526020600020905b81548152906001019060200180831161393657829003601f168201915b50505050508160056012811061397957634e487b7160e01b600052603260045260246000fd5b602002018190525060405180606001604052806027815260200161541e6027913960c08201526000838152601860205260409020546014805490916301000000900460ff169081106139db57634e487b7160e01b600052603260045260246000fd5b9060005260206000200180546139f09061532e565b80601f0160208091040260200160405190810160405280929190818152602001828054613a1c9061532e565b8015613a695780601f10613a3e57610100808354040283529160200191613a69565b820191906000526020600020905b815481529060010190602001808311613a4c57829003601f168201915b505050505081600760128110613a8f57634e487b7160e01b600052603260045260246000fd5b602002018190525060405180606001604052806028815260200161573760289139610100820152600083815260186020526040902054601580549091640100000000900460ff16908110613af357634e487b7160e01b600052603260045260246000fd5b906000526020600020018054613b089061532e565b80601f0160208091040260200160405190810160405280929190818152602001828054613b349061532e565b8015613b815780601f10613b5657610100808354040283529160200191613b81565b820191906000526020600020905b815481529060010190602001808311613b6457829003601f168201915b505050505081600960128110613ba757634e487b7160e01b600052603260045260246000fd5b60200201819052506040518060600160405280602881526020016155db6028913961014082015260008381526018602052604090205460168054909165010000000000900460ff16908110613c0c57634e487b7160e01b600052603260045260246000fd5b906000526020600020018054613c219061532e565b80601f0160208091040260200160405190810160405280929190818152602001828054613c4d9061532e565b8015613c9a5780601f10613c6f57610100808354040283529160200191613c9a565b820191906000526020600020905b815481529060010190602001808311613c7d57829003601f168201915b505050505081600b60128110613cc057634e487b7160e01b600052603260045260246000fd5b602002018190525060405180606001604052806028815260200161566c60289139610180820152600083815260186020526040902054601780549091600160301b900460ff16908110613d2357634e487b7160e01b600052603260045260246000fd5b906000526020600020018054613d389061532e565b80601f0160208091040260200160405190810160405280929190818152602001828054613d649061532e565b8015613db15780601f10613d8657610100808354040283529160200191613db1565b820191906000526020600020905b815481529060010190602001808311613d9457829003601f168201915b505050505081600d60128110613dd757634e487b7160e01b600052603260045260246000fd5b602002018190525060405180606001604052806028815260200161570f602891396101c0820152600083815260186020526040902054600f805490916301000000900460ff16908110613e3a57634e487b7160e01b600052603260045260246000fd5b6000918252602082200154604080516395d89b4160e01b815290516001600160a01b03909216926395d89b4192600480840193829003018186803b158015613e8157600080fd5b505afa158015613e95573d6000803e3d6000fd5b505050506040513d6000823e601f3d908101601f19168201604052613ebd9190810190614c7d565b604051602001613ecd9190615008565b60408051808303601f190181529190526101e0820152600080613eef856114f5565b9092509050613f0e613f09670de0b6b3a7640000836152b8565b614206565b610200840152505060408051808201909152600d81526c1e17ba32bc3a1f1e17b9bb339f60991b602082015261022082015292915050565b613f4e6148a5565b613f566148a5565b6040518060600160405280602381526020016154456023913981526020848101518183015260408051606081019091526029808252909161560390830139604080830191909152606080860151818401528151908101909152602680825261558e6020830139608082015260a080850151908201526040805160608101909152602b808252615694602083013960c082015260e08085015190820152604080516060810190915260298082526156bf602083013961010082015261012080850151908201526040805160608101909152602d8082526153f1602083013961014082015261016080850151908201526040805160608101909152602880825261556660208301396101808201526101a08481015190820152604080518082018252601581527f22207d2c207b202274726169745f74797065223a2000000000000000000000006020808301919091526101c0840191909152600085815260189091522054600f805490916301000000900460ff169081106140e657634e487b7160e01b600052603260045260246000fd5b6000918252602082200154604080516395d89b4160e01b815290516001600160a01b03909216926395d89b4192600480840193829003018186803b15801561412d57600080fd5b505afa158015614141573d6000803e3d6000fd5b505050506040513d6000823e601f3d908101601f191682016040526141699190810190614c7d565b6040516020016141799190614f88565b60408051808303601f190181529190526101e082015260008061419b856114f5565b90925090506141b5613f09670de0b6b3a7640000836152b8565b6040516020016141c59190614fda565b60408051601f1981840301815291815261020085019190915280518082019091526003815262207d5d60e81b60208201526102208401525090949350505050565b60608161422a5750506040805180820190915260018152600360fc1b602082015290565b8160005b8115614254578061423e81615369565b915061424d9050600a836152b8565b915061422e565b60008167ffffffffffffffff81111561427d57634e487b7160e01b600052604160045260246000fd5b6040519080825280601f01601f1916602001820160405280156142a7576020820181803683370190505b5090505b8415611df8576142bc6001836152eb565b91506142c9600a86615384565b6142d49060306152a0565b60f81b8183815181106142f757634e487b7160e01b600052603260045260246000fd5b60200101907effffffffffffffffffffffffffffffffffffffffffffffffffffffffffffff1916908160001a905350614331600a866152b8565b94506142ab565b606081516000141561435857505060408051602081019091526000815290565b600060405180606001604052806040815260200161562c604091399050600060038451600261438791906152a0565b61439191906152b8565b61439c9060046152cc565b905060006143ab8260206152a0565b67ffffffffffffffff8111156143d157634e487b7160e01b600052604160045260246000fd5b6040519080825280601f01601f1916602001820160405280156143fb576020820181803683370190505b509050818152600183018586518101602084015b818310156144695760039283018051603f601282901c811687015160f890811b8552600c83901c8216880151811b6001860152600683901c8216880151811b60028601529116860151901b9382019390935260040161440f565b6003895106600181146144835760028114614494576144a0565b613d3d60f01b6001198301526144a0565b603d60f81b6000198301525b509398975050505050505050565b6001600160a01b0383166145095761450481600880546000838152600960205260408120829055600182018355919091527ff3f7a9fe364faab93b216da50a3214154f22a0a2b415b23a84c8169e8b636ee30155565b61452c565b816001600160a01b0316836001600160a01b03161461452c5761452c83826146eb565b6001600160a01b03821661454357610ab681614788565b826001600160a01b0316826001600160a01b031614610ab657610ab68282614861565b6001600160a01b0382166145bc5760405162461bcd60e51b815260206004820181905260248201527f4552433732313a206d696e7420746f20746865207a65726f2061646472657373604482015260640161079f565b6000818152600260205260409020546001600160a01b0316156146215760405162461bcd60e51b815260206004820152601c60248201527f4552433732313a20746f6b656e20616c7265616479206d696e74656400000000604482015260640161079f565b61462d60008383612ad3565b6001600160a01b03821660009081526003602052604081208054600192906146569084906152a0565b909155505060008181526002602052604080822080546001600160a01b0319166001600160a01b03861690811790915590518392907fddf252ad1be2c89b69c2b068fc378daa952ba7f163c4a11628f55a4df523b3ef908290a45050565b600081836040516020016146c89190614d58565b6040516020818303038152906040528051906020012060001c611fe29190615384565b600060016146f8846113f8565b61470291906152eb565b600083815260076020526040902054909150808214614755576001600160a01b03841660009081526006602090815260408083208584528252808320548484528184208190558352600790915290208190555b5060009182526007602090815260408084208490556001600160a01b039094168352600681528383209183525290812055565b60085460009061479a906001906152eb565b600083815260096020526040812054600880549394509092849081106147d057634e487b7160e01b600052603260045260246000fd5b9060005260206000200154905080600883815481106147ff57634e487b7160e01b600052603260045260246000fd5b600091825260208083209091019290925582815260099091526040808220849055858252812055600880548061484557634e487b7160e01b600052603160045260246000fd5b6001900381819060005260206000200160009055905550505050565b600061486c836113f8565b6001600160a01b039093166000908152600660209081526040808320868452825280832085905593825260079052919091209190915550565b6040518061024001604052806012905b60608152602001906001900390816148b55790505090565b80356001600160a01b03811681146148e457600080fd5b919050565b600060e082840312156148fa578081fd5b60405160e0810181811067ffffffffffffffff8211171561491d5761491d6153c4565b60405290508061492c8361499b565b815261493a6020840161499b565b602082015261494b6040840161499b565b604082015261495c6060840161499b565b606082015261496d6080840161499b565b608082015261497e60a0840161499b565b60a082015261498f60c0840161499b565b60c08201525092915050565b803560ff811681146148e457600080fd5b6000602082840312156149bd578081fd5b611fe2826148cd565b600080604083850312156149d8578081fd5b6149e1836148cd565b91506149ef602084016148cd565b90509250929050565b600080600060608486031215614a0c578081fd5b614a15846148cd565b9250614a23602085016148cd565b9150604084013590509250925092565b60008060008060808587031215614a48578081fd5b614a51856148cd565b9350614a5f602086016148cd565b925060408501359150606085013567ffffffffffffffff811115614a81578182fd5b8501601f81018713614a91578182fd5b8035614aa4614a9f82615278565b615247565b818152886020838501011115614ab8578384fd5b81602084016020830137908101602001929092525092959194509250565b60008060408385031215614ae8578182fd5b614af1836148cd565b915060208301358015158114614b05578182fd5b809150509250929050565b60008060408385031215614b22578182fd5b614b2b836148cd565b946020939093013593505050565b600080600060408486031215614b4d578283fd5b833567ffffffffffffffff80821115614b64578485fd5b818601915086601f830112614b77578485fd5b813581811115614b85578586fd5b602088818360051b8601011115614b9a578687fd5b808401965081955080880135935082841115614bb4578485fd5b838801935088601f850112614bc7578485fd5b8335915082821115614bdb57614bdb6153c4565b614be9818360051b01615247565b828152818101935084820160e0808502870184018c1015614c08578788fd5b8796505b84871015614c3457614c1e8c836148e9565b8652600196909601959483019490810190614c0c565b505080955050505050509250925092565b600060208284031215614c56578081fd5b8135611fe2816153da565b600060208284031215614c72578081fd5b8151611fe2816153da565b600060208284031215614c8e578081fd5b815167ffffffffffffffff811115614ca4578182fd5b8201601f81018413614cb4578182fd5b8051614cc2614a9f82615278565b818152856020838501011115614cd6578384fd5b614ce7826020830160208601615302565b95945050505050565b600060208284031215614d01578081fd5b5035919050565b6000806101008385031215614d1b578182fd5b823591506149ef84602085016148e9565b60008151808452614d44816020860160208601615302565b601f01601f19169290920160200192915050565b60008251614d6a818460208701615302565b9190910192915050565b60008351614d86818460208801615302565b835190830190614d9a818360208801615302565b01949350505050565b60008551614db5818460208a01615302565b855190830190614dc9818360208a01615302565b8551910190614ddc818360208901615302565b8451910190614def818360208801615302565b019695505050505050565b600088516020614e0d8285838e01615302565b895191840191614e208184848e01615302565b8951920191614e328184848d01615302565b8851920191614e448184848c01615302565b8751920191614e568184848b01615302565b8651920191614e688184848a01615302565b8551920191614e7a8184848901615302565b919091019a9950505050505050505050565b60008a51614e9e818460208f01615302565b8a5190830190614eb2818360208f01615302565b8a51614ec48183850160208f01615302565b8a51929091010190614eda818360208d01615302565b8851614eec8183850160208d01615302565b8851929091010190614f02818360208b01615302565b8651614f148183850160208b01615302565b8651929091010190614f2a818360208901615302565b8451614f3c8183850160208901615302565b9101019b9a5050505050505050505050565b60008551614f60818460208a01615302565b855190830190614f74818360208a01615302565b019384525050602082015260400192915050565b61088960f21b81528151600090614fa6816002850160208701615302565b7f222c202276616c7565223a2000000000000000000000000000000000000000006002939091019283015250600e01919050565b6000601160f91b8083528351614ff7816001860160208801615302565b600193019283015250600201919050565b600960fa1b815260008251615024816001850160208701615302565b6101d160f51b6001939091019283015250600301919050565b7f646174613a6170706c69636174696f6e2f6a736f6e3b6261736536342c00000081526000825161507581601d850160208701615302565b91909101601d0192915050565b7f7b226e616d65223a2022536574746c656d656e742023000000000000000000008152600084516150ba816016850160208901615302565b7f222c20226465736372697074696f6e223a2022536574746c656d656e747320616016918401918201527f72652061207475726e20626173656420636976696c69736174696f6e2073696d60368201527f756c61746f722073746f72656420656e746972656c79206f6e20636861696e2c60568201527f20676f20666f72746820616e6420636f6e717565722e222c2022696d6167652260768201527f3a2022646174613a696d6167652f7376672b786d6c3b6261736536342c0000006096820152845161518f8160b3840160208901615302565b601160f91b60b392909101918201527f2c2261747472696275746573223a00000000000000000000000000000000000060b482015283516151d78160c2840160208801615302565b6151ed60c282840101607d60f81b815260010190565b979650505050505050565b60006001600160a01b0380871683528086166020840152508360408301526080606083015261522a6080830184614d2c565b9695505050505050565b602081526000611fe26020830184614d2c565b604051601f8201601f1916810167ffffffffffffffff81118282101715615270576152706153c4565b604052919050565b600067ffffffffffffffff821115615292576152926153c4565b50601f01601f191660200190565b600082198211156152b3576152b3615398565b500190565b6000826152c7576152c76153ae565b500490565b60008160001904831182151516156152e6576152e6615398565b500290565b6000828210156152fd576152fd615398565b500390565b60005b8381101561531d578181015183820152602001615305565b838111156110785750506000910152565b600181811c9082168061534257607f821691505b6020821081141561536357634e487b7160e01b600052602260045260246000fd5b50919050565b600060001982141561537d5761537d615398565b5060010190565b600082615393576153936153ae565b500690565b634e487b7160e01b600052601160045260246000fd5b634e487b7160e01b600052601260045260246000fd5b634e487b7160e01b600052604160045260246000fd5b6001600160e01b031981168114611c7357600080fdfe22207d2c207b202274726169745f74797065223a2022476f7665726e6d656e74222c202276616c7565223a20223c2f746578743e3c7465787420783d2231302220793d2238302220636c6173733d22747874223e5b7b202274726169745f74797065223a202253697a65222c202276616c7565223a20223c73766720786d6c6e733d22687474703a2f2f7777772e77332e6f72672f323030302f73766722207072657365727665417370656374526174696f3d22784d696e594d696e206d656574222076696577426f783d223020302033353020333530223e3c7374796c653e2e747874207b2066696c6c3a20626c61636b3b20666f6e742d66616d696c793a206d6f6e6f73706163653b20666f6e742d73697a653a20313270783b7d3c2f7374796c653e3c726563742077696474683d223130302522206865696768743d2231303025222066696c6c3d22776869746522202f3e3c7465787420783d2231302220793d2232302220636c6173733d22747874223e22207d2c207b202274726169745f74797065223a20225265616c6d222c202276616c7565223a202222207d2c207b202274726169745f74797065223a2022416765222c202276616c7565223a20223c2f746578743e3c7465787420783d2231302220793d2234302220636c6173733d22747874223e3c2f746578743e3c7465787420783d2231302220793d223132302220636c6173733d22747874223e22207d2c207b202274726169745f74797065223a2022537069726974222c202276616c7565223a20224142434445464748494a4b4c4d4e4f505152535455565758595a6162636465666768696a6b6c6d6e6f707172737475767778797a303132333435363738392b2f3c2f746578743e3c7465787420783d2231302220793d223134302220636c6173733d22747874223e22207d2c207b202274726169745f74797065223a20225265736f75726365222c202276616c7565223a202222207d2c207b202274726169745f74797065223a20224d6f72616c65222c202276616c7565223a20223c2f746578743e3c7465787420783d2231302220793d2236302220636c6173733d22747874223e3c2f746578743e3c7465787420783d2231302220793d223136302220636c6173733d22747874223e3c2f746578743e3c7465787420783d2231302220793d223130302220636c6173733d22747874223ea26469706673582212207d0df80c737f133572bb40a3b382ac14b3c5fe2b472c253584d7db7412d85a6664736f6c63430008040033",
  "devdoc": {
    "kind": "dev",
    "methods": {
      "approve(address,uint256)": {
        "details": "See {IERC721-approve}."
      },
      "balanceOf(address)": {
        "details": "See {IERC721-balanceOf}."
      },
      "getApproved(uint256)": {
        "details": "See {IERC721-getApproved}."
      },
      "isApprovedForAll(address,address)": {
        "details": "See {IERC721-isApprovedForAll}."
      },
      "name()": {
        "details": "See {IERC721Metadata-name}."
      },
      "owner()": {
        "details": "Returns the address of the current owner."
      },
      "ownerOf(uint256)": {
        "details": "See {IERC721-ownerOf}."
      },
      "renounceOwnership()": {
        "details": "Leaves the contract without owner. It will not be possible to call `onlyOwner` functions anymore. Can only be called by the current owner. NOTE: Renouncing ownership will leave the contract without an owner, thereby removing any functionality that is only available to the owner."
      },
      "safeTransferFrom(address,address,uint256)": {
        "details": "See {IERC721-safeTransferFrom}."
      },
      "safeTransferFrom(address,address,uint256,bytes)": {
        "details": "See {IERC721-safeTransferFrom}."
      },
      "setApprovalForAll(address,bool)": {
        "details": "See {IERC721-setApprovalForAll}."
      },
      "symbol()": {
        "details": "See {IERC721Metadata-symbol}."
      },
      "tokenByIndex(uint256)": {
        "details": "See {IERC721Enumerable-tokenByIndex}."
      },
      "tokenOfOwnerByIndex(address,uint256)": {
        "details": "See {IERC721Enumerable-tokenOfOwnerByIndex}."
      },
      "tokenURI(uint256)": {
        "details": "See {IERC721Metadata-tokenURI}."
      },
      "totalSupply()": {
        "details": "See {IERC721Enumerable-totalSupply}."
      },
      "transferFrom(address,address,uint256)": {
        "details": "See {IERC721-transferFrom}."
      },
      "transferOwnership(address)": {
        "details": "Transfers ownership of the contract to a new account (`newOwner`). Can only be called by the current owner."
      }
    },
    "version": 1
  },
  "userdoc": {
    "kind": "user",
    "methods": {},
    "version": 1
  },
  "storageLayout": {
    "storage": [
      {
        "astId": 880,
        "contract": "contracts/SettlementsV2.sol:SettlementsV2",
        "label": "_name",
        "offset": 0,
        "slot": "0",
        "type": "t_string_storage"
      },
      {
        "astId": 882,
        "contract": "contracts/SettlementsV2.sol:SettlementsV2",
        "label": "_symbol",
        "offset": 0,
        "slot": "1",
        "type": "t_string_storage"
      },
      {
        "astId": 886,
        "contract": "contracts/SettlementsV2.sol:SettlementsV2",
        "label": "_owners",
        "offset": 0,
        "slot": "2",
        "type": "t_mapping(t_uint256,t_address)"
      },
      {
        "astId": 890,
        "contract": "contracts/SettlementsV2.sol:SettlementsV2",
        "label": "_balances",
        "offset": 0,
        "slot": "3",
        "type": "t_mapping(t_address,t_uint256)"
      },
      {
        "astId": 894,
        "contract": "contracts/SettlementsV2.sol:SettlementsV2",
        "label": "_tokenApprovals",
        "offset": 0,
        "slot": "4",
        "type": "t_mapping(t_uint256,t_address)"
      },
      {
        "astId": 900,
        "contract": "contracts/SettlementsV2.sol:SettlementsV2",
        "label": "_operatorApprovals",
        "offset": 0,
        "slot": "5",
        "type": "t_mapping(t_address,t_mapping(t_address,t_bool))"
      },
      {
        "astId": 1849,
        "contract": "contracts/SettlementsV2.sol:SettlementsV2",
        "label": "_ownedTokens",
        "offset": 0,
        "slot": "6",
        "type": "t_mapping(t_address,t_mapping(t_uint256,t_uint256))"
      },
      {
        "astId": 1853,
        "contract": "contracts/SettlementsV2.sol:SettlementsV2",
        "label": "_ownedTokensIndex",
        "offset": 0,
        "slot": "7",
        "type": "t_mapping(t_uint256,t_uint256)"
      },
      {
        "astId": 1856,
        "contract": "contracts/SettlementsV2.sol:SettlementsV2",
        "label": "_allTokens",
        "offset": 0,
        "slot": "8",
        "type": "t_array(t_uint256)dyn_storage"
      },
      {
        "astId": 1860,
        "contract": "contracts/SettlementsV2.sol:SettlementsV2",
        "label": "_allTokensIndex",
        "offset": 0,
        "slot": "9",
        "type": "t_mapping(t_uint256,t_uint256)"
      },
      {
        "astId": 114,
        "contract": "contracts/SettlementsV2.sol:SettlementsV2",
        "label": "_status",
        "offset": 0,
        "slot": "10",
        "type": "t_uint256"
      },
      {
        "astId": 7,
        "contract": "contracts/SettlementsV2.sol:SettlementsV2",
        "label": "_owner",
        "offset": 0,
        "slot": "11",
        "type": "t_address"
      },
      {
        "astId": 4240,
        "contract": "contracts/SettlementsV2.sol:SettlementsV2",
        "label": "legacySettlements",
        "offset": 0,
        "slot": "12",
        "type": "t_contract(SettlementsLegacy)4215"
      },
      {
        "astId": 4257,
        "contract": "contracts/SettlementsV2.sol:SettlementsV2",
        "label": "civMultipliers",
        "offset": 0,
        "slot": "13",
        "type": "t_array(t_uint8)dyn_storage"
      },
      {
        "astId": 4267,
        "contract": "contracts/SettlementsV2.sol:SettlementsV2",
        "label": "realmMultipliers",
        "offset": 0,
        "slot": "14",
        "type": "t_array(t_uint8)dyn_storage"
      },
      {
        "astId": 4271,
        "contract": "contracts/SettlementsV2.sol:SettlementsV2",
        "label": "resourceTokenAddresses",
        "offset": 0,
        "slot": "15",
        "type": "t_array(t_contract(ERC20Mintable)3291)dyn_storage"
      },
      {
        "astId": 4275,
        "contract": "contracts/SettlementsV2.sol:SettlementsV2",
        "label": "tokenIdToLastHarvest",
        "offset": 0,
        "slot": "16",
        "type": "t_mapping(t_uint256,t_uint256)"
      },
      {
        "astId": 4353,
        "contract": "contracts/SettlementsV2.sol:SettlementsV2",
        "label": "_sizes",
        "offset": 0,
        "slot": "17",
        "type": "t_array(t_string_storage)dyn_storage"
      },
      {
        "astId": 4362,
        "contract": "contracts/SettlementsV2.sol:SettlementsV2",
        "label": "_spirits",
        "offset": 0,
        "slot": "18",
        "type": "t_array(t_string_storage)dyn_storage"
      },
      {
        "astId": 4374,
        "contract": "contracts/SettlementsV2.sol:SettlementsV2",
        "label": "_ages",
        "offset": 0,
        "slot": "19",
        "type": "t_array(t_string_storage)dyn_storage"
      },
      {
        "astId": 4386,
        "contract": "contracts/SettlementsV2.sol:SettlementsV2",
        "label": "_resources",
        "offset": 0,
        "slot": "20",
        "type": "t_array(t_string_storage)dyn_storage"
      },
      {
        "astId": 4400,
        "contract": "contracts/SettlementsV2.sol:SettlementsV2",
        "label": "_morales",
        "offset": 0,
        "slot": "21",
        "type": "t_array(t_string_storage)dyn_storage"
      },
      {
        "astId": 4413,
        "contract": "contracts/SettlementsV2.sol:SettlementsV2",
        "label": "_governments",
        "offset": 0,
        "slot": "22",
        "type": "t_array(t_string_storage)dyn_storage"
      },
      {
        "astId": 4423,
        "contract": "contracts/SettlementsV2.sol:SettlementsV2",
        "label": "_realms",
        "offset": 0,
        "slot": "23",
        "type": "t_array(t_string_storage)dyn_storage"
      },
      {
        "astId": 4428,
        "contract": "contracts/SettlementsV2.sol:SettlementsV2",
        "label": "attrIndex",
        "offset": 0,
        "slot": "24",
        "type": "t_mapping(t_uint256,t_struct(Attributes)4341_storage)"
      }
    ],
    "types": {
      "t_address": {
        "encoding": "inplace",
        "label": "address",
        "numberOfBytes": "20"
      },
      "t_array(t_contract(ERC20Mintable)3291)dyn_storage": {
        "base": "t_contract(ERC20Mintable)3291",
        "encoding": "dynamic_array",
        "label": "contract ERC20Mintable[]",
        "numberOfBytes": "32"
      },
      "t_array(t_string_storage)dyn_storage": {
        "base": "t_string_storage",
        "encoding": "dynamic_array",
        "label": "string[]",
        "numberOfBytes": "32"
      },
      "t_array(t_uint256)dyn_storage": {
        "base": "t_uint256",
        "encoding": "dynamic_array",
        "label": "uint256[]",
        "numberOfBytes": "32"
      },
      "t_array(t_uint8)dyn_storage": {
        "base": "t_uint8",
        "encoding": "dynamic_array",
        "label": "uint8[]",
        "numberOfBytes": "32"
      },
      "t_bool": {
        "encoding": "inplace",
        "label": "bool",
        "numberOfBytes": "1"
      },
      "t_contract(ERC20Mintable)3291": {
        "encoding": "inplace",
        "label": "contract ERC20Mintable",
        "numberOfBytes": "20"
      },
      "t_contract(SettlementsLegacy)4215": {
        "encoding": "inplace",
        "label": "contract SettlementsLegacy",
        "numberOfBytes": "20"
      },
      "t_mapping(t_address,t_bool)": {
        "encoding": "mapping",
        "key": "t_address",
        "label": "mapping(address => bool)",
        "numberOfBytes": "32",
        "value": "t_bool"
      },
      "t_mapping(t_address,t_mapping(t_address,t_bool))": {
        "encoding": "mapping",
        "key": "t_address",
        "label": "mapping(address => mapping(address => bool))",
        "numberOfBytes": "32",
        "value": "t_mapping(t_address,t_bool)"
      },
      "t_mapping(t_address,t_mapping(t_uint256,t_uint256))": {
        "encoding": "mapping",
        "key": "t_address",
        "label": "mapping(address => mapping(uint256 => uint256))",
        "numberOfBytes": "32",
        "value": "t_mapping(t_uint256,t_uint256)"
      },
      "t_mapping(t_address,t_uint256)": {
        "encoding": "mapping",
        "key": "t_address",
        "label": "mapping(address => uint256)",
        "numberOfBytes": "32",
        "value": "t_uint256"
      },
      "t_mapping(t_uint256,t_address)": {
        "encoding": "mapping",
        "key": "t_uint256",
        "label": "mapping(uint256 => address)",
        "numberOfBytes": "32",
        "value": "t_address"
      },
      "t_mapping(t_uint256,t_struct(Attributes)4341_storage)": {
        "encoding": "mapping",
        "key": "t_uint256",
        "label": "mapping(uint256 => struct SettlementsV2.Attributes)",
        "numberOfBytes": "32",
        "value": "t_struct(Attributes)4341_storage"
      },
      "t_mapping(t_uint256,t_uint256)": {
        "encoding": "mapping",
        "key": "t_uint256",
        "label": "mapping(uint256 => uint256)",
        "numberOfBytes": "32",
        "value": "t_uint256"
      },
      "t_string_storage": {
        "encoding": "bytes",
        "label": "string",
        "numberOfBytes": "32"
      },
      "t_struct(Attributes)4341_storage": {
        "encoding": "inplace",
        "label": "struct SettlementsV2.Attributes",
        "members": [
          {
            "astId": 4328,
            "contract": "contracts/SettlementsV2.sol:SettlementsV2",
            "label": "size",
            "offset": 0,
            "slot": "0",
            "type": "t_uint8"
          },
          {
            "astId": 4330,
            "contract": "contracts/SettlementsV2.sol:SettlementsV2",
            "label": "spirit",
            "offset": 1,
            "slot": "0",
            "type": "t_uint8"
          },
          {
            "astId": 4332,
            "contract": "contracts/SettlementsV2.sol:SettlementsV2",
            "label": "age",
            "offset": 2,
            "slot": "0",
            "type": "t_uint8"
          },
          {
            "astId": 4334,
            "contract": "contracts/SettlementsV2.sol:SettlementsV2",
            "label": "resource",
            "offset": 3,
            "slot": "0",
            "type": "t_uint8"
          },
          {
            "astId": 4336,
            "contract": "contracts/SettlementsV2.sol:SettlementsV2",
            "label": "morale",
            "offset": 4,
            "slot": "0",
            "type": "t_uint8"
          },
          {
            "astId": 4338,
            "contract": "contracts/SettlementsV2.sol:SettlementsV2",
            "label": "government",
            "offset": 5,
            "slot": "0",
            "type": "t_uint8"
          },
          {
            "astId": 4340,
            "contract": "contracts/SettlementsV2.sol:SettlementsV2",
            "label": "turns",
            "offset": 6,
            "slot": "0",
            "type": "t_uint8"
          }
        ],
        "numberOfBytes": "32"
      },
      "t_uint256": {
        "encoding": "inplace",
        "label": "uint256",
        "numberOfBytes": "32"
      },
      "t_uint8": {
        "encoding": "inplace",
        "label": "uint8",
        "numberOfBytes": "1"
      }
    }
  }
}