{
  "address": "0xc5d2eC6D3a81889fc60D83BC8a772c3516906A49",
  "abi": [
    {
      "inputs": [
        {
          "internalType": "contract SettlementsLegacy",
          "name": "_legacyAddress",
          "type": "address"
        },
        {
          "internalType": "contract ERC20Mintable",
          "name": "ironToken_",
          "type": "address"
        },
        {
          "internalType": "contract ERC20Mintable",
          "name": "goldToken_",
          "type": "address"
        },
        {
          "internalType": "contract ERC20Mintable",
          "name": "silverToken_",
          "type": "address"
        },
        {
          "internalType": "contract ERC20Mintable",
          "name": "woodToken_",
          "type": "address"
        },
        {
          "internalType": "contract ERC20Mintable",
          "name": "woolToken_",
          "type": "address"
        },
        {
          "internalType": "contract ERC20Mintable",
          "name": "waterToken_",
          "type": "address"
        },
        {
          "internalType": "contract ERC20Mintable",
          "name": "grassToken_",
          "type": "address"
        },
        {
          "internalType": "contract ERC20Mintable",
          "name": "grainToken_",
          "type": "address"
        }
      ],
      "stateMutability": "nonpayable",
      "type": "constructor"
    },
    {
      "anonymous": false,
      "inputs": [
        {
          "indexed": true,
          "internalType": "address",
          "name": "owner",
          "type": "address"
        },
        {
          "indexed": true,
          "internalType": "address",
          "name": "approved",
          "type": "address"
        },
        {
          "indexed": true,
          "internalType": "uint256",
          "name": "tokenId",
          "type": "uint256"
        }
      ],
      "name": "Approval",
      "type": "event"
    },
    {
      "anonymous": false,
      "inputs": [
        {
          "indexed": true,
          "internalType": "address",
          "name": "owner",
          "type": "address"
        },
        {
          "indexed": true,
          "internalType": "address",
          "name": "operator",
          "type": "address"
        },
        {
          "indexed": false,
          "internalType": "bool",
          "name": "approved",
          "type": "bool"
        }
      ],
      "name": "ApprovalForAll",
      "type": "event"
    },
    {
      "anonymous": false,
      "inputs": [
        {
          "indexed": true,
          "internalType": "address",
          "name": "previousOwner",
          "type": "address"
        },
        {
          "indexed": true,
          "internalType": "address",
          "name": "newOwner",
          "type": "address"
        }
      ],
      "name": "OwnershipTransferred",
      "type": "event"
    },
    {
      "anonymous": false,
      "inputs": [
        {
          "indexed": true,
          "internalType": "address",
          "name": "from",
          "type": "address"
        },
        {
          "indexed": true,
          "internalType": "address",
          "name": "to",
          "type": "address"
        },
        {
          "indexed": true,
          "internalType": "uint256",
          "name": "tokenId",
          "type": "uint256"
        }
      ],
      "name": "Transfer",
      "type": "event"
    },
    {
      "inputs": [
        {
          "internalType": "uint256",
          "name": "",
          "type": "uint256"
        }
      ],
      "name": "_ages",
      "outputs": [
        {
          "internalType": "string",
          "name": "",
          "type": "string"
        }
      ],
      "stateMutability": "view",
      "type": "function"
    },
    {
      "inputs": [
        {
          "internalType": "uint256",
          "name": "",
          "type": "uint256"
        }
      ],
      "name": "_governments",
      "outputs": [
        {
          "internalType": "string",
          "name": "",
          "type": "string"
        }
      ],
      "stateMutability": "view",
      "type": "function"
    },
    {
      "inputs": [
        {
          "internalType": "uint256",
          "name": "",
          "type": "uint256"
        }
      ],
      "name": "_morales",
      "outputs": [
        {
          "internalType": "string",
          "name": "",
          "type": "string"
        }
      ],
      "stateMutability": "view",
      "type": "function"
    },
    {
      "inputs": [
        {
          "internalType": "uint256",
          "name": "",
          "type": "uint256"
        }
      ],
      "name": "_realms",
      "outputs": [
        {
          "internalType": "string",
          "name": "",
          "type": "string"
        }
      ],
      "stateMutability": "view",
      "type": "function"
    },
    {
      "inputs": [
        {
          "internalType": "uint256",
          "name": "",
          "type": "uint256"
        }
      ],
      "name": "_resources",
      "outputs": [
        {
          "internalType": "string",
          "name": "",
          "type": "string"
        }
      ],
      "stateMutability": "view",
      "type": "function"
    },
    {
      "inputs": [
        {
          "internalType": "uint256",
          "name": "",
          "type": "uint256"
        }
      ],
      "name": "_sizes",
      "outputs": [
        {
          "internalType": "string",
          "name": "",
          "type": "string"
        }
      ],
      "stateMutability": "view",
      "type": "function"
    },
    {
      "inputs": [
        {
          "internalType": "uint256",
          "name": "",
          "type": "uint256"
        }
      ],
      "name": "_spirits",
      "outputs": [
        {
          "internalType": "string",
          "name": "",
          "type": "string"
        }
      ],
      "stateMutability": "view",
      "type": "function"
    },
    {
      "inputs": [
        {
          "internalType": "address",
          "name": "to",
          "type": "address"
        },
        {
          "internalType": "uint256",
          "name": "tokenId",
          "type": "uint256"
        }
      ],
      "name": "approve",
      "outputs": [],
      "stateMutability": "nonpayable",
      "type": "function"
    },
    {
      "inputs": [
        {
          "internalType": "uint256",
          "name": "",
          "type": "uint256"
        }
      ],
      "name": "attrIndex",
      "outputs": [
        {
          "internalType": "uint8",
          "name": "size",
          "type": "uint8"
        },
        {
          "internalType": "uint8",
          "name": "spirit",
          "type": "uint8"
        },
        {
          "internalType": "uint8",
          "name": "age",
          "type": "uint8"
        },
        {
          "internalType": "uint8",
          "name": "resource",
          "type": "uint8"
        },
        {
          "internalType": "uint8",
          "name": "morale",
          "type": "uint8"
        },
        {
          "internalType": "uint8",
          "name": "government",
          "type": "uint8"
        },
        {
          "internalType": "uint8",
          "name": "turns",
          "type": "uint8"
        }
      ],
      "stateMutability": "view",
      "type": "function"
    },
    {
      "inputs": [
        {
          "internalType": "address",
          "name": "owner",
          "type": "address"
        }
      ],
      "name": "balanceOf",
      "outputs": [
        {
          "internalType": "uint256",
          "name": "",
          "type": "uint256"
        }
      ],
      "stateMutability": "view",
      "type": "function"
    },
    {
      "inputs": [
        {
          "internalType": "uint256",
          "name": "tokenId",
          "type": "uint256"
        },
        {
          "components": [
            {
              "internalType": "uint8",
              "name": "size",
              "type": "uint8"
            },
            {
              "internalType": "uint8",
              "name": "spirit",
              "type": "uint8"
            },
            {
              "internalType": "uint8",
              "name": "age",
              "type": "uint8"
            },
            {
              "internalType": "uint8",
              "name": "resource",
              "type": "uint8"
            },
            {
              "internalType": "uint8",
              "name": "morale",
              "type": "uint8"
            },
            {
              "internalType": "uint8",
              "name": "government",
              "type": "uint8"
            },
            {
              "internalType": "uint8",
              "name": "turns",
              "type": "uint8"
            }
          ],
          "internalType": "struct SettlementsV2.Attributes",
          "name": "attributes",
          "type": "tuple"
        }
      ],
      "name": "claim",
      "outputs": [],
      "stateMutability": "nonpayable",
      "type": "function"
    },
    {
      "inputs": [
        {
          "internalType": "uint256",
          "name": "tokenId",
          "type": "uint256"
        }
      ],
      "name": "claimAndReroll",
      "outputs": [],
      "stateMutability": "nonpayable",
      "type": "function"
    },
    {
      "inputs": [
        {
          "internalType": "uint256",
          "name": "tokenId",
          "type": "uint256"
        }
      ],
      "name": "getApproved",
      "outputs": [
        {
          "internalType": "address",
          "name": "",
          "type": "address"
        }
      ],
      "stateMutability": "view",
      "type": "function"
    },
    {
      "inputs": [
        {
          "internalType": "uint256",
          "name": "tokenId",
          "type": "uint256"
        }
      ],
      "name": "getSettlementAge",
      "outputs": [
        {
          "internalType": "string",
          "name": "",
          "type": "string"
        }
      ],
      "stateMutability": "view",
      "type": "function"
    },
    {
      "inputs": [
        {
          "internalType": "uint256",
          "name": "tokenId",
          "type": "uint256"
        }
      ],
      "name": "getSettlementGovernment",
      "outputs": [
        {
          "internalType": "string",
          "name": "",
          "type": "string"
        }
      ],
      "stateMutability": "view",
      "type": "function"
    },
    {
      "inputs": [
        {
          "internalType": "uint256",
          "name": "tokenId",
          "type": "uint256"
        }
      ],
      "name": "getSettlementMorale",
      "outputs": [
        {
          "internalType": "string",
          "name": "",
          "type": "string"
        }
      ],
      "stateMutability": "view",
      "type": "function"
    },
    {
      "inputs": [
        {
          "internalType": "uint256",
          "name": "tokenId",
          "type": "uint256"
        }
      ],
      "name": "getSettlementRealm",
      "outputs": [
        {
          "internalType": "string",
          "name": "",
          "type": "string"
        }
      ],
      "stateMutability": "view",
      "type": "function"
    },
    {
      "inputs": [
        {
          "internalType": "uint256",
          "name": "tokenId",
          "type": "uint256"
        }
      ],
      "name": "getSettlementResource",
      "outputs": [
        {
          "internalType": "string",
          "name": "",
          "type": "string"
        }
      ],
      "stateMutability": "view",
      "type": "function"
    },
    {
      "inputs": [
        {
          "internalType": "uint256",
          "name": "tokenId",
          "type": "uint256"
        }
      ],
      "name": "getSettlementSize",
      "outputs": [
        {
          "internalType": "string",
          "name": "",
          "type": "string"
        }
      ],
      "stateMutability": "view",
      "type": "function"
    },
    {
      "inputs": [
        {
          "internalType": "uint256",
          "name": "tokenId",
          "type": "uint256"
        }
      ],
      "name": "getSettlementSpirit",
      "outputs": [
        {
          "internalType": "string",
          "name": "",
          "type": "string"
        }
      ],
      "stateMutability": "view",
      "type": "function"
    },
    {
      "inputs": [
        {
          "internalType": "uint256",
          "name": "tokenId",
          "type": "uint256"
        }
      ],
      "name": "getUnharvestedTokens",
      "outputs": [
        {
          "internalType": "contract ERC20Mintable",
          "name": "",
          "type": "address"
        },
        {
          "internalType": "uint256",
          "name": "",
          "type": "uint256"
        }
      ],
      "stateMutability": "view",
      "type": "function"
    },
    {
      "inputs": [
        {
          "internalType": "uint256",
          "name": "tokenId",
          "type": "uint256"
        }
      ],
      "name": "harvest",
      "outputs": [],
      "stateMutability": "nonpayable",
      "type": "function"
    },
    {
      "inputs": [],
      "name": "helpersContract",
      "outputs": [
        {
          "internalType": "contract Helpers",
          "name": "",
          "type": "address"
        }
      ],
      "stateMutability": "view",
      "type": "function"
    },
    {
      "inputs": [
        {
          "internalType": "address",
          "name": "owner",
          "type": "address"
        },
        {
          "internalType": "address",
          "name": "operator",
          "type": "address"
        }
      ],
      "name": "isApprovedForAll",
      "outputs": [
        {
          "internalType": "bool",
          "name": "",
          "type": "bool"
        }
      ],
      "stateMutability": "view",
      "type": "function"
    },
    {
      "inputs": [],
      "name": "legacySettlements",
      "outputs": [
        {
          "internalType": "contract SettlementsLegacy",
          "name": "",
          "type": "address"
        }
      ],
      "stateMutability": "view",
      "type": "function"
    },
    {
      "inputs": [
        {
          "internalType": "uint256[]",
          "name": "tokenIds",
          "type": "uint256[]"
        },
        {
          "components": [
            {
              "internalType": "uint8",
              "name": "size",
              "type": "uint8"
            },
            {
              "internalType": "uint8",
              "name": "spirit",
              "type": "uint8"
            },
            {
              "internalType": "uint8",
              "name": "age",
              "type": "uint8"
            },
            {
              "internalType": "uint8",
              "name": "resource",
              "type": "uint8"
            },
            {
              "internalType": "uint8",
              "name": "morale",
              "type": "uint8"
            },
            {
              "internalType": "uint8",
              "name": "government",
              "type": "uint8"
            },
            {
              "internalType": "uint8",
              "name": "turns",
              "type": "uint8"
            }
          ],
          "internalType": "struct SettlementsV2.Attributes[]",
          "name": "tokenAttributes",
          "type": "tuple[]"
        }
      ],
      "name": "multiClaim",
      "outputs": [],
      "stateMutability": "nonpayable",
      "type": "function"
    },
    {
      "inputs": [],
      "name": "name",
      "outputs": [
        {
          "internalType": "string",
          "name": "",
          "type": "string"
        }
      ],
      "stateMutability": "view",
      "type": "function"
    },
    {
      "inputs": [],
      "name": "owner",
      "outputs": [
        {
          "internalType": "address",
          "name": "",
          "type": "address"
        }
      ],
      "stateMutability": "view",
      "type": "function"
    },
    {
      "inputs": [
        {
          "internalType": "uint256",
          "name": "tokenId",
          "type": "uint256"
        }
      ],
      "name": "ownerOf",
      "outputs": [
        {
          "internalType": "address",
          "name": "",
          "type": "address"
        }
      ],
      "stateMutability": "view",
      "type": "function"
    },
    {
      "inputs": [
        {
          "internalType": "uint256",
          "name": "tokenId",
          "type": "uint256"
        }
      ],
      "name": "randomise",
      "outputs": [],
      "stateMutability": "nonpayable",
      "type": "function"
    },
    {
      "inputs": [],
      "name": "renounceOwnership",
      "outputs": [],
      "stateMutability": "nonpayable",
      "type": "function"
    },
    {
      "inputs": [
        {
          "internalType": "uint256",
          "name": "",
          "type": "uint256"
        }
      ],
      "name": "resourceTokenAddresses",
      "outputs": [
        {
          "internalType": "contract ERC20Mintable",
          "name": "",
          "type": "address"
        }
      ],
      "stateMutability": "view",
      "type": "function"
    },
    {
      "inputs": [
        {
          "internalType": "address",
          "name": "from",
          "type": "address"
        },
        {
          "internalType": "address",
          "name": "to",
          "type": "address"
        },
        {
          "internalType": "uint256",
          "name": "tokenId",
          "type": "uint256"
        }
      ],
      "name": "safeTransferFrom",
      "outputs": [],
      "stateMutability": "nonpayable",
      "type": "function"
    },
    {
      "inputs": [
        {
          "internalType": "address",
          "name": "from",
          "type": "address"
        },
        {
          "internalType": "address",
          "name": "to",
          "type": "address"
        },
        {
          "internalType": "uint256",
          "name": "tokenId",
          "type": "uint256"
        },
        {
          "internalType": "bytes",
          "name": "_data",
          "type": "bytes"
        }
      ],
      "name": "safeTransferFrom",
      "outputs": [],
      "stateMutability": "nonpayable",
      "type": "function"
    },
    {
      "inputs": [
        {
          "internalType": "address",
          "name": "operator",
          "type": "address"
        },
        {
          "internalType": "bool",
          "name": "approved",
          "type": "bool"
        }
      ],
      "name": "setApprovalForAll",
      "outputs": [],
      "stateMutability": "nonpayable",
      "type": "function"
    },
    {
      "inputs": [
        {
          "internalType": "contract Helpers",
          "name": "helpersContract_",
          "type": "address"
        }
      ],
      "name": "setHelpersContract",
      "outputs": [],
      "stateMutability": "nonpayable",
      "type": "function"
    },
    {
      "inputs": [
        {
          "internalType": "bytes4",
          "name": "interfaceId",
          "type": "bytes4"
        }
      ],
      "name": "supportsInterface",
      "outputs": [
        {
          "internalType": "bool",
          "name": "",
          "type": "bool"
        }
      ],
      "stateMutability": "view",
      "type": "function"
    },
    {
      "inputs": [],
      "name": "symbol",
      "outputs": [
        {
          "internalType": "string",
          "name": "",
          "type": "string"
        }
      ],
      "stateMutability": "view",
      "type": "function"
    },
    {
      "inputs": [
        {
          "internalType": "uint256",
          "name": "index",
          "type": "uint256"
        }
      ],
      "name": "tokenByIndex",
      "outputs": [
        {
          "internalType": "uint256",
          "name": "",
          "type": "uint256"
        }
      ],
      "stateMutability": "view",
      "type": "function"
    },
    {
      "inputs": [
        {
          "internalType": "uint256",
          "name": "",
          "type": "uint256"
        }
      ],
      "name": "tokenIdToLastHarvest",
      "outputs": [
        {
          "internalType": "uint256",
          "name": "",
          "type": "uint256"
        }
      ],
      "stateMutability": "view",
      "type": "function"
    },
    {
      "inputs": [
        {
          "internalType": "address",
          "name": "owner",
          "type": "address"
        },
        {
          "internalType": "uint256",
          "name": "index",
          "type": "uint256"
        }
      ],
      "name": "tokenOfOwnerByIndex",
      "outputs": [
        {
          "internalType": "uint256",
          "name": "",
          "type": "uint256"
        }
      ],
      "stateMutability": "view",
      "type": "function"
    },
    {
      "inputs": [
        {
          "internalType": "uint256",
          "name": "tokenId",
          "type": "uint256"
        }
      ],
      "name": "tokenURI",
      "outputs": [
        {
          "internalType": "string",
          "name": "",
          "type": "string"
        }
      ],
      "stateMutability": "view",
      "type": "function"
    },
    {
      "inputs": [],
      "name": "totalSupply",
      "outputs": [
        {
          "internalType": "uint256",
          "name": "",
          "type": "uint256"
        }
      ],
      "stateMutability": "view",
      "type": "function"
    },
    {
      "inputs": [
        {
          "internalType": "address",
          "name": "from",
          "type": "address"
        },
        {
          "internalType": "address",
          "name": "to",
          "type": "address"
        },
        {
          "internalType": "uint256",
          "name": "tokenId",
          "type": "uint256"
        }
      ],
      "name": "transferFrom",
      "outputs": [],
      "stateMutability": "nonpayable",
      "type": "function"
    },
    {
      "inputs": [
        {
          "internalType": "address",
          "name": "newOwner",
          "type": "address"
        }
      ],
      "name": "transferOwnership",
      "outputs": [],
      "stateMutability": "nonpayable",
      "type": "function"
    }
  ],
  "transactionHash": "0x6b35ad998450ef35404cf0d5e5880d7e7a48b7aca2c8a5da9fe1c87fb7f79bd8",
  "args": [
    "0x71482Da8ec9ACa79b699c37fD1F7eAC5833221b5",
    "0x90C53f8fd802565e25098597C4c7e5e5FF4af845",
    "0x5DF4a4892D327F3d704a727e1130280739c447Ce",
    "0xf52B8677a67B630642ef9ADF05DDEf4dBD4fbcb2",
    "0x6b59B22e27eA6f76752bc26566D30f5FDc5Dec84",
    "0x31D84F983cD845f829BC58cb14B647b7c48E1897",
    "0x946c49A34319d451Cae150C889518ae3f5E1ce09",
    "0xa2a256B42d52E6D81d0764ea043d2f96646993b3",
    "0x24Ec2cBFcaf68B3093CF53158d31c98D99cB0D9f"
  ],
  "solcInputHash": "16bb3c57c6c561d8aef3a61309089298",
  "bytecode": "0x600461018081815263043616d760e41b6101a052608090815260066101c09081526512185b5b195d60d21b6101e05260a05260076102008181526656696c6c61676560c81b6102205260c052610240928352632a37bbb760e11b6102605260e092909252600861028081815267111a5cdd1c9a58dd60c21b6102a052610100526102c081815267141c9958da5b98dd60c21b6102e052610120526103009283526610d85c1a5d1bdb60ca1b6103205261014092909252610380604052600561034090815264537461746560d81b6103605261016052620000e3916010919062000933565b506040805160e081018252600560a082018181526408ac2e4e8d60db1b60c084015282528251808401845260048152634669726560e01b6020828101919091528084019190915283518085018552828152642bb0ba32b960d91b818301528385015283518085018552600381526220b4b960e91b81830152606084015283518085019094526006845265105cdd1c985b60d21b90840152608082019290925262000191916011919062000997565b5060405180610100016040528060405180604001604052806007815260200166105b98da595b9d60ca1b81525081526020016040518060400160405280600981526020016810db185cdcda58d85b60ba1b8152508152602001604051806040016040528060088152602001671359591a595d985b60c21b81525081526020016040518060400160405280600b81526020016a52656e61697373616e636560a81b81525081526020016040518060400160405280600a815260200169125b991d5cdd1c9a585b60b21b81525081526020016040518060400160405280600681526020016526b7b232b93760d11b81525081526020016040518060400160405280600b81526020016a24b73337b936b0ba34b7b760a91b81525081526020016040518060400160405280600681526020016546757475726560d01b8152508152506012906008620002e292919062000933565b506040805161014081018252600461010082018181526324b937b760e11b6101208401528252825180840184528181526311dbdb1960e21b6020828101919091528084019190915283518085018552600681526529b4b63b32b960d11b8183015283850152835180850185528281526315dbdbd960e21b818301526060840152835180850185529182526315dbdbdb60e21b828201526080830191909152825180840184526005808252642bb0ba32b960d91b8284015260a08401919091528351808501855281815264477261737360d81b8184015260c0840152835180850190945283526423b930b4b760d91b9083015260e0810191909152620003ec90601390600862000933565b5060408051610180810182526009610140820181815268115e1c1958dd185b9d60ba1b610160840152825282518084018452600b81526a115b9b1a59da1d195b995960aa1b6020828101919091528084019190915283518085018552600a808252694469736d69737369766560b01b828401528486019190915284518086018652600780825266556e686170707960c81b828501526060860191909152855180870187526005815264486170707960d81b8185015260808601528551808701875284815268155b991958da59195960ba1b8185015260a0860152855180870187529081526657617272696e6760c81b8184015260c08501528451808601865260068082526514d8d85c995960d21b8285015260e08601919091528551808701875290815265556e72756c7960d01b81840152610100850152845180860190955291845268105b985c98da1a5cdd60ba1b90840152610120820192909252620005589160149190620009e9565b506040805161016081018252600961012082018181526844656d6f637261637960b81b61014084015282528251808401845281815268436f6d6d756e69736d60b81b602082810191909152808401919091528351808501855282815268536f6369616c69736d60b81b818301528385015283518085018552828152684f6c6967617263687960b81b81830152606084015283518085018552600b8082526a41726973746f637261637960a81b8284015260808501919091528451808601865260088152674d6f6e617263687960c01b8184015260a085015284518086018652838152685468656f637261637960b81b8184015260c0850152845180860186529081526a436f6c6f6e69616c69736d60a81b8183015260e08401528351808501909452600c84526b04469637461746f72736869760a41b90840152610100820192909252620006aa916015919062000a3b565b506040518060c001604052806040518060400160405280600781526020016647656e6573697360c81b81525081526020016040518060400160405280600881526020016756616c68616c6c6160c01b8152508152602001604051806040016040528060088152602001674b65736b656c6c6160c01b815250815260200160405180604001604052806006815260200165536861646f7760d01b815250815260200160405180604001604052806006815260200165506c61696e7360d01b815250815260200160405180604001604052806004815260200163456e647360e01b8152508152506016906006620007a192919062000a8d565b50348015620007af57600080fd5b506040516200496538038062004965833981016040819052620007d29162000c3c565b604080518082018252600b81526a536574746c656d656e747360a81b60208083019182528351808501909452600384526214d51360ea1b908401528151919291620008209160009162000adf565b5080516200083690600190602084019062000adf565b505050620008536200084d620008dd60201b60201c565b620008e1565b600b80546001600160a01b0319166001600160a01b038b81169190911790915560408051610100810182528a831681528983166020820152888316918101919091528682166060820152858216608082015284821660a082015283821660c082015290821660e0820152620008cd90600d90600862000b6a565b5050505050505050505062000d65565b3390565b600a80546001600160a01b038381166001600160a01b0319831681179093556040519116919082907f8be0079c531659141344cd1fd0a4f28419497f9722a3daafe3b4186f6b6457e090600090a35050565b82805482825590600052602060002090810192821562000985579160200282015b828111156200098557825180516200097491849160209091019062000adf565b509160200191906001019062000954565b506200099392915062000bc2565b5090565b82805482825590600052602060002090810192821562000985579160200282015b82811115620009855782518051620009d891849160209091019062000adf565b5091602001919060010190620009b8565b82805482825590600052602060002090810192821562000985579160200282015b8281111562000985578251805162000a2a91849160209091019062000adf565b509160200191906001019062000a0a565b82805482825590600052602060002090810192821562000985579160200282015b8281111562000985578251805162000a7c91849160209091019062000adf565b509160200191906001019062000a5c565b82805482825590600052602060002090810192821562000985579160200282015b8281111562000985578251805162000ace91849160209091019062000adf565b509160200191906001019062000aae565b82805462000aed9062000d12565b90600052602060002090601f01602090048101928262000b11576000855562000b5c565b82601f1062000b2c57805160ff191683800117855562000b5c565b8280016001018555821562000b5c579182015b8281111562000b5c57825182559160200191906001019062000b3f565b506200099392915062000be3565b82805482825590600052602060002090810192821562000b5c579160200282015b8281111562000b5c57825182546001600160a01b0319166001600160a01b0390911617825560209092019160019091019062000b8b565b808211156200099357600062000bd9828262000bfa565b5060010162000bc2565b5b8082111562000993576000815560010162000be4565b50805462000c089062000d12565b6000825580601f1062000c19575050565b601f01602090049060005260206000209081019062000c39919062000be3565b50565b60008060008060008060008060006101208a8c03121562000c5b578485fd5b895162000c688162000d4f565b60208b015190995062000c7b8162000d4f565b60408b015190985062000c8e8162000d4f565b60608b015190975062000ca18162000d4f565b60808b015190965062000cb48162000d4f565b60a08b015190955062000cc78162000d4f565b60c08b015190945062000cda8162000d4f565b60e08b015190935062000ced8162000d4f565b6101008b015190925062000d018162000d4f565b809150509295985092959850929598565b600181811c9082168062000d2757607f821691505b6020821081141562000d4957634e487b7160e01b600052602260045260246000fd5b50919050565b6001600160a01b038116811462000c3957600080fd5b613bf08062000d756000396000f3fe608060405234801561001057600080fd5b506004361061027f5760003560e01c80636658417d1161015c578063aa62581e116100ce578063ddc6326211610087578063ddc632621461063c578063e985e9c51461064f578063ed52a0ce1461068b578063ef0b22b41461069e578063f2fde38b146106b1578063f952d4da146106c457600080fd5b8063aa62581e146105ca578063b88d4fde146105dd578063c3332939146105f0578063c87b56dd14610603578063cb133b0f14610616578063cb4f52f81461062957600080fd5b8063746eae5911610120578063746eae59146105465780637d7f7840146105595780638da5cb5b1461058b57806395d89b411461059c578063a22cb465146105a4578063a29e2595146105b757600080fd5b80636658417d146104e5578063684d0770146104f85780636f3574cd1461051857806370a082311461052b578063715018a61461053e57600080fd5b80632d1353ba116101f557806342842e0e116101b957806342842e0e14610473578063491d8a58146104865780634efce841146104995780634f6ccce7146104ac5780636352211e146104bf57806364449c9c146104d257600080fd5b80632d1353ba146104145780632f745c591461042757806334dbc3b31461043a5780633da391e31461044d578063404936b41461046057600080fd5b806318160ddd1161024757806318160ddd1461031457806318f5de381461032657806321983707146103c857806323b872dd146103db57806327707b9b146103ee5780632a65294e1461040157600080fd5b806301ffc9a71461028457806305333acf146102ac57806306fdde03146102cc578063081812fc146102d4578063095ea7b3146102ff575b600080fd5b6102976102923660046135eb565b6106d7565b60405190151581526020015b60405180910390f35b6102bf6102ba3660046136c3565b6106e8565b6040516102a391906137c7565b6102bf6107ee565b6102e76102e23660046136c3565b610880565b6040516001600160a01b0390911681526020016102a3565b61031261030d3660046134b4565b610908565b005b6008545b6040519081526020016102a3565b6103856103343660046136c3565b600f6020526000908152604090205460ff808216916101008104821691620100008204811691630100000081048216916401000000008204811691600160281b8104821691600160301b9091041687565b6040805160ff9889168152968816602088015294871694860194909452918516606085015284166080840152831660a083015290911660c082015260e0016102a3565b6102bf6103d63660046136c3565b610a1e565b6103126103e936600461339c565b610aca565b600b546102e7906001600160a01b031681565b6102bf61040f3660046136c3565b610afb565b610312610422366004613348565b610b5e565b6103186104353660046134b4565b610baa565b6102bf6104483660046136c3565b610c40565b6102bf61045b3660046136c3565b610c50565b6102bf61046e3660046136c3565b610cb1565b61031261048136600461339c565b610cc1565b6103126104943660046136db565b610cdc565b6102bf6104a73660046136c3565b610f68565b6103186104ba3660046136c3565b610f78565b6102e76104cd3660046136c3565b611019565b6103126104e03660046136c3565b611090565b6102bf6104f33660046136c3565b611162565b6103186105063660046136c3565b600e6020526000908152604090205481565b6102bf6105263660046136c3565b611172565b610318610539366004613348565b6111d4565b61031261125b565b6102bf6105543660046136c3565b611291565b61056c6105673660046136c3565b6112a1565b604080516001600160a01b0390931683526020830191909152016102a3565b600a546001600160a01b03166102e7565b6102bf6113e7565b6103126105b2366004613483565b6113f6565b600c546102e7906001600160a01b031681565b6102bf6105d83660046136c3565b6114bb565b6103126105eb3660046133dc565b61151e565b6102bf6105fe3660046136c3565b611550565b6102bf6106113660046136c3565b611560565b6103126106243660046134df565b61156d565b6102bf6106373660046136c3565b6115e2565b61031261064a3660046136c3565b611646565b61029761065d366004613364565b6001600160a01b03918216600090815260056020908152604080832093909416825291909152205460ff1690565b6102e76106993660046136c3565b6116e3565b6102bf6106ac3660046136c3565b61170d565b6103126106bf366004613348565b611769565b6103126106d23660046136c3565b611801565b60006106e282611880565b92915050565b60606106f3826118a5565b6107185760405162461bcd60e51b815260040161070f9061382c565b60405180910390fd5b6000828152600f6020526040902054601680549091600160301b900460ff1690811061075457634e487b7160e01b600052603260045260246000fd5b90600052602060002001805461076990613ae3565b80601f016020809104026020016040519081016040528092919081815260200182805461079590613ae3565b80156107e25780601f106107b7576101008083540402835291602001916107e2565b820191906000526020600020905b8154815290600101906020018083116107c557829003601f168201915b50505050509050919050565b6060600080546107fd90613ae3565b80601f016020809104026020016040519081016040528092919081815260200182805461082990613ae3565b80156108765780601f1061084b57610100808354040283529160200191610876565b820191906000526020600020905b81548152906001019060200180831161085957829003601f168201915b5050505050905090565b600061088b826118a5565b6108ec5760405162461bcd60e51b815260206004820152602c60248201527f4552433732313a20617070726f76656420717565727920666f72206e6f6e657860448201526b34b9ba32b73a103a37b5b2b760a11b606482015260840161070f565b506000908152600460205260409020546001600160a01b031690565b600061091382611019565b9050806001600160a01b0316836001600160a01b031614156109815760405162461bcd60e51b815260206004820152602160248201527f4552433732313a20617070726f76616c20746f2063757272656e74206f776e656044820152603960f91b606482015260840161070f565b336001600160a01b038216148061099d575061099d813361065d565b610a0f5760405162461bcd60e51b815260206004820152603860248201527f4552433732313a20617070726f76652063616c6c6572206973206e6f74206f7760448201527f6e6572206e6f7220617070726f76656420666f7220616c6c0000000000000000606482015260840161070f565b610a1983836118c2565b505050565b60168181548110610a2e57600080fd5b906000526020600020016000915090508054610a4990613ae3565b80601f0160208091040260200160405190810160405280929190818152602001828054610a7590613ae3565b8015610ac25780601f10610a9757610100808354040283529160200191610ac2565b820191906000526020600020905b815481529060010190602001808311610aa557829003601f168201915b505050505081565b610ad43382611930565b610af05760405162461bcd60e51b815260040161070f90613898565b610a19838383611a1a565b6060610b06826118a5565b610b225760405162461bcd60e51b815260040161070f9061382c565b6000828152600f60205260409020546013805490916301000000900460ff1690811061075457634e487b7160e01b600052603260045260246000fd5b600a546001600160a01b03163314610b885760405162461bcd60e51b815260040161070f90613863565b600c80546001600160a01b0319166001600160a01b0392909216919091179055565b6000610bb5836111d4565b8210610c175760405162461bcd60e51b815260206004820152602b60248201527f455243373231456e756d657261626c653a206f776e657220696e646578206f7560448201526a74206f6620626f756e647360a81b606482015260840161070f565b506001600160a01b03919091166000908152600660209081526040808320938352929052205490565b60158181548110610a2e57600080fd5b6060610c5b826118a5565b610c775760405162461bcd60e51b815260040161070f9061382c565b6000828152600f6020526040902054601180549091610100900460ff1690811061075457634e487b7160e01b600052603260045260246000fd5b60108181548110610a2e57600080fd5b610a198383836040518060200160405280600081525061151e565b600b546040516323b872dd60e01b8152336004820152306024820152604481018490526001600160a01b03909116906323b872dd90606401600060405180830381600087803b158015610d2e57600080fd5b505af1158015610d42573d6000803e3d6000fd5b50505050610d503383611bc5565b6000828152600f602090815260408083208451815493860151928601516060870151608088015160a089015160c08a015160ff908116600160301b0266ff00000000000019928216600160281b0265ff000000000019948316640100000000029490941665ffff000000001995831663010000000263ff0000001997841662010000029790971663ffff0000199a84166101000261ffff19909c1693909816929092179990991797909716949094179290921716939093179290921791909116919091179055610e1f83611be3565b604051602001610e2f9190613734565b60408051808303601f19018152908290528051602090910120600b5463c87b56dd60e01b8352600483018690529092506000916001600160a01b039091169063c87b56dd9060240160006040518083038186803b158015610e8f57600080fd5b505afa158015610ea3573d6000803e3d6000fd5b505050506040513d6000823e601f3d908101601f19168201604052610ecb9190810190613650565b604051602001610edb9190613734565b60408051601f1981840301815291815281516020928301206000878152600e90935291204390559050818114610f625760405162461bcd60e51b815260206004820152602660248201527f4174747269627574657320646f6e2774206d61746368206c656761637920636f6044820152651b9d1c9858dd60d21b606482015260840161070f565b50505050565b60118181548110610a2e57600080fd5b6000610f8360085490565b8210610fe65760405162461bcd60e51b815260206004820152602c60248201527f455243373231456e756d657261626c653a20676c6f62616c20696e646578206f60448201526b7574206f6620626f756e647360a01b606482015260840161070f565b6008828154811061100757634e487b7160e01b600052603260045260246000fd5b90600052602060002001549050919050565b6000818152600260205260408120546001600160a01b0316806106e25760405162461bcd60e51b815260206004820152602960248201527f4552433732313a206f776e657220717565727920666f72206e6f6e657869737460448201526832b73a103a37b5b2b760b91b606482015260840161070f565b611099816118a5565b80156110be57506110a981611019565b6001600160a01b0316336001600160a01b0316145b80156110e357506000818152600f60205260409020546005600160301b90910460ff16105b6111275760405162461bcd60e51b815260206004820152601560248201527429b2ba3a3632b6b2b73a103a3ab937399037bb32b960591b604482015260640161070f565b61113081611646565b6000818152600f602052604090205461115f90829061115a90600160301b900460ff166001613a67565b611bf0565b50565b60128181548110610a2e57600080fd5b606061117d826118a5565b6111995760405162461bcd60e51b815260040161070f9061382c565b6000828152600f602052604090205460128054909162010000900460ff1690811061075457634e487b7160e01b600052603260045260246000fd5b60006001600160a01b03821661123f5760405162461bcd60e51b815260206004820152602a60248201527f4552433732313a2062616c616e636520717565727920666f7220746865207a65604482015269726f206164647265737360b01b606482015260840161070f565b506001600160a01b031660009081526003602052604090205490565b600a546001600160a01b031633146112855760405162461bcd60e51b815260040161070f90613863565b61128f60006122fc565b565b60138181548110610a2e57600080fd5b6000818152600f60209081526040808320815160e081018352905460ff8082168352610100820481169483019485526201000082048116838501908152630100000083048216606085019081526401000000008404831660808601908152600160281b8504841660a08701908152600160301b909504841660c08701908152600c5497516001625f0f5b60e01b03198152600481018c90528751861660248201529851851660448a015292518416606489015290518316608488015251821660a48701529151811660c486015290511660e4840152839290916001600160a01b03169063ffa0f0a59061010401604080518083038186803b1580156113a557600080fd5b505afa1580156113b9573d6000803e3d6000fd5b505050506040513d601f19601f820116820180604052508101906113dd9190613623565b9250925050915091565b6060600180546107fd90613ae3565b6001600160a01b03821633141561144f5760405162461bcd60e51b815260206004820152601960248201527f4552433732313a20617070726f766520746f2063616c6c657200000000000000604482015260640161070f565b3360008181526005602090815260408083206001600160a01b03871680855290835292819020805460ff191686151590811790915590519081529192917f17307eab39ab6107e8899845ad3d59bd9653f200f220920489ca2b5937696c31910160405180910390a35050565b60606114c6826118a5565b6114e25760405162461bcd60e51b815260040161070f9061382c565b6000828152600f6020526040902054601580549091600160281b900460ff1690811061075457634e487b7160e01b600052603260045260246000fd5b6115283383611930565b6115445760405162461bcd60e51b815260040161070f90613898565b610f628484848461234e565b60148181548110610a2e57600080fd5b60606106e2826000612381565b60005b8151811015610f62576115d084848381811061159c57634e487b7160e01b600052603260045260246000fd5b905060200201358383815181106115c357634e487b7160e01b600052603260045260246000fd5b6020026020010151610cdc565b806115da81613b1e565b915050611570565b60606115ed826118a5565b6116095760405162461bcd60e51b815260040161070f9061382c565b6000828152600f6020526040902054601480549091640100000000900460ff1690811061075457634e487b7160e01b600052603260045260246000fd5b600080611652836112a1565b91509150816001600160a01b03166340c10f1961166e85611019565b6040516001600160e01b031960e084901b1681526001600160a01b03909116600482015260248101849052604401600060405180830381600087803b1580156116b657600080fd5b505af11580156116ca573d6000803e3d6000fd5b50505060009384525050600e6020525060409020439055565b600d81815481106116f357600080fd5b6000918252602090912001546001600160a01b0316905081565b6060611718826118a5565b6117345760405162461bcd60e51b815260040161070f9061382c565b6000828152600f602052604090205460108054909160ff1690811061075457634e487b7160e01b600052603260045260246000fd5b600a546001600160a01b031633146117935760405162461bcd60e51b815260040161070f90613863565b6001600160a01b0381166117f85760405162461bcd60e51b815260206004820152602660248201527f4f776e61626c653a206e6577206f776e657220697320746865207a65726f206160448201526564647265737360d01b606482015260840161070f565b61115f816122fc565b600b546040516323b872dd60e01b8152336004820152306024820152604481018390526001600160a01b03909116906323b872dd90606401600060405180830381600087803b15801561185357600080fd5b505af1158015611867573d6000803e3d6000fd5b50505050611876816003611bf0565b61115f3382611bc5565b60006001600160e01b0319821663780e9d6360e01b14806106e257506106e282612b97565b6000908152600260205260409020546001600160a01b0316151590565b600081815260046020526040902080546001600160a01b0319166001600160a01b03841690811790915581906118f782611019565b6001600160a01b03167f8c5be1e5ebec7d5bd14f71427d1e84f3dd0314c0f7b2291e5b200ac8c7c3b92560405160405180910390a45050565b600061193b826118a5565b61199c5760405162461bcd60e51b815260206004820152602c60248201527f4552433732313a206f70657261746f7220717565727920666f72206e6f6e657860448201526b34b9ba32b73a103a37b5b2b760a11b606482015260840161070f565b60006119a783611019565b9050806001600160a01b0316846001600160a01b031614806119e25750836001600160a01b03166119d784610880565b6001600160a01b0316145b80611a1257506001600160a01b0380821660009081526005602090815260408083209388168352929052205460ff165b949350505050565b826001600160a01b0316611a2d82611019565b6001600160a01b031614611a955760405162461bcd60e51b815260206004820152602960248201527f4552433732313a207472616e73666572206f6620746f6b656e2074686174206960448201526839903737ba1037bbb760b91b606482015260840161070f565b6001600160a01b038216611af75760405162461bcd60e51b8152602060048201526024808201527f4552433732313a207472616e7366657220746f20746865207a65726f206164646044820152637265737360e01b606482015260840161070f565b611b02838383612be7565b611b0d6000826118c2565b6001600160a01b0383166000908152600360205260408120805460019290611b36908490613aa0565b90915550506001600160a01b0382166000908152600360205260408120805460019290611b64908490613a4f565b909155505060008181526002602052604080822080546001600160a01b0319166001600160a01b0386811691821790925591518493918716917fddf252ad1be2c89b69c2b068fc378daa952ba7f163c4a11628f55a4df523b3ef91a4505050565b611bdf828260405180602001604052806000815250612bf2565b5050565b60606106e2826001612381565b611cf0611c19836040518060400160405280600481526020016373697a6560e01b815250612c25565b6010805480602002602001604051908101604052809291908181526020016000905b82821015611ce7578382906000526020600020018054611c5a90613ae3565b80601f0160208091040260200160405190810160405280929190818152602001828054611c8690613ae3565b8015611cd35780601f10611ca857610100808354040283529160200191611cd3565b820191906000526020600020905b815481529060010190602001808311611cb657829003601f168201915b505050505081526020019060010190611c3b565b50505050612c5d565b600f600084815260200190815260200160002060000160006101000a81548160ff021916908360ff160217905550611e17611d4983604051806040016040528060068152602001651cdc1a5c9a5d60d21b815250612c25565b6011805480602002602001604051908101604052809291908181526020016000905b82821015611ce7578382906000526020600020018054611d8a90613ae3565b80601f0160208091040260200160405190810160405280929190818152602001828054611db690613ae3565b8015611e035780601f10611dd857610100808354040283529160200191611e03565b820191906000526020600020905b815481529060010190602001808311611de657829003601f168201915b505050505081526020019060010190611d6b565b600f600084815260200190815260200160002060000160016101000a81548160ff021916908360ff160217905550611f3b611e6d836040518060400160405280600381526020016261676560e81b815250612c25565b6012805480602002602001604051908101604052809291908181526020016000905b82821015611ce7578382906000526020600020018054611eae90613ae3565b80601f0160208091040260200160405190810160405280929190818152602001828054611eda90613ae3565b8015611f275780601f10611efc57610100808354040283529160200191611f27565b820191906000526020600020905b815481529060010190602001808311611f0a57829003601f168201915b505050505081526020019060010190611e8f565b600f600084815260200190815260200160002060000160026101000a81548160ff021916908360ff160217905550612064611f9683604051806040016040528060088152602001677265736f7572636560c01b815250612c25565b6013805480602002602001604051908101604052809291908181526020016000905b82821015611ce7578382906000526020600020018054611fd790613ae3565b80601f016020809104026020016040519081016040528092919081815260200182805461200390613ae3565b80156120505780601f1061202557610100808354040283529160200191612050565b820191906000526020600020905b81548152906001019060200180831161203357829003601f168201915b505050505081526020019060010190611fb8565b600f600084815260200190815260200160002060000160036101000a81548160ff021916908360ff16021790555061218b6120bd83604051806040016040528060068152602001656d6f72616c6560d01b815250612c25565b6014805480602002602001604051908101604052809291908181526020016000905b82821015611ce75783829060005260206000200180546120fe90613ae3565b80601f016020809104026020016040519081016040528092919081815260200182805461212a90613ae3565b80156121775780601f1061214c57610100808354040283529160200191612177565b820191906000526020600020905b81548152906001019060200180831161215a57829003601f168201915b5050505050815260200190600101906120df565b600f600084815260200190815260200160002060000160046101000a81548160ff021916908360ff1602179055506122b66121e8836040518060400160405280600a81526020016919dbdd995c9b9b595b9d60b21b815250612c25565b6015805480602002602001604051908101604052809291908181526020016000905b82821015611ce757838290600052602060002001805461222990613ae3565b80601f016020809104026020016040519081016040528092919081815260200182805461225590613ae3565b80156122a25780601f10612277576101008083540402835291602001916122a2565b820191906000526020600020905b81548152906001019060200180831161228557829003601f168201915b50505050508152602001906001019061220a565b6000928352600f6020526040909220805466ffff00000000001916600160281b60ff9485160266ff000000000000191617600160301b9290931691909102919091179055565b600a80546001600160a01b038381166001600160a01b0319831681179093556040519116919082907f8be0079c531659141344cd1fd0a4f28419497f9722a3daafe3b4186f6b6457e090600090a35050565b612359848484611a1a565b61236584848484612c71565b610f625760405162461bcd60e51b815260040161070f906137da565b606061238c836118a5565b6123a85760405162461bcd60e51b815260040161070f9061382c565b6123e86040518060e00160405280606081526020016060815260200160608152602001606081526020016060815260200160608152602001606081525090565b6000848152600f602052604090205460108054909160ff1690811061241d57634e487b7160e01b600052603260045260246000fd5b90600052602060002001805461243290613ae3565b80601f016020809104026020016040519081016040528092919081815260200182805461245e90613ae3565b80156124ab5780601f10612480576101008083540402835291602001916124ab565b820191906000526020600020905b81548152906001019060200180831161248e57829003601f168201915b50505091835250506000848152600f6020526040902054601180549091610100900460ff169081106124ed57634e487b7160e01b600052603260045260246000fd5b90600052602060002001805461250290613ae3565b80601f016020809104026020016040519081016040528092919081815260200182805461252e90613ae3565b801561257b5780601f106125505761010080835404028352916020019161257b565b820191906000526020600020905b81548152906001019060200180831161255e57829003601f168201915b50505050506020828101919091526000858152600f909152604090205460128054909162010000900460ff169081106125c457634e487b7160e01b600052603260045260246000fd5b9060005260206000200180546125d990613ae3565b80601f016020809104026020016040519081016040528092919081815260200182805461260590613ae3565b80156126525780601f1061262757610100808354040283529160200191612652565b820191906000526020600020905b81548152906001019060200180831161263557829003601f168201915b50505050506040828101919091526000858152600f60205220546013805490916301000000900460ff1690811061269957634e487b7160e01b600052603260045260246000fd5b9060005260206000200180546126ae90613ae3565b80601f01602080910402602001604051908101604052809291908181526020018280546126da90613ae3565b80156127275780601f106126fc57610100808354040283529160200191612727565b820191906000526020600020905b81548152906001019060200180831161270a57829003601f168201915b505050505060608201526000848152600f6020526040902054601480549091640100000000900460ff1690811061276e57634e487b7160e01b600052603260045260246000fd5b90600052602060002001805461278390613ae3565b80601f01602080910402602001604051908101604052809291908181526020018280546127af90613ae3565b80156127fc5780601f106127d1576101008083540402835291602001916127fc565b820191906000526020600020905b8154815290600101906020018083116127df57829003601f168201915b505050505060808201526000848152600f6020526040902054601580549091600160281b900460ff1690811061284257634e487b7160e01b600052603260045260246000fd5b90600052602060002001805461285790613ae3565b80601f016020809104026020016040519081016040528092919081815260200182805461288390613ae3565b80156128d05780601f106128a5576101008083540402835291602001916128d0565b820191906000526020600020905b8154815290600101906020018083116128b357829003601f168201915b505050505060a08201526000848152600f6020526040902054601680549091600160301b900460ff1690811061291657634e487b7160e01b600052603260045260246000fd5b90600052602060002001805461292b90613ae3565b80601f016020809104026020016040519081016040528092919081815260200182805461295790613ae3565b80156129a45780601f10612979576101008083540402835291602001916129a4565b820191906000526020600020905b81548152906001019060200180831161298757829003601f168201915b50505050508160c001819052506000600d6000815481106129d557634e487b7160e01b600052603260045260246000fd5b60009182526020822001546001600160a01b0316915084612a79576000868152600f6020908152604091829020825160e081018452905460ff808216835261010082048116938301939093526201000081048316938201939093526301000000830482166060820152640100000000830482166080820152600160281b8304821660a0820152600160301b9092041660c0820152612a72876112a1565b9093509150505b6000600c60009054906101000a90046001600160a01b03166001600160a01b0316630f14d01a8584866001600160a01b03166395d89b416040518163ffffffff1660e01b815260040160006040518083038186803b158015612ada57600080fd5b505afa158015612aee573d6000803e3d6000fd5b505050506040513d6000823e601f3d908101601f19168201604052612b169190810190613650565b8a8c6040518663ffffffff1660e01b8152600401612b389594939291906138e9565b60006040518083038186803b158015612b5057600080fd5b505afa158015612b64573d6000803e3d6000fd5b505050506040513d6000823e601f3d908101601f19168201604052612b8c9190810190613650565b979650505050505050565b60006001600160e01b031982166380ac58cd60e01b1480612bc857506001600160e01b03198216635b5e139f60e01b145b806106e257506301ffc9a760e01b6001600160e01b03198316146106e2565b610a19838383612d7e565b612bfc8383612e36565b612c096000848484612c71565b610a195760405162461bcd60e51b815260040161070f906137da565b606081612c3184612f75565b4244604051602001612c469493929190613750565b604051602081830303815290604052905092915050565b6000612c6a83835161308f565b9392505050565b60006001600160a01b0384163b15612d7357604051630a85bd0160e11b81526001600160a01b0385169063150b7a0290612cb590339089908890889060040161378a565b602060405180830381600087803b158015612ccf57600080fd5b505af1925050508015612cff575060408051601f3d908101601f19168201909252612cfc91810190613607565b60015b612d59573d808015612d2d576040519150601f19603f3d011682016040523d82523d6000602084013e612d32565b606091505b508051612d515760405162461bcd60e51b815260040161070f906137da565b805181602001fd5b6001600160e01b031916630a85bd0160e11b149050611a12565b506001949350505050565b6001600160a01b038316612dd957612dd481600880546000838152600960205260408120829055600182018355919091527ff3f7a9fe364faab93b216da50a3214154f22a0a2b415b23a84c8169e8b636ee30155565b612dfc565b816001600160a01b0316836001600160a01b031614612dfc57612dfc83826130c6565b6001600160a01b038216612e1357610a1981613163565b826001600160a01b0316826001600160a01b031614610a1957610a19828261323c565b6001600160a01b038216612e8c5760405162461bcd60e51b815260206004820181905260248201527f4552433732313a206d696e7420746f20746865207a65726f2061646472657373604482015260640161070f565b612e95816118a5565b15612ee25760405162461bcd60e51b815260206004820152601c60248201527f4552433732313a20746f6b656e20616c7265616479206d696e74656400000000604482015260640161070f565b612eee60008383612be7565b6001600160a01b0382166000908152600360205260408120805460019290612f17908490613a4f565b909155505060008181526002602052604080822080546001600160a01b0319166001600160a01b03861690811790915590518392907fddf252ad1be2c89b69c2b068fc378daa952ba7f163c4a11628f55a4df523b3ef908290a45050565b606081612f995750506040805180820190915260018152600360fc1b602082015290565b8160005b8115612fc35780612fad81613b1e565b9150612fbc9050600a83613a8c565b9150612f9d565b60008167ffffffffffffffff811115612fec57634e487b7160e01b600052604160045260246000fd5b6040519080825280601f01601f191660200182016040528015613016576020820181803683370190505b5090505b8415611a125761302b600183613aa0565b9150613038600a86613b39565b613043906030613a4f565b60f81b81838151811061306657634e487b7160e01b600052603260045260246000fd5b60200101906001600160f81b031916908160001a905350613088600a86613a8c565b945061301a565b600081836040516020016130a39190613734565b6040516020818303038152906040528051906020012060001c612c6a9190613b39565b600060016130d3846111d4565b6130dd9190613aa0565b600083815260076020526040902054909150808214613130576001600160a01b03841660009081526006602090815260408083208584528252808320548484528184208190558352600790915290208190555b5060009182526007602090815260408084208490556001600160a01b039094168352600681528383209183525290812055565b60085460009061317590600190613aa0565b600083815260096020526040812054600880549394509092849081106131ab57634e487b7160e01b600052603260045260246000fd5b9060005260206000200154905080600883815481106131da57634e487b7160e01b600052603260045260246000fd5b600091825260208083209091019290925582815260099091526040808220849055858252812055600880548061322057634e487b7160e01b600052603160045260246000fd5b6001900381819060005260206000200160009055905550505050565b6000613247836111d4565b6001600160a01b039093166000908152600660209081526040808320868452825280832085905593825260079052919091209190915550565b600060e08284031215613291578081fd5b60405160e0810181811067ffffffffffffffff821117156132b4576132b4613b79565b6040529050806132c383613332565b81526132d160208401613332565b60208201526132e260408401613332565b60408201526132f360608401613332565b606082015261330460808401613332565b608082015261331560a08401613332565b60a082015261332660c08401613332565b60c08201525092915050565b803560ff8116811461334357600080fd5b919050565b600060208284031215613359578081fd5b8135612c6a81613b8f565b60008060408385031215613376578081fd5b823561338181613b8f565b9150602083013561339181613b8f565b809150509250929050565b6000806000606084860312156133b0578081fd5b83356133bb81613b8f565b925060208401356133cb81613b8f565b929592945050506040919091013590565b600080600080608085870312156133f1578081fd5b84356133fc81613b8f565b9350602085013561340c81613b8f565b925060408501359150606085013567ffffffffffffffff81111561342e578182fd5b8501601f8101871361343e578182fd5b803561345161344c82613a27565b6139f6565b818152886020838501011115613465578384fd5b81602084016020830137908101602001929092525092959194509250565b60008060408385031215613495578182fd5b82356134a081613b8f565b915060208301358015158114613391578182fd5b600080604083850312156134c6578182fd5b82356134d181613b8f565b946020939093013593505050565b6000806000604084860312156134f3578081fd5b833567ffffffffffffffff8082111561350a578283fd5b818601915086601f83011261351d578283fd5b81358181111561352b578384fd5b602088818360051b8601011115613540578485fd5b80840196508195508088013593508284111561355a578485fd5b838801935088601f85011261356d578485fd5b833591508282111561358157613581613b79565b61358f818360051b016139f6565b828152818101935084820160e0808502870184018c10156135ae578788fd5b8796505b848710156135da576135c48c83613280565b86526001969096019594830194908101906135b2565b505080955050505050509250925092565b6000602082840312156135fc578081fd5b8135612c6a81613ba4565b600060208284031215613618578081fd5b8151612c6a81613ba4565b60008060408385031215613635578182fd5b825161364081613b8f565b6020939093015192949293505050565b600060208284031215613661578081fd5b815167ffffffffffffffff811115613677578182fd5b8201601f81018413613687578182fd5b805161369561344c82613a27565b8181528560208385010111156136a9578384fd5b6136ba826020830160208601613ab7565b95945050505050565b6000602082840312156136d4578081fd5b5035919050565b60008061010083850312156136ee578182fd5b823591506136ff8460208501613280565b90509250929050565b60008151808452613720816020860160208601613ab7565b601f01601f19169290920160200192915050565b60008251613746818460208701613ab7565b9190910192915050565b60008551613762818460208a01613ab7565b855190830190613776818360208a01613ab7565b019384525050602082015260400192915050565b6001600160a01b03858116825284166020820152604081018390526080606082018190526000906137bd90830184613708565b9695505050505050565b602081526000612c6a6020830184613708565b60208082526032908201527f4552433732313a207472616e7366657220746f206e6f6e20455243373231526560408201527131b2b4bb32b91034b6b83632b6b2b73a32b960711b606082015260800190565b60208082526019908201527f536574746c656d656e7420646f6573206e6f7420657869737400000000000000604082015260600190565b6020808252818101527f4f776e61626c653a2063616c6c6572206973206e6f7420746865206f776e6572604082015260600190565b60208082526031908201527f4552433732313a207472616e736665722063616c6c6572206973206e6f74206f6040820152701ddb995c881b9bdc88185c1c1c9bdd9959607a1b606082015260800190565b60a081526000865160e060a0840152613906610180840182613708565b90506020880151609f19808584030160c08601526139248383613708565b925060408a01519150808584030160e08601526139418383613708565b925060608a01519150808584030161010086015261395f8383613708565b925060808a01519150808584030161012086015261397d8383613708565b925060a08a01519150808584030161014086015261399b8383613708565b925060c08a015191508085840301610160860152506139ba8282613708565b91505086602084015282810360408401526139d58187613708565b9150506139e6606083018515159052565b8260808301529695505050505050565b604051601f8201601f1916810167ffffffffffffffff81118282101715613a1f57613a1f613b79565b604052919050565b600067ffffffffffffffff821115613a4157613a41613b79565b50601f01601f191660200190565b60008219821115613a6257613a62613b4d565b500190565b600060ff821660ff84168060ff03821115613a8457613a84613b4d565b019392505050565b600082613a9b57613a9b613b63565b500490565b600082821015613ab257613ab2613b4d565b500390565b60005b83811015613ad2578181015183820152602001613aba565b83811115610f625750506000910152565b600181811c90821680613af757607f821691505b60208210811415613b1857634e487b7160e01b600052602260045260246000fd5b50919050565b6000600019821415613b3257613b32613b4d565b5060010190565b600082613b4857613b48613b63565b500690565b634e487b7160e01b600052601160045260246000fd5b634e487b7160e01b600052601260045260246000fd5b634e487b7160e01b600052604160045260246000fd5b6001600160a01b038116811461115f57600080fd5b6001600160e01b03198116811461115f57600080fdfea26469706673582212202c4901c57b7f40261b434378c448064b4db0cc02a383e3184b36f723221184b964736f6c63430008040033",
  "devdoc": {
    "kind": "dev",
    "methods": {
      "approve(address,uint256)": {
        "details": "See {IERC721-approve}."
      },
      "balanceOf(address)": {
        "details": "See {IERC721-balanceOf}."
      },
      "getApproved(uint256)": {
        "details": "See {IERC721-getApproved}."
      },
      "isApprovedForAll(address,address)": {
        "details": "See {IERC721-isApprovedForAll}."
      },
      "name()": {
        "details": "See {IERC721Metadata-name}."
      },
      "owner()": {
        "details": "Returns the address of the current owner."
      },
      "ownerOf(uint256)": {
        "details": "See {IERC721-ownerOf}."
      },
      "renounceOwnership()": {
        "details": "Leaves the contract without owner. It will not be possible to call `onlyOwner` functions anymore. Can only be called by the current owner. NOTE: Renouncing ownership will leave the contract without an owner, thereby removing any functionality that is only available to the owner."
      },
      "safeTransferFrom(address,address,uint256)": {
        "details": "See {IERC721-safeTransferFrom}."
      },
      "safeTransferFrom(address,address,uint256,bytes)": {
        "details": "See {IERC721-safeTransferFrom}."
      },
      "setApprovalForAll(address,bool)": {
        "details": "See {IERC721-setApprovalForAll}."
      },
      "symbol()": {
        "details": "See {IERC721Metadata-symbol}."
      },
      "tokenByIndex(uint256)": {
        "details": "See {IERC721Enumerable-tokenByIndex}."
      },
      "tokenOfOwnerByIndex(address,uint256)": {
        "details": "See {IERC721Enumerable-tokenOfOwnerByIndex}."
      },
      "tokenURI(uint256)": {
        "details": "See {IERC721Metadata-tokenURI}."
      },
      "totalSupply()": {
        "details": "See {IERC721Enumerable-totalSupply}."
      },
      "transferFrom(address,address,uint256)": {
        "details": "See {IERC721-transferFrom}."
      },
      "transferOwnership(address)": {
        "details": "Transfers ownership of the contract to a new account (`newOwner`). Can only be called by the current owner."
      }
    },
    "version": 1
  },
  "userdoc": {
    "kind": "user",
    "methods": {},
    "version": 1
  },
  "storageLayout": {
    "storage": [
      {
        "astId": 1644,
        "contract": "contracts/SettlementsV2.sol:SettlementsV2",
        "label": "_name",
        "offset": 0,
        "slot": "0",
        "type": "t_string_storage"
      },
      {
        "astId": 1646,
        "contract": "contracts/SettlementsV2.sol:SettlementsV2",
        "label": "_symbol",
        "offset": 0,
        "slot": "1",
        "type": "t_string_storage"
      },
      {
        "astId": 1650,
        "contract": "contracts/SettlementsV2.sol:SettlementsV2",
        "label": "_owners",
        "offset": 0,
        "slot": "2",
        "type": "t_mapping(t_uint256,t_address)"
      },
      {
        "astId": 1654,
        "contract": "contracts/SettlementsV2.sol:SettlementsV2",
        "label": "_balances",
        "offset": 0,
        "slot": "3",
        "type": "t_mapping(t_address,t_uint256)"
      },
      {
        "astId": 1658,
        "contract": "contracts/SettlementsV2.sol:SettlementsV2",
        "label": "_tokenApprovals",
        "offset": 0,
        "slot": "4",
        "type": "t_mapping(t_uint256,t_address)"
      },
      {
        "astId": 1664,
        "contract": "contracts/SettlementsV2.sol:SettlementsV2",
        "label": "_operatorApprovals",
        "offset": 0,
        "slot": "5",
        "type": "t_mapping(t_address,t_mapping(t_address,t_bool))"
      },
      {
        "astId": 2613,
        "contract": "contracts/SettlementsV2.sol:SettlementsV2",
        "label": "_ownedTokens",
        "offset": 0,
        "slot": "6",
        "type": "t_mapping(t_address,t_mapping(t_uint256,t_uint256))"
      },
      {
        "astId": 2617,
        "contract": "contracts/SettlementsV2.sol:SettlementsV2",
        "label": "_ownedTokensIndex",
        "offset": 0,
        "slot": "7",
        "type": "t_mapping(t_uint256,t_uint256)"
      },
      {
        "astId": 2620,
        "contract": "contracts/SettlementsV2.sol:SettlementsV2",
        "label": "_allTokens",
        "offset": 0,
        "slot": "8",
        "type": "t_array(t_uint256)dyn_storage"
      },
      {
        "astId": 2624,
        "contract": "contracts/SettlementsV2.sol:SettlementsV2",
        "label": "_allTokensIndex",
        "offset": 0,
        "slot": "9",
        "type": "t_mapping(t_uint256,t_uint256)"
      },
      {
        "astId": 7,
        "contract": "contracts/SettlementsV2.sol:SettlementsV2",
        "label": "_owner",
        "offset": 0,
        "slot": "10",
        "type": "t_address"
      },
      {
        "astId": 7193,
        "contract": "contracts/SettlementsV2.sol:SettlementsV2",
        "label": "legacySettlements",
        "offset": 0,
        "slot": "11",
        "type": "t_contract(SettlementsLegacy)7159"
      },
      {
        "astId": 7196,
        "contract": "contracts/SettlementsV2.sol:SettlementsV2",
        "label": "helpersContract",
        "offset": 0,
        "slot": "12",
        "type": "t_contract(Helpers)5174"
      },
      {
        "astId": 7200,
        "contract": "contracts/SettlementsV2.sol:SettlementsV2",
        "label": "resourceTokenAddresses",
        "offset": 0,
        "slot": "13",
        "type": "t_array(t_contract(ERC20Mintable)4115)dyn_storage"
      },
      {
        "astId": 7204,
        "contract": "contracts/SettlementsV2.sol:SettlementsV2",
        "label": "tokenIdToLastHarvest",
        "offset": 0,
        "slot": "14",
        "type": "t_mapping(t_uint256,t_uint256)"
      },
      {
        "astId": 7209,
        "contract": "contracts/SettlementsV2.sol:SettlementsV2",
        "label": "attrIndex",
        "offset": 0,
        "slot": "15",
        "type": "t_mapping(t_uint256,t_struct(Attributes)7190_storage)"
      },
      {
        "astId": 7221,
        "contract": "contracts/SettlementsV2.sol:SettlementsV2",
        "label": "_sizes",
        "offset": 0,
        "slot": "16",
        "type": "t_array(t_string_storage)dyn_storage"
      },
      {
        "astId": 7230,
        "contract": "contracts/SettlementsV2.sol:SettlementsV2",
        "label": "_spirits",
        "offset": 0,
        "slot": "17",
        "type": "t_array(t_string_storage)dyn_storage"
      },
      {
        "astId": 7242,
        "contract": "contracts/SettlementsV2.sol:SettlementsV2",
        "label": "_ages",
        "offset": 0,
        "slot": "18",
        "type": "t_array(t_string_storage)dyn_storage"
      },
      {
        "astId": 7254,
        "contract": "contracts/SettlementsV2.sol:SettlementsV2",
        "label": "_resources",
        "offset": 0,
        "slot": "19",
        "type": "t_array(t_string_storage)dyn_storage"
      },
      {
        "astId": 7268,
        "contract": "contracts/SettlementsV2.sol:SettlementsV2",
        "label": "_morales",
        "offset": 0,
        "slot": "20",
        "type": "t_array(t_string_storage)dyn_storage"
      },
      {
        "astId": 7281,
        "contract": "contracts/SettlementsV2.sol:SettlementsV2",
        "label": "_governments",
        "offset": 0,
        "slot": "21",
        "type": "t_array(t_string_storage)dyn_storage"
      },
      {
        "astId": 7291,
        "contract": "contracts/SettlementsV2.sol:SettlementsV2",
        "label": "_realms",
        "offset": 0,
        "slot": "22",
        "type": "t_array(t_string_storage)dyn_storage"
      }
    ],
    "types": {
      "t_address": {
        "encoding": "inplace",
        "label": "address",
        "numberOfBytes": "20"
      },
      "t_array(t_contract(ERC20Mintable)4115)dyn_storage": {
        "base": "t_contract(ERC20Mintable)4115",
        "encoding": "dynamic_array",
        "label": "contract ERC20Mintable[]",
        "numberOfBytes": "32"
      },
      "t_array(t_string_storage)dyn_storage": {
        "base": "t_string_storage",
        "encoding": "dynamic_array",
        "label": "string[]",
        "numberOfBytes": "32"
      },
      "t_array(t_uint256)dyn_storage": {
        "base": "t_uint256",
        "encoding": "dynamic_array",
        "label": "uint256[]",
        "numberOfBytes": "32"
      },
      "t_bool": {
        "encoding": "inplace",
        "label": "bool",
        "numberOfBytes": "1"
      },
      "t_contract(ERC20Mintable)4115": {
        "encoding": "inplace",
        "label": "contract ERC20Mintable",
        "numberOfBytes": "20"
      },
      "t_contract(Helpers)5174": {
        "encoding": "inplace",
        "label": "contract Helpers",
        "numberOfBytes": "20"
      },
      "t_contract(SettlementsLegacy)7159": {
        "encoding": "inplace",
        "label": "contract SettlementsLegacy",
        "numberOfBytes": "20"
      },
      "t_mapping(t_address,t_bool)": {
        "encoding": "mapping",
        "key": "t_address",
        "label": "mapping(address => bool)",
        "numberOfBytes": "32",
        "value": "t_bool"
      },
      "t_mapping(t_address,t_mapping(t_address,t_bool))": {
        "encoding": "mapping",
        "key": "t_address",
        "label": "mapping(address => mapping(address => bool))",
        "numberOfBytes": "32",
        "value": "t_mapping(t_address,t_bool)"
      },
      "t_mapping(t_address,t_mapping(t_uint256,t_uint256))": {
        "encoding": "mapping",
        "key": "t_address",
        "label": "mapping(address => mapping(uint256 => uint256))",
        "numberOfBytes": "32",
        "value": "t_mapping(t_uint256,t_uint256)"
      },
      "t_mapping(t_address,t_uint256)": {
        "encoding": "mapping",
        "key": "t_address",
        "label": "mapping(address => uint256)",
        "numberOfBytes": "32",
        "value": "t_uint256"
      },
      "t_mapping(t_uint256,t_address)": {
        "encoding": "mapping",
        "key": "t_uint256",
        "label": "mapping(uint256 => address)",
        "numberOfBytes": "32",
        "value": "t_address"
      },
      "t_mapping(t_uint256,t_struct(Attributes)7190_storage)": {
        "encoding": "mapping",
        "key": "t_uint256",
        "label": "mapping(uint256 => struct SettlementsV2.Attributes)",
        "numberOfBytes": "32",
        "value": "t_struct(Attributes)7190_storage"
      },
      "t_mapping(t_uint256,t_uint256)": {
        "encoding": "mapping",
        "key": "t_uint256",
        "label": "mapping(uint256 => uint256)",
        "numberOfBytes": "32",
        "value": "t_uint256"
      },
      "t_string_storage": {
        "encoding": "bytes",
        "label": "string",
        "numberOfBytes": "32"
      },
      "t_struct(Attributes)7190_storage": {
        "encoding": "inplace",
        "label": "struct SettlementsV2.Attributes",
        "members": [
          {
            "astId": 7177,
            "contract": "contracts/SettlementsV2.sol:SettlementsV2",
            "label": "size",
            "offset": 0,
            "slot": "0",
            "type": "t_uint8"
          },
          {
            "astId": 7179,
            "contract": "contracts/SettlementsV2.sol:SettlementsV2",
            "label": "spirit",
            "offset": 1,
            "slot": "0",
            "type": "t_uint8"
          },
          {
            "astId": 7181,
            "contract": "contracts/SettlementsV2.sol:SettlementsV2",
            "label": "age",
            "offset": 2,
            "slot": "0",
            "type": "t_uint8"
          },
          {
            "astId": 7183,
            "contract": "contracts/SettlementsV2.sol:SettlementsV2",
            "label": "resource",
            "offset": 3,
            "slot": "0",
            "type": "t_uint8"
          },
          {
            "astId": 7185,
            "contract": "contracts/SettlementsV2.sol:SettlementsV2",
            "label": "morale",
            "offset": 4,
            "slot": "0",
            "type": "t_uint8"
          },
          {
            "astId": 7187,
            "contract": "contracts/SettlementsV2.sol:SettlementsV2",
            "label": "government",
            "offset": 5,
            "slot": "0",
            "type": "t_uint8"
          },
          {
            "astId": 7189,
            "contract": "contracts/SettlementsV2.sol:SettlementsV2",
            "label": "turns",
            "offset": 6,
            "slot": "0",
            "type": "t_uint8"
          }
        ],
        "numberOfBytes": "32"
      },
      "t_uint256": {
        "encoding": "inplace",
        "label": "uint256",
        "numberOfBytes": "32"
      },
      "t_uint8": {
        "encoding": "inplace",
        "label": "uint8",
        "numberOfBytes": "1"
      }
    }
  }
}