{
  "address": "0x98f4A2dBc8986D5692E3FEcaa0fc83a78E37da2E",
  "abi": [
    {
      "inputs": [
        {
          "internalType": "contract ERC20Mintable",
          "name": "goldTokenContract_",
          "type": "address"
        }
      ],
      "stateMutability": "nonpayable",
      "type": "constructor"
    },
    {
      "anonymous": false,
      "inputs": [
        {
          "indexed": true,
          "internalType": "address",
          "name": "owner",
          "type": "address"
        },
        {
          "indexed": true,
          "internalType": "address",
          "name": "approved",
          "type": "address"
        },
        {
          "indexed": true,
          "internalType": "uint256",
          "name": "tokenId",
          "type": "uint256"
        }
      ],
      "name": "Approval",
      "type": "event"
    },
    {
      "anonymous": false,
      "inputs": [
        {
          "indexed": true,
          "internalType": "address",
          "name": "owner",
          "type": "address"
        },
        {
          "indexed": true,
          "internalType": "address",
          "name": "operator",
          "type": "address"
        },
        {
          "indexed": false,
          "internalType": "bool",
          "name": "approved",
          "type": "bool"
        }
      ],
      "name": "ApprovalForAll",
      "type": "event"
    },
    {
      "anonymous": false,
      "inputs": [
        {
          "indexed": true,
          "internalType": "address",
          "name": "previousOwner",
          "type": "address"
        },
        {
          "indexed": true,
          "internalType": "address",
          "name": "newOwner",
          "type": "address"
        }
      ],
      "name": "OwnershipTransferred",
      "type": "event"
    },
    {
      "anonymous": false,
      "inputs": [
        {
          "indexed": true,
          "internalType": "address",
          "name": "from",
          "type": "address"
        },
        {
          "indexed": true,
          "internalType": "address",
          "name": "to",
          "type": "address"
        },
        {
          "indexed": true,
          "internalType": "uint256",
          "name": "tokenId",
          "type": "uint256"
        }
      ],
      "name": "Transfer",
      "type": "event"
    },
    {
      "inputs": [
        {
          "internalType": "address",
          "name": "to",
          "type": "address"
        },
        {
          "internalType": "uint256",
          "name": "tokenId",
          "type": "uint256"
        }
      ],
      "name": "approve",
      "outputs": [],
      "stateMutability": "nonpayable",
      "type": "function"
    },
    {
      "inputs": [
        {
          "internalType": "address",
          "name": "owner",
          "type": "address"
        }
      ],
      "name": "balanceOf",
      "outputs": [
        {
          "internalType": "uint256",
          "name": "",
          "type": "uint256"
        }
      ],
      "stateMutability": "view",
      "type": "function"
    },
    {
      "inputs": [
        {
          "internalType": "uint256",
          "name": "",
          "type": "uint256"
        }
      ],
      "name": "expeditions",
      "outputs": [
        {
          "internalType": "string",
          "name": "",
          "type": "string"
        }
      ],
      "stateMutability": "view",
      "type": "function"
    },
    {
      "inputs": [
        {
          "internalType": "uint256",
          "name": "tokenId",
          "type": "uint256"
        }
      ],
      "name": "getApproved",
      "outputs": [
        {
          "internalType": "address",
          "name": "",
          "type": "address"
        }
      ],
      "stateMutability": "view",
      "type": "function"
    },
    {
      "inputs": [
        {
          "internalType": "bytes",
          "name": "seed",
          "type": "bytes"
        },
        {
          "internalType": "uint256",
          "name": "maxValue",
          "type": "uint256"
        }
      ],
      "name": "getRandomNumber",
      "outputs": [
        {
          "internalType": "uint256",
          "name": "",
          "type": "uint256"
        }
      ],
      "stateMutability": "pure",
      "type": "function"
    },
    {
      "inputs": [
        {
          "internalType": "uint256",
          "name": "tokenId",
          "type": "uint256"
        }
      ],
      "name": "getSailingDuration",
      "outputs": [
        {
          "internalType": "uint256",
          "name": "",
          "type": "uint256"
        }
      ],
      "stateMutability": "view",
      "type": "function"
    },
    {
      "inputs": [
        {
          "internalType": "uint256",
          "name": "tokenId",
          "type": "uint256"
        }
      ],
      "name": "getShipInfo",
      "outputs": [
        {
          "components": [
            {
              "internalType": "uint256",
              "name": "tokenId",
              "type": "uint256"
            },
            {
              "internalType": "string",
              "name": "name",
              "type": "string"
            },
            {
              "internalType": "string",
              "name": "expedition",
              "type": "string"
            },
            {
              "internalType": "uint32",
              "name": "length",
              "type": "uint32"
            },
            {
              "internalType": "uint32",
              "name": "speed",
              "type": "uint32"
            },
            {
              "components": [
                {
                  "internalType": "address",
                  "name": "tokenContract",
                  "type": "address"
                },
                {
                  "internalType": "uint256",
                  "name": "tokenId",
                  "type": "uint256"
                }
              ],
              "internalType": "struct Ships.Path[]",
              "name": "route",
              "type": "tuple[]"
            }
          ],
          "internalType": "struct Ships.Ship",
          "name": "",
          "type": "tuple"
        }
      ],
      "stateMutability": "view",
      "type": "function"
    },
    {
      "inputs": [
        {
          "internalType": "uint256",
          "name": "tokenId",
          "type": "uint256"
        }
      ],
      "name": "getTokenIdToAttributes",
      "outputs": [
        {
          "components": [
            {
              "internalType": "uint8",
              "name": "name",
              "type": "uint8"
            },
            {
              "internalType": "uint8",
              "name": "expedition",
              "type": "uint8"
            },
            {
              "internalType": "uint32",
              "name": "length",
              "type": "uint32"
            },
            {
              "internalType": "uint32",
              "name": "speed",
              "type": "uint32"
            }
          ],
          "internalType": "struct Ships.Attributes",
          "name": "",
          "type": "tuple"
        }
      ],
      "stateMutability": "view",
      "type": "function"
    },
    {
      "inputs": [
        {
          "internalType": "uint256",
          "name": "tokenId",
          "type": "uint256"
        }
      ],
      "name": "getUnharvestedTokens",
      "outputs": [
        {
          "components": [
            {
              "internalType": "address",
              "name": "resourceTokenContract",
              "type": "address"
            },
            {
              "internalType": "uint256",
              "name": "amount",
              "type": "uint256"
            }
          ],
          "internalType": "struct Ships.TokenHarvest[]",
          "name": "",
          "type": "tuple[]"
        }
      ],
      "stateMutability": "view",
      "type": "function"
    },
    {
      "inputs": [],
      "name": "goldTokenContract",
      "outputs": [
        {
          "internalType": "contract ERC20Mintable",
          "name": "",
          "type": "address"
        }
      ],
      "stateMutability": "view",
      "type": "function"
    },
    {
      "inputs": [
        {
          "internalType": "uint256",
          "name": "tokenId",
          "type": "uint256"
        }
      ],
      "name": "harvest",
      "outputs": [],
      "stateMutability": "nonpayable",
      "type": "function"
    },
    {
      "inputs": [
        {
          "internalType": "uint256",
          "name": "tokenId",
          "type": "uint256"
        },
        {
          "internalType": "contract ERC20Mintable",
          "name": "resourceTokenAddress",
          "type": "address"
        }
      ],
      "name": "harvestSingleToken",
      "outputs": [],
      "stateMutability": "nonpayable",
      "type": "function"
    },
    {
      "inputs": [],
      "name": "helperContract",
      "outputs": [
        {
          "internalType": "contract ShipsHelper",
          "name": "",
          "type": "address"
        }
      ],
      "stateMutability": "view",
      "type": "function"
    },
    {
      "inputs": [
        {
          "internalType": "address",
          "name": "owner",
          "type": "address"
        },
        {
          "internalType": "address",
          "name": "operator",
          "type": "address"
        }
      ],
      "name": "isApprovedForAll",
      "outputs": [
        {
          "internalType": "bool",
          "name": "",
          "type": "bool"
        }
      ],
      "stateMutability": "view",
      "type": "function"
    },
    {
      "inputs": [
        {
          "internalType": "uint256",
          "name": "",
          "type": "uint256"
        }
      ],
      "name": "lengthMultipliers",
      "outputs": [
        {
          "internalType": "uint32",
          "name": "",
          "type": "uint32"
        }
      ],
      "stateMutability": "view",
      "type": "function"
    },
    {
      "inputs": [
        {
          "internalType": "uint256",
          "name": "tokenId",
          "type": "uint256"
        }
      ],
      "name": "mint",
      "outputs": [],
      "stateMutability": "nonpayable",
      "type": "function"
    },
    {
      "inputs": [],
      "name": "name",
      "outputs": [
        {
          "internalType": "string",
          "name": "",
          "type": "string"
        }
      ],
      "stateMutability": "view",
      "type": "function"
    },
    {
      "inputs": [
        {
          "internalType": "uint256",
          "name": "",
          "type": "uint256"
        }
      ],
      "name": "names",
      "outputs": [
        {
          "internalType": "string",
          "name": "",
          "type": "string"
        }
      ],
      "stateMutability": "view",
      "type": "function"
    },
    {
      "inputs": [],
      "name": "owner",
      "outputs": [
        {
          "internalType": "address",
          "name": "",
          "type": "address"
        }
      ],
      "stateMutability": "view",
      "type": "function"
    },
    {
      "inputs": [
        {
          "internalType": "uint256",
          "name": "tokenId",
          "type": "uint256"
        }
      ],
      "name": "ownerOf",
      "outputs": [
        {
          "internalType": "address",
          "name": "",
          "type": "address"
        }
      ],
      "stateMutability": "view",
      "type": "function"
    },
    {
      "inputs": [
        {
          "internalType": "uint8",
          "name": "name",
          "type": "uint8"
        }
      ],
      "name": "purchaseShip",
      "outputs": [],
      "stateMutability": "nonpayable",
      "type": "function"
    },
    {
      "inputs": [],
      "name": "renounceOwnership",
      "outputs": [],
      "stateMutability": "nonpayable",
      "type": "function"
    },
    {
      "inputs": [
        {
          "internalType": "address",
          "name": "from",
          "type": "address"
        },
        {
          "internalType": "address",
          "name": "to",
          "type": "address"
        },
        {
          "internalType": "uint256",
          "name": "tokenId",
          "type": "uint256"
        }
      ],
      "name": "safeTransferFrom",
      "outputs": [],
      "stateMutability": "nonpayable",
      "type": "function"
    },
    {
      "inputs": [
        {
          "internalType": "address",
          "name": "from",
          "type": "address"
        },
        {
          "internalType": "address",
          "name": "to",
          "type": "address"
        },
        {
          "internalType": "uint256",
          "name": "tokenId",
          "type": "uint256"
        },
        {
          "internalType": "bytes",
          "name": "_data",
          "type": "bytes"
        }
      ],
      "name": "safeTransferFrom",
      "outputs": [],
      "stateMutability": "nonpayable",
      "type": "function"
    },
    {
      "inputs": [
        {
          "internalType": "address",
          "name": "operator",
          "type": "address"
        },
        {
          "internalType": "bool",
          "name": "approved",
          "type": "bool"
        }
      ],
      "name": "setApprovalForAll",
      "outputs": [],
      "stateMutability": "nonpayable",
      "type": "function"
    },
    {
      "inputs": [
        {
          "internalType": "contract ShipsHelper",
          "name": "helperContract_",
          "type": "address"
        }
      ],
      "name": "setHelperContract",
      "outputs": [],
      "stateMutability": "nonpayable",
      "type": "function"
    },
    {
      "inputs": [
        {
          "internalType": "uint256",
          "name": "",
          "type": "uint256"
        }
      ],
      "name": "speedMultipliers",
      "outputs": [
        {
          "internalType": "uint32",
          "name": "",
          "type": "uint32"
        }
      ],
      "stateMutability": "view",
      "type": "function"
    },
    {
      "inputs": [
        {
          "internalType": "bytes4",
          "name": "interfaceId",
          "type": "bytes4"
        }
      ],
      "name": "supportsInterface",
      "outputs": [
        {
          "internalType": "bool",
          "name": "",
          "type": "bool"
        }
      ],
      "stateMutability": "view",
      "type": "function"
    },
    {
      "inputs": [],
      "name": "symbol",
      "outputs": [
        {
          "internalType": "string",
          "name": "",
          "type": "string"
        }
      ],
      "stateMutability": "view",
      "type": "function"
    },
    {
      "inputs": [
        {
          "internalType": "uint256",
          "name": "index",
          "type": "uint256"
        }
      ],
      "name": "tokenByIndex",
      "outputs": [
        {
          "internalType": "uint256",
          "name": "",
          "type": "uint256"
        }
      ],
      "stateMutability": "view",
      "type": "function"
    },
    {
      "inputs": [
        {
          "internalType": "uint256",
          "name": "",
          "type": "uint256"
        }
      ],
      "name": "tokenIdToAttributes",
      "outputs": [
        {
          "internalType": "uint8",
          "name": "name",
          "type": "uint8"
        },
        {
          "internalType": "uint8",
          "name": "expedition",
          "type": "uint8"
        },
        {
          "internalType": "uint32",
          "name": "length",
          "type": "uint32"
        },
        {
          "internalType": "uint32",
          "name": "speed",
          "type": "uint32"
        }
      ],
      "stateMutability": "view",
      "type": "function"
    },
    {
      "inputs": [
        {
          "internalType": "uint256",
          "name": "",
          "type": "uint256"
        }
      ],
      "name": "tokenIdToLastRouteUpdate",
      "outputs": [
        {
          "internalType": "uint256",
          "name": "",
          "type": "uint256"
        }
      ],
      "stateMutability": "view",
      "type": "function"
    },
    {
      "inputs": [
        {
          "internalType": "uint256",
          "name": "",
          "type": "uint256"
        }
      ],
      "name": "tokenIdToLastSetlHarvest",
      "outputs": [
        {
          "internalType": "uint256",
          "name": "",
          "type": "uint256"
        }
      ],
      "stateMutability": "view",
      "type": "function"
    },
    {
      "inputs": [
        {
          "internalType": "uint256",
          "name": "",
          "type": "uint256"
        },
        {
          "internalType": "uint256",
          "name": "",
          "type": "uint256"
        }
      ],
      "name": "tokenIdToRoute",
      "outputs": [
        {
          "internalType": "address",
          "name": "tokenContract",
          "type": "address"
        },
        {
          "internalType": "uint256",
          "name": "tokenId",
          "type": "uint256"
        }
      ],
      "stateMutability": "view",
      "type": "function"
    },
    {
      "inputs": [
        {
          "internalType": "address",
          "name": "owner",
          "type": "address"
        },
        {
          "internalType": "uint256",
          "name": "index",
          "type": "uint256"
        }
      ],
      "name": "tokenOfOwnerByIndex",
      "outputs": [
        {
          "internalType": "uint256",
          "name": "",
          "type": "uint256"
        }
      ],
      "stateMutability": "view",
      "type": "function"
    },
    {
      "inputs": [
        {
          "internalType": "uint256",
          "name": "tokenId",
          "type": "uint256"
        }
      ],
      "name": "tokenURI",
      "outputs": [
        {
          "internalType": "string",
          "name": "",
          "type": "string"
        }
      ],
      "stateMutability": "view",
      "type": "function"
    },
    {
      "inputs": [],
      "name": "totalSupply",
      "outputs": [
        {
          "internalType": "uint256",
          "name": "",
          "type": "uint256"
        }
      ],
      "stateMutability": "view",
      "type": "function"
    },
    {
      "inputs": [
        {
          "internalType": "address",
          "name": "from",
          "type": "address"
        },
        {
          "internalType": "address",
          "name": "to",
          "type": "address"
        },
        {
          "internalType": "uint256",
          "name": "tokenId",
          "type": "uint256"
        }
      ],
      "name": "transferFrom",
      "outputs": [],
      "stateMutability": "nonpayable",
      "type": "function"
    },
    {
      "inputs": [
        {
          "internalType": "address",
          "name": "newOwner",
          "type": "address"
        }
      ],
      "name": "transferOwnership",
      "outputs": [],
      "stateMutability": "nonpayable",
      "type": "function"
    },
    {
      "inputs": [
        {
          "components": [
            {
              "internalType": "address",
              "name": "tokenContract",
              "type": "address"
            },
            {
              "internalType": "uint256",
              "name": "tokenId",
              "type": "uint256"
            }
          ],
          "internalType": "struct Ships.Path[]",
          "name": "route",
          "type": "tuple[]"
        },
        {
          "internalType": "uint256",
          "name": "tokenId",
          "type": "uint256"
        }
      ],
      "name": "updateRoute",
      "outputs": [],
      "stateMutability": "nonpayable",
      "type": "function"
    }
  ],
  "transactionHash": "0x5eef8b3b071909130b7fb33326c4a0b30ce2671f7046edb850345b819539ace5",
  "args": [
    "0x5DF4a4892D327F3d704a727e1130280739c447Ce"
  ],
  "solcInputHash": "16bb3c57c6c561d8aef3a61309089298",
  "bytecode": "0x60056101208181526443616e6f6560d81b61014052608090815260086101609081526704c6f6e67736869760c41b6101805260a05260076101a08181526621b634b83832b960c91b6101c05260c0526101e09081526623b0b63632b7b760c91b6102005260e052610260604052600a6102209081526926b0b716b7b316bbb0b960b11b61024052610100526200009991600b919062000300565b506040805160e081018252600660a08201818152652a3930b232b960d11b60c084015282528251808401845260088082526722bc383637b932b960c11b60208381019190915280850192909252845180860186529283526550697261746560d01b838301528385019290925283518085018552828152674d696c697461727960c01b818301526060840152835180850190945290835267111a5c1b1bdb585d60c21b9083015260808101919091526200015790600c90600562000300565b506040805160a081018252600a8152600f602082015260239181019190915260196060820181905260808201526200019490600d90600562000364565b506040805160a0810182526005808252600a6020830181905292820192909252601e606082015260286080820152620001d191600e919062000364565b50610bb8601555348015620001e557600080fd5b5060405162003b5d38038062003b5d83398101604081905262000208916200050a565b6040805180820182526005815264536869707360d81b6020808301918252835180850190945260048452630534849560e41b908401528151919291620002519160009162000413565b5080516200026790600190602084019062000413565b505050620002846200027e620002aa60201b60201c565b620002ae565b601080546001600160a01b0319166001600160a01b039290921691909117905562000577565b3390565b600a80546001600160a01b038381166001600160a01b0319831681179093556040519116919082907f8be0079c531659141344cd1fd0a4f28419497f9722a3daafe3b4186f6b6457e090600090a35050565b82805482825590600052602060002090810192821562000352579160200282015b828111156200035257825180516200034191849160209091019062000413565b509160200191906001019062000321565b506200036092915062000490565b5090565b82805482825590600052602060002090600701600890048101928215620004055791602002820160005b83821115620003d157835183826101000a81548163ffffffff021916908360ff16021790555092602001926004016020816003010492830192600103026200038e565b8015620004035782816101000a81549063ffffffff0219169055600401602081600301049283019260010302620003d1565b505b5062000360929150620004b1565b82805462000421906200053a565b90600052602060002090601f01602090048101928262000445576000855562000405565b82601f106200046057805160ff191683800117855562000405565b8280016001018555821562000405579182015b828111156200040557825182559160200191906001019062000473565b8082111562000360576000620004a78282620004c8565b5060010162000490565b5b80821115620003605760008155600101620004b2565b508054620004d6906200053a565b6000825580601f10620004e7575050565b601f016020900490600052602060002090810190620005079190620004b1565b50565b6000602082840312156200051c578081fd5b81516001600160a01b038116811462000533578182fd5b9392505050565b600181811c908216806200054f57607f821691505b602082108114156200057157634e487b7160e01b600052602260045260246000fd5b50919050565b6135d680620005876000396000f3fe608060405234801561001057600080fd5b50600436106102485760003560e01c8063685699ac1161013b578063a0712d68116100b8578063c87b56dd1161007c578063c87b56dd14610684578063d03cea6d14610697578063ddc63262146106aa578063e985e9c5146106bd578063f2fde38b146106f957600080fd5b8063a0712d6814610625578063a22cb46514610638578063a5dc9e1b1461064b578063b88d4fde1461065e578063c5639cc61461067157600080fd5b80638c1d808c116100ff5780638c1d808c146105d35780638da5cb5b146105e657806395d89b41146105f7578063965eb54a146105ff5780639bb8e4c41461061257600080fd5b8063685699ac1461054657806370a0823114610566578063715018a6146105795780637ae349d0146105815780637d7f7840146105b357600080fd5b80632f745c59116101c95780634622ab031161018d5780634622ab03146104305780634f6ccce714610443578063521e8749146104565780635a1e0d24146105205780636352211e1461053357600080fd5b80632f745c59146103af578063367668d4146103c25780633f6fc50b146103e257806342842e0e146103f557806343e4abbd1461040857600080fd5b80631177f379116102105780631177f379146102f857806314a327501461036e578063151895551461038157806318160ddd1461039457806323b872dd1461039c57600080fd5b806301ffc9a71461024d578063038053e21461027557806306fdde03146102a3578063081812fc146102b8578063095ea7b3146102e3575b600080fd5b61026061025b366004612ef0565b61070c565b60405190151581526020015b60405180910390f35b610295610283366004612fde565b60136020526000908152604090205481565b60405190815260200161026c565b6102ab61071d565b60405161026c91906131ce565b6102cb6102c6366004612fde565b6107af565b6040516001600160a01b03909116815260200161026c565b6102f66102f1366004612cb9565b610849565b005b61033d610306366004612fde565b60116020526000908152604090205460ff8082169161010081049091169063ffffffff620100008204811691600160301b90041684565b6040805160ff958616815294909316602085015263ffffffff9182169284019290925216606082015260800161026c565b6102ab61037c366004612fde565b61095f565b61029561038f366004612fde565b610a0b565b600854610295565b6102f66103aa366004612be2565b610a9f565b6102956103bd366004612cb9565b610ad0565b6103d56103d0366004612fde565b610b66565b60405161026c91906132b9565b6102f66103f0366004613053565b610ea5565b6102f6610403366004612be2565b61103e565b61041b610416366004612fde565b611059565b60405163ffffffff909116815260200161026c565b6102ab61043e366004612fde565b611093565b610295610451366004612fde565b6110a3565b6104d6610464366004612fde565b604080516080808201835260008083526020808401829052838501829052606093840182905294815260118552839020835191820184525460ff80821683526101008204169482019490945263ffffffff620100008504811693820193909352600160301b9093049091169082015290565b60405161026c9190600060808201905060ff835116825260ff6020840151166020830152604083015163ffffffff8082166040850152806060860151166060850152505092915050565b6102f661052e36600461300e565b611144565b6102cb610541366004612fde565b6113e7565b610295610554366004612fde565b60146020526000908152604090205481565b610295610574366004612b72565b61145e565b6102f66114e5565b61059461058f366004613032565b61151b565b604080516001600160a01b03909316835260208301919091520161026c565b6105c66105c1366004612fde565b611561565b60405161026c919061316e565b6102956105e1366004612f28565b6115e2565b600a546001600160a01b03166102cb565b6102ab611619565b61041b61060d366004612fde565b611628565b6102f6610620366004612d80565b611638565b6102f6610633366004612fde565b611644565b6102f6610646366004612c8c565b611789565b600f546102cb906001600160a01b031681565b6102f661066c366004612c22565b61184e565b6102f661067f366004612b72565b611886565b6102ab610692366004612fde565b6118d2565b6010546102cb906001600160a01b031681565b6102f66106b8366004612fde565b611953565b6102606106cb366004612baa565b6001600160a01b03918216600090815260056020908152604080832093909416825291909152205460ff1690565b6102f6610707366004612b72565b611b93565b600061071782611c2e565b92915050565b60606000805461072c906134bb565b80601f0160208091040260200160405190810160405280929190818152602001828054610758906134bb565b80156107a55780601f1061077a576101008083540402835291602001916107a5565b820191906000526020600020905b81548152906001019060200180831161078857829003601f168201915b5050505050905090565b6000818152600260205260408120546001600160a01b031661082d5760405162461bcd60e51b815260206004820152602c60248201527f4552433732313a20617070726f76656420717565727920666f72206e6f6e657860448201526b34b9ba32b73a103a37b5b2b760a11b60648201526084015b60405180910390fd5b506000908152600460205260409020546001600160a01b031690565b6000610854826113e7565b9050806001600160a01b0316836001600160a01b031614156108c25760405162461bcd60e51b815260206004820152602160248201527f4552433732313a20617070726f76616c20746f2063757272656e74206f776e656044820152603960f91b6064820152608401610824565b336001600160a01b03821614806108de57506108de81336106cb565b6109505760405162461bcd60e51b815260206004820152603860248201527f4552433732313a20617070726f76652063616c6c6572206973206e6f74206f7760448201527f6e6572206e6f7220617070726f76656420666f7220616c6c00000000000000006064820152608401610824565b61095a8383611c53565b505050565b600c818154811061096f57600080fd5b90600052602060002001600091509050805461098a906134bb565b80601f01602080910402602001604051908101604052809291908181526020018280546109b6906134bb565b8015610a035780601f106109d857610100808354040283529160200191610a03565b820191906000526020600020905b8154815290600101906020018083116109e657829003601f168201915b505050505081565b600080610a1783610b66565b600f5460405163524eaa7b60e11b81529192506001600160a01b03169063a49d54f690610a489084906004016132b9565b60206040518083038186803b158015610a6057600080fd5b505afa158015610a74573d6000803e3d6000fd5b505050506040513d601f19601f82011682018060405250810190610a989190612ff6565b9392505050565b610aa93382611cc1565b610ac55760405162461bcd60e51b815260040161082490613268565b61095a838383611db8565b6000610adb8361145e565b8210610b3d5760405162461bcd60e51b815260206004820152602b60248201527f455243373231456e756d657261626c653a206f776e657220696e646578206f7560448201526a74206f6620626f756e647360a81b6064820152608401610824565b506001600160a01b03919091166000908152600660209081526040808320938352929052205490565b610bab6040518060c00160405280600081526020016060815260200160608152602001600063ffffffff168152602001600063ffffffff168152602001606081525090565b6000828152600260205260409020546001600160a01b0316610c1b5760405162461bcd60e51b8152602060048201526024808201527f536869702077697468207468617420746f6b656e496420646f65736e277420656044820152631e1a5cdd60e21b6064820152608401610824565b6000828152601160209081526040918290208251608081018452905460ff8082168352610100820481168385015263ffffffff620100008304811684870152600160301b9092049091166060830152835160c081019094528584528151600b8054939594850193909291909116908110610ca557634e487b7160e01b600052603260045260246000fd5b906000526020600020018054610cba906134bb565b80601f0160208091040260200160405190810160405280929190818152602001828054610ce6906134bb565b8015610d335780601f10610d0857610100808354040283529160200191610d33565b820191906000526020600020905b815481529060010190602001808311610d1657829003601f168201915b50505050508152602001600c836020015160ff1681548110610d6557634e487b7160e01b600052603260045260246000fd5b906000526020600020018054610d7a906134bb565b80601f0160208091040260200160405190810160405280929190818152602001828054610da6906134bb565b8015610df35780601f10610dc857610100808354040283529160200191610df3565b820191906000526020600020905b815481529060010190602001808311610dd657829003601f168201915b50505050508152602001826040015163ffffffff168152602001826060015163ffffffff16815260200160126000868152602001908152602001600020805480602002602001604051908101604052809291908181526020016000905b82821015610e98576000848152602090819020604080518082019091526002850290910180546001600160a01b03168252600190810154828401529083529092019101610e50565b5050509152509392505050565b600f54604051631baf95cb60e11b815260ff831660048201526000916001600160a01b03169063375f2b969060240160006040518083038186803b158015610eec57600080fd5b505afa158015610f00573d6000803e3d6000fd5b505050506040513d6000823e601f3d908101601f19168201604052610f289190810190612e44565b905060005b815181101561101357818181518110610f5657634e487b7160e01b600052603260045260246000fd5b6020026020010151600001516001600160a01b03166379cc679033848481518110610f9157634e487b7160e01b600052603260045260246000fd5b6020026020010151602001516040518363ffffffff1660e01b8152600401610fce9291906001600160a01b03929092168252602082015260400190565b600060405180830381600087803b158015610fe857600080fd5b505af1158015610ffc573d6000803e3d6000fd5b50505050808061100b906134f6565b915050610f2d565b5060016015600082825461102791906133e2565b9250508190555061103a82601554611f63565b5050565b61095a8383836040518060200160405280600081525061184e565b600e818154811061106957600080fd5b9060005260206000209060089182820401919006600402915054906101000a900463ffffffff1681565b600b818154811061096f57600080fd5b60006110ae60085490565b82106111115760405162461bcd60e51b815260206004820152602c60248201527f455243373231456e756d657261626c653a20676c6f62616c20696e646578206f60448201526b7574206f6620626f756e647360a01b6064820152608401610824565b6008828154811061113257634e487b7160e01b600052603260045260246000fd5b90600052602060002001549050919050565b600061114f83611561565b600f54604051632771008160e11b8152600481018690529192506000916001600160a01b0390911690634ee201029060240160206040518083038186803b15801561119957600080fd5b505afa1580156111ad573d6000803e3d6000fd5b505050506040513d601f19601f820116820180604052508101906111d19190612b8e565b905060005b82518110156113e0578281815181106111ff57634e487b7160e01b600052603260045260246000fd5b6020026020010151600001516001600160a01b0316846001600160a01b031614611228576113ce565b82818151811061124857634e487b7160e01b600052603260045260246000fd5b6020026020010151600001516001600160a01b03166340c10f1961126b876113e7565b85848151811061128b57634e487b7160e01b600052603260045260246000fd5b6020026020010151602001516040518363ffffffff1660e01b81526004016112c89291906001600160a01b03929092168252602082015260400190565b600060405180830381600087803b1580156112e257600080fd5b505af11580156112f6573d6000803e3d6000fd5b505060105485516001600160a01b0390911692506340c10f199150849060649087908690811061133657634e487b7160e01b600052603260045260246000fd5b602002602001015160200151600661134e9190613459565b6113589190613422565b6040516001600160e01b031960e085901b1681526001600160a01b0390921660048301526024820152604401600060405180830381600087803b15801561139e57600080fd5b505af11580156113b2573d6000803e3d6000fd5b5050506000958652505060136020525050604090912043905550565b806113d8816134f6565b9150506111d6565b5050505050565b6000818152600260205260408120546001600160a01b0316806107175760405162461bcd60e51b815260206004820152602960248201527f4552433732313a206f776e657220717565727920666f72206e6f6e657869737460448201526832b73a103a37b5b2b760b91b6064820152608401610824565b60006001600160a01b0382166114c95760405162461bcd60e51b815260206004820152602a60248201527f4552433732313a2062616c616e636520717565727920666f7220746865207a65604482015269726f206164647265737360b01b6064820152608401610824565b506001600160a01b031660009081526003602052604090205490565b600a546001600160a01b0316331461150f5760405162461bcd60e51b815260040161082490613233565b6115196000612301565b565b6012602052816000526040600020818154811061153757600080fd5b6000918252602090912060029091020180546001909101546001600160a01b039091169250905082565b600f546040516301f5fde160e61b8152600481018390526060916001600160a01b031690637d7f78409060240160006040518083038186803b1580156115a657600080fd5b505afa1580156115ba573d6000803e3d6000fd5b505050506040513d6000823e601f3d908101601f191682016040526107179190810190612e44565b600081836040516020016115f691906131ce565b6040516020818303038152906040528051906020012060001c610a989190613511565b60606001805461072c906134bb565b600d818154811061106957600080fd5b61103a82826000612353565b6000818152600260205260409020546001600160a01b0316156116a95760405162461bcd60e51b815260206004820181905260248201527f536869702077697468207468617420696420616c7265616479206578697374736044820152606401610824565b610bb88111156116f05760405162461bcd60e51b815260206004820152601260248201527114da1a5c081a59081a5cc81a5b9d985b1a5960721b6044820152606401610824565b6000611741824260405160200161172a929190918252606060208301819052600190830152603760f91b6080830152604082015260a00190565b6040516020818303038152906040526103e86115e2565b905060006103848210611772576103b6821061176757611762600583613511565b61177d565b611762600483613511565b61177d600383613511565b905061095a8184611f63565b6001600160a01b0382163314156117e25760405162461bcd60e51b815260206004820152601960248201527f4552433732313a20617070726f766520746f2063616c6c6572000000000000006044820152606401610824565b3360008181526005602090815260408083206001600160a01b03871680855290835292819020805460ff191686151590811790915590519081529192917f17307eab39ab6107e8899845ad3d59bd9653f200f220920489ca2b5937696c31910160405180910390a35050565b6118583383611cc1565b6118745760405162461bcd60e51b815260040161082490613268565b611880848484846124d9565b50505050565b600a546001600160a01b031633146118b05760405162461bcd60e51b815260040161082490613233565b600f80546001600160a01b0319166001600160a01b0392909216919091179055565b600f5460405163c87b56dd60e01b8152600481018390526060916001600160a01b03169063c87b56dd9060240160006040518083038186803b15801561191757600080fd5b505afa15801561192b573d6000803e3d6000fd5b505050506040513d6000823e601f3d908101601f191682016040526107179190810190612f6b565b600061195e82611561565b600f54604051632771008160e11b8152600481018590529192506000916001600160a01b0390911690634ee201029060240160206040518083038186803b1580156119a857600080fd5b505afa1580156119bc573d6000803e3d6000fd5b505050506040513d601f19601f820116820180604052508101906119e09190612b8e565b905060005b825181101561188057828181518110611a0e57634e487b7160e01b600052603260045260246000fd5b6020026020010151600001516001600160a01b03166340c10f19611a31866113e7565b858481518110611a5157634e487b7160e01b600052603260045260246000fd5b6020026020010151602001516040518363ffffffff1660e01b8152600401611a8e9291906001600160a01b03929092168252602082015260400190565b600060405180830381600087803b158015611aa857600080fd5b505af1158015611abc573d6000803e3d6000fd5b505060105485516001600160a01b0390911692506340c10f1991508490600a90879086908110611afc57634e487b7160e01b600052603260045260246000fd5b602002602001015160200151611b129190613422565b6040516001600160e01b031960e085901b1681526001600160a01b0390921660048301526024820152604401600060405180830381600087803b158015611b5857600080fd5b505af1158015611b6c573d6000803e3d6000fd5b50505060008581526013602052604090204390555080611b8b816134f6565b9150506119e5565b600a546001600160a01b03163314611bbd5760405162461bcd60e51b815260040161082490613233565b6001600160a01b038116611c225760405162461bcd60e51b815260206004820152602660248201527f4f776e61626c653a206e6577206f776e657220697320746865207a65726f206160448201526564647265737360d01b6064820152608401610824565b611c2b81612301565b50565b60006001600160e01b0319821663780e9d6360e01b148061071757506107178261250c565b600081815260046020526040902080546001600160a01b0319166001600160a01b0384169081179091558190611c88826113e7565b6001600160a01b03167f8c5be1e5ebec7d5bd14f71427d1e84f3dd0314c0f7b2291e5b200ac8c7c3b92560405160405180910390a45050565b6000818152600260205260408120546001600160a01b0316611d3a5760405162461bcd60e51b815260206004820152602c60248201527f4552433732313a206f70657261746f7220717565727920666f72206e6f6e657860448201526b34b9ba32b73a103a37b5b2b760a11b6064820152608401610824565b6000611d45836113e7565b9050806001600160a01b0316846001600160a01b03161480611d805750836001600160a01b0316611d75846107af565b6001600160a01b0316145b80611db057506001600160a01b0380821660009081526005602090815260408083209388168352929052205460ff165b949350505050565b826001600160a01b0316611dcb826113e7565b6001600160a01b031614611e335760405162461bcd60e51b815260206004820152602960248201527f4552433732313a207472616e73666572206f6620746f6b656e2074686174206960448201526839903737ba1037bbb760b91b6064820152608401610824565b6001600160a01b038216611e955760405162461bcd60e51b8152602060048201526024808201527f4552433732313a207472616e7366657220746f20746865207a65726f206164646044820152637265737360e01b6064820152608401610824565b611ea083838361255c565b611eab600082611c53565b6001600160a01b0383166000908152600360205260408120805460019290611ed4908490613478565b90915550506001600160a01b0382166000908152600360205260408120805460019290611f029084906133e2565b909155505060008181526002602052604080822080546001600160a01b0319166001600160a01b0386811691821790925591518493918716917fddf252ad1be2c89b69c2b068fc378daa952ba7f163c4a11628f55a4df523b3ef91a4505050565b60408051608081018252600080825260208201819052918101829052606081019190915260ff83168152604051600090611fc99061172a9085904290602001918252606060208301819052600190830152606360f81b6080830152604082015260a00190565b9050611fd6600582613511565b60ff1660208381019190915260408051918201859052606090820181905260016080830152601b60fa1b60a083015242908201526120279060c00160405160208183030381529060405260326115e2565b9050600a600e836000015160ff168154811061205357634e487b7160e01b600052603260045260246000fd5b6000918252602090912060088204015460079091166004026101000a900463ffffffff166120828360016133e2565b61208c9190613459565b6120969190613436565b6120a19060026133fa565b63ffffffff16604083018190526005116120bf5781604001516120c2565b60055b63ffffffff166040808401919091525161211e906121089085904290602001918252606060208301819052600190830152607360f81b6080830152604082015260a00190565b60405160208183030381529060405260646115e2565b90506064600d836000015160ff168154811061214a57634e487b7160e01b600052603260045260246000fd5b6000918252602090912060088204015460079091166004026101000a900463ffffffff166121798360016133e2565b6121839190613459565b61218d9190613436565b6121989060026133fa565b63ffffffff16606083018190526005116121b65781606001516121b9565b60055b63ffffffff9081166060840190815260008581526011602090815260409182902086518154928801518489015195518716600160301b0269ffffffff000000000000199690971662010000029590951669ffffffffffffffff00001960ff9687166101000261ffff199095169683169690961793909317949094169190911793909317909255600f5491516318f90b5d60e21b81526122d8926001600160a01b0316916363e42d749161227c91889160040191825260ff16602082015260400190565b60006040518083038186803b15801561229457600080fd5b505afa1580156122a8573d6000803e3d6000fd5b505050506040513d6000823e601f3d908101601f191682016040526122d09190810190612ce4565b846001612353565b600083815260146020908152604080832043908190556013909252909120556118803384612567565b600a80546001600160a01b038381166001600160a01b0319831681179093556040519116919082907f8be0079c531659141344cd1fd0a4f28419497f9722a3daafe3b4186f6b6457e090600090a35050565b600f5460405163a290d5ff60e01b81526001600160a01b039091169063a290d5ff90612389908690869033908790600401613134565b60206040518083038186803b1580156123a157600080fd5b505afa1580156123b5573d6000803e3d6000fd5b505050506040513d601f19601f820116820180604052508101906123d99190612ed4565b6124155760405162461bcd60e51b815260206004820152600d60248201526c496e76616c696420726f75746560981b6044820152606401610824565b600082815260126020526040812061242c91612a81565b60005b83518110156124c3576000838152601260205260409020845185908390811061246857634e487b7160e01b600052603260045260246000fd5b602090810291909101810151825460018082018555600094855293839020825160029092020180546001600160a01b0319166001600160a01b03909216919091178155910151910155806124bb816134f6565b91505061242f565b5050600090815260136020526040902043905550565b6124e4848484611db8565b6124f084848484612581565b6118805760405162461bcd60e51b8152600401610824906131e1565b60006001600160e01b031982166380ac58cd60e01b148061253d57506001600160e01b03198216635b5e139f60e01b145b8061071757506301ffc9a760e01b6001600160e01b0319831614610717565b61095a83838361268e565b61103a828260405180602001604052806000815250612746565b60006001600160a01b0384163b1561268357604051630a85bd0160e11b81526001600160a01b0385169063150b7a02906125c59033908990889088906004016130f7565b602060405180830381600087803b1580156125df57600080fd5b505af192505050801561260f575060408051601f3d908101601f1916820190925261260c91810190612f0c565b60015b612669573d80801561263d576040519150601f19603f3d011682016040523d82523d6000602084013e612642565b606091505b5080516126615760405162461bcd60e51b8152600401610824906131e1565b805181602001fd5b6001600160e01b031916630a85bd0160e11b149050611db0565b506001949350505050565b6001600160a01b0383166126e9576126e481600880546000838152600960205260408120829055600182018355919091527ff3f7a9fe364faab93b216da50a3214154f22a0a2b415b23a84c8169e8b636ee30155565b61270c565b816001600160a01b0316836001600160a01b03161461270c5761270c8382612779565b6001600160a01b0382166127235761095a81612816565b826001600160a01b0316826001600160a01b03161461095a5761095a82826128ef565b6127508383612933565b61275d6000848484612581565b61095a5760405162461bcd60e51b8152600401610824906131e1565b600060016127868461145e565b6127909190613478565b6000838152600760205260409020549091508082146127e3576001600160a01b03841660009081526006602090815260408083208584528252808320548484528184208190558352600790915290208190555b5060009182526007602090815260408084208490556001600160a01b039094168352600681528383209183525290812055565b60085460009061282890600190613478565b6000838152600960205260408120546008805493945090928490811061285e57634e487b7160e01b600052603260045260246000fd5b90600052602060002001549050806008838154811061288d57634e487b7160e01b600052603260045260246000fd5b60009182526020808320909101929092558281526009909152604080822084905585825281205560088054806128d357634e487b7160e01b600052603160045260246000fd5b6001900381819060005260206000200160009055905550505050565b60006128fa8361145e565b6001600160a01b039093166000908152600660209081526040808320868452825280832085905593825260079052919091209190915550565b6001600160a01b0382166129895760405162461bcd60e51b815260206004820181905260248201527f4552433732313a206d696e7420746f20746865207a65726f20616464726573736044820152606401610824565b6000818152600260205260409020546001600160a01b0316156129ee5760405162461bcd60e51b815260206004820152601c60248201527f4552433732313a20746f6b656e20616c7265616479206d696e746564000000006044820152606401610824565b6129fa6000838361255c565b6001600160a01b0382166000908152600360205260408120805460019290612a239084906133e2565b909155505060008181526002602052604080822080546001600160a01b0319166001600160a01b03861690811790915590518392907fddf252ad1be2c89b69c2b068fc378daa952ba7f163c4a11628f55a4df523b3ef908290a45050565b5080546000825560020290600052602060002090810190611c2b91905b80821115612ac35780546001600160a01b031916815560006001820155600201612a9e565b5090565b600082601f830112612ad7578081fd5b8135612aea612ae5826133ba565b613365565b818152846020838601011115612afe578283fd5b816020850160208301379081016020019190915292915050565b600060408284031215612b29578081fd5b6040516040810181811067ffffffffffffffff82111715612b4c57612b4c613551565b80604052508091508251612b5f81613567565b8152602092830151920191909152919050565b600060208284031215612b83578081fd5b8135610a9881613567565b600060208284031215612b9f578081fd5b8151610a9881613567565b60008060408385031215612bbc578081fd5b8235612bc781613567565b91506020830135612bd781613567565b809150509250929050565b600080600060608486031215612bf6578081fd5b8335612c0181613567565b92506020840135612c1181613567565b929592945050506040919091013590565b60008060008060808587031215612c37578182fd5b8435612c4281613567565b93506020850135612c5281613567565b925060408501359150606085013567ffffffffffffffff811115612c74578182fd5b612c8087828801612ac7565b91505092959194509250565b60008060408385031215612c9e578182fd5b8235612ca981613567565b91506020830135612bd78161357c565b60008060408385031215612ccb578182fd5b8235612cd681613567565b946020939093013593505050565b60006020808385031215612cf6578182fd5b825167ffffffffffffffff811115612d0c578283fd5b8301601f81018513612d1c578283fd5b8051612d2a612ae582613396565b80828252848201915084840188868560061b8701011115612d49578687fd5b8694505b83851015612d7457612d5f8982612b18565b83526001949094019391850191604001612d4d565b50979650505050505050565b6000806040808486031215612d93578283fd5b833567ffffffffffffffff811115612da9578384fd5b8401601f81018613612db9578384fd5b80356020612dc9612ae583613396565b8083825282820191508285018a848660061b8801011115612de8578889fd5b8895505b84861015612e335786818c031215612e02578889fd5b612e0a61333c565b8135612e1581613567565b81528185013585820152835260019590950194918301918601612dec565b509997909101359750505050505050565b60006020808385031215612e56578182fd5b825167ffffffffffffffff811115612e6c578283fd5b8301601f81018513612e7c578283fd5b8051612e8a612ae582613396565b80828252848201915084840188868560061b8701011115612ea9578687fd5b8694505b83851015612d7457612ebf8982612b18565b83526001949094019391850191604001612ead565b600060208284031215612ee5578081fd5b8151610a988161357c565b600060208284031215612f01578081fd5b8135610a988161358a565b600060208284031215612f1d578081fd5b8151610a988161358a565b60008060408385031215612f3a578182fd5b823567ffffffffffffffff811115612f50578283fd5b612f5c85828601612ac7565b95602094909401359450505050565b600060208284031215612f7c578081fd5b815167ffffffffffffffff811115612f92578182fd5b8201601f81018413612fa2578182fd5b8051612fb0612ae5826133ba565b818152856020838501011115612fc4578384fd5b612fd582602083016020860161348f565b95945050505050565b600060208284031215612fef578081fd5b5035919050565b600060208284031215613007578081fd5b5051919050565b60008060408385031215613020578182fd5b823591506020830135612bd781613567565b60008060408385031215613044578182fd5b50508035926020909101359150565b600060208284031215613064578081fd5b813560ff81168114610a98578182fd5b6000815180845260208085019450808401835b838110156130c0576130ad87835180516001600160a01b03168252602090810151910152565b6040969096019590820190600101613087565b509495945050505050565b600081518084526130e381602086016020860161348f565b601f01601f19169290920160200192915050565b6001600160a01b038581168252841660208201526040810183905260806060820181905260009061312a908301846130cb565b9695505050505050565b6080815260006131476080830187613074565b6020830195909552506001600160a01b039290921660408301521515606090910152919050565b602080825282518282018190526000919060409081850190868401855b828110156131c1576131b184835180516001600160a01b03168252602090810151910152565b928401929085019060010161318b565b5091979650505050505050565b602081526000610a9860208301846130cb565b60208082526032908201527f4552433732313a207472616e7366657220746f206e6f6e20455243373231526560408201527131b2b4bb32b91034b6b83632b6b2b73a32b960711b606082015260800190565b6020808252818101527f4f776e61626c653a2063616c6c6572206973206e6f7420746865206f776e6572604082015260600190565b60208082526031908201527f4552433732313a207472616e736665722063616c6c6572206973206e6f74206f6040820152701ddb995c881b9bdc88185c1c1c9bdd9959607a1b606082015260800190565b60208152815160208201526000602083015160c060408401526132df60e08401826130cb565b90506040840151601f19808584030160608601526132fd83836130cb565b92506060860151915063ffffffff80831660808701528060808801511660a08701525060a08601519150808584030160c086015250612fd58282613074565b6040805190810167ffffffffffffffff8111828210171561335f5761335f613551565b60405290565b604051601f8201601f1916810167ffffffffffffffff8111828210171561338e5761338e613551565b604052919050565b600067ffffffffffffffff8211156133b0576133b0613551565b5060051b60200190565b600067ffffffffffffffff8211156133d4576133d4613551565b50601f01601f191660200190565b600082198211156133f5576133f5613525565b500190565b600063ffffffff80831681851680830382111561341957613419613525565b01949350505050565b6000826134315761343161353b565b500490565b600063ffffffff8084168061344d5761344d61353b565b92169190910492915050565b600081600019048311821515161561347357613473613525565b500290565b60008282101561348a5761348a613525565b500390565b60005b838110156134aa578181015183820152602001613492565b838111156118805750506000910152565b600181811c908216806134cf57607f821691505b602082108114156134f057634e487b7160e01b600052602260045260246000fd5b50919050565b600060001982141561350a5761350a613525565b5060010190565b6000826135205761352061353b565b500690565b634e487b7160e01b600052601160045260246000fd5b634e487b7160e01b600052601260045260246000fd5b634e487b7160e01b600052604160045260246000fd5b6001600160a01b0381168114611c2b57600080fd5b8015158114611c2b57600080fd5b6001600160e01b031981168114611c2b57600080fdfea2646970667358221220319c08cbf33d2a5570ea154197a0a1aba096be6c6e6ee150817c50c04c58a1dd64736f6c63430008040033",
  "devdoc": {
    "kind": "dev",
    "methods": {
      "approve(address,uint256)": {
        "details": "See {IERC721-approve}."
      },
      "balanceOf(address)": {
        "details": "See {IERC721-balanceOf}."
      },
      "getApproved(uint256)": {
        "details": "See {IERC721-getApproved}."
      },
      "isApprovedForAll(address,address)": {
        "details": "See {IERC721-isApprovedForAll}."
      },
      "name()": {
        "details": "See {IERC721Metadata-name}."
      },
      "owner()": {
        "details": "Returns the address of the current owner."
      },
      "ownerOf(uint256)": {
        "details": "See {IERC721-ownerOf}."
      },
      "renounceOwnership()": {
        "details": "Leaves the contract without owner. It will not be possible to call `onlyOwner` functions anymore. Can only be called by the current owner. NOTE: Renouncing ownership will leave the contract without an owner, thereby removing any functionality that is only available to the owner."
      },
      "safeTransferFrom(address,address,uint256)": {
        "details": "See {IERC721-safeTransferFrom}."
      },
      "safeTransferFrom(address,address,uint256,bytes)": {
        "details": "See {IERC721-safeTransferFrom}."
      },
      "setApprovalForAll(address,bool)": {
        "details": "See {IERC721-setApprovalForAll}."
      },
      "symbol()": {
        "details": "See {IERC721Metadata-symbol}."
      },
      "tokenByIndex(uint256)": {
        "details": "See {IERC721Enumerable-tokenByIndex}."
      },
      "tokenOfOwnerByIndex(address,uint256)": {
        "details": "See {IERC721Enumerable-tokenOfOwnerByIndex}."
      },
      "tokenURI(uint256)": {
        "details": "See {IERC721Metadata-tokenURI}."
      },
      "totalSupply()": {
        "details": "See {IERC721Enumerable-totalSupply}."
      },
      "transferFrom(address,address,uint256)": {
        "details": "See {IERC721-transferFrom}."
      },
      "transferOwnership(address)": {
        "details": "Transfers ownership of the contract to a new account (`newOwner`). Can only be called by the current owner."
      }
    },
    "version": 1
  },
  "userdoc": {
    "kind": "user",
    "methods": {
      "getShipInfo(uint256)": {
        "notice": "Getters "
      },
      "mint(uint256)": {
        "notice": "State modifications "
      },
      "setHelperContract(address)": {
        "notice": "Setters "
      }
    },
    "version": 1
  },
  "storageLayout": {
    "storage": [
      {
        "astId": 1644,
        "contract": "contracts/Ships.sol:Ships",
        "label": "_name",
        "offset": 0,
        "slot": "0",
        "type": "t_string_storage"
      },
      {
        "astId": 1646,
        "contract": "contracts/Ships.sol:Ships",
        "label": "_symbol",
        "offset": 0,
        "slot": "1",
        "type": "t_string_storage"
      },
      {
        "astId": 1650,
        "contract": "contracts/Ships.sol:Ships",
        "label": "_owners",
        "offset": 0,
        "slot": "2",
        "type": "t_mapping(t_uint256,t_address)"
      },
      {
        "astId": 1654,
        "contract": "contracts/Ships.sol:Ships",
        "label": "_balances",
        "offset": 0,
        "slot": "3",
        "type": "t_mapping(t_address,t_uint256)"
      },
      {
        "astId": 1658,
        "contract": "contracts/Ships.sol:Ships",
        "label": "_tokenApprovals",
        "offset": 0,
        "slot": "4",
        "type": "t_mapping(t_uint256,t_address)"
      },
      {
        "astId": 1664,
        "contract": "contracts/Ships.sol:Ships",
        "label": "_operatorApprovals",
        "offset": 0,
        "slot": "5",
        "type": "t_mapping(t_address,t_mapping(t_address,t_bool))"
      },
      {
        "astId": 2613,
        "contract": "contracts/Ships.sol:Ships",
        "label": "_ownedTokens",
        "offset": 0,
        "slot": "6",
        "type": "t_mapping(t_address,t_mapping(t_uint256,t_uint256))"
      },
      {
        "astId": 2617,
        "contract": "contracts/Ships.sol:Ships",
        "label": "_ownedTokensIndex",
        "offset": 0,
        "slot": "7",
        "type": "t_mapping(t_uint256,t_uint256)"
      },
      {
        "astId": 2620,
        "contract": "contracts/Ships.sol:Ships",
        "label": "_allTokens",
        "offset": 0,
        "slot": "8",
        "type": "t_array(t_uint256)dyn_storage"
      },
      {
        "astId": 2624,
        "contract": "contracts/Ships.sol:Ships",
        "label": "_allTokensIndex",
        "offset": 0,
        "slot": "9",
        "type": "t_mapping(t_uint256,t_uint256)"
      },
      {
        "astId": 7,
        "contract": "contracts/Ships.sol:Ships",
        "label": "_owner",
        "offset": 0,
        "slot": "10",
        "type": "t_address"
      },
      {
        "astId": 8168,
        "contract": "contracts/Ships.sol:Ships",
        "label": "names",
        "offset": 0,
        "slot": "11",
        "type": "t_array(t_string_storage)dyn_storage"
      },
      {
        "astId": 8177,
        "contract": "contracts/Ships.sol:Ships",
        "label": "expeditions",
        "offset": 0,
        "slot": "12",
        "type": "t_array(t_string_storage)dyn_storage"
      },
      {
        "astId": 8186,
        "contract": "contracts/Ships.sol:Ships",
        "label": "speedMultipliers",
        "offset": 0,
        "slot": "13",
        "type": "t_array(t_uint32)dyn_storage"
      },
      {
        "astId": 8195,
        "contract": "contracts/Ships.sol:Ships",
        "label": "lengthMultipliers",
        "offset": 0,
        "slot": "14",
        "type": "t_array(t_uint32)dyn_storage"
      },
      {
        "astId": 8198,
        "contract": "contracts/Ships.sol:Ships",
        "label": "helperContract",
        "offset": 0,
        "slot": "15",
        "type": "t_contract(ShipsHelper)10406"
      },
      {
        "astId": 8201,
        "contract": "contracts/Ships.sol:Ships",
        "label": "goldTokenContract",
        "offset": 0,
        "slot": "16",
        "type": "t_contract(ERC20Mintable)4115"
      },
      {
        "astId": 8206,
        "contract": "contracts/Ships.sol:Ships",
        "label": "tokenIdToAttributes",
        "offset": 0,
        "slot": "17",
        "type": "t_mapping(t_uint256,t_struct(Attributes)8134_storage)"
      },
      {
        "astId": 8212,
        "contract": "contracts/Ships.sol:Ships",
        "label": "tokenIdToRoute",
        "offset": 0,
        "slot": "18",
        "type": "t_mapping(t_uint256,t_array(t_struct(Path)8139_storage)dyn_storage)"
      },
      {
        "astId": 8216,
        "contract": "contracts/Ships.sol:Ships",
        "label": "tokenIdToLastRouteUpdate",
        "offset": 0,
        "slot": "19",
        "type": "t_mapping(t_uint256,t_uint256)"
      },
      {
        "astId": 8220,
        "contract": "contracts/Ships.sol:Ships",
        "label": "tokenIdToLastSetlHarvest",
        "offset": 0,
        "slot": "20",
        "type": "t_mapping(t_uint256,t_uint256)"
      },
      {
        "astId": 8223,
        "contract": "contracts/Ships.sol:Ships",
        "label": "purchasedShipsCount",
        "offset": 0,
        "slot": "21",
        "type": "t_uint256"
      }
    ],
    "types": {
      "t_address": {
        "encoding": "inplace",
        "label": "address",
        "numberOfBytes": "20"
      },
      "t_array(t_string_storage)dyn_storage": {
        "base": "t_string_storage",
        "encoding": "dynamic_array",
        "label": "string[]",
        "numberOfBytes": "32"
      },
      "t_array(t_struct(Path)8139_storage)dyn_storage": {
        "base": "t_struct(Path)8139_storage",
        "encoding": "dynamic_array",
        "label": "struct Ships.Path[]",
        "numberOfBytes": "32"
      },
      "t_array(t_uint256)dyn_storage": {
        "base": "t_uint256",
        "encoding": "dynamic_array",
        "label": "uint256[]",
        "numberOfBytes": "32"
      },
      "t_array(t_uint32)dyn_storage": {
        "base": "t_uint32",
        "encoding": "dynamic_array",
        "label": "uint32[]",
        "numberOfBytes": "32"
      },
      "t_bool": {
        "encoding": "inplace",
        "label": "bool",
        "numberOfBytes": "1"
      },
      "t_contract(ERC20Mintable)4115": {
        "encoding": "inplace",
        "label": "contract ERC20Mintable",
        "numberOfBytes": "20"
      },
      "t_contract(ShipsHelper)10406": {
        "encoding": "inplace",
        "label": "contract ShipsHelper",
        "numberOfBytes": "20"
      },
      "t_mapping(t_address,t_bool)": {
        "encoding": "mapping",
        "key": "t_address",
        "label": "mapping(address => bool)",
        "numberOfBytes": "32",
        "value": "t_bool"
      },
      "t_mapping(t_address,t_mapping(t_address,t_bool))": {
        "encoding": "mapping",
        "key": "t_address",
        "label": "mapping(address => mapping(address => bool))",
        "numberOfBytes": "32",
        "value": "t_mapping(t_address,t_bool)"
      },
      "t_mapping(t_address,t_mapping(t_uint256,t_uint256))": {
        "encoding": "mapping",
        "key": "t_address",
        "label": "mapping(address => mapping(uint256 => uint256))",
        "numberOfBytes": "32",
        "value": "t_mapping(t_uint256,t_uint256)"
      },
      "t_mapping(t_address,t_uint256)": {
        "encoding": "mapping",
        "key": "t_address",
        "label": "mapping(address => uint256)",
        "numberOfBytes": "32",
        "value": "t_uint256"
      },
      "t_mapping(t_uint256,t_address)": {
        "encoding": "mapping",
        "key": "t_uint256",
        "label": "mapping(uint256 => address)",
        "numberOfBytes": "32",
        "value": "t_address"
      },
      "t_mapping(t_uint256,t_array(t_struct(Path)8139_storage)dyn_storage)": {
        "encoding": "mapping",
        "key": "t_uint256",
        "label": "mapping(uint256 => struct Ships.Path[])",
        "numberOfBytes": "32",
        "value": "t_array(t_struct(Path)8139_storage)dyn_storage"
      },
      "t_mapping(t_uint256,t_struct(Attributes)8134_storage)": {
        "encoding": "mapping",
        "key": "t_uint256",
        "label": "mapping(uint256 => struct Ships.Attributes)",
        "numberOfBytes": "32",
        "value": "t_struct(Attributes)8134_storage"
      },
      "t_mapping(t_uint256,t_uint256)": {
        "encoding": "mapping",
        "key": "t_uint256",
        "label": "mapping(uint256 => uint256)",
        "numberOfBytes": "32",
        "value": "t_uint256"
      },
      "t_string_storage": {
        "encoding": "bytes",
        "label": "string",
        "numberOfBytes": "32"
      },
      "t_struct(Attributes)8134_storage": {
        "encoding": "inplace",
        "label": "struct Ships.Attributes",
        "members": [
          {
            "astId": 8127,
            "contract": "contracts/Ships.sol:Ships",
            "label": "name",
            "offset": 0,
            "slot": "0",
            "type": "t_uint8"
          },
          {
            "astId": 8129,
            "contract": "contracts/Ships.sol:Ships",
            "label": "expedition",
            "offset": 1,
            "slot": "0",
            "type": "t_uint8"
          },
          {
            "astId": 8131,
            "contract": "contracts/Ships.sol:Ships",
            "label": "length",
            "offset": 2,
            "slot": "0",
            "type": "t_uint32"
          },
          {
            "astId": 8133,
            "contract": "contracts/Ships.sol:Ships",
            "label": "speed",
            "offset": 6,
            "slot": "0",
            "type": "t_uint32"
          }
        ],
        "numberOfBytes": "32"
      },
      "t_struct(Path)8139_storage": {
        "encoding": "inplace",
        "label": "struct Ships.Path",
        "members": [
          {
            "astId": 8136,
            "contract": "contracts/Ships.sol:Ships",
            "label": "tokenContract",
            "offset": 0,
            "slot": "0",
            "type": "t_address"
          },
          {
            "astId": 8138,
            "contract": "contracts/Ships.sol:Ships",
            "label": "tokenId",
            "offset": 0,
            "slot": "1",
            "type": "t_uint256"
          }
        ],
        "numberOfBytes": "64"
      },
      "t_uint256": {
        "encoding": "inplace",
        "label": "uint256",
        "numberOfBytes": "32"
      },
      "t_uint32": {
        "encoding": "inplace",
        "label": "uint32",
        "numberOfBytes": "4"
      },
      "t_uint8": {
        "encoding": "inplace",
        "label": "uint8",
        "numberOfBytes": "1"
      }
    }
  }
}