{
  "address": "0x347e6cA665EcDED96E39EDE4a0cABd6dF99b6725",
  "abi": [
    {
      "inputs": [
        {
          "internalType": "contract ERC20Mintable",
          "name": "setlTokenAddress_",
          "type": "address"
        }
      ],
      "stateMutability": "nonpayable",
      "type": "constructor"
    },
    {
      "anonymous": false,
      "inputs": [
        {
          "indexed": true,
          "internalType": "address",
          "name": "previousOwner",
          "type": "address"
        },
        {
          "indexed": true,
          "internalType": "address",
          "name": "newOwner",
          "type": "address"
        }
      ],
      "name": "OwnershipTransferred",
      "type": "event"
    },
    {
      "inputs": [
        {
          "internalType": "uint256",
          "name": "",
          "type": "uint256"
        }
      ],
      "name": "expeditionMultipliers",
      "outputs": [
        {
          "internalType": "uint256",
          "name": "",
          "type": "uint256"
        }
      ],
      "stateMutability": "view",
      "type": "function"
    },
    {
      "inputs": [
        {
          "components": [
            {
              "internalType": "uint256",
              "name": "tokenId",
              "type": "uint256"
            },
            {
              "internalType": "string",
              "name": "name",
              "type": "string"
            },
            {
              "internalType": "string",
              "name": "expedition",
              "type": "string"
            },
            {
              "internalType": "uint32",
              "name": "length",
              "type": "uint32"
            },
            {
              "internalType": "uint32",
              "name": "speed",
              "type": "uint32"
            },
            {
              "components": [
                {
                  "internalType": "address",
                  "name": "tokenContract",
                  "type": "address"
                },
                {
                  "internalType": "uint256",
                  "name": "tokenId",
                  "type": "uint256"
                }
              ],
              "internalType": "struct Ships.Path[]",
              "name": "route",
              "type": "tuple[]"
            }
          ],
          "internalType": "struct Ships.Ship",
          "name": "shipInfo",
          "type": "tuple"
        }
      ],
      "name": "getAttrOutput",
      "outputs": [
        {
          "internalType": "string",
          "name": "",
          "type": "string"
        }
      ],
      "stateMutability": "view",
      "type": "function"
    },
    {
      "inputs": [
        {
          "internalType": "uint256",
          "name": "tokenId",
          "type": "uint256"
        }
      ],
      "name": "getBlocksUntilNextPhase",
      "outputs": [
        {
          "internalType": "uint256",
          "name": "",
          "type": "uint256"
        }
      ],
      "stateMutability": "view",
      "type": "function"
    },
    {
      "inputs": [
        {
          "internalType": "uint8",
          "name": "name",
          "type": "uint8"
        }
      ],
      "name": "getCost",
      "outputs": [
        {
          "components": [
            {
              "internalType": "address",
              "name": "resourceTokenContract",
              "type": "address"
            },
            {
              "internalType": "uint256",
              "name": "amount",
              "type": "uint256"
            }
          ],
          "internalType": "struct Ships.TokenHarvest[]",
          "name": "",
          "type": "tuple[]"
        }
      ],
      "stateMutability": "view",
      "type": "function"
    },
    {
      "inputs": [
        {
          "internalType": "uint256",
          "name": "tokenId",
          "type": "uint256"
        }
      ],
      "name": "getCurrentTarget",
      "outputs": [
        {
          "components": [
            {
              "internalType": "address",
              "name": "tokenContract",
              "type": "address"
            },
            {
              "internalType": "uint256",
              "name": "tokenId",
              "type": "uint256"
            }
          ],
          "internalType": "struct Ships.Path",
          "name": "",
          "type": "tuple"
        }
      ],
      "stateMutability": "view",
      "type": "function"
    },
    {
      "inputs": [
        {
          "internalType": "uint256",
          "name": "tokenId",
          "type": "uint256"
        }
      ],
      "name": "getCurrentTargetIndex",
      "outputs": [
        {
          "internalType": "uint256",
          "name": "",
          "type": "uint256"
        }
      ],
      "stateMutability": "view",
      "type": "function"
    },
    {
      "inputs": [
        {
          "components": [
            {
              "internalType": "uint256",
              "name": "tokenId",
              "type": "uint256"
            },
            {
              "internalType": "string",
              "name": "name",
              "type": "string"
            },
            {
              "internalType": "string",
              "name": "expedition",
              "type": "string"
            },
            {
              "internalType": "uint32",
              "name": "length",
              "type": "uint32"
            },
            {
              "internalType": "uint32",
              "name": "speed",
              "type": "uint32"
            },
            {
              "components": [
                {
                  "internalType": "address",
                  "name": "tokenContract",
                  "type": "address"
                },
                {
                  "internalType": "uint256",
                  "name": "tokenId",
                  "type": "uint256"
                }
              ],
              "internalType": "struct Ships.Path[]",
              "name": "route",
              "type": "tuple[]"
            }
          ],
          "internalType": "struct Ships.Ship",
          "name": "shipInfo",
          "type": "tuple"
        }
      ],
      "name": "getImageOutput",
      "outputs": [
        {
          "internalType": "string",
          "name": "",
          "type": "string"
        }
      ],
      "stateMutability": "view",
      "type": "function"
    },
    {
      "inputs": [
        {
          "internalType": "uint256",
          "name": "tokenId",
          "type": "uint256"
        },
        {
          "internalType": "uint8",
          "name": "name",
          "type": "uint8"
        }
      ],
      "name": "getInitialRoute",
      "outputs": [
        {
          "components": [
            {
              "internalType": "address",
              "name": "tokenContract",
              "type": "address"
            },
            {
              "internalType": "uint256",
              "name": "tokenId",
              "type": "uint256"
            }
          ],
          "internalType": "struct Ships.Path[]",
          "name": "",
          "type": "tuple[]"
        }
      ],
      "stateMutability": "view",
      "type": "function"
    },
    {
      "inputs": [
        {
          "internalType": "bytes",
          "name": "seed",
          "type": "bytes"
        },
        {
          "internalType": "uint256",
          "name": "maxValue",
          "type": "uint256"
        }
      ],
      "name": "getRandomNumber",
      "outputs": [
        {
          "internalType": "uint256",
          "name": "",
          "type": "uint256"
        }
      ],
      "stateMutability": "pure",
      "type": "function"
    },
    {
      "inputs": [
        {
          "components": [
            {
              "internalType": "uint256",
              "name": "tokenId",
              "type": "uint256"
            },
            {
              "internalType": "string",
              "name": "name",
              "type": "string"
            },
            {
              "internalType": "string",
              "name": "expedition",
              "type": "string"
            },
            {
              "internalType": "uint32",
              "name": "length",
              "type": "uint32"
            },
            {
              "internalType": "uint32",
              "name": "speed",
              "type": "uint32"
            },
            {
              "components": [
                {
                  "internalType": "address",
                  "name": "tokenContract",
                  "type": "address"
                },
                {
                  "internalType": "uint256",
                  "name": "tokenId",
                  "type": "uint256"
                }
              ],
              "internalType": "struct Ships.Path[]",
              "name": "route",
              "type": "tuple[]"
            }
          ],
          "internalType": "struct Ships.Ship",
          "name": "shipInfo",
          "type": "tuple"
        }
      ],
      "name": "getSailingDuration",
      "outputs": [
        {
          "internalType": "uint256",
          "name": "",
          "type": "uint256"
        }
      ],
      "stateMutability": "pure",
      "type": "function"
    },
    {
      "inputs": [
        {
          "internalType": "uint256",
          "name": "tokenId",
          "type": "uint256"
        }
      ],
      "name": "getStatus",
      "outputs": [
        {
          "internalType": "enum ShipsHelper.Status",
          "name": "",
          "type": "uint8"
        }
      ],
      "stateMutability": "view",
      "type": "function"
    },
    {
      "inputs": [
        {
          "internalType": "uint256",
          "name": "tokenId",
          "type": "uint256"
        }
      ],
      "name": "getTaxDestination",
      "outputs": [
        {
          "internalType": "address",
          "name": "",
          "type": "address"
        }
      ],
      "stateMutability": "view",
      "type": "function"
    },
    {
      "inputs": [
        {
          "internalType": "uint256",
          "name": "tokenId",
          "type": "uint256"
        }
      ],
      "name": "getUnharvestedSettlementTokens",
      "outputs": [
        {
          "internalType": "uint256",
          "name": "",
          "type": "uint256"
        }
      ],
      "stateMutability": "view",
      "type": "function"
    },
    {
      "inputs": [
        {
          "internalType": "uint256",
          "name": "tokenId",
          "type": "uint256"
        }
      ],
      "name": "getUnharvestedTokens",
      "outputs": [
        {
          "components": [
            {
              "internalType": "address",
              "name": "resourceTokenContract",
              "type": "address"
            },
            {
              "internalType": "uint256",
              "name": "amount",
              "type": "uint256"
            }
          ],
          "internalType": "struct Ships.TokenHarvest[]",
          "name": "",
          "type": "tuple[]"
        }
      ],
      "stateMutability": "view",
      "type": "function"
    },
    {
      "inputs": [
        {
          "components": [
            {
              "internalType": "address",
              "name": "tokenContract",
              "type": "address"
            },
            {
              "internalType": "uint256",
              "name": "tokenId",
              "type": "uint256"
            }
          ],
          "internalType": "struct Ships.Path[]",
          "name": "route",
          "type": "tuple[]"
        },
        {
          "internalType": "uint256",
          "name": "tokenId",
          "type": "uint256"
        },
        {
          "internalType": "address",
          "name": "sender",
          "type": "address"
        },
        {
          "internalType": "bool",
          "name": "init",
          "type": "bool"
        }
      ],
      "name": "isValidRoute",
      "outputs": [
        {
          "internalType": "bool",
          "name": "",
          "type": "bool"
        }
      ],
      "stateMutability": "view",
      "type": "function"
    },
    {
      "inputs": [],
      "name": "islandsContract",
      "outputs": [
        {
          "internalType": "contract Islands",
          "name": "",
          "type": "address"
        }
      ],
      "stateMutability": "view",
      "type": "function"
    },
    {
      "inputs": [
        {
          "internalType": "uint256",
          "name": "",
          "type": "uint256"
        },
        {
          "internalType": "uint256",
          "name": "",
          "type": "uint256"
        }
      ],
      "name": "nameToCost",
      "outputs": [
        {
          "internalType": "address",
          "name": "resourceTokenContract",
          "type": "address"
        },
        {
          "internalType": "uint256",
          "name": "amount",
          "type": "uint256"
        }
      ],
      "stateMutability": "view",
      "type": "function"
    },
    {
      "inputs": [
        {
          "internalType": "uint256",
          "name": "",
          "type": "uint256"
        }
      ],
      "name": "nameToMaxRouteLength",
      "outputs": [
        {
          "internalType": "uint256",
          "name": "",
          "type": "uint256"
        }
      ],
      "stateMutability": "view",
      "type": "function"
    },
    {
      "inputs": [],
      "name": "owner",
      "outputs": [
        {
          "internalType": "address",
          "name": "",
          "type": "address"
        }
      ],
      "stateMutability": "view",
      "type": "function"
    },
    {
      "inputs": [],
      "name": "renounceOwnership",
      "outputs": [],
      "stateMutability": "nonpayable",
      "type": "function"
    },
    {
      "inputs": [
        {
          "components": [
            {
              "internalType": "address",
              "name": "resourceTokenContract",
              "type": "address"
            },
            {
              "internalType": "uint256",
              "name": "amount",
              "type": "uint256"
            }
          ],
          "internalType": "struct Ships.TokenHarvest[][]",
          "name": "costs",
          "type": "tuple[][]"
        }
      ],
      "name": "setCosts",
      "outputs": [],
      "stateMutability": "nonpayable",
      "type": "function"
    },
    {
      "inputs": [
        {
          "internalType": "contract Islands",
          "name": "islandsContract_",
          "type": "address"
        }
      ],
      "name": "setIslandsContract",
      "outputs": [],
      "stateMutability": "nonpayable",
      "type": "function"
    },
    {
      "inputs": [
        {
          "internalType": "contract SettlementsV2",
          "name": "settlementsContract_",
          "type": "address"
        }
      ],
      "name": "setSettlementsContract",
      "outputs": [],
      "stateMutability": "nonpayable",
      "type": "function"
    },
    {
      "inputs": [
        {
          "internalType": "contract Ships",
          "name": "shipsContract_",
          "type": "address"
        }
      ],
      "name": "setShipsContract",
      "outputs": [],
      "stateMutability": "nonpayable",
      "type": "function"
    },
    {
      "inputs": [
        {
          "internalType": "uint256",
          "name": "",
          "type": "uint256"
        }
      ],
      "name": "setlExpeditionMultipliers",
      "outputs": [
        {
          "internalType": "uint256",
          "name": "",
          "type": "uint256"
        }
      ],
      "stateMutability": "view",
      "type": "function"
    },
    {
      "inputs": [
        {
          "internalType": "uint256",
          "name": "",
          "type": "uint256"
        }
      ],
      "name": "setlNameMultipliers",
      "outputs": [
        {
          "internalType": "uint256",
          "name": "",
          "type": "uint256"
        }
      ],
      "stateMutability": "view",
      "type": "function"
    },
    {
      "inputs": [],
      "name": "setlTokenAddress",
      "outputs": [
        {
          "internalType": "contract ERC20Mintable",
          "name": "",
          "type": "address"
        }
      ],
      "stateMutability": "view",
      "type": "function"
    },
    {
      "inputs": [],
      "name": "settlementsContract",
      "outputs": [
        {
          "internalType": "contract SettlementsV2",
          "name": "",
          "type": "address"
        }
      ],
      "stateMutability": "view",
      "type": "function"
    },
    {
      "inputs": [],
      "name": "shipsContract",
      "outputs": [
        {
          "internalType": "contract Ships",
          "name": "",
          "type": "address"
        }
      ],
      "stateMutability": "view",
      "type": "function"
    },
    {
      "inputs": [
        {
          "internalType": "uint256",
          "name": "tokenId",
          "type": "uint256"
        }
      ],
      "name": "tokenURI",
      "outputs": [
        {
          "internalType": "string",
          "name": "",
          "type": "string"
        }
      ],
      "stateMutability": "view",
      "type": "function"
    },
    {
      "inputs": [
        {
          "internalType": "address",
          "name": "newOwner",
          "type": "address"
        }
      ],
      "name": "transferOwnership",
      "outputs": [],
      "stateMutability": "nonpayable",
      "type": "function"
    }
  ],
  "transactionHash": "0x78b6a262da1f96772b599b1a14bec301c40c10f68d454790848a3516041a206e",
  "args": [
    "0x0B4e9cB17d7Bf014D6989be9cC0b0a5096B922D7"
  ],
  "solcInputHash": "16bb3c57c6c561d8aef3a61309089298",
  "bytecode": "0x61012060405260026080818152600360a052600460c052600560e08190526101008190526200003092919062000195565b506040805160a08101825260038082526002602083018190529282019290925260016060820181905260808201526200006c9190600562000195565b506040805160a081018252600181526002602082018190529181019190915260046060820181905260808201819052620000a891600562000195565b506040805160a081018252600180825260036020830152918101919091526002606082018190526080820152620000e3906005908162000195565b50348015620000f157600080fd5b5060405162003e1038038062003e10833981016040819052620001149162000201565b6200011f3362000145565b600980546001600160a01b0319166001600160a01b039290921691909117905562000231565b600080546001600160a01b038381166001600160a01b0319831681178455604051919092169283917f8be0079c531659141344cd1fd0a4f28419497f9722a3daafe3b4186f6b6457e09190a35050565b828054828255906000526020600020908101928215620001d8579160200282015b82811115620001d8578251829060ff16905591602001919060010190620001b6565b50620001e6929150620001ea565b5090565b5b80821115620001e65760008155600101620001eb565b60006020828403121562000213578081fd5b81516001600160a01b03811681146200022a578182fd5b9392505050565b613bcf80620002416000396000f3fe608060405234801561001057600080fd5b50600436106101e55760003560e01c806377caee291161010f578063af1c75f8116100a2578063e7c19ef311610071578063e7c19ef31461047d578063f0f9c73614610490578063f2fde38b146104a3578063ff109b97146104b657600080fd5b8063af1c75f814610431578063c87b56dd14610444578063d26488a014610457578063dfe0a1791461046a57600080fd5b80639dceff2f116100de5780639dceff2f146103d35780639e4aadc2146103e6578063a290d5ff146103f9578063a49d54f61461041e57600080fd5b806377caee29146103895780637d7f78401461039c5780638c1d808c146103af5780638da5cb5b146103c257600080fd5b8063533eacad116101875780635e874050116101565780635e8740501461032e57806363e42d741461034e5780636e4e24581461036e578063715018a61461038157600080fd5b8063533eacad146102b657806354ba5f9c146102e8578063576e3c70146102fb5780635c622a0e1461030e57600080fd5b80633ebda3df116101c35780633ebda3df1461024f578063490b8c05146102705780634ee2010214610290578063501f6ec2146102a357600080fd5b80631854f243146101ea57806332fec766146101ff578063375f2b961461022f575b600080fd5b6101fd6101f8366004612894565b6104c9565b005b600854610212906001600160a01b031681565b6040516001600160a01b0390911681526020015b60405180910390f35b61024261023d366004612dad565b61051e565b6040516102269190613856565b61026261025d366004612d2d565b6105c1565b604051908152602001610226565b61028361027e366004612b88565b6105e2565b60405161022691906138a9565b61021261029e366004612d2d565b6107d2565b6102626102b1366004612d2d565b61090e565b6102c96102c4366004612d5d565b610a99565b604080516001600160a01b039093168352602083019190915201610226565b6102836102f6366004612b88565b610aeb565b610262610309366004612d2d565b611035565b61032161031c366004612d2d565b611199565b60405161022691906138bc565b61034161033c366004612d2d565b611312565b6040516102269190613919565b61036161035c366004612d7e565b6113ee565b60405161022691906137f6565b600154610212906001600160a01b031681565b6101fd6115cd565b6101fd610397366004612894565b611603565b6102426103aa366004612d2d565b61164f565b6102626103bd366004612a51565b611ca7565b6000546001600160a01b0316610212565b6101fd6103e1366004612894565b611cde565b600954610212906001600160a01b031681565b61040e6104073660046129e4565b9392505050565b6040519015158152602001610226565b61026261042c366004612b88565b611d2a565b61026261043f366004612d2d565b611d4a565b610283610452366004612d2d565b611d5a565b6101fd6104653660046128cc565b611e67565b610262610478366004612d2d565b6120ca565b61026261048b366004612d2d565b6120da565b600754610212906001600160a01b031681565b6101fd6104b1366004612894565b6120ea565b6102626104c4366004612d2d565b612185565b6000546001600160a01b031633146104fc5760405162461bcd60e51b81526004016104f3906138e4565b60405180910390fd5b600880546001600160a01b0319166001600160a01b0392909216919091179055565b606060068260ff168154811061054457634e487b7160e01b600052603260045260246000fd5b90600052602060002001805480602002602001604051908101604052809291908181526020016000905b828210156105b6576000848152602090819020604080518082019091526002850290910180546001600160a01b0316825260019081015482840152908352909201910161056e565b505050509050919050565b600481815481106105d157600080fd5b600091825260209091200154905081565b60408051602081019091526000808252606091905b8360a00151518110156107505760075460a085015180516000926001600160a01b031691908490811061063a57634e487b7160e01b600052603260045260246000fd5b6020026020010151600001516001600160a01b03161461067357604051806040016040528060018152602001604960f81b81525061068e565b604051806040016040528060018152602001605360f81b8152505b9050600060018660a00151516106a49190613a6b565b83146106c957604051806040016040528060018152602001600b60fa1b8152506106da565b604051806020016040528060008152505b905083826107168860a00151868151811061070557634e487b7160e01b600052603260045260246000fd5b60200260200101516020015161233f565b8360405160200161072a9493929190612f51565b60405160208183030381529060405293505050808061074890613ab2565b9150506105f7565b50600083602001518460400151610770866060015163ffffffff1661233f565b610783876080015163ffffffff1661233f565b85604051602001610798959493929190613493565b6040516020818303038152906040529050806040516020016107ba9190612ec0565b60408051601f19818403018152919052949350505050565b600154604051630d9d9a3560e21b81526004810183905260009182916001600160a01b039091169063367668d49060240160006040518083038186803b15801561081b57600080fd5b505afa15801561082f573d6000803e3d6000fd5b505050506040513d6000823e601f3d908101601f191682016040526108579190810190612c62565b60075460a082015180519293506001600160a01b0390911691636352211e919060009061089457634e487b7160e01b600052603260045260246000fd5b6020026020010151602001516040518263ffffffff1660e01b81526004016108be91815260200190565b60206040518083038186803b1580156108d657600080fd5b505afa1580156108ea573d6000803e3d6000fd5b505050506040513d601f19601f8201168201806040525081019061040791906128b0565b600154604051630d9d9a3560e21b81526004810183905260009182916001600160a01b039091169063367668d49060240160006040518083038186803b15801561095757600080fd5b505afa15801561096b573d6000803e3d6000fd5b505050506040513d6000823e601f3d908101601f191682016040526109939190810190612c62565b6001546040516301c029f160e11b8152600481018690529192506000916001600160a01b039091169063038053e29060240160206040518083038186803b1580156109dd57600080fd5b505afa1580156109f1573d6000803e3d6000fd5b505050506040513d601f19601f82011682018060405250810190610a159190612d45565b90506000610a238243613a6b565b90506000610a3084611d2a565b905060786000610a4082846139fd565b90506000818760a001515183610a569190613a4c565b610a609087613acd565b610a6a9190613a15565b905060008760a0015151826001610a8191906139fd565b610a8b9190613acd565b9a9950505050505050505050565b60068281548110610aa957600080fd5b906000526020600020018181548110610ac157600080fd5b6000918252602090912060029091020180546001909101546001600160a01b039091169250905082565b6060600082602001518360400151610b0c856060015163ffffffff1661233f565b604051602001610b1c9190612fde565b604051602081830303815290604052610b3e866080015163ffffffff1661233f565b604051602001610b4e9190612fb5565b60408051601f1981840301815290829052610b6e949392916020016131f1565b60408051601f198184030181526020830190915260008083529092505b8460a0015151811015610cd35760075460a086015180516000926001600160a01b0316919084908110610bce57634e487b7160e01b600052603260045260246000fd5b6020026020010151600001516001600160a01b031614610c0757604051806040016040528060018152602001604960f81b815250610c22565b604051806040016040528060018152602001605360f81b8152505b9050600060018760a0015151610c389190613a6b565b8314610c5d57604051806040016040528060018152602001600b60fa1b815250610c6e565b604051806020016040528060008152505b90508382610c998960a00151868151811061070557634e487b7160e01b600052603260045260246000fd5b83604051602001610cad9493929190612ee7565b604051602081830303815290604052935050508080610ccb90613ab2565b915050610b8b565b506000610ce38560000151611199565b90506000610cf48660000151611312565b90506000610d05876000015161164f565b60408051602081019091526000808252919250905b8251811015610e8d57600060018451610d339190613a6b565b8214610d595760405180604001604052806002815260200161016160f51b815250610d6a565b604051806020016040528060008152505b905082610db4670de0b6b3a7640000868581518110610d9957634e487b7160e01b600052603260045260246000fd5b602002602001015160200151610daf9190613a15565b61233f565b858481518110610dd457634e487b7160e01b600052603260045260246000fd5b6020026020010151600001516001600160a01b03166395d89b416040518163ffffffff1660e01b815260040160006040518083038186803b158015610e1857600080fd5b505afa158015610e2c573d6000803e3d6000fd5b505050506040513d6000823e601f3d908101601f19168201604052610e549190810190612ad3565b83604051602001610e689493929190612e58565b6040516020818303038152906040529250508080610e8590613ab2565b915050610d1a565b50856002856002811115610eb157634e487b7160e01b600052602160045260246000fd5b14610f2f576000856002811115610ed857634e487b7160e01b600052602160045260246000fd5b14610f06576040518060400160405280600b81526020016a029b0b4b634b733903a37960ad1b815250610f54565b6040518060400160405280600b81526020016a02932b9ba34b7339030ba160ad1b815250610f54565b6040518060400160405280600b81526020016a02430b93b32b9ba34b733960ad1b8152505b60075485516001600160a01b03908116911614610f8a57604051806040016040528060018152602001604960f81b815250610fa5565b604051806040016040528060018152602001605360f81b8152505b610fb2866020015161233f565b610fc2610daf8d60000151611035565b604051602001610fd291906137b8565b60408051601f1981840301815290829052610ff595949392918b90602001613005565b60405160208183030381529060405295508581604051602001611019929190612e11565b60408051601f1981840301815291905298975050505050505050565b600154604051630d9d9a3560e21b81526004810183905260009182916001600160a01b039091169063367668d49060240160006040518083038186803b15801561107e57600080fd5b505afa158015611092573d6000803e3d6000fd5b505050506040513d6000823e601f3d908101601f191682016040526110ba9190810190612c62565b6001546040516301c029f160e11b8152600481018690529192506000916001600160a01b039091169063038053e29060240160206040518083038186803b15801561110457600080fd5b505afa158015611118573d6000803e3d6000fd5b505050506040513d601f19601f8201168201806040525081019061113c9190612d45565b9050600061114a8243613a6b565b9050600061115784611d2a565b90506078600061116782846139fd565b905060006111758286613acd565b9050600084821061118f5761118a8284613a6b565b610a8b565b610a8b8286613a6b565b600154604051630d9d9a3560e21b81526004810183905260009182916001600160a01b039091169063367668d49060240160006040518083038186803b1580156111e257600080fd5b505afa1580156111f6573d6000803e3d6000fd5b505050506040513d6000823e601f3d908101601f1916820160405261121e9190810190612c62565b6001546040516301c029f160e11b8152600481018690529192506000916001600160a01b039091169063038053e29060240160206040518083038186803b15801561126857600080fd5b505afa15801561127c573d6000803e3d6000fd5b505050506040513d601f19601f820116820180604052508101906112a09190612d45565b905060006112ae8243613a6b565b905060006112bb84611d2a565b9050607860006112cb82846139fd565b6112d59085613acd565b905060006112e28961090e565b90506000848310156112f5576001610a8b565b8115611302576002610a8b565b60009a9950505050505050505050565b604080518082019091526000808252602082015260006113318361090e565b600154604051630d9d9a3560e21b8152600481018690529192506000916001600160a01b039091169063367668d49060240160006040518083038186803b15801561137b57600080fd5b505afa15801561138f573d6000803e3d6000fd5b505050506040513d6000823e601f3d908101601f191682016040526113b79190810190612c62565b90508060a0015182815181106113dd57634e487b7160e01b600052603260045260246000fd5b602002602001015192505050919050565b6060600060028360ff168154811061141657634e487b7160e01b600052603260045260246000fd5b906000526020600020015490506000816001600160401b0381111561144b57634e487b7160e01b600052604160045260246000fd5b60405190808252806020026020018201604052801561149057816020015b60408051808201909152600080825260208201528152602001906001900390816114695790505b50604051607360f81b6020820152602181018790529091506000906114c9906041016040516020818303038152906040526126ac611ca7565b604080518082019091526007546001600160a01b0316815260208101829052835191925090839060009061150d57634e487b7160e01b600052603260045260246000fd5b602090810291909101015260015b82518110156115c057600061155c8289604051602001611545929190918252602082015260400190565b604051602081830303815290604052612710611ca7565b604080518082019091526008546001600160a01b03168152602081018290528551919250908590849081106115a157634e487b7160e01b600052603260045260246000fd5b60200260200101819052505080806115b890613ab2565b91505061151b565b5090925050505b92915050565b6000546001600160a01b031633146115f75760405162461bcd60e51b81526004016104f3906138e4565b6116016000612460565b565b6000546001600160a01b0316331461162d5760405162461bcd60e51b81526004016104f3906138e4565b600780546001600160a01b0319166001600160a01b0392909216919091179055565b600154604051630d9d9a3560e21b8152600481018390526060916000916001600160a01b039091169063367668d49060240160006040518083038186803b15801561169957600080fd5b505afa1580156116ad573d6000803e3d6000fd5b505050506040513d6000823e601f3d908101601f191682016040526116d59190810190612c62565b60015460405163521e874960e01b8152600481018690529192506000916001600160a01b039091169063521e87499060240160806040518083038186803b15801561171f57600080fd5b505afa158015611733573d6000803e3d6000fd5b505050506040513d601f19601f820116820180604052508101906117579190612b05565b6001546040516301c029f160e11b8152600481018790529192506000916001600160a01b039091169063038053e29060240160206040518083038186803b1580156117a157600080fd5b505afa1580156117b5573d6000803e3d6000fd5b505050506040513d601f19601f820116820180604052508101906117d99190612d45565b905060006117e78243613a6b565b905060006117f485611d2a565b90506078600061180482846139fd565b905060008760a0015151826118199190613a4c565b9050600060018960a001515161182f9190613a6b565b6001600160401b0381111561185457634e487b7160e01b600052604160045260246000fd5b60405190808252806020026020018201604052801561189957816020015b60408051808201909152600080825260208201528152602001906001900390816118725790505b509050600060015b8a60a0015151811015611b5757600061012c60038c6020015160ff16815481106118db57634e487b7160e01b600052603260045260246000fd5b9060005260206000200154670de0b6b3a764000087858a6118fc9190613a4c565b611906908a613a6b565b611910908e6139fd565b61191a9190613a15565b6119249190613a4c565b61192e9190613a4c565b6119389190613a15565b60085460a08e0151805192935060009283926001600160a01b031691636997e8f6918790811061197857634e487b7160e01b600052603260045260246000fd5b6020026020010151602001516040518263ffffffff1660e01b81526004016119a291815260200190565b604080518083038186803b1580156119b957600080fd5b505afa1580156119cd573d6000803e3d6000fd5b505050506040513d601f19601f820116820180604052508101906119f19190612aa6565b9150915060008e60a0015151905060005b8751811015611a6657836001600160a01b0316888281518110611a3557634e487b7160e01b600052603260045260246000fd5b6020026020010151600001516001600160a01b03161415611a54578091505b80611a5e81613ab2565b915050611a02565b508315611b40578e60a00151518114611aba5783878281518110611a9a57634e487b7160e01b600052603260045260246000fd5b6020026020010151602001818151611ab291906139fd565b905250611b40565b83878781518110611adb57634e487b7160e01b600052603260045260246000fd5b6020026020010151602001818151611af391906139fd565b90525086518390889088908110611b1a57634e487b7160e01b600052603260045260246000fd5b60209081029190910101516001600160a01b039091169052611b3d6001876139fd565b95505b505050508080611b4f90613ab2565b9150506118a1565b506000611b658260016139fd565b6001600160401b03811115611b8a57634e487b7160e01b600052604160045260246000fd5b604051908082528060200260200182016040528015611bcf57816020015b6040805180820190915260008082526020820152815260200190600190039081611ba85790505b50905060005b82811015611c4357838181518110611bfd57634e487b7160e01b600052603260045260246000fd5b6020026020010151828281518110611c2557634e487b7160e01b600052603260045260246000fd5b60200260200101819052508080611c3b90613ab2565b915050611bd5565b50604080518082019091526009546001600160a01b0316815260208101611c698f612185565b815250818381518110611c8c57634e487b7160e01b600052603260045260246000fd5b60209081029190910101529c9b505050505050505050505050565b60008183604051602001611cbb91906138a9565b6040516020818303038152906040528051906020012060001c6104079190613acd565b6000546001600160a01b03163314611d085760405162461bcd60e51b81526004016104f3906138e4565b600180546001600160a01b0319166001600160a01b0392909216919091179055565b60008160800151610bb8611d3e9190613a29565b63ffffffff1692915050565b600381815481106105d157600080fd5b600154604051630d9d9a3560e21b8152600481018390526060916000916001600160a01b039091169063367668d49060240160006040518083038186803b158015611da457600080fd5b505afa158015611db8573d6000803e3d6000fd5b505050506040513d6000823e601f3d908101601f19168201604052611de09190810190612c62565b90506000611ded82610aeb565b90506000611dfa836105e2565b90506000611e3a611e0a8761233f565b611e13856124b0565b84604051602001611e269392919061366a565b6040516020818303038152906040526124b0565b905080604051602001611e4d919061344e565b604051602081830303815290604052945050505050919050565b6000546001600160a01b03163314611e915760405162461bcd60e51b81526004016104f3906138e4565b611e9d60066000612625565b60005b81518110156120c65760068054600101815560009081525b828281518110611ed857634e487b7160e01b600052603260045260246000fd5b6020026020010151518110156120b35760068281548110611f0957634e487b7160e01b600052603260045260246000fd5b600091825260208220018054600101815590528251839083908110611f3e57634e487b7160e01b600052603260045260246000fd5b60200260200101518181518110611f6557634e487b7160e01b600052603260045260246000fd5b60200260200101516000015160068381548110611f9257634e487b7160e01b600052603260045260246000fd5b906000526020600020018281548110611fbb57634e487b7160e01b600052603260045260246000fd5b906000526020600020906002020160000160006101000a8154816001600160a01b0302191690836001600160a01b0316021790555082828151811061201057634e487b7160e01b600052603260045260246000fd5b6020026020010151818151811061203757634e487b7160e01b600052603260045260246000fd5b6020026020010151602001516006838154811061206457634e487b7160e01b600052603260045260246000fd5b90600052602060002001828154811061208d57634e487b7160e01b600052603260045260246000fd5b6000918252602090912060016002909202010155806120ab81613ab2565b915050611eb8565b50806120be81613ab2565b915050611ea0565b5050565b600281815481106105d157600080fd5b600581815481106105d157600080fd5b6000546001600160a01b031633146121145760405162461bcd60e51b81526004016104f3906138e4565b6001600160a01b0381166121795760405162461bcd60e51b815260206004820152602660248201527f4f776e61626c653a206e6577206f776e657220697320746865207a65726f206160448201526564647265737360d01b60648201526084016104f3565b61218281612460565b50565b60015460405163521e874960e01b81526004810183905260009182916001600160a01b039091169063521e87499060240160806040518083038186803b1580156121ce57600080fd5b505afa1580156121e2573d6000803e3d6000fd5b505050506040513d601f19601f820116820180604052508101906122069190612b05565b6001546040516301c029f160e11b8152600481018690529192506000916001600160a01b039091169063038053e29060240160206040518083038186803b15801561225057600080fd5b505afa158015612264573d6000803e3d6000fd5b505050506040513d601f19601f820116820180604052508101906122889190612d45565b905060006122968243613a6b565b905060006103e8670de0b6b3a7640000836004876000015160ff16815481106122cf57634e487b7160e01b600052603260045260246000fd5b90600052602060002001546005886020015160ff168154811061230257634e487b7160e01b600052603260045260246000fd5b90600052602060002001546123179190613a4c565b6123219190613a4c565b61232b9190613a4c565b6123359190613a15565b9695505050505050565b6060816123635750506040805180820190915260018152600360fc1b602082015290565b8160005b811561238d578061237781613ab2565b91506123869050600a83613a15565b9150612367565b6000816001600160401b038111156123b557634e487b7160e01b600052604160045260246000fd5b6040519080825280601f01601f1916602001820160405280156123df576020820181803683370190505b5090505b8415612458576123f4600183613a6b565b9150612401600a86613acd565b61240c9060306139fd565b60f81b81838151811061242f57634e487b7160e01b600052603260045260246000fd5b60200101906001600160f81b031916908160001a905350612451600a86613a15565b94506123e3565b949350505050565b600080546001600160a01b038381166001600160a01b0319831681178455604051919092169283917f8be0079c531659141344cd1fd0a4f28419497f9722a3daafe3b4186f6b6457e09190a35050565b60608151600014156124d057505060408051602081019091526000815290565b6000604051806060016040528060408152602001613b5a60409139905060006003845160026124ff91906139fd565b6125099190613a15565b612514906004613a4c565b905060006125238260206139fd565b6001600160401b0381111561254857634e487b7160e01b600052604160045260246000fd5b6040519080825280601f01601f191660200182016040528015612572576020820181803683370190505b509050818152600183018586518101602084015b818310156125e05760039283018051603f601282901c811687015160f890811b8552600c83901c8216880151811b6001860152600683901c8216880151811b60028601529116860151901b93820193909352600401612586565b6003895106600181146125fa576002811461260b57612617565b613d3d60f01b600119830152612617565b603d60f81b6000198301525b509398975050505050505050565b508054600082559060005260206000209081019061218291905b8082111561265c5760006126538282612660565b5060010161263f565b5090565b508054600082556002029060005260206000209081019061218291905b8082111561265c5780546001600160a01b03191681556000600182015560020161267d565b60006126b56126b0846139d6565b613983565b90508281528383830111156126c957600080fd5b828260208301376000602084830101529392505050565b600082601f8301126126f0578081fd5b813560206127006126b0836139b3565b80838252828201915082860187848660061b890101111561271f578586fd5b855b8581101561274857612733898361283f565b84529284019260409190910190600101612721565b5090979650505050505050565b600082601f830112612765578081fd5b815160206127756126b0836139b3565b80838252828201915082860187848660061b8901011115612794578586fd5b855b8581101561274857604080838b0312156127ae578788fd5b6127b6613939565b83516127c181613b23565b8152838701518782015285529385019390910190600101612796565b600082601f8301126127ed578081fd5b610407838335602085016126a2565b600082601f83011261280c578081fd5b815161281a6126b0826139d6565b81815284602083860101111561282e578283fd5b612458826020830160208701613a82565b600060408284031215612850578081fd5b612858613939565b9050813561286581613b23565b808252506020820135602082015292915050565b803561288481613b38565b919050565b805161288481613b38565b6000602082840312156128a5578081fd5b813561040781613b23565b6000602082840312156128c1578081fd5b815161040781613b23565b6000602082840312156128dd578081fd5b6001600160401b0380833511156128f2578182fd5b8235830184601f820112612904578283fd5b80356129126126b0826139b3565b80828252602082019150602084018860208560051b8701011115612934578687fd5b865b848110156129d657868235111561294b578788fd5b813586018a603f82011261295d578889fd5b602081013561296e6126b0826139b3565b80828252602082019150604084018e60408560061b8701011115612990578c8dfd5b8c94505b838510156129bd576129a68f8261283f565b835260019490940193602090920191604001612994565b5087525050602094850194929092019150600101612936565b509098975050505050505050565b600080600080608085870312156129f9578283fd5b84356001600160401b03811115612a0e578384fd5b612a1a878288016126e0565b945050602085013592506040850135612a3281613b23565b915060608501358015158114612a46578182fd5b939692955090935050565b60008060408385031215612a63578182fd5b82356001600160401b03811115612a78578283fd5b8301601f81018513612a88578283fd5b612a97858235602084016126a2565b95602094909401359450505050565b60008060408385031215612ab8578182fd5b8251612ac381613b23565b6020939093015192949293505050565b600060208284031215612ae4578081fd5b81516001600160401b03811115612af9578182fd5b612458848285016127fc565b600060808284031215612b16578081fd5b604051608081018181106001600160401b0382111715612b3857612b38613b0d565b6040528251612b4681613b4a565b81526020830151612b5681613b4a565b60208201526040830151612b6981613b38565b60408201526060830151612b7c81613b38565b60608201529392505050565b600060208284031215612b99578081fd5b81356001600160401b0380821115612baf578283fd5b9083019060c08286031215612bc2578283fd5b612bca613961565b82358152602083013582811115612bdf578485fd5b612beb878286016127dd565b602083015250604083013582811115612c02578485fd5b612c0e878286016127dd565b604083015250612c2060608401612879565b6060820152612c3160808401612879565b608082015260a083013582811115612c47578485fd5b612c53878286016126e0565b60a08301525095945050505050565b600060208284031215612c73578081fd5b81516001600160401b0380821115612c89578283fd5b9083019060c08286031215612c9c578283fd5b612ca4613961565b82518152602083015182811115612cb9578485fd5b612cc5878286016127fc565b602083015250604083015182811115612cdc578485fd5b612ce8878286016127fc565b604083015250612cfa60608401612889565b6060820152612d0b60808401612889565b608082015260a083015182811115612d21578485fd5b612c5387828601612755565b600060208284031215612d3e578081fd5b5035919050565b600060208284031215612d56578081fd5b5051919050565b60008060408385031215612d6f578182fd5b50508035926020909101359150565b60008060408385031215612d90578182fd5b823591506020830135612da281613b4a565b809150509250929050565b600060208284031215612dbe578081fd5b813561040781613b4a565b60008151808452612de1816020860160208601613a82565b601f01601f19169290920160200192915050565b60008151612e07818560208601613a82565b9290920192915050565b60008351612e23818460208801613a82565b835190830190612e37818360208801613a82565b6c1e17ba32bc3a1f1e17b9bb339f60991b9101908152600d01949350505050565b60008551612e6a818460208a01613a82565b855190830190612e7e818360208a01613a82565b61080960f21b91019081528451612e9c816002840160208901613a82565b8451910190612eb2816002840160208801613a82565b016002019695505050505050565b60008251612ed2818460208701613a82565b62207d5d60e81b920191825250600301919050565b60008551612ef9818460208a01613a82565b600160fd1b9083019081528551612f17816001840160208a01613a82565b8551910190612f2d816001840160208901613a82565b8451910190612f43816001840160208801613a82565b016001019695505050505050565b60008551612f63818460208a01613a82565b601160f91b9083018181528651909190612f84816001850160208b01613a82565b8651920191612f9a816001850160208a01613a82565b60019201918201528351612eb2816002840160208801613a82565b60008251612fc7818460208701613a82565b64040d6da5ed60db1b920191825250600501919050565b60008251612ff0818460208701613a82565b6208199d60ea1b920191825250600301919050565b60008751613017818460208c01613a82565b6b2d2d2d2d2d2d2d2d2d2d2d2d60a01b9083019081527f3c2f746578743e3c7465787420783d2231302220793d223132302220636c6173600c82015267399e913a3c3a111f60c11b602c820181905267029ba30ba3ab99d160c51b6034830152885161308a81603c850160208d01613a82565b88519201916130a081603c850160208c01613a82565b87519201916130b681603c850160208b01613a82565b7f3c2f746578743e3c7465787420783d2231302220793d223134302220636c6173603c9390910192830152605c8201526131e46131aa61319261315861315261313f613105606488018c612df5565b7f3c2f746578743e3c7465787420783d2231302220793d223136302220636c6173815267399e913a3c3a111f60c11b602082015260280190565b6602937baba329d160cd1b815260070190565b88612df5565b7f3c2f746578743e3c7465787420783d2231302220793d223138302220636c6173815267399e913a3c3a111f60c11b602082015260280190565b6b2d2d2d2d2d2d2d2d2d2d2d2d60a01b8152600c0190565b7f3c2f746578743e3c7465787420783d2231302220793d223230302220636c6173815267399e913a3c3a111f60c11b602082015260280190565b9998505050505050505050565b7f3c73766720786d6c6e733d22687474703a2f2f7777772e77332e6f72672f323081527f30302f73766722207072657365727665417370656374526174696f3d22784d6960208201527f6e594d696e206d656574222076696577426f783d22302030203335302033353060408201527f223e3c7374796c653e2e747874207b2066696c6c3a20626c61636b3b20666f6e60608201527f742d66616d696c793a206d6f6e6f73706163653b20666f6e742d73697a653a2060808201527f313270783b7d3c2f7374796c653e3c726563742077696474683d22313030252260a08201527f206865696768743d2231303025222066696c6c3d22776869746522202f3e3c7460c08201527f65787420783d2231302220793d2232302220636c6173733d22747874223e000060e0820152600085516133338160fe850160208a01613a82565b7f3c2f746578743e3c7465787420783d2231302220793d2234302220636c61737360fe91840191820152661e913a3c3a111f60c91b61011e8201526134436134096134036133ca6133c461338b61012587018c612df5565b7f3c2f746578743e3c7465787420783d2231302220793d2236302220636c6173738152661e913a3c3a111f60c91b602082015260270190565b89612df5565b7f3c2f746578743e3c7465787420783d2231302220793d2238302220636c6173738152661e913a3c3a111f60c91b602082015260270190565b86612df5565b7f3c2f746578743e3c7465787420783d2231302220793d223130302220636c6173815267399e913a3c3a111f60c11b602082015260280190565b979650505050505050565b7f646174613a6170706c69636174696f6e2f6a736f6e3b6261736536342c00000081526000825161348681601d850160208701613a82565b91909101601d0192915050565b7f5b7b202274726169745f74797065223a20224e616d65222c202276616c7565228152621d101160e91b6020820152600086516134d7816023850160208b01613a82565b7f22207d2c207b202274726169745f74797065223a202245787065646974696f6e6023918401918201526c111610113b30b63ab2911d101160991b6043820152865161352a816050840160208b01613a82565b7f22207d2c207b202274726169745f74797065223a20224c656e67746820286674605092909101918201527f29222c2022646973706c61795f74797065223a20226e756d626572222c202276607082015266030b63ab2911d160cd1b6090820152855161359e816097840160208a01613a82565b6131e461365d6136576136186136126097868801017f207d2c207b202274726169745f74797065223a2022537065656420286b6d2f6881527f29222c2022646973706c61795f74797065223a20226e756d626572222c202276602082015266030b63ab2911d160cd1b604082015260470190565b8a612df5565b7f207d2c207b202274726169745f74797065223a2022547261646520526f75746581526c222c202276616c7565223a205b60981b6020820152602d0190565b87612df5565b605d60f81b815260010190565b6f7b226e616d65223a202253686970202360801b81528351600090613696816010850160208901613a82565b7f222c20226465736372697074696f6e223a202253686970732063616e207361696010918401918201527f6c2061726f756e642074686520536574746c656d656e747320776f726c64207460308201527f6f2074726164652c20646973636f76657220616e642061747461636b2e20416c60508201527f6c2064617461206973206f6e636861696e2e222c2022696d616765223a20226460708201527f6174613a696d6167652f7376672b786d6c3b6261736536342c000000000000006090820152845161376b8160a9840160208901613a82565b7001116101130ba3a3934b13aba32b9911d1607d1b60a99290910191820152835161379d8160ba840160208801613a82565b607d60f81b60ba929091019182015260bb0195945050505050565b64022aa209d160dd1b8152600082516137d8816005850160208701613a82565b6620626c6f636b7360c81b6005939091019283015250600c01919050565b602080825282518282018190526000919060409081850190868401855b828110156138495761383984835180516001600160a01b03168252602090810151910152565b9284019290850190600101613813565b5091979650505050505050565b602080825282518282018190526000919060409081850190868401855b828110156138495761389984835180516001600160a01b03168252602090810151910152565b9284019290850190600101613873565b6020815260006104076020830184612dc9565b60208101600383106138de57634e487b7160e01b600052602160045260246000fd5b91905290565b6020808252818101527f4f776e61626c653a2063616c6c6572206973206e6f7420746865206f776e6572604082015260600190565b81516001600160a01b0316815260208083015190820152604081016115c7565b604080519081016001600160401b038111828210171561395b5761395b613b0d565b60405290565b60405160c081016001600160401b038111828210171561395b5761395b613b0d565b604051601f8201601f191681016001600160401b03811182821017156139ab576139ab613b0d565b604052919050565b60006001600160401b038211156139cc576139cc613b0d565b5060051b60200190565b60006001600160401b038211156139ef576139ef613b0d565b50601f01601f191660200190565b60008219821115613a1057613a10613ae1565b500190565b600082613a2457613a24613af7565b500490565b600063ffffffff80841680613a4057613a40613af7565b92169190910492915050565b6000816000190483118215151615613a6657613a66613ae1565b500290565b600082821015613a7d57613a7d613ae1565b500390565b60005b83811015613a9d578181015183820152602001613a85565b83811115613aac576000848401525b50505050565b6000600019821415613ac657613ac6613ae1565b5060010190565b600082613adc57613adc613af7565b500690565b634e487b7160e01b600052601160045260246000fd5b634e487b7160e01b600052601260045260246000fd5b634e487b7160e01b600052604160045260246000fd5b6001600160a01b038116811461218257600080fd5b63ffffffff8116811461218257600080fd5b60ff8116811461218257600080fdfe4142434445464748494a4b4c4d4e4f505152535455565758595a6162636465666768696a6b6c6d6e6f707172737475767778797a303132333435363738392b2fa2646970667358221220b133d70444019632569e2fc2a84606385a16296e49335934cdb3e3b6f87cb6d764736f6c63430008040033",
  "devdoc": {
    "kind": "dev",
    "methods": {
      "owner()": {
        "details": "Returns the address of the current owner."
      },
      "renounceOwnership()": {
        "details": "Leaves the contract without owner. It will not be possible to call `onlyOwner` functions anymore. Can only be called by the current owner. NOTE: Renouncing ownership will leave the contract without an owner, thereby removing any functionality that is only available to the owner."
      },
      "transferOwnership(address)": {
        "details": "Transfers ownership of the contract to a new account (`newOwner`). Can only be called by the current owner."
      }
    },
    "version": 1
  },
  "userdoc": {
    "kind": "user",
    "methods": {
      "getStatus(uint256)": {
        "notice": "Getters "
      },
      "setShipsContract(address)": {
        "notice": "Setters "
      }
    },
    "version": 1
  },
  "storageLayout": {
    "storage": [
      {
        "astId": 7,
        "contract": "contracts/ShipsHelper.sol:ShipsHelper",
        "label": "_owner",
        "offset": 0,
        "slot": "0",
        "type": "t_address"
      },
      {
        "astId": 8969,
        "contract": "contracts/ShipsHelper.sol:ShipsHelper",
        "label": "shipsContract",
        "offset": 0,
        "slot": "1",
        "type": "t_contract(Ships)8949"
      },
      {
        "astId": 8978,
        "contract": "contracts/ShipsHelper.sol:ShipsHelper",
        "label": "nameToMaxRouteLength",
        "offset": 0,
        "slot": "2",
        "type": "t_array(t_uint256)dyn_storage"
      },
      {
        "astId": 8987,
        "contract": "contracts/ShipsHelper.sol:ShipsHelper",
        "label": "expeditionMultipliers",
        "offset": 0,
        "slot": "3",
        "type": "t_array(t_uint256)dyn_storage"
      },
      {
        "astId": 8996,
        "contract": "contracts/ShipsHelper.sol:ShipsHelper",
        "label": "setlNameMultipliers",
        "offset": 0,
        "slot": "4",
        "type": "t_array(t_uint256)dyn_storage"
      },
      {
        "astId": 9005,
        "contract": "contracts/ShipsHelper.sol:ShipsHelper",
        "label": "setlExpeditionMultipliers",
        "offset": 0,
        "slot": "5",
        "type": "t_array(t_uint256)dyn_storage"
      },
      {
        "astId": 9010,
        "contract": "contracts/ShipsHelper.sol:ShipsHelper",
        "label": "nameToCost",
        "offset": 0,
        "slot": "6",
        "type": "t_array(t_array(t_struct(TokenHarvest)8159_storage)dyn_storage)dyn_storage"
      },
      {
        "astId": 9013,
        "contract": "contracts/ShipsHelper.sol:ShipsHelper",
        "label": "settlementsContract",
        "offset": 0,
        "slot": "7",
        "type": "t_contract(SettlementsV2)8112"
      },
      {
        "astId": 9016,
        "contract": "contracts/ShipsHelper.sol:ShipsHelper",
        "label": "islandsContract",
        "offset": 0,
        "slot": "8",
        "type": "t_contract(Islands)5833"
      },
      {
        "astId": 9019,
        "contract": "contracts/ShipsHelper.sol:ShipsHelper",
        "label": "setlTokenAddress",
        "offset": 0,
        "slot": "9",
        "type": "t_contract(ERC20Mintable)4115"
      }
    ],
    "types": {
      "t_address": {
        "encoding": "inplace",
        "label": "address",
        "numberOfBytes": "20"
      },
      "t_array(t_array(t_struct(TokenHarvest)8159_storage)dyn_storage)dyn_storage": {
        "base": "t_array(t_struct(TokenHarvest)8159_storage)dyn_storage",
        "encoding": "dynamic_array",
        "label": "struct Ships.TokenHarvest[][]",
        "numberOfBytes": "32"
      },
      "t_array(t_struct(TokenHarvest)8159_storage)dyn_storage": {
        "base": "t_struct(TokenHarvest)8159_storage",
        "encoding": "dynamic_array",
        "label": "struct Ships.TokenHarvest[]",
        "numberOfBytes": "32"
      },
      "t_array(t_uint256)dyn_storage": {
        "base": "t_uint256",
        "encoding": "dynamic_array",
        "label": "uint256[]",
        "numberOfBytes": "32"
      },
      "t_contract(ERC20Mintable)4115": {
        "encoding": "inplace",
        "label": "contract ERC20Mintable",
        "numberOfBytes": "20"
      },
      "t_contract(Islands)5833": {
        "encoding": "inplace",
        "label": "contract Islands",
        "numberOfBytes": "20"
      },
      "t_contract(SettlementsV2)8112": {
        "encoding": "inplace",
        "label": "contract SettlementsV2",
        "numberOfBytes": "20"
      },
      "t_contract(Ships)8949": {
        "encoding": "inplace",
        "label": "contract Ships",
        "numberOfBytes": "20"
      },
      "t_struct(TokenHarvest)8159_storage": {
        "encoding": "inplace",
        "label": "struct Ships.TokenHarvest",
        "members": [
          {
            "astId": 8156,
            "contract": "contracts/ShipsHelper.sol:ShipsHelper",
            "label": "resourceTokenContract",
            "offset": 0,
            "slot": "0",
            "type": "t_address"
          },
          {
            "astId": 8158,
            "contract": "contracts/ShipsHelper.sol:ShipsHelper",
            "label": "amount",
            "offset": 0,
            "slot": "1",
            "type": "t_uint256"
          }
        ],
        "numberOfBytes": "64"
      },
      "t_uint256": {
        "encoding": "inplace",
        "label": "uint256",
        "numberOfBytes": "32"
      }
    }
  }
}