{
  "address": "0xa9F1Ab0ED7E50b23614826500ccB2dCB6b3b9c90",
  "abi": [
    {
      "inputs": [
        {
          "internalType": "string",
          "name": "size",
          "type": "string"
        },
        {
          "internalType": "string",
          "name": "spirit",
          "type": "string"
        },
        {
          "internalType": "string",
          "name": "age",
          "type": "string"
        },
        {
          "internalType": "string",
          "name": "resource",
          "type": "string"
        },
        {
          "internalType": "string",
          "name": "morale",
          "type": "string"
        },
        {
          "internalType": "string",
          "name": "government",
          "type": "string"
        },
        {
          "internalType": "string",
          "name": "realm",
          "type": "string"
        },
        {
          "internalType": "uint256",
          "name": "unharvestedTokenAmount",
          "type": "uint256"
        },
        {
          "internalType": "string",
          "name": "tokenSymbol",
          "type": "string"
        }
      ],
      "name": "_makeAttributeParts",
      "outputs": [
        {
          "internalType": "string[18]",
          "name": "",
          "type": "string[18]"
        }
      ],
      "stateMutability": "pure",
      "type": "function"
    },
    {
      "inputs": [
        {
          "internalType": "string[18]",
          "name": "parts",
          "type": "string[18]"
        }
      ],
      "name": "_makeLegacyAttributeParts",
      "outputs": [
        {
          "internalType": "string[18]",
          "name": "",
          "type": "string[18]"
        }
      ],
      "stateMutability": "pure",
      "type": "function"
    },
    {
      "inputs": [
        {
          "internalType": "string",
          "name": "size",
          "type": "string"
        },
        {
          "internalType": "string",
          "name": "spirit",
          "type": "string"
        },
        {
          "internalType": "string",
          "name": "age",
          "type": "string"
        },
        {
          "internalType": "string",
          "name": "resource",
          "type": "string"
        },
        {
          "internalType": "string",
          "name": "morale",
          "type": "string"
        },
        {
          "internalType": "string",
          "name": "government",
          "type": "string"
        },
        {
          "internalType": "string",
          "name": "realm",
          "type": "string"
        }
      ],
      "name": "_makeLegacyParts",
      "outputs": [
        {
          "internalType": "string[18]",
          "name": "",
          "type": "string[18]"
        }
      ],
      "stateMutability": "pure",
      "type": "function"
    },
    {
      "inputs": [
        {
          "internalType": "string",
          "name": "size",
          "type": "string"
        },
        {
          "internalType": "string",
          "name": "spirit",
          "type": "string"
        },
        {
          "internalType": "string",
          "name": "age",
          "type": "string"
        },
        {
          "internalType": "string",
          "name": "resource",
          "type": "string"
        },
        {
          "internalType": "string",
          "name": "morale",
          "type": "string"
        },
        {
          "internalType": "string",
          "name": "government",
          "type": "string"
        },
        {
          "internalType": "string",
          "name": "realm",
          "type": "string"
        },
        {
          "internalType": "uint256",
          "name": "unharvestedTokenAmount",
          "type": "uint256"
        },
        {
          "internalType": "string",
          "name": "tokenSymbol",
          "type": "string"
        }
      ],
      "name": "_makeParts",
      "outputs": [
        {
          "internalType": "string[18]",
          "name": "",
          "type": "string[18]"
        }
      ],
      "stateMutability": "pure",
      "type": "function"
    },
    {
      "inputs": [
        {
          "components": [
            {
              "internalType": "string",
              "name": "size",
              "type": "string"
            },
            {
              "internalType": "string",
              "name": "spirit",
              "type": "string"
            },
            {
              "internalType": "string",
              "name": "age",
              "type": "string"
            },
            {
              "internalType": "string",
              "name": "resource",
              "type": "string"
            },
            {
              "internalType": "string",
              "name": "morale",
              "type": "string"
            },
            {
              "internalType": "string",
              "name": "government",
              "type": "string"
            },
            {
              "internalType": "string",
              "name": "realm",
              "type": "string"
            }
          ],
          "internalType": "struct TokenURI.TokenURIInput",
          "name": "tokenURIInput",
          "type": "tuple"
        },
        {
          "internalType": "uint256",
          "name": "unharvestedTokenAmount",
          "type": "uint256"
        },
        {
          "internalType": "string",
          "name": "tokenSymbol",
          "type": "string"
        },
        {
          "internalType": "bool",
          "name": "useLegacy",
          "type": "bool"
        },
        {
          "internalType": "uint256",
          "name": "tokenId",
          "type": "uint256"
        }
      ],
      "name": "tokenURI",
      "outputs": [
        {
          "internalType": "string",
          "name": "",
          "type": "string"
        }
      ],
      "stateMutability": "view",
      "type": "function"
    }
  ],
  "transactionHash": "0x7e8d12f0c99e3d8a637f3cb5b78676e917b056276844603df0a7b43995b70f33",
  "args": [],
  "solcInputHash": "51d20eb430c7e1da7613dfcdfa39ebae",
  "bytecode": "0x608060405234801561001057600080fd5b50611bb6806100206000396000f3fe608060405234801561001057600080fd5b50600436106100675760003560e01c8063778b75c211610050578063778b75c2146100b5578063a41a54a6146100c8578063cdac4745146100db57600080fd5b80630f14d01a1461006c5780632254adf714610095575b600080fd5b61007f61007a366004611036565b6100ee565b60405161008c91906116a8565b60405180910390f35b6100a86100a3366004610d46565b6103da565b60405161008c919061165a565b6100a86100c3366004610ef5565b610529565b6100a86100d6366004610ef5565b6106af565b6100a86100e9366004610de2565b610887565b60606100f8610c82565b610100610c82565b841561016857610131886000015189602001518a604001518b606001518c608001518d60a001518e60c00151610887565b91506101616100a389600001518a602001518b604001518c606001518d608001518e60a001518f60c00151610887565b90506101c7565b610195886000015189602001518a604001518b606001518c608001518d60a001518e60c001518e8e610529565b91506101c4886000015189602001518a604001518b606001518c608001518d60a001518e60c001518e8e6106af565b90505b81516020808401516040808601516060870151608088015160a089015160c08a015160e08b01516101008c0151965160009a6102079a90999891016112fb565b60408051808303601f19018152908290526101208501516101408601516101608701516101808801516101a08901516101c08a01516101e08b01516102008c015197995061025a988a98906020016112fb565b60408051808303601f1901815290829052610220850151909250610283918391906020016111e3565b60408051808303601f190181528282528451602080870151938701516060880151608089015160a08a015160c08b015160e08c01516101008d0151989b5060009a6102dd9a989996979596949593949293919291016112fb565b60408051808303601f19018152908290526101208501516101408601516101608701516101808801516101a08901516101c08a015195975061032496889690602001611269565b60408051808303601f19018152908290526101e085015161020086015161022087015192945061035993859390602001611212565b604051602081830303815290604052905060006103a8610378886109d2565b61038185610b0c565b84604051602001610394939291906114e4565b604051602081830303815290604052610b0c565b9050806040516020016103bb919061149f565b6040516020818303038152906040529550505050505095945050505050565b6103e2610c82565b6103ea610c82565b60405180606001604052806023815260200161186760239139815260208381015181830152604080516060810190915260298082529091611a259083013960408083019190915260608085015181840152815190810190915260268082526119b06020830139608082015260a080840151908201526040805160608101909152602b808252611ab6602083013960c082015260e0808401519082015260408051606081019091526029808252611ae1602083013961010082015261012080840151908201526040805160608101909152602d808252611813602083013961014082015261016080840151908201526040805160608101909152602880825261198860208301396101808201526101a092830151928101929092525060408051808201909152600481526322207d5d60e01b60208201526101c082015290565b610531610c82565b610539610c82565b60405180610120016040528060fe815260200161188a60fe9139815260208082018c90526040805160608101909152602780825290916119d69083013960408083019190915260608083018c905281519081019091526027808252611b0a6020830139608082015260a0810189905260408051606081019091526027808252611840602083013960c082015260e0810188905260408051606081019091526028808252611b5960208301396101008201526101208101879052604080516060810190915260288082526119fd6020830139610140820152610160810186905260408051606081019091526028808252611a8e60208301396101808201526101a0810185905260408051606081019091526028808252611b3160208301396101c082015282610677610672670de0b6b3a764000087611727565b6109d2565b60405160200161068892919061143b565b60408051601f1981840301815291905281600f5b60200201529a9950505050505050505050565b6106b7610c82565b6106bf610c82565b60405180606001604052806023815260200161186760239139815260208082018c9052604080516060810190915260298082529091611a259083013960408083019190915260608083018c9052815190810190915260268082526119b06020830139608082015260a081018990526040805160608101909152602b808252611ab6602083013960c082015260e0810188905260408051606081019091526029808252611ae1602083013961010082015261012081018790526040805160608101909152602d808252611813602083013961014082015261016081018690526040805160608101909152602880825261198860208301396101808201526101a0810185905260408051808201909152601581527f22207d2c207b202274726169745f74797065223a200000000000000000000000602082015281600e60200201819052508260405160200161081391906113bb565b60408051808303601f190181529190526101e082015261083e610672670de0b6b3a764000086611727565b60405160200161084e919061140d565b60408051808303601f1901815291815261020083019190915280518082019091526003815262207d5d60e81b602082015281601161069c565b61088f610c82565b610897610c82565b60405180610120016040528060fe815260200161188a60fe9139815260208082018a90526040805160608101909152602780825290916119d69083013960408083019190915260608083018a905281519081019091526027808252611b0a6020830139608082015260a0810187905260408051606081019091526027808252611840602083013960c082015260e0810186905260408051606081019091526028808252611b5960208301396101008201526101208101859052604080516060810190915260288082526119fd6020830139610140820152610160810184905260408051606081019091526028808252611a8e60208301396101808201526101a08101929092525060408051808201909152600d81526c1e17ba32bc3a1f1e17b9bb339f60991b60208201526101c08201529695505050505050565b6060816109f65750506040805180820190915260018152600360fc1b602082015290565b8160005b8115610a205780610a0a816117a1565b9150610a199050600a83611727565b91506109fa565b60008167ffffffffffffffff811115610a4957634e487b7160e01b600052604160045260246000fd5b6040519080825280601f01601f191660200182016040528015610a73576020820181803683370190505b5090505b8415610b0457610a8860018361175a565b9150610a95600a866117bc565b610aa090603061170f565b60f81b818381518110610ac357634e487b7160e01b600052603260045260246000fd5b60200101907effffffffffffffffffffffffffffffffffffffffffffffffffffffffffffff1916908160001a905350610afd600a86611727565b9450610a77565b949350505050565b6060815160001415610b2c57505060408051602081019091526000815290565b6000604051806060016040528060408152602001611a4e6040913990506000600384516002610b5b919061170f565b610b659190611727565b610b7090600461173b565b90506000610b7f82602061170f565b67ffffffffffffffff811115610ba557634e487b7160e01b600052604160045260246000fd5b6040519080825280601f01601f191660200182016040528015610bcf576020820181803683370190505b509050818152600183018586518101602084015b81831015610c3d5760039283018051603f601282901c811687015160f890811b8552600c83901c8216880151811b6001860152600683901c8216880151811b60028601529116860151901b93820193909352600401610be3565b600389510660018114610c575760028114610c6857610c74565b613d3d60f01b600119830152610c74565b603d60f81b6000198301525b509398975050505050505050565b6040518061024001604052806012905b6060815260200190600190039081610c925790505090565b80358015158114610cba57600080fd5b919050565b600082601f830112610ccf578081fd5b813567ffffffffffffffff80821115610cea57610cea6117fc565b604051601f8301601f19908116603f01168101908282118183101715610d1257610d126117fc565b81604052838152866020858801011115610d2a578485fd5b8360208701602083013792830160200193909352509392505050565b60006020808385031215610d58578182fd5b823567ffffffffffffffff80821115610d6f578384fd5b818501915085601f830112610d82578384fd5b610d8a6116c2565b80838861024086011115610d9c578687fd5b865b6012811015610dd457813585811115610db5578889fd5b610dc18b828901610cbf565b8552509286019290860190600101610d9e565b509098975050505050505050565b600080600080600080600060e0888a031215610dfc578283fd5b873567ffffffffffffffff80821115610e13578485fd5b610e1f8b838c01610cbf565b985060208a0135915080821115610e34578485fd5b610e408b838c01610cbf565b975060408a0135915080821115610e55578485fd5b610e618b838c01610cbf565b965060608a0135915080821115610e76578485fd5b610e828b838c01610cbf565b955060808a0135915080821115610e97578485fd5b610ea38b838c01610cbf565b945060a08a0135915080821115610eb8578384fd5b610ec48b838c01610cbf565b935060c08a0135915080821115610ed9578283fd5b50610ee68a828b01610cbf565b91505092959891949750929550565b60008060008060008060008060006101208a8c031215610f13578182fd5b893567ffffffffffffffff80821115610f2a578384fd5b610f368d838e01610cbf565b9a5060208c0135915080821115610f4b578384fd5b610f578d838e01610cbf565b995060408c0135915080821115610f6c578384fd5b610f788d838e01610cbf565b985060608c0135915080821115610f8d578384fd5b610f998d838e01610cbf565b975060808c0135915080821115610fae578384fd5b610fba8d838e01610cbf565b965060a08c0135915080821115610fcf578384fd5b610fdb8d838e01610cbf565b955060c08c0135915080821115610ff0578384fd5b610ffc8d838e01610cbf565b945060e08c013593506101008c0135915080821115611019578283fd5b506110268c828d01610cbf565b9150509295985092959850929598565b600080600080600060a0868803121561104d578081fd5b853567ffffffffffffffff80821115611064578283fd5b9087019060e0828a031215611077578283fd5b61107f6116ec565b82358281111561108d578485fd5b6110998b828601610cbf565b8252506020830135828111156110ad578485fd5b6110b98b828601610cbf565b6020830152506040830135828111156110d0578485fd5b6110dc8b828601610cbf565b6040830152506060830135828111156110f3578485fd5b6110ff8b828601610cbf565b606083015250608083013582811115611116578485fd5b6111228b828601610cbf565b60808301525060a083013582811115611139578485fd5b6111458b828601610cbf565b60a08301525060c08301358281111561115c578485fd5b6111688b828601610cbf565b60c083015250965060208801359550604088013591508082111561118a578283fd5b5061119788828901610cbf565b9350506111a660608701610caa565b949793965091946080013592915050565b600081518084526111cf816020860160208601611771565b601f01601f19169290920160200192915050565b600083516111f5818460208801611771565b835190830190611209818360208801611771565b01949350505050565b60008551611224818460208a01611771565b855190830190611238818360208a01611771565b855191019061124b818360208901611771565b845191019061125e818360208801611771565b019695505050505050565b60008851602061127c8285838e01611771565b89519184019161128f8184848e01611771565b89519201916112a18184848d01611771565b88519201916112b38184848c01611771565b87519201916112c58184848b01611771565b86519201916112d78184848a01611771565b85519201916112e98184848901611771565b919091019a9950505050505050505050565b60008a5161130d818460208f01611771565b8a5161131f8183860160208f01611771565b8a519184010190611334818360208e01611771565b89516113468183850160208e01611771565b895192909101019061135c818360208c01611771565b875161136e8183850160208c01611771565b8751929091010190611384818360208a01611771565b8551910190611397818360208901611771565b84516113a98183850160208901611771565b9101019b9a5050505050505050505050565b61088960f21b815281516000906113d9816002850160208701611771565b7f222c202276616c7565223a2000000000000000000000000000000000000000006002939091019283015250600e01919050565b6000601160f91b808352835161142a816001860160208801611771565b600193019283015250600201919050565b600960fa1b815260008351611457816001850160208801611771565b6101d160f51b6001918401918201528351611479816003840160208801611771565b6c1e17ba32bc3a1f1e17b9bb339f60991b60039290910191820152601001949350505050565b7f646174613a6170706c69636174696f6e2f6a736f6e3b6261736536342c0000008152600082516114d781601d850160208701611771565b91909101601d0192915050565b7f7b226e616d65223a2022536574746c656d656e7420230000000000000000000081526000845161151c816016850160208901611771565b7f222c20226465736372697074696f6e223a2022536574746c656d656e747320616016918401918201527f72652061207475726e20626173656420636976696c69736174696f6e2073696d60368201527f756c61746f722073746f72656420656e746972656c79206f6e20636861696e2c60568201527f20676f20666f72746820616e6420636f6e717565722e222c2022696d6167652260768201527f3a2022646174613a696d6167652f7376672b786d6c3b6261736536342c000000609682015284516115f18160b3840160208901611771565b601160f91b60b392909101918201527f2c2261747472696275746573223a00000000000000000000000000000000000060b482015283516116398160c2840160208801611771565b61164f60c282840101607d60f81b815260010190565b979650505050505050565b6020808252600090610260830183820185845b601281101561169c57601f1987850301835261168a8483516111b7565b9350918401919084019060010161166d565b50919695505050505050565b6020815260006116bb60208301846111b7565b9392505050565b604051610240810167ffffffffffffffff811182821017156116e6576116e66117fc565b60405290565b60405160e0810167ffffffffffffffff811182821017156116e6576116e66117fc565b60008219821115611722576117226117d0565b500190565b600082611736576117366117e6565b500490565b6000816000190483118215151615611755576117556117d0565b500290565b60008282101561176c5761176c6117d0565b500390565b60005b8381101561178c578181015183820152602001611774565b8381111561179b576000848401525b50505050565b60006000198214156117b5576117b56117d0565b5060010190565b6000826117cb576117cb6117e6565b500690565b634e487b7160e01b600052601160045260246000fd5b634e487b7160e01b600052601260045260246000fd5b634e487b7160e01b600052604160045260246000fdfe22207d2c207b202274726169745f74797065223a2022476f7665726e6d656e74222c202276616c7565223a20223c2f746578743e3c7465787420783d2231302220793d2238302220636c6173733d22747874223e5b7b202274726169745f74797065223a202253697a65222c202276616c7565223a20223c73766720786d6c6e733d22687474703a2f2f7777772e77332e6f72672f323030302f73766722207072657365727665417370656374526174696f3d22784d696e594d696e206d656574222076696577426f783d223020302033353020333530223e3c7374796c653e2e747874207b2066696c6c3a20626c61636b3b20666f6e742d66616d696c793a206d6f6e6f73706163653b20666f6e742d73697a653a20313270783b7d3c2f7374796c653e3c726563742077696474683d223130302522206865696768743d2231303025222066696c6c3d22776869746522202f3e3c7465787420783d2231302220793d2232302220636c6173733d22747874223e22207d2c207b202274726169745f74797065223a20225265616c6d222c202276616c7565223a202222207d2c207b202274726169745f74797065223a2022416765222c202276616c7565223a20223c2f746578743e3c7465787420783d2231302220793d2234302220636c6173733d22747874223e3c2f746578743e3c7465787420783d2231302220793d223132302220636c6173733d22747874223e22207d2c207b202274726169745f74797065223a2022537069726974222c202276616c7565223a20224142434445464748494a4b4c4d4e4f505152535455565758595a6162636465666768696a6b6c6d6e6f707172737475767778797a303132333435363738392b2f3c2f746578743e3c7465787420783d2231302220793d223134302220636c6173733d22747874223e22207d2c207b202274726169745f74797065223a20225265736f75726365222c202276616c7565223a202222207d2c207b202274726169745f74797065223a20224d6f72616c65222c202276616c7565223a20223c2f746578743e3c7465787420783d2231302220793d2236302220636c6173733d22747874223e3c2f746578743e3c7465787420783d2231302220793d223136302220636c6173733d22747874223e3c2f746578743e3c7465787420783d2231302220793d223130302220636c6173733d22747874223ea26469706673582212200ac095de0d16f62c4ad1259edf937a05f9a8ce15462828f4250a38f4f656316964736f6c63430008040033",
  "devdoc": {
    "kind": "dev",
    "methods": {},
    "version": 1
  },
  "userdoc": {
    "kind": "user",
    "methods": {},
    "version": 1
  },
  "storageLayout": {
    "storage": [],
    "types": null
  }
}