{
  "address": "0xb091913861CC5E70668729144CfB8c611A4004F0",
  "abi": [
    {
      "inputs": [
        {
          "internalType": "contract ERC20Mintable",
          "name": "goldTokenContract_",
          "type": "address"
        }
      ],
      "stateMutability": "nonpayable",
      "type": "constructor"
    },
    {
      "anonymous": false,
      "inputs": [
        {
          "indexed": true,
          "internalType": "address",
          "name": "owner",
          "type": "address"
        },
        {
          "indexed": true,
          "internalType": "address",
          "name": "approved",
          "type": "address"
        },
        {
          "indexed": true,
          "internalType": "uint256",
          "name": "tokenId",
          "type": "uint256"
        }
      ],
      "name": "Approval",
      "type": "event"
    },
    {
      "anonymous": false,
      "inputs": [
        {
          "indexed": true,
          "internalType": "address",
          "name": "owner",
          "type": "address"
        },
        {
          "indexed": true,
          "internalType": "address",
          "name": "operator",
          "type": "address"
        },
        {
          "indexed": false,
          "internalType": "bool",
          "name": "approved",
          "type": "bool"
        }
      ],
      "name": "ApprovalForAll",
      "type": "event"
    },
    {
      "anonymous": false,
      "inputs": [
        {
          "indexed": true,
          "internalType": "address",
          "name": "previousOwner",
          "type": "address"
        },
        {
          "indexed": true,
          "internalType": "address",
          "name": "newOwner",
          "type": "address"
        }
      ],
      "name": "OwnershipTransferred",
      "type": "event"
    },
    {
      "anonymous": false,
      "inputs": [
        {
          "indexed": true,
          "internalType": "address",
          "name": "from",
          "type": "address"
        },
        {
          "indexed": true,
          "internalType": "address",
          "name": "to",
          "type": "address"
        },
        {
          "indexed": true,
          "internalType": "uint256",
          "name": "tokenId",
          "type": "uint256"
        }
      ],
      "name": "Transfer",
      "type": "event"
    },
    {
      "inputs": [
        {
          "internalType": "address",
          "name": "to",
          "type": "address"
        },
        {
          "internalType": "uint256",
          "name": "tokenId",
          "type": "uint256"
        }
      ],
      "name": "approve",
      "outputs": [],
      "stateMutability": "nonpayable",
      "type": "function"
    },
    {
      "inputs": [
        {
          "internalType": "address",
          "name": "owner",
          "type": "address"
        }
      ],
      "name": "balanceOf",
      "outputs": [
        {
          "internalType": "uint256",
          "name": "",
          "type": "uint256"
        }
      ],
      "stateMutability": "view",
      "type": "function"
    },
    {
      "inputs": [
        {
          "internalType": "uint256",
          "name": "",
          "type": "uint256"
        }
      ],
      "name": "expeditions",
      "outputs": [
        {
          "internalType": "string",
          "name": "",
          "type": "string"
        }
      ],
      "stateMutability": "view",
      "type": "function"
    },
    {
      "inputs": [
        {
          "internalType": "uint256",
          "name": "tokenId",
          "type": "uint256"
        }
      ],
      "name": "getApproved",
      "outputs": [
        {
          "internalType": "address",
          "name": "",
          "type": "address"
        }
      ],
      "stateMutability": "view",
      "type": "function"
    },
    {
      "inputs": [
        {
          "internalType": "bytes",
          "name": "seed",
          "type": "bytes"
        },
        {
          "internalType": "uint256",
          "name": "maxValue",
          "type": "uint256"
        }
      ],
      "name": "getRandomNumber",
      "outputs": [
        {
          "internalType": "uint256",
          "name": "",
          "type": "uint256"
        }
      ],
      "stateMutability": "pure",
      "type": "function"
    },
    {
      "inputs": [
        {
          "internalType": "uint256",
          "name": "tokenId",
          "type": "uint256"
        }
      ],
      "name": "getSailingDuration",
      "outputs": [
        {
          "internalType": "uint256",
          "name": "",
          "type": "uint256"
        }
      ],
      "stateMutability": "view",
      "type": "function"
    },
    {
      "inputs": [
        {
          "internalType": "uint256",
          "name": "tokenId",
          "type": "uint256"
        }
      ],
      "name": "getShipInfo",
      "outputs": [
        {
          "components": [
            {
              "internalType": "uint256",
              "name": "tokenId",
              "type": "uint256"
            },
            {
              "internalType": "string",
              "name": "name",
              "type": "string"
            },
            {
              "internalType": "string",
              "name": "expedition",
              "type": "string"
            },
            {
              "internalType": "uint32",
              "name": "length",
              "type": "uint32"
            },
            {
              "internalType": "uint32",
              "name": "speed",
              "type": "uint32"
            },
            {
              "components": [
                {
                  "internalType": "address",
                  "name": "tokenContract",
                  "type": "address"
                },
                {
                  "internalType": "uint256",
                  "name": "tokenId",
                  "type": "uint256"
                }
              ],
              "internalType": "struct Ships.Path[]",
              "name": "route",
              "type": "tuple[]"
            }
          ],
          "internalType": "struct Ships.Ship",
          "name": "",
          "type": "tuple"
        }
      ],
      "stateMutability": "view",
      "type": "function"
    },
    {
      "inputs": [
        {
          "internalType": "uint256",
          "name": "tokenId",
          "type": "uint256"
        }
      ],
      "name": "getTokenIdToAttributes",
      "outputs": [
        {
          "components": [
            {
              "internalType": "uint8",
              "name": "name",
              "type": "uint8"
            },
            {
              "internalType": "uint8",
              "name": "expedition",
              "type": "uint8"
            },
            {
              "internalType": "uint32",
              "name": "length",
              "type": "uint32"
            },
            {
              "internalType": "uint32",
              "name": "speed",
              "type": "uint32"
            }
          ],
          "internalType": "struct Ships.Attributes",
          "name": "",
          "type": "tuple"
        }
      ],
      "stateMutability": "view",
      "type": "function"
    },
    {
      "inputs": [
        {
          "internalType": "uint256",
          "name": "tokenId",
          "type": "uint256"
        }
      ],
      "name": "getUnharvestedTokens",
      "outputs": [
        {
          "components": [
            {
              "internalType": "address",
              "name": "resourceTokenContract",
              "type": "address"
            },
            {
              "internalType": "uint256",
              "name": "amount",
              "type": "uint256"
            }
          ],
          "internalType": "struct Ships.TokenHarvest[]",
          "name": "",
          "type": "tuple[]"
        }
      ],
      "stateMutability": "view",
      "type": "function"
    },
    {
      "inputs": [],
      "name": "goldTokenContract",
      "outputs": [
        {
          "internalType": "contract ERC20Mintable",
          "name": "",
          "type": "address"
        }
      ],
      "stateMutability": "view",
      "type": "function"
    },
    {
      "inputs": [
        {
          "internalType": "uint256",
          "name": "tokenId",
          "type": "uint256"
        }
      ],
      "name": "harvest",
      "outputs": [],
      "stateMutability": "nonpayable",
      "type": "function"
    },
    {
      "inputs": [],
      "name": "helperContract",
      "outputs": [
        {
          "internalType": "contract ShipsHelper",
          "name": "",
          "type": "address"
        }
      ],
      "stateMutability": "view",
      "type": "function"
    },
    {
      "inputs": [
        {
          "internalType": "address",
          "name": "owner",
          "type": "address"
        },
        {
          "internalType": "address",
          "name": "operator",
          "type": "address"
        }
      ],
      "name": "isApprovedForAll",
      "outputs": [
        {
          "internalType": "bool",
          "name": "",
          "type": "bool"
        }
      ],
      "stateMutability": "view",
      "type": "function"
    },
    {
      "inputs": [
        {
          "internalType": "uint256",
          "name": "",
          "type": "uint256"
        }
      ],
      "name": "lengthMultipliers",
      "outputs": [
        {
          "internalType": "uint32",
          "name": "",
          "type": "uint32"
        }
      ],
      "stateMutability": "view",
      "type": "function"
    },
    {
      "inputs": [
        {
          "internalType": "uint256",
          "name": "tokenId",
          "type": "uint256"
        }
      ],
      "name": "mint",
      "outputs": [],
      "stateMutability": "nonpayable",
      "type": "function"
    },
    {
      "inputs": [],
      "name": "name",
      "outputs": [
        {
          "internalType": "string",
          "name": "",
          "type": "string"
        }
      ],
      "stateMutability": "view",
      "type": "function"
    },
    {
      "inputs": [
        {
          "internalType": "uint256",
          "name": "",
          "type": "uint256"
        }
      ],
      "name": "names",
      "outputs": [
        {
          "internalType": "string",
          "name": "",
          "type": "string"
        }
      ],
      "stateMutability": "view",
      "type": "function"
    },
    {
      "inputs": [],
      "name": "owner",
      "outputs": [
        {
          "internalType": "address",
          "name": "",
          "type": "address"
        }
      ],
      "stateMutability": "view",
      "type": "function"
    },
    {
      "inputs": [
        {
          "internalType": "uint256",
          "name": "tokenId",
          "type": "uint256"
        }
      ],
      "name": "ownerOf",
      "outputs": [
        {
          "internalType": "address",
          "name": "",
          "type": "address"
        }
      ],
      "stateMutability": "view",
      "type": "function"
    },
    {
      "inputs": [
        {
          "internalType": "uint256",
          "name": "tokenId",
          "type": "uint256"
        },
        {
          "components": [
            {
              "internalType": "uint8",
              "name": "name",
              "type": "uint8"
            },
            {
              "internalType": "uint8",
              "name": "expedition",
              "type": "uint8"
            },
            {
              "internalType": "uint32",
              "name": "length",
              "type": "uint32"
            },
            {
              "internalType": "uint32",
              "name": "speed",
              "type": "uint32"
            }
          ],
          "internalType": "struct Ships.Attributes",
          "name": "attr",
          "type": "tuple"
        },
        {
          "components": [
            {
              "internalType": "address",
              "name": "tokenContract",
              "type": "address"
            },
            {
              "internalType": "uint256",
              "name": "tokenId",
              "type": "uint256"
            }
          ],
          "internalType": "struct Ships.Path[]",
          "name": "route",
          "type": "tuple[]"
        }
      ],
      "name": "permissionedMint",
      "outputs": [],
      "stateMutability": "nonpayable",
      "type": "function"
    },
    {
      "inputs": [
        {
          "internalType": "uint8",
          "name": "name",
          "type": "uint8"
        }
      ],
      "name": "purchaseShip",
      "outputs": [],
      "stateMutability": "nonpayable",
      "type": "function"
    },
    {
      "inputs": [],
      "name": "renounceOwnership",
      "outputs": [],
      "stateMutability": "nonpayable",
      "type": "function"
    },
    {
      "inputs": [
        {
          "internalType": "address",
          "name": "from",
          "type": "address"
        },
        {
          "internalType": "address",
          "name": "to",
          "type": "address"
        },
        {
          "internalType": "uint256",
          "name": "tokenId",
          "type": "uint256"
        }
      ],
      "name": "safeTransferFrom",
      "outputs": [],
      "stateMutability": "nonpayable",
      "type": "function"
    },
    {
      "inputs": [
        {
          "internalType": "address",
          "name": "from",
          "type": "address"
        },
        {
          "internalType": "address",
          "name": "to",
          "type": "address"
        },
        {
          "internalType": "uint256",
          "name": "tokenId",
          "type": "uint256"
        },
        {
          "internalType": "bytes",
          "name": "_data",
          "type": "bytes"
        }
      ],
      "name": "safeTransferFrom",
      "outputs": [],
      "stateMutability": "nonpayable",
      "type": "function"
    },
    {
      "inputs": [
        {
          "internalType": "address",
          "name": "operator",
          "type": "address"
        },
        {
          "internalType": "bool",
          "name": "approved",
          "type": "bool"
        }
      ],
      "name": "setApprovalForAll",
      "outputs": [],
      "stateMutability": "nonpayable",
      "type": "function"
    },
    {
      "inputs": [
        {
          "internalType": "contract ShipsHelper",
          "name": "helperContract_",
          "type": "address"
        }
      ],
      "name": "setHelperContract",
      "outputs": [],
      "stateMutability": "nonpayable",
      "type": "function"
    },
    {
      "inputs": [
        {
          "internalType": "uint256",
          "name": "maxPurchaseLimit_",
          "type": "uint256"
        }
      ],
      "name": "setMaxPurchaseLimit",
      "outputs": [],
      "stateMutability": "nonpayable",
      "type": "function"
    },
    {
      "inputs": [
        {
          "internalType": "uint256",
          "name": "",
          "type": "uint256"
        }
      ],
      "name": "speedMultipliers",
      "outputs": [
        {
          "internalType": "uint32",
          "name": "",
          "type": "uint32"
        }
      ],
      "stateMutability": "view",
      "type": "function"
    },
    {
      "inputs": [
        {
          "internalType": "bytes4",
          "name": "interfaceId",
          "type": "bytes4"
        }
      ],
      "name": "supportsInterface",
      "outputs": [
        {
          "internalType": "bool",
          "name": "",
          "type": "bool"
        }
      ],
      "stateMutability": "view",
      "type": "function"
    },
    {
      "inputs": [],
      "name": "symbol",
      "outputs": [
        {
          "internalType": "string",
          "name": "",
          "type": "string"
        }
      ],
      "stateMutability": "view",
      "type": "function"
    },
    {
      "inputs": [
        {
          "internalType": "address",
          "name": "minter",
          "type": "address"
        },
        {
          "internalType": "bool",
          "name": "enabled",
          "type": "bool"
        }
      ],
      "name": "togglePermissionedMinter",
      "outputs": [],
      "stateMutability": "nonpayable",
      "type": "function"
    },
    {
      "inputs": [
        {
          "internalType": "uint256",
          "name": "index",
          "type": "uint256"
        }
      ],
      "name": "tokenByIndex",
      "outputs": [
        {
          "internalType": "uint256",
          "name": "",
          "type": "uint256"
        }
      ],
      "stateMutability": "view",
      "type": "function"
    },
    {
      "inputs": [
        {
          "internalType": "uint256",
          "name": "",
          "type": "uint256"
        }
      ],
      "name": "tokenIdToAttributes",
      "outputs": [
        {
          "internalType": "uint8",
          "name": "name",
          "type": "uint8"
        },
        {
          "internalType": "uint8",
          "name": "expedition",
          "type": "uint8"
        },
        {
          "internalType": "uint32",
          "name": "length",
          "type": "uint32"
        },
        {
          "internalType": "uint32",
          "name": "speed",
          "type": "uint32"
        }
      ],
      "stateMutability": "view",
      "type": "function"
    },
    {
      "inputs": [
        {
          "internalType": "uint256",
          "name": "",
          "type": "uint256"
        }
      ],
      "name": "tokenIdToLastRouteUpdate",
      "outputs": [
        {
          "internalType": "uint256",
          "name": "",
          "type": "uint256"
        }
      ],
      "stateMutability": "view",
      "type": "function"
    },
    {
      "inputs": [
        {
          "internalType": "uint256",
          "name": "",
          "type": "uint256"
        },
        {
          "internalType": "uint256",
          "name": "",
          "type": "uint256"
        }
      ],
      "name": "tokenIdToRoute",
      "outputs": [
        {
          "internalType": "address",
          "name": "tokenContract",
          "type": "address"
        },
        {
          "internalType": "uint256",
          "name": "tokenId",
          "type": "uint256"
        }
      ],
      "stateMutability": "view",
      "type": "function"
    },
    {
      "inputs": [
        {
          "internalType": "address",
          "name": "owner",
          "type": "address"
        },
        {
          "internalType": "uint256",
          "name": "index",
          "type": "uint256"
        }
      ],
      "name": "tokenOfOwnerByIndex",
      "outputs": [
        {
          "internalType": "uint256",
          "name": "",
          "type": "uint256"
        }
      ],
      "stateMutability": "view",
      "type": "function"
    },
    {
      "inputs": [
        {
          "internalType": "uint256",
          "name": "tokenId",
          "type": "uint256"
        }
      ],
      "name": "tokenURI",
      "outputs": [
        {
          "internalType": "string",
          "name": "",
          "type": "string"
        }
      ],
      "stateMutability": "view",
      "type": "function"
    },
    {
      "inputs": [],
      "name": "totalSupply",
      "outputs": [
        {
          "internalType": "uint256",
          "name": "",
          "type": "uint256"
        }
      ],
      "stateMutability": "view",
      "type": "function"
    },
    {
      "inputs": [
        {
          "internalType": "address",
          "name": "from",
          "type": "address"
        },
        {
          "internalType": "address",
          "name": "to",
          "type": "address"
        },
        {
          "internalType": "uint256",
          "name": "tokenId",
          "type": "uint256"
        }
      ],
      "name": "transferFrom",
      "outputs": [],
      "stateMutability": "nonpayable",
      "type": "function"
    },
    {
      "inputs": [
        {
          "internalType": "address",
          "name": "newOwner",
          "type": "address"
        }
      ],
      "name": "transferOwnership",
      "outputs": [],
      "stateMutability": "nonpayable",
      "type": "function"
    },
    {
      "inputs": [
        {
          "components": [
            {
              "internalType": "address",
              "name": "tokenContract",
              "type": "address"
            },
            {
              "internalType": "uint256",
              "name": "tokenId",
              "type": "uint256"
            }
          ],
          "internalType": "struct Ships.Path[]",
          "name": "route",
          "type": "tuple[]"
        },
        {
          "internalType": "uint256",
          "name": "tokenId",
          "type": "uint256"
        }
      ],
      "name": "updateRoute",
      "outputs": [],
      "stateMutability": "nonpayable",
      "type": "function"
    }
  ],
  "transactionHash": "0x70ee332f5925ecb01708065782dc29480d3bcc17937e51ad728e3a7e44b75baa",
  "args": [
    "0x044011824D5CbBb788965B11bF98dc1657407644"
  ],
  "solcInputHash": "5cbb750ae53c51ff114987cf993f8ecc",
  "bytecode": "0x60056101208181526443616e6f6560d81b61014052608090815260086101609081526704c6f6e67736869760c41b6101805260a05260076101a08181526621b634b83832b960c91b6101c05260c0526101e09081526623b0b63632b7b760c91b6102005260e052610260604052600a6102209081526926b0b716b7b316bbb0b960b11b61024052610100526200009991600b919062000306565b506040805160e081018252600660a08201818152652a3930b232b960d11b60c084015282528251808401845260088082526722bc383637b932b960c11b60208381019190915280850192909252845180860186529283526550697261746560d01b838301528385019290925283518085018552828152674d696c697461727960c01b818301526060840152835180850190945290835267111a5c1b1bdb585d60c21b9083015260808101919091526200015790600c90600562000306565b506040805160a081018252600a81526014602082015260329181019190915260286060820181905260808201526200019490600d9060056200036a565b506040805160a0810182526005808252600a6020830181905292820192909252601e606082015260286080820152620001d191600e91906200036a565b506103e8601455612710601555348015620001eb57600080fd5b5060405162003cbd38038062003cbd8339810160408190526200020e9162000510565b6040805180820182526005815264536869707360d81b6020808301918252835180850190945260048452630534849560e41b908401528151919291620002579160009162000419565b5080516200026d90600190602084019062000419565b5050506200028a62000284620002b060201b60201c565b620002b4565b601080546001600160a01b0319166001600160a01b03929092169190911790556200057d565b3390565b600a80546001600160a01b038381166001600160a01b0319831681179093556040519116919082907f8be0079c531659141344cd1fd0a4f28419497f9722a3daafe3b4186f6b6457e090600090a35050565b82805482825590600052602060002090810192821562000358579160200282015b828111156200035857825180516200034791849160209091019062000419565b509160200191906001019062000327565b506200036692915062000496565b5090565b828054828255906000526020600020906007016008900481019282156200040b5791602002820160005b83821115620003d757835183826101000a81548163ffffffff021916908360ff160217905550926020019260040160208160030104928301926001030262000394565b8015620004095782816101000a81549063ffffffff0219169055600401602081600301049283019260010302620003d7565b505b5062000366929150620004b7565b828054620004279062000540565b90600052602060002090601f0160209004810192826200044b57600085556200040b565b82601f106200046657805160ff19168380011785556200040b565b828001600101855582156200040b579182015b828111156200040b57825182559160200191906001019062000479565b8082111562000366576000620004ad8282620004ce565b5060010162000496565b5b80821115620003665760008155600101620004b8565b508054620004dc9062000540565b6000825580601f10620004ed575050565b601f0160209004906000526020600020908101906200050d9190620004b7565b50565b60006020828403121562000522578081fd5b81516001600160a01b038116811462000539578182fd5b9392505050565b600181811c908216806200055557607f821691505b602082108114156200057757634e487b7160e01b600052602260045260246000fd5b50919050565b613730806200058d6000396000f3fe608060405234801561001057600080fd5b50600436106102535760003560e01c8063521e8749116101465780639bb8e4c4116100c3578063c5639cc611610087578063c5639cc614610682578063c87b56dd14610695578063d03cea6d146106a8578063ddc63262146106bb578063e985e9c5146106ce578063f2fde38b1461070a57600080fd5b80639bb8e4c414610623578063a0712d6814610636578063a22cb46514610649578063a5dc9e1b1461065c578063b88d4fde1461066f57600080fd5b80637d7f78401161010a5780637d7f7840146105c45780638c1d808c146105e45780638da5cb5b146105f757806395d89b4114610608578063965eb54a1461061057600080fd5b8063521e87491461049a5780636352211e1461056457806370a0823114610577578063715018a61461058a5780637ae349d01461059257600080fd5b80631fcefbfc116101d457806342842e0e1161019857806342842e0e1461042657806343e4abbd1461043957806345e313aa146104615780634622ab03146104745780634f6ccce71461048757600080fd5b80631fcefbfc146103ba57806323b872dd146103cd5780632f745c59146103e0578063367668d4146103f35780633f6fc50b1461041357600080fd5b8063095ea7b31161021b578063095ea7b3146103035780631177f3791461031657806314a327501461038c578063151895551461039f57806318160ddd146103b257600080fd5b806301cc05691461025857806301ffc9a71461026d578063038053e21461029557806306fdde03146102c3578063081812fc146102d8575b600080fd5b61026b6102663660046130d2565b61071d565b005b61028061027b366004612fc3565b61087f565b60405190151581526020015b60405180910390f35b6102b56102a33660046130a2565b60136020526000908152604090205481565b60405190815260200161028c565b6102cb610890565b60405161028c9190613328565b6102eb6102e63660046130a2565b610922565b6040516001600160a01b03909116815260200161028c565b61026b610311366004612e0d565b6109aa565b61035b6103243660046130a2565b60116020526000908152604090205460ff8082169161010081049091169063ffffffff620100008204811691600160301b90041684565b6040805160ff958616815294909316602085015263ffffffff9182169284019290925216606082015260800161028c565b6102cb61039a3660046130a2565b610abb565b6102b56103ad3660046130a2565b610b67565b6008546102b5565b61026b6103c8366004612de0565b610bfb565b61026b6103db366004612d36565b610c50565b6102b56103ee366004612e0d565b610c81565b6104066104013660046130a2565b610d17565b60405161028c9190613413565b61026b6104213660046131b4565b611047565b61026b610434366004612d36565b611248565b61044c6104473660046130a2565b611263565b60405163ffffffff909116815260200161028c565b61026b61046f3660046130a2565b61129d565b6102cb6104823660046130a2565b6112cc565b6102b56104953660046130a2565b6112dc565b61051a6104a83660046130a2565b604080516080808201835260008083526020808401829052838501829052606093840182905294815260118552839020835191820184525460ff80821683526101008204169482019490945263ffffffff620100008504811693820193909352600160301b9093049091169082015290565b60405161028c9190600060808201905060ff835116825260ff6020840151166020830152604083015163ffffffff8082166040850152806060860151166060850152505092915050565b6102eb6105723660046130a2565b61137d565b6102b5610585366004612cc6565b6113f4565b61026b61147b565b6105a56105a0366004613193565b6114b1565b604080516001600160a01b03909316835260208301919091520161028c565b6105d76105d23660046130a2565b6114f7565b60405161028c91906132c8565b6102b56105f2366004612ffb565b611578565b600a546001600160a01b03166102eb565b6102cb6115af565b61044c61061e3660046130a2565b6115be565b61026b610631366004612ed4565b6115ce565b61026b6106443660046130a2565b6115da565b61026b610657366004612de0565b611710565b600f546102eb906001600160a01b031681565b61026b61067d366004612d76565b6117d5565b61026b610690366004612cc6565b61180d565b6102cb6106a33660046130a2565b611859565b6010546102eb906001600160a01b031681565b61026b6106c93660046130a2565b6118da565b6102806106dc366004612cfe565b6001600160a01b03918216600090815260056020908152604080832093909416825291909152205460ff1690565b61026b610718366004612cc6565b611b24565b3360009081526016602052604090205460ff1661078b5760405162461bcd60e51b815260206004820152602160248201527f596f7520617265206e6f742061207065726d697373696f6e6564206d696e74656044820152603960f91b60648201526084015b60405180910390fd5b61079483611bbf565b156107ed5760405162461bcd60e51b8152602060048201526024808201527f43616e2774206d696e7420746f6b656e207468617420616c72656164792065786044820152636973747360e01b6064820152608401610782565b600083815260116020908152604091829020845181549286015193860151606087015163ffffffff908116600160301b0269ffffffff000000000000199190921662010000021669ffffffffffffffff00001960ff9687166101000261ffff19909616969093169590951793909317169290921717905561087081846001611bdc565b61087a3384611d62565b505050565b600061088a82611d7c565b92915050565b60606000805461089f90613615565b80601f01602080910402602001604051908101604052809291908181526020018280546108cb90613615565b80156109185780601f106108ed57610100808354040283529160200191610918565b820191906000526020600020905b8154815290600101906020018083116108fb57829003601f168201915b5050505050905090565b600061092d82611bbf565b61098e5760405162461bcd60e51b815260206004820152602c60248201527f4552433732313a20617070726f76656420717565727920666f72206e6f6e657860448201526b34b9ba32b73a103a37b5b2b760a11b6064820152608401610782565b506000908152600460205260409020546001600160a01b031690565b60006109b58261137d565b9050806001600160a01b0316836001600160a01b03161415610a235760405162461bcd60e51b815260206004820152602160248201527f4552433732313a20617070726f76616c20746f2063757272656e74206f776e656044820152603960f91b6064820152608401610782565b336001600160a01b0382161480610a3f5750610a3f81336106dc565b610ab15760405162461bcd60e51b815260206004820152603860248201527f4552433732313a20617070726f76652063616c6c6572206973206e6f74206f7760448201527f6e6572206e6f7220617070726f76656420666f7220616c6c00000000000000006064820152608401610782565b61087a8383611da1565b600c8181548110610acb57600080fd5b906000526020600020016000915090508054610ae690613615565b80601f0160208091040260200160405190810160405280929190818152602001828054610b1290613615565b8015610b5f5780601f10610b3457610100808354040283529160200191610b5f565b820191906000526020600020905b815481529060010190602001808311610b4257829003601f168201915b505050505081565b600080610b7383610d17565b600f5460405163524eaa7b60e11b81529192506001600160a01b03169063a49d54f690610ba4908490600401613413565b60206040518083038186803b158015610bbc57600080fd5b505afa158015610bd0573d6000803e3d6000fd5b505050506040513d601f19601f82011682018060405250810190610bf491906130ba565b9392505050565b600a546001600160a01b03163314610c255760405162461bcd60e51b81526004016107829061338d565b6001600160a01b03919091166000908152601660205260409020805460ff1916911515919091179055565b610c5a3382611e0f565b610c765760405162461bcd60e51b8152600401610782906133c2565b61087a838383611ef9565b6000610c8c836113f4565b8210610cee5760405162461bcd60e51b815260206004820152602b60248201527f455243373231456e756d657261626c653a206f776e657220696e646578206f7560448201526a74206f6620626f756e647360a81b6064820152608401610782565b506001600160a01b03919091166000908152600660209081526040808320938352929052205490565b610d5c6040518060c00160405280600081526020016060815260200160608152602001600063ffffffff168152602001600063ffffffff168152602001606081525090565b610d6582611bbf565b610dbd5760405162461bcd60e51b8152602060048201526024808201527f536869702077697468207468617420746f6b656e496420646f65736e277420656044820152631e1a5cdd60e21b6064820152608401610782565b6000828152601160209081526040918290208251608081018452905460ff8082168352610100820481168385015263ffffffff620100008304811684870152600160301b9092049091166060830152835160c081019094528584528151600b8054939594850193909291909116908110610e4757634e487b7160e01b600052603260045260246000fd5b906000526020600020018054610e5c90613615565b80601f0160208091040260200160405190810160405280929190818152602001828054610e8890613615565b8015610ed55780601f10610eaa57610100808354040283529160200191610ed5565b820191906000526020600020905b815481529060010190602001808311610eb857829003601f168201915b50505050508152602001600c836020015160ff1681548110610f0757634e487b7160e01b600052603260045260246000fd5b906000526020600020018054610f1c90613615565b80601f0160208091040260200160405190810160405280929190818152602001828054610f4890613615565b8015610f955780601f10610f6a57610100808354040283529160200191610f95565b820191906000526020600020905b815481529060010190602001808311610f7857829003601f168201915b50505050508152602001826040015163ffffffff168152602001826060015163ffffffff16815260200160126000868152602001908152602001600020805480602002602001604051908101604052809291908181526020016000905b8282101561103a576000848152602090819020604080518082019091526002850290910180546001600160a01b03168252600190810154828401529083529092019101610ff2565b5050509152509392505050565b60155460145411156110af5760405162461bcd60e51b815260206004820152602b60248201527f4d6178696d756d20616d6f756e74206f6620736869707320686176652062656560448201526a1b881c1d5c98da185cd95960aa1b6064820152608401610782565b600f54604051631baf95cb60e11b815260ff831660048201526000916001600160a01b03169063375f2b969060240160006040518083038186803b1580156110f657600080fd5b505afa15801561110a573d6000803e3d6000fd5b505050506040513d6000823e601f3d908101601f191682016040526111329190810190612f17565b905060005b815181101561121d5781818151811061116057634e487b7160e01b600052603260045260246000fd5b6020026020010151600001516001600160a01b03166379cc67903384848151811061119b57634e487b7160e01b600052603260045260246000fd5b6020026020010151602001516040518363ffffffff1660e01b81526004016111d89291906001600160a01b03929092168252602082015260400190565b600060405180830381600087803b1580156111f257600080fd5b505af1158015611206573d6000803e3d6000fd5b50505050808061121590613650565b915050611137565b50600160146000828254611231919061353c565b92505081905550611244826014546120a4565b5050565b61087a838383604051806020016040528060008152506117d5565b600e818154811061127357600080fd5b9060005260206000209060089182820401919006600402915054906101000a900463ffffffff1681565b600a546001600160a01b031633146112c75760405162461bcd60e51b81526004016107829061338d565b601555565b600b8181548110610acb57600080fd5b60006112e760085490565b821061134a5760405162461bcd60e51b815260206004820152602c60248201527f455243373231456e756d657261626c653a20676c6f62616c20696e646578206f60448201526b7574206f6620626f756e647360a01b6064820152608401610782565b6008828154811061136b57634e487b7160e01b600052603260045260246000fd5b90600052602060002001549050919050565b6000818152600260205260408120546001600160a01b03168061088a5760405162461bcd60e51b815260206004820152602960248201527f4552433732313a206f776e657220717565727920666f72206e6f6e657869737460448201526832b73a103a37b5b2b760b91b6064820152608401610782565b60006001600160a01b03821661145f5760405162461bcd60e51b815260206004820152602a60248201527f4552433732313a2062616c616e636520717565727920666f7220746865207a65604482015269726f206164647265737360b01b6064820152608401610782565b506001600160a01b031660009081526003602052604090205490565b600a546001600160a01b031633146114a55760405162461bcd60e51b81526004016107829061338d565b6114af6000612565565b565b601260205281600052604060002081815481106114cd57600080fd5b6000918252602090912060029091020180546001909101546001600160a01b039091169250905082565b600f546040516301f5fde160e61b8152600481018390526060916001600160a01b031690637d7f78409060240160006040518083038186803b15801561153c57600080fd5b505afa158015611550573d6000803e3d6000fd5b505050506040513d6000823e601f3d908101601f1916820160405261088a9190810190612f17565b6000818360405160200161158c9190613328565b6040516020818303038152906040528051906020012060001c610bf4919061366b565b60606001805461089f90613615565b600d818154811061127357600080fd5b61124482826000611bdc565b6115e381611bbf565b156116305760405162461bcd60e51b815260206004820181905260248201527f536869702077697468207468617420696420616c7265616479206578697374736044820152606401610782565b6103e78111156116775760405162461bcd60e51b815260206004820152601260248201527114da1a5c081a59081a5cc81a5b9d985b1a5960721b6044820152606401610782565b60006116c882426040516020016116b1929190918252606060208301819052600190830152603760f91b6080830152604082015260a00190565b6040516020818303038152906040526103e8611578565b9050600061038482106116f9576103b682106116ee576116e960058361366b565b611704565b6116e960048361366b565b61170460038361366b565b905061087a81846120a4565b6001600160a01b0382163314156117695760405162461bcd60e51b815260206004820152601960248201527f4552433732313a20617070726f766520746f2063616c6c6572000000000000006044820152606401610782565b3360008181526005602090815260408083206001600160a01b03871680855290835292819020805460ff191686151590811790915590519081529192917f17307eab39ab6107e8899845ad3d59bd9653f200f220920489ca2b5937696c31910160405180910390a35050565b6117df3383611e0f565b6117fb5760405162461bcd60e51b8152600401610782906133c2565b611807848484846125b7565b50505050565b600a546001600160a01b031633146118375760405162461bcd60e51b81526004016107829061338d565b600f80546001600160a01b0319166001600160a01b0392909216919091179055565b600f5460405163c87b56dd60e01b8152600481018390526060916001600160a01b03169063c87b56dd9060240160006040518083038186803b15801561189e57600080fd5b505afa1580156118b2573d6000803e3d6000fd5b505050506040513d6000823e601f3d908101601f1916820160405261088a919081019061302f565b60006118e5826114f7565b6000838152601360205260408120439055909150805b8251811015611a385782818151811061192457634e487b7160e01b600052603260045260246000fd5b6020026020010151600001516001600160a01b03166340c10f196119478661137d565b85848151811061196757634e487b7160e01b600052603260045260246000fd5b6020026020010151602001516040518363ffffffff1660e01b81526004016119a49291906001600160a01b03929092168252602082015260400190565b600060405180830381600087803b1580156119be57600080fd5b505af11580156119d2573d6000803e3d6000fd5b5050505060648382815181106119f857634e487b7160e01b600052603260045260246000fd5b6020026020010151602001516006611a1091906135b3565b611a1a919061357c565b611a24908361353c565b915080611a3081613650565b9150506118fb565b50600f54604051632771008160e11b8152600481018590526000916001600160a01b031690634ee201029060240160206040518083038186803b158015611a7e57600080fd5b505afa158015611a92573d6000803e3d6000fd5b505050506040513d601f19601f82011682018060405250810190611ab69190612ce2565b6010546040516340c10f1960e01b81526001600160a01b038084166004830152602482018690529293509116906340c10f1990604401600060405180830381600087803b158015611b0657600080fd5b505af1158015611b1a573d6000803e3d6000fd5b5050505050505050565b600a546001600160a01b03163314611b4e5760405162461bcd60e51b81526004016107829061338d565b6001600160a01b038116611bb35760405162461bcd60e51b815260206004820152602660248201527f4f776e61626c653a206e6577206f776e657220697320746865207a65726f206160448201526564647265737360d01b6064820152608401610782565b611bbc81612565565b50565b6000908152600260205260409020546001600160a01b0316151590565b600f5460405163a290d5ff60e01b81526001600160a01b039091169063a290d5ff90611c1290869086903390879060040161328e565b60206040518083038186803b158015611c2a57600080fd5b505afa158015611c3e573d6000803e3d6000fd5b505050506040513d601f19601f82011682018060405250810190611c629190612fa7565b611c9e5760405162461bcd60e51b815260206004820152600d60248201526c496e76616c696420726f75746560981b6044820152606401610782565b6000828152601260205260408120611cb591612b36565b60005b8351811015611d4c5760008381526012602052604090208451859083908110611cf157634e487b7160e01b600052603260045260246000fd5b602090810291909101810151825460018082018555600094855293839020825160029092020180546001600160a01b0319166001600160a01b0390921691909117815591015191015580611d4481613650565b915050611cb8565b5050600090815260136020526040902043905550565b6112448282604051806020016040528060008152506125ea565b60006001600160e01b0319821663780e9d6360e01b148061088a575061088a8261261d565b600081815260046020526040902080546001600160a01b0319166001600160a01b0384169081179091558190611dd68261137d565b6001600160a01b03167f8c5be1e5ebec7d5bd14f71427d1e84f3dd0314c0f7b2291e5b200ac8c7c3b92560405160405180910390a45050565b6000611e1a82611bbf565b611e7b5760405162461bcd60e51b815260206004820152602c60248201527f4552433732313a206f70657261746f7220717565727920666f72206e6f6e657860448201526b34b9ba32b73a103a37b5b2b760a11b6064820152608401610782565b6000611e868361137d565b9050806001600160a01b0316846001600160a01b03161480611ec15750836001600160a01b0316611eb684610922565b6001600160a01b0316145b80611ef157506001600160a01b0380821660009081526005602090815260408083209388168352929052205460ff165b949350505050565b826001600160a01b0316611f0c8261137d565b6001600160a01b031614611f745760405162461bcd60e51b815260206004820152602960248201527f4552433732313a207472616e73666572206f6620746f6b656e2074686174206960448201526839903737ba1037bbb760b91b6064820152608401610782565b6001600160a01b038216611fd65760405162461bcd60e51b8152602060048201526024808201527f4552433732313a207472616e7366657220746f20746865207a65726f206164646044820152637265737360e01b6064820152608401610782565b611fe183838361266d565b611fec600082611da1565b6001600160a01b03831660009081526003602052604081208054600192906120159084906135d2565b90915550506001600160a01b038216600090815260036020526040812080546001929061204390849061353c565b909155505060008181526002602052604080822080546001600160a01b0319166001600160a01b0386811691821790925591518493918716917fddf252ad1be2c89b69c2b068fc378daa952ba7f163c4a11628f55a4df523b3ef91a4505050565b60408051608081018252600080825260208201819052918101829052606081019190915260ff8316815260408051602081018490528082019190915260016060820152606360f81b60808201526000906121009060a0016116b1565b905061210d60058261366b565b60ff16602083810191909152604080519182018590528181015260016060820152601b60fa1b60808201526121559060a0016040516020818303038152906040526032611578565b9050600a600e836000015160ff168154811061218157634e487b7160e01b600052603260045260246000fd5b6000918252602090912060088204015460079091166004026101000a900463ffffffff166121b083600161353c565b6121ba91906135b3565b6121c49190613590565b6121cf906002613554565b63ffffffff1660408301528151600e8054909160ff1690811061220257634e487b7160e01b600052603260045260246000fd5b90600052602060002090600891828204019190066004029054906101000a900463ffffffff1663ffffffff16826040015163ffffffff1610612248578160400151612297565b600e826000015160ff168154811061227057634e487b7160e01b600052603260045260246000fd5b90600052602060002090600891828204019190066004029054906101000a900463ffffffff165b63ffffffff166040838101919091528051602081018590528082019190915260016060820152607360f81b60808201526122e49060a0016040516020818303038152906040526064611578565b90506064600d836000015160ff168154811061231057634e487b7160e01b600052603260045260246000fd5b6000918252602090912060088204015460079091166004026101000a900463ffffffff1661233f83600161353c565b61234991906135b3565b6123539190613590565b61235e906002613554565b63ffffffff1660608301528151600d805460029260ff1690811061239257634e487b7160e01b600052603260045260246000fd5b90600052602060002090600891828204019190066004029054906101000a900463ffffffff166123c29190613590565b63ffffffff16826060015163ffffffff16106123e257816060015161243c565b6002600d836000015160ff168154811061240c57634e487b7160e01b600052603260045260246000fd5b90600052602060002090600891828204019190066004029054906101000a900463ffffffff1661243c9190613590565b63ffffffff9081166060840190815260008581526011602090815260409182902086518154928801518489015195518716600160301b0269ffffffff000000000000199690971662010000029590951669ffffffffffffffff00001960ff9687166101000261ffff199095169683169690961793909317949094169190911793909317909255600f5491516318f90b5d60e21b815261255b926001600160a01b0316916363e42d74916124ff91889160040191825260ff16602082015260400190565b60006040518083038186803b15801561251757600080fd5b505afa15801561252b573d6000803e3d6000fd5b505050506040513d6000823e601f3d908101601f191682016040526125539190810190612e38565b846001611bdc565b6118073384611d62565b600a80546001600160a01b038381166001600160a01b0319831681179093556040519116919082907f8be0079c531659141344cd1fd0a4f28419497f9722a3daafe3b4186f6b6457e090600090a35050565b6125c2848484611ef9565b6125ce84848484612678565b6118075760405162461bcd60e51b81526004016107829061333b565b6125f48383612785565b6126016000848484612678565b61087a5760405162461bcd60e51b81526004016107829061333b565b60006001600160e01b031982166380ac58cd60e01b148061264e57506001600160e01b03198216635b5e139f60e01b145b8061088a57506301ffc9a760e01b6001600160e01b031983161461088a565b61087a8383836128c4565b60006001600160a01b0384163b1561277a57604051630a85bd0160e11b81526001600160a01b0385169063150b7a02906126bc903390899088908890600401613251565b602060405180830381600087803b1580156126d657600080fd5b505af1925050508015612706575060408051601f3d908101601f1916820190925261270391810190612fdf565b60015b612760573d808015612734576040519150601f19603f3d011682016040523d82523d6000602084013e612739565b606091505b5080516127585760405162461bcd60e51b81526004016107829061333b565b805181602001fd5b6001600160e01b031916630a85bd0160e11b149050611ef1565b506001949350505050565b6001600160a01b0382166127db5760405162461bcd60e51b815260206004820181905260248201527f4552433732313a206d696e7420746f20746865207a65726f20616464726573736044820152606401610782565b6127e481611bbf565b156128315760405162461bcd60e51b815260206004820152601c60248201527f4552433732313a20746f6b656e20616c7265616479206d696e746564000000006044820152606401610782565b61283d6000838361266d565b6001600160a01b038216600090815260036020526040812080546001929061286690849061353c565b909155505060008181526002602052604080822080546001600160a01b0319166001600160a01b03861690811790915590518392907fddf252ad1be2c89b69c2b068fc378daa952ba7f163c4a11628f55a4df523b3ef908290a45050565b6001600160a01b03831661291f5761291a81600880546000838152600960205260408120829055600182018355919091527ff3f7a9fe364faab93b216da50a3214154f22a0a2b415b23a84c8169e8b636ee30155565b612942565b816001600160a01b0316836001600160a01b03161461294257612942838261297c565b6001600160a01b0382166129595761087a81612a19565b826001600160a01b0316826001600160a01b03161461087a5761087a8282612af2565b60006001612989846113f4565b61299391906135d2565b6000838152600760205260409020549091508082146129e6576001600160a01b03841660009081526006602090815260408083208584528252808320548484528184208190558352600790915290208190555b5060009182526007602090815260408084208490556001600160a01b039094168352600681528383209183525290812055565b600854600090612a2b906001906135d2565b60008381526009602052604081205460088054939450909284908110612a6157634e487b7160e01b600052603260045260246000fd5b906000526020600020015490508060088381548110612a9057634e487b7160e01b600052603260045260246000fd5b6000918252602080832090910192909255828152600990915260408082208490558582528120556008805480612ad657634e487b7160e01b600052603160045260246000fd5b6001900381819060005260206000200160009055905550505050565b6000612afd836113f4565b6001600160a01b039093166000908152600660209081526040808320868452825280832085905593825260079052919091209190915550565b5080546000825560020290600052602060002090810190611bbc91905b80821115612b785780546001600160a01b031916815560006001820155600201612b53565b5090565b600082601f830112612b8c578081fd5b81356020612ba1612b9c836134f0565b6134bf565b80838252828201915082860187848660061b8901011115612bc0578586fd5b855b85811015612c0957604080838b031215612bda578788fd5b612be2613496565b8335612bed816136c1565b8152838701358782015285529385019390910190600101612bc2565b5090979650505050505050565b600082601f830112612c26578081fd5b8135612c34612b9c82613514565b818152846020838601011115612c48578283fd5b816020850160208301379081016020019190915292915050565b600060408284031215612c73578081fd5b612c7b613496565b90508151612c88816136c1565b808252506020820151602082015292915050565b803563ffffffff81168114612cb057600080fd5b919050565b803560ff81168114612cb057600080fd5b600060208284031215612cd7578081fd5b8135610bf4816136c1565b600060208284031215612cf3578081fd5b8151610bf4816136c1565b60008060408385031215612d10578081fd5b8235612d1b816136c1565b91506020830135612d2b816136c1565b809150509250929050565b600080600060608486031215612d4a578081fd5b8335612d55816136c1565b92506020840135612d65816136c1565b929592945050506040919091013590565b60008060008060808587031215612d8b578182fd5b8435612d96816136c1565b93506020850135612da6816136c1565b925060408501359150606085013567ffffffffffffffff811115612dc8578182fd5b612dd487828801612c16565b91505092959194509250565b60008060408385031215612df2578182fd5b8235612dfd816136c1565b91506020830135612d2b816136d6565b60008060408385031215612e1f578182fd5b8235612e2a816136c1565b946020939093013593505050565b60006020808385031215612e4a578182fd5b825167ffffffffffffffff811115612e60578283fd5b8301601f81018513612e70578283fd5b8051612e7e612b9c826134f0565b80828252848201915084840188868560061b8701011115612e9d578687fd5b8694505b83851015612ec857612eb38982612c62565b83526001949094019391850191604001612ea1565b50979650505050505050565b60008060408385031215612ee6578182fd5b823567ffffffffffffffff811115612efc578283fd5b612f0885828601612b7c565b95602094909401359450505050565b60006020808385031215612f29578182fd5b825167ffffffffffffffff811115612f3f578283fd5b8301601f81018513612f4f578283fd5b8051612f5d612b9c826134f0565b80828252848201915084840188868560061b8701011115612f7c578687fd5b8694505b83851015612ec857612f928982612c62565b83526001949094019391850191604001612f80565b600060208284031215612fb8578081fd5b8151610bf4816136d6565b600060208284031215612fd4578081fd5b8135610bf4816136e4565b600060208284031215612ff0578081fd5b8151610bf4816136e4565b6000806040838503121561300d578182fd5b823567ffffffffffffffff811115613023578283fd5b612f0885828601612c16565b600060208284031215613040578081fd5b815167ffffffffffffffff811115613056578182fd5b8201601f81018413613066578182fd5b8051613074612b9c82613514565b818152856020838501011115613088578384fd5b6130998260208301602086016135e9565b95945050505050565b6000602082840312156130b3578081fd5b5035919050565b6000602082840312156130cb578081fd5b5051919050565b600080600083850360c08112156130e7578182fd5b843593506080601f19820112156130fc578182fd5b506040516080810167ffffffffffffffff8282108183111715613121576131216136ab565b8160405261313160208801612cb5565b835261313f60408801612cb5565b602084015261315060608801612c9c565b604084015261316160808801612c9c565b606084015291935060a0860135918083111561317b578384fd5b505061318986828701612b7c565b9150509250925092565b600080604083850312156131a5578182fd5b50508035926020909101359150565b6000602082840312156131c5578081fd5b610bf482612cb5565b6000815180845260208085019450808401835b8381101561321a5761320787835180516001600160a01b03168252602090810151910152565b60409690960195908201906001016131e1565b509495945050505050565b6000815180845261323d8160208601602086016135e9565b601f01601f19169290920160200192915050565b6001600160a01b038581168252841660208201526040810183905260806060820181905260009061328490830184613225565b9695505050505050565b6080815260006132a160808301876131ce565b6020830195909552506001600160a01b039290921660408301521515606090910152919050565b602080825282518282018190526000919060409081850190868401855b8281101561331b5761330b84835180516001600160a01b03168252602090810151910152565b92840192908501906001016132e5565b5091979650505050505050565b602081526000610bf46020830184613225565b60208082526032908201527f4552433732313a207472616e7366657220746f206e6f6e20455243373231526560408201527131b2b4bb32b91034b6b83632b6b2b73a32b960711b606082015260800190565b6020808252818101527f4f776e61626c653a2063616c6c6572206973206e6f7420746865206f776e6572604082015260600190565b60208082526031908201527f4552433732313a207472616e736665722063616c6c6572206973206e6f74206f6040820152701ddb995c881b9bdc88185c1c1c9bdd9959607a1b606082015260800190565b60208152815160208201526000602083015160c0604084015261343960e0840182613225565b90506040840151601f19808584030160608601526134578383613225565b92506060860151915063ffffffff80831660808701528060808801511660a08701525060a08601519150808584030160c08601525061309982826131ce565b6040805190810167ffffffffffffffff811182821017156134b9576134b96136ab565b60405290565b604051601f8201601f1916810167ffffffffffffffff811182821017156134e8576134e86136ab565b604052919050565b600067ffffffffffffffff82111561350a5761350a6136ab565b5060051b60200190565b600067ffffffffffffffff82111561352e5761352e6136ab565b50601f01601f191660200190565b6000821982111561354f5761354f61367f565b500190565b600063ffffffff8083168185168083038211156135735761357361367f565b01949350505050565b60008261358b5761358b613695565b500490565b600063ffffffff808416806135a7576135a7613695565b92169190910492915050565b60008160001904831182151516156135cd576135cd61367f565b500290565b6000828210156135e4576135e461367f565b500390565b60005b838110156136045781810151838201526020016135ec565b838111156118075750506000910152565b600181811c9082168061362957607f821691505b6020821081141561364a57634e487b7160e01b600052602260045260246000fd5b50919050565b60006000198214156136645761366461367f565b5060010190565b60008261367a5761367a613695565b500690565b634e487b7160e01b600052601160045260246000fd5b634e487b7160e01b600052601260045260246000fd5b634e487b7160e01b600052604160045260246000fd5b6001600160a01b0381168114611bbc57600080fd5b8015158114611bbc57600080fd5b6001600160e01b031981168114611bbc57600080fdfea26469706673582212208d5f7bce085eb538bea9f9b2216a0f5564078bd5d53b112e20cb518fd1b87f8f64736f6c63430008040033",
  "devdoc": {
    "kind": "dev",
    "methods": {
      "approve(address,uint256)": {
        "details": "See {IERC721-approve}."
      },
      "balanceOf(address)": {
        "details": "See {IERC721-balanceOf}."
      },
      "getApproved(uint256)": {
        "details": "See {IERC721-getApproved}."
      },
      "isApprovedForAll(address,address)": {
        "details": "See {IERC721-isApprovedForAll}."
      },
      "name()": {
        "details": "See {IERC721Metadata-name}."
      },
      "owner()": {
        "details": "Returns the address of the current owner."
      },
      "ownerOf(uint256)": {
        "details": "See {IERC721-ownerOf}."
      },
      "renounceOwnership()": {
        "details": "Leaves the contract without owner. It will not be possible to call `onlyOwner` functions anymore. Can only be called by the current owner. NOTE: Renouncing ownership will leave the contract without an owner, thereby removing any functionality that is only available to the owner."
      },
      "safeTransferFrom(address,address,uint256)": {
        "details": "See {IERC721-safeTransferFrom}."
      },
      "safeTransferFrom(address,address,uint256,bytes)": {
        "details": "See {IERC721-safeTransferFrom}."
      },
      "setApprovalForAll(address,bool)": {
        "details": "See {IERC721-setApprovalForAll}."
      },
      "symbol()": {
        "details": "See {IERC721Metadata-symbol}."
      },
      "tokenByIndex(uint256)": {
        "details": "See {IERC721Enumerable-tokenByIndex}."
      },
      "tokenOfOwnerByIndex(address,uint256)": {
        "details": "See {IERC721Enumerable-tokenOfOwnerByIndex}."
      },
      "tokenURI(uint256)": {
        "details": "See {IERC721Metadata-tokenURI}."
      },
      "totalSupply()": {
        "details": "See {IERC721Enumerable-totalSupply}."
      },
      "transferFrom(address,address,uint256)": {
        "details": "See {IERC721-transferFrom}."
      },
      "transferOwnership(address)": {
        "details": "Transfers ownership of the contract to a new account (`newOwner`). Can only be called by the current owner."
      }
    },
    "version": 1
  },
  "userdoc": {
    "kind": "user",
    "methods": {
      "getShipInfo(uint256)": {
        "notice": "Getters "
      },
      "mint(uint256)": {
        "notice": "State modifications "
      },
      "setHelperContract(address)": {
        "notice": "Setters "
      }
    },
    "version": 1
  },
  "storageLayout": {
    "storage": [
      {
        "astId": 1644,
        "contract": "contracts/Ships.sol:Ships",
        "label": "_name",
        "offset": 0,
        "slot": "0",
        "type": "t_string_storage"
      },
      {
        "astId": 1646,
        "contract": "contracts/Ships.sol:Ships",
        "label": "_symbol",
        "offset": 0,
        "slot": "1",
        "type": "t_string_storage"
      },
      {
        "astId": 1650,
        "contract": "contracts/Ships.sol:Ships",
        "label": "_owners",
        "offset": 0,
        "slot": "2",
        "type": "t_mapping(t_uint256,t_address)"
      },
      {
        "astId": 1654,
        "contract": "contracts/Ships.sol:Ships",
        "label": "_balances",
        "offset": 0,
        "slot": "3",
        "type": "t_mapping(t_address,t_uint256)"
      },
      {
        "astId": 1658,
        "contract": "contracts/Ships.sol:Ships",
        "label": "_tokenApprovals",
        "offset": 0,
        "slot": "4",
        "type": "t_mapping(t_uint256,t_address)"
      },
      {
        "astId": 1664,
        "contract": "contracts/Ships.sol:Ships",
        "label": "_operatorApprovals",
        "offset": 0,
        "slot": "5",
        "type": "t_mapping(t_address,t_mapping(t_address,t_bool))"
      },
      {
        "astId": 2613,
        "contract": "contracts/Ships.sol:Ships",
        "label": "_ownedTokens",
        "offset": 0,
        "slot": "6",
        "type": "t_mapping(t_address,t_mapping(t_uint256,t_uint256))"
      },
      {
        "astId": 2617,
        "contract": "contracts/Ships.sol:Ships",
        "label": "_ownedTokensIndex",
        "offset": 0,
        "slot": "7",
        "type": "t_mapping(t_uint256,t_uint256)"
      },
      {
        "astId": 2620,
        "contract": "contracts/Ships.sol:Ships",
        "label": "_allTokens",
        "offset": 0,
        "slot": "8",
        "type": "t_array(t_uint256)dyn_storage"
      },
      {
        "astId": 2624,
        "contract": "contracts/Ships.sol:Ships",
        "label": "_allTokensIndex",
        "offset": 0,
        "slot": "9",
        "type": "t_mapping(t_uint256,t_uint256)"
      },
      {
        "astId": 7,
        "contract": "contracts/Ships.sol:Ships",
        "label": "_owner",
        "offset": 0,
        "slot": "10",
        "type": "t_address"
      },
      {
        "astId": 8165,
        "contract": "contracts/Ships.sol:Ships",
        "label": "names",
        "offset": 0,
        "slot": "11",
        "type": "t_array(t_string_storage)dyn_storage"
      },
      {
        "astId": 8174,
        "contract": "contracts/Ships.sol:Ships",
        "label": "expeditions",
        "offset": 0,
        "slot": "12",
        "type": "t_array(t_string_storage)dyn_storage"
      },
      {
        "astId": 8183,
        "contract": "contracts/Ships.sol:Ships",
        "label": "speedMultipliers",
        "offset": 0,
        "slot": "13",
        "type": "t_array(t_uint32)dyn_storage"
      },
      {
        "astId": 8192,
        "contract": "contracts/Ships.sol:Ships",
        "label": "lengthMultipliers",
        "offset": 0,
        "slot": "14",
        "type": "t_array(t_uint32)dyn_storage"
      },
      {
        "astId": 8195,
        "contract": "contracts/Ships.sol:Ships",
        "label": "helperContract",
        "offset": 0,
        "slot": "15",
        "type": "t_contract(ShipsHelper)10497"
      },
      {
        "astId": 8198,
        "contract": "contracts/Ships.sol:Ships",
        "label": "goldTokenContract",
        "offset": 0,
        "slot": "16",
        "type": "t_contract(ERC20Mintable)4115"
      },
      {
        "astId": 8203,
        "contract": "contracts/Ships.sol:Ships",
        "label": "tokenIdToAttributes",
        "offset": 0,
        "slot": "17",
        "type": "t_mapping(t_uint256,t_struct(Attributes)8131_storage)"
      },
      {
        "astId": 8209,
        "contract": "contracts/Ships.sol:Ships",
        "label": "tokenIdToRoute",
        "offset": 0,
        "slot": "18",
        "type": "t_mapping(t_uint256,t_array(t_struct(Path)8136_storage)dyn_storage)"
      },
      {
        "astId": 8213,
        "contract": "contracts/Ships.sol:Ships",
        "label": "tokenIdToLastRouteUpdate",
        "offset": 0,
        "slot": "19",
        "type": "t_mapping(t_uint256,t_uint256)"
      },
      {
        "astId": 8216,
        "contract": "contracts/Ships.sol:Ships",
        "label": "purchasedShipsCount",
        "offset": 0,
        "slot": "20",
        "type": "t_uint256"
      },
      {
        "astId": 8219,
        "contract": "contracts/Ships.sol:Ships",
        "label": "maxPurchaseLimit",
        "offset": 0,
        "slot": "21",
        "type": "t_uint256"
      },
      {
        "astId": 8223,
        "contract": "contracts/Ships.sol:Ships",
        "label": "permissionedMinters",
        "offset": 0,
        "slot": "22",
        "type": "t_mapping(t_address,t_bool)"
      }
    ],
    "types": {
      "t_address": {
        "encoding": "inplace",
        "label": "address",
        "numberOfBytes": "20"
      },
      "t_array(t_string_storage)dyn_storage": {
        "base": "t_string_storage",
        "encoding": "dynamic_array",
        "label": "string[]",
        "numberOfBytes": "32"
      },
      "t_array(t_struct(Path)8136_storage)dyn_storage": {
        "base": "t_struct(Path)8136_storage",
        "encoding": "dynamic_array",
        "label": "struct Ships.Path[]",
        "numberOfBytes": "32"
      },
      "t_array(t_uint256)dyn_storage": {
        "base": "t_uint256",
        "encoding": "dynamic_array",
        "label": "uint256[]",
        "numberOfBytes": "32"
      },
      "t_array(t_uint32)dyn_storage": {
        "base": "t_uint32",
        "encoding": "dynamic_array",
        "label": "uint32[]",
        "numberOfBytes": "32"
      },
      "t_bool": {
        "encoding": "inplace",
        "label": "bool",
        "numberOfBytes": "1"
      },
      "t_contract(ERC20Mintable)4115": {
        "encoding": "inplace",
        "label": "contract ERC20Mintable",
        "numberOfBytes": "20"
      },
      "t_contract(ShipsHelper)10497": {
        "encoding": "inplace",
        "label": "contract ShipsHelper",
        "numberOfBytes": "20"
      },
      "t_mapping(t_address,t_bool)": {
        "encoding": "mapping",
        "key": "t_address",
        "label": "mapping(address => bool)",
        "numberOfBytes": "32",
        "value": "t_bool"
      },
      "t_mapping(t_address,t_mapping(t_address,t_bool))": {
        "encoding": "mapping",
        "key": "t_address",
        "label": "mapping(address => mapping(address => bool))",
        "numberOfBytes": "32",
        "value": "t_mapping(t_address,t_bool)"
      },
      "t_mapping(t_address,t_mapping(t_uint256,t_uint256))": {
        "encoding": "mapping",
        "key": "t_address",
        "label": "mapping(address => mapping(uint256 => uint256))",
        "numberOfBytes": "32",
        "value": "t_mapping(t_uint256,t_uint256)"
      },
      "t_mapping(t_address,t_uint256)": {
        "encoding": "mapping",
        "key": "t_address",
        "label": "mapping(address => uint256)",
        "numberOfBytes": "32",
        "value": "t_uint256"
      },
      "t_mapping(t_uint256,t_address)": {
        "encoding": "mapping",
        "key": "t_uint256",
        "label": "mapping(uint256 => address)",
        "numberOfBytes": "32",
        "value": "t_address"
      },
      "t_mapping(t_uint256,t_array(t_struct(Path)8136_storage)dyn_storage)": {
        "encoding": "mapping",
        "key": "t_uint256",
        "label": "mapping(uint256 => struct Ships.Path[])",
        "numberOfBytes": "32",
        "value": "t_array(t_struct(Path)8136_storage)dyn_storage"
      },
      "t_mapping(t_uint256,t_struct(Attributes)8131_storage)": {
        "encoding": "mapping",
        "key": "t_uint256",
        "label": "mapping(uint256 => struct Ships.Attributes)",
        "numberOfBytes": "32",
        "value": "t_struct(Attributes)8131_storage"
      },
      "t_mapping(t_uint256,t_uint256)": {
        "encoding": "mapping",
        "key": "t_uint256",
        "label": "mapping(uint256 => uint256)",
        "numberOfBytes": "32",
        "value": "t_uint256"
      },
      "t_string_storage": {
        "encoding": "bytes",
        "label": "string",
        "numberOfBytes": "32"
      },
      "t_struct(Attributes)8131_storage": {
        "encoding": "inplace",
        "label": "struct Ships.Attributes",
        "members": [
          {
            "astId": 8124,
            "contract": "contracts/Ships.sol:Ships",
            "label": "name",
            "offset": 0,
            "slot": "0",
            "type": "t_uint8"
          },
          {
            "astId": 8126,
            "contract": "contracts/Ships.sol:Ships",
            "label": "expedition",
            "offset": 1,
            "slot": "0",
            "type": "t_uint8"
          },
          {
            "astId": 8128,
            "contract": "contracts/Ships.sol:Ships",
            "label": "length",
            "offset": 2,
            "slot": "0",
            "type": "t_uint32"
          },
          {
            "astId": 8130,
            "contract": "contracts/Ships.sol:Ships",
            "label": "speed",
            "offset": 6,
            "slot": "0",
            "type": "t_uint32"
          }
        ],
        "numberOfBytes": "32"
      },
      "t_struct(Path)8136_storage": {
        "encoding": "inplace",
        "label": "struct Ships.Path",
        "members": [
          {
            "astId": 8133,
            "contract": "contracts/Ships.sol:Ships",
            "label": "tokenContract",
            "offset": 0,
            "slot": "0",
            "type": "t_address"
          },
          {
            "astId": 8135,
            "contract": "contracts/Ships.sol:Ships",
            "label": "tokenId",
            "offset": 0,
            "slot": "1",
            "type": "t_uint256"
          }
        ],
        "numberOfBytes": "64"
      },
      "t_uint256": {
        "encoding": "inplace",
        "label": "uint256",
        "numberOfBytes": "32"
      },
      "t_uint32": {
        "encoding": "inplace",
        "label": "uint32",
        "numberOfBytes": "4"
      },
      "t_uint8": {
        "encoding": "inplace",
        "label": "uint8",
        "numberOfBytes": "1"
      }
    }
  }
}